{
  "address": "0x215A290743Da5Fcdd2745B63e7038407C1fCeA17",
  "abi": [
    {
      "inputs": [
        {
          "internalType": "contract IVault",
          "name": "_vault",
          "type": "address"
        },
        {
          "internalType": "contract IInsurance",
          "name": "_insurance",
          "type": "address"
        },
        {
          "components": [
            {
              "internalType": "int256",
              "name": "minMargin",
              "type": "int256"
            },
            {
              "internalType": "int256",
              "name": "minMarginAtCreation",
              "type": "int256"
            },
            {
              "internalType": "uint256",
              "name": "minPositiveOpenNotional",
              "type": "uint256"
            },
            {
              "internalType": "uint256",
              "name": "liquidationReward",
              "type": "uint256"
            },
            {
              "internalType": "uint256",
              "name": "insuranceRatio",
              "type": "uint256"
            },
            {
              "internalType": "uint256",
              "name": "liquidationRewardInsuranceShare",
              "type": "uint256"
            },
            {
              "internalType": "uint256",
              "name": "liquidationDiscount",
              "type": "uint256"
            },
            {
              "internalType": "uint256",
              "name": "nonUACollSeizureDiscount",
              "type": "uint256"
            },
            {
              "internalType": "int256",
              "name": "uaDebtSeizureThreshold",
              "type": "int256"
            }
          ],
          "internalType": "struct IClearingHouse.ClearingHouseParams",
          "name": "_params",
          "type": "tuple"
        }
      ],
      "stateMutability": "nonpayable",
      "type": "constructor"
    },
    {
      "inputs": [],
      "name": "ClearingHouse_AmountProvidedTooLarge",
      "type": "error"
    },
    {
      "inputs": [],
      "name": "ClearingHouse_ChangePositionZeroAmount",
      "type": "error"
    },
    {
      "inputs": [],
      "name": "ClearingHouse_ClosePositionStillOpen",
      "type": "error"
    },
    {
      "inputs": [],
      "name": "ClearingHouse_ExcessiveLiquidationDiscount",
      "type": "error"
    },
    {
      "inputs": [],
      "name": "ClearingHouse_ExcessiveLiquidationRewardInsuranceShare",
      "type": "error"
    },
    {
      "inputs": [],
      "name": "ClearingHouse_ExcessivePositiveOpenNotional",
      "type": "error"
    },
    {
      "inputs": [],
      "name": "ClearingHouse_ExtendPositionInsufficientMargin",
      "type": "error"
    },
    {
      "inputs": [],
      "name": "ClearingHouse_ExtendPositionZeroAmount",
      "type": "error"
    },
    {
      "inputs": [],
      "name": "ClearingHouse_InsufficientDiffBtwLiquidationDiscountAndNonUACollSeizureDiscount",
      "type": "error"
    },
    {
      "inputs": [],
      "name": "ClearingHouse_InsufficientUaDebtSeizureThreshold",
      "type": "error"
    },
    {
      "inputs": [],
      "name": "ClearingHouse_InvalidInsuranceRatio",
      "type": "error"
    },
    {
      "inputs": [],
      "name": "ClearingHouse_InvalidLiquidationReward",
      "type": "error"
    },
    {
      "inputs": [],
      "name": "ClearingHouse_InvalidMinMargin",
      "type": "error"
    },
    {
      "inputs": [],
      "name": "ClearingHouse_InvalidMinMarginAtCreation",
      "type": "error"
    },
    {
      "inputs": [],
      "name": "ClearingHouse_LiquidateInsufficientProposedAmount",
      "type": "error"
    },
    {
      "inputs": [],
      "name": "ClearingHouse_LiquidateInvalidPosition",
      "type": "error"
    },
    {
      "inputs": [],
      "name": "ClearingHouse_LiquidateValidMargin",
      "type": "error"
    },
    {
      "inputs": [],
      "name": "ClearingHouse_LiquidationDebtSizeZero",
      "type": "error"
    },
    {
      "inputs": [],
      "name": "ClearingHouse_NegativeDustProceeds",
      "type": "error"
    },
    {
      "inputs": [],
      "name": "ClearingHouse_PerpetualMarketAlreadyAssigned",
      "type": "error"
    },
    {
      "inputs": [],
      "name": "ClearingHouse_ProvideLiquidityZeroAmount",
      "type": "error"
    },
    {
      "inputs": [],
      "name": "ClearingHouse_ReducePositionZeroAmount",
      "type": "error"
    },
    {
      "inputs": [],
      "name": "ClearingHouse_RemoveLiquidityInsufficientFunds",
      "type": "error"
    },
    {
      "inputs": [],
      "name": "ClearingHouse_SufficientUserCollateral",
      "type": "error"
    },
    {
      "inputs": [],
      "name": "ClearingHouse_UnderOpenNotionalAmountRequired",
      "type": "error"
    },
    {
      "inputs": [],
      "name": "ClearingHouse_WithdrawInsufficientMargin",
      "type": "error"
    },
    {
      "inputs": [],
      "name": "ClearingHouse_ZeroAddress",
      "type": "error"
    },
    {
      "inputs": [],
      "name": "PRBMathSD59x18__AbsInputTooSmall",
      "type": "error"
    },
    {
      "inputs": [],
      "name": "PRBMathSD59x18__MulInputTooSmall",
      "type": "error"
    },
    {
      "inputs": [
        {
          "internalType": "uint256",
          "name": "rAbs",
          "type": "uint256"
        }
      ],
      "name": "PRBMathSD59x18__MulOverflow",
      "type": "error"
    },
    {
      "inputs": [
        {
          "internalType": "uint256",
          "name": "prod1",
          "type": "uint256"
        }
      ],
      "name": "PRBMath__MulDivFixedPointOverflow",
      "type": "error"
    },
    {
      "anonymous": false,
      "inputs": [
        {
          "indexed": true,
          "internalType": "uint256",
          "name": "idx",
          "type": "uint256"
        },
        {
          "indexed": true,
          "internalType": "address",
          "name": "user",
          "type": "address"
        },
        {
          "indexed": false,
          "internalType": "enum LibPerpetual.Side",
          "name": "direction",
          "type": "uint8"
        },
        {
          "indexed": false,
          "internalType": "int256",
          "name": "addedOpenNotional",
          "type": "int256"
        },
        {
          "indexed": false,
          "internalType": "int256",
          "name": "addedPositionSize",
          "type": "int256"
        },
        {
          "indexed": false,
          "internalType": "int256",
          "name": "profit",
          "type": "int256"
        },
        {
          "indexed": false,
          "internalType": "int256",
          "name": "tradingFeesPayed",
          "type": "int256"
        },
        {
          "indexed": false,
          "internalType": "int256",
          "name": "insuranceFeesPayed",
          "type": "int256"
        },
        {
          "indexed": false,
          "internalType": "bool",
          "name": "isPositionIncreased",
          "type": "bool"
        },
        {
          "indexed": false,
          "internalType": "bool",
          "name": "isPositionClosed",
          "type": "bool"
        }
      ],
      "name": "ChangePosition",
      "type": "event"
    },
    {
      "anonymous": false,
      "inputs": [
        {
          "indexed": false,
          "internalType": "int256",
          "name": "newMinMargin",
          "type": "int256"
        },
        {
          "indexed": false,
          "internalType": "int256",
          "name": "newMinMarginAtCreation",
          "type": "int256"
        },
        {
          "indexed": false,
          "internalType": "uint256",
          "name": "newMinPositiveOpenNotional",
          "type": "uint256"
        },
        {
          "indexed": false,
          "internalType": "uint256",
          "name": "newLiquidationReward",
          "type": "uint256"
        },
        {
          "indexed": false,
          "internalType": "uint256",
          "name": "newInsuranceRatio",
          "type": "uint256"
        },
        {
          "indexed": false,
          "internalType": "uint256",
          "name": "newLiquidationRewardInsuranceShare",
          "type": "uint256"
        },
        {
          "indexed": false,
          "internalType": "uint256",
          "name": "newLiquidationDiscount",
          "type": "uint256"
        },
        {
          "indexed": false,
          "internalType": "uint256",
          "name": "nonUACollSeizureDiscount",
          "type": "uint256"
        },
        {
          "indexed": false,
          "internalType": "int256",
          "name": "uaDebtSeizureThreshold",
          "type": "int256"
        }
      ],
      "name": "ClearingHouseParametersChanged",
      "type": "event"
    },
    {
      "anonymous": false,
      "inputs": [
        {
          "indexed": true,
          "internalType": "uint256",
          "name": "idx",
          "type": "uint256"
        },
        {
          "indexed": false,
          "internalType": "int256",
          "name": "profit",
          "type": "int256"
        },
        {
          "indexed": false,
          "internalType": "int256",
          "name": "tradingFeesPayed",
          "type": "int256"
        }
      ],
      "name": "DustSold",
      "type": "event"
    },
    {
      "anonymous": false,
      "inputs": [
        {
          "indexed": true,
          "internalType": "uint256",
          "name": "idx",
          "type": "uint256"
        },
        {
          "indexed": true,
          "internalType": "address",
          "name": "liquidatee",
          "type": "address"
        },
        {
          "indexed": true,
          "internalType": "address",
          "name": "liquidator",
          "type": "address"
        },
        {
          "indexed": false,
          "internalType": "uint256",
          "name": "notional",
          "type": "uint256"
        },
        {
          "indexed": false,
          "internalType": "int256",
          "name": "profit",
          "type": "int256"
        },
        {
          "indexed": false,
          "internalType": "int256",
          "name": "tradingFeesPayed",
          "type": "int256"
        },
        {
          "indexed": false,
          "internalType": "bool",
          "name": "isTrader",
          "type": "bool"
        }
      ],
      "name": "LiquidationCall",
      "type": "event"
    },
    {
      "anonymous": false,
      "inputs": [
        {
          "indexed": true,
          "internalType": "uint256",
          "name": "idx",
          "type": "uint256"
        },
        {
          "indexed": true,
          "internalType": "address",
          "name": "liquidityProvider",
          "type": "address"
        },
        {
          "indexed": false,
          "internalType": "uint256",
          "name": "quoteAmount",
          "type": "uint256"
        },
        {
          "indexed": false,
          "internalType": "uint256",
          "name": "baseAmount",
          "type": "uint256"
        },
        {
          "indexed": false,
          "internalType": "int256",
          "name": "tradingFeesEarned",
          "type": "int256"
        }
      ],
      "name": "LiquidityProvided",
      "type": "event"
    },
    {
      "anonymous": false,
      "inputs": [
        {
          "indexed": true,
          "internalType": "uint256",
          "name": "idx",
          "type": "uint256"
        },
        {
          "indexed": true,
          "internalType": "address",
          "name": "liquidityProvider",
          "type": "address"
        },
        {
          "indexed": false,
          "internalType": "uint256",
          "name": "reductionRatio",
          "type": "uint256"
        },
        {
          "indexed": false,
          "internalType": "int256",
          "name": "profit",
          "type": "int256"
        },
        {
          "indexed": false,
          "internalType": "int256",
          "name": "tradingFeesPayed",
          "type": "int256"
        },
        {
          "indexed": false,
          "internalType": "bool",
          "name": "isPositionClosed",
          "type": "bool"
        }
      ],
      "name": "LiquidityRemoved",
      "type": "event"
    },
    {
      "anonymous": false,
      "inputs": [
        {
          "indexed": true,
          "internalType": "contract IPerpetual",
          "name": "perpetual",
          "type": "address"
        },
        {
          "indexed": false,
          "internalType": "uint256",
          "name": "numPerpetuals",
          "type": "uint256"
        }
      ],
      "name": "MarketAdded",
      "type": "event"
    },
    {
      "anonymous": false,
      "inputs": [
        {
          "indexed": false,
          "internalType": "address",
          "name": "account",
          "type": "address"
        }
      ],
      "name": "Paused",
      "type": "event"
    },
    {
      "anonymous": false,
      "inputs": [
        {
          "indexed": true,
          "internalType": "bytes32",
          "name": "role",
          "type": "bytes32"
        },
        {
          "indexed": true,
          "internalType": "bytes32",
          "name": "previousAdminRole",
          "type": "bytes32"
        },
        {
          "indexed": true,
          "internalType": "bytes32",
          "name": "newAdminRole",
          "type": "bytes32"
        }
      ],
      "name": "RoleAdminChanged",
      "type": "event"
    },
    {
      "anonymous": false,
      "inputs": [
        {
          "indexed": true,
          "internalType": "bytes32",
          "name": "role",
          "type": "bytes32"
        },
        {
          "indexed": true,
          "internalType": "address",
          "name": "account",
          "type": "address"
        },
        {
          "indexed": true,
          "internalType": "address",
          "name": "sender",
          "type": "address"
        }
      ],
      "name": "RoleGranted",
      "type": "event"
    },
    {
      "anonymous": false,
      "inputs": [
        {
          "indexed": true,
          "internalType": "bytes32",
          "name": "role",
          "type": "bytes32"
        },
        {
          "indexed": true,
          "internalType": "address",
          "name": "account",
          "type": "address"
        },
        {
          "indexed": true,
          "internalType": "address",
          "name": "sender",
          "type": "address"
        }
      ],
      "name": "RoleRevoked",
      "type": "event"
    },
    {
      "anonymous": false,
      "inputs": [
        {
          "indexed": true,
          "internalType": "address",
          "name": "liquidatee",
          "type": "address"
        },
        {
          "indexed": true,
          "internalType": "address",
          "name": "liquidator",
          "type": "address"
        }
      ],
      "name": "SeizeCollateral",
      "type": "event"
    },
    {
      "anonymous": false,
      "inputs": [
        {
          "indexed": false,
          "internalType": "contract IStakingContract",
          "name": "newStakingContract",
          "type": "address"
        }
      ],
      "name": "StakingContractChanged",
      "type": "event"
    },
    {
      "anonymous": false,
      "inputs": [
        {
          "indexed": false,
          "internalType": "address",
          "name": "account",
          "type": "address"
        }
      ],
      "name": "Unpaused",
      "type": "event"
    },
    {
      "inputs": [],
      "name": "DEFAULT_ADMIN_ROLE",
      "outputs": [
        {
          "internalType": "bytes32",
          "name": "",
          "type": "bytes32"
        }
      ],
      "stateMutability": "view",
      "type": "function"
    },
    {
      "inputs": [],
      "name": "GOVERNANCE",
      "outputs": [
        {
          "internalType": "bytes32",
          "name": "",
          "type": "bytes32"
        }
      ],
      "stateMutability": "view",
      "type": "function"
    },
    {
      "inputs": [],
      "name": "MANAGER",
      "outputs": [
        {
          "internalType": "bytes32",
          "name": "",
          "type": "bytes32"
        }
      ],
      "stateMutability": "view",
      "type": "function"
    },
    {
      "inputs": [],
      "name": "PROTOCOL_CONTRACT",
      "outputs": [
        {
          "internalType": "bytes32",
          "name": "",
          "type": "bytes32"
        }
      ],
      "stateMutability": "view",
      "type": "function"
    },
    {
      "inputs": [
        {
          "internalType": "contract IStakingContract",
          "name": "staking",
          "type": "address"
        }
      ],
      "name": "addStakingContract",
      "outputs": [],
      "stateMutability": "nonpayable",
      "type": "function"
    },
    {
      "inputs": [
        {
          "internalType": "contract IPerpetual",
          "name": "perp",
          "type": "address"
        }
      ],
      "name": "allowListPerpetual",
      "outputs": [],
      "stateMutability": "nonpayable",
      "type": "function"
    },
    {
      "inputs": [
        {
          "internalType": "uint256",
          "name": "idx",
          "type": "uint256"
        },
        {
          "internalType": "uint256",
          "name": "amount",
          "type": "uint256"
        },
        {
          "internalType": "uint256",
          "name": "minAmount",
          "type": "uint256"
        },
        {
          "internalType": "enum LibPerpetual.Side",
          "name": "direction",
          "type": "uint8"
        }
      ],
      "name": "changePosition",
      "outputs": [],
      "stateMutability": "nonpayable",
      "type": "function"
    },
    {
      "inputs": [
        {
          "internalType": "uint256",
          "name": "idx",
          "type": "uint256"
        },
        {
          "internalType": "uint256",
          "name": "proposedAmount",
          "type": "uint256"
        },
        {
          "internalType": "uint256",
          "name": "minAmount",
          "type": "uint256"
        },
        {
          "internalType": "contract IERC20Metadata",
          "name": "token",
          "type": "address"
        }
      ],
      "name": "closePositionWithdrawCollateral",
      "outputs": [],
      "stateMutability": "nonpayable",
      "type": "function"
    },
    {
      "inputs": [
        {
          "internalType": "uint256",
          "name": "amount",
          "type": "uint256"
        },
        {
          "internalType": "contract IERC20Metadata",
          "name": "token",
          "type": "address"
        }
      ],
      "name": "deposit",
      "outputs": [],
      "stateMutability": "nonpayable",
      "type": "function"
    },
    {
      "inputs": [
        {
          "internalType": "uint256",
          "name": "idx",
          "type": "uint256"
        },
        {
          "internalType": "uint256",
          "name": "collateralAmount",
          "type": "uint256"
        },
        {
          "internalType": "contract IERC20Metadata",
          "name": "token",
          "type": "address"
        },
        {
          "internalType": "uint256",
          "name": "positionAmount",
          "type": "uint256"
        },
        {
          "internalType": "enum LibPerpetual.Side",
          "name": "direction",
          "type": "uint8"
        },
        {
          "internalType": "uint256",
          "name": "minAmount",
          "type": "uint256"
        }
      ],
      "name": "extendPositionWithCollateral",
      "outputs": [],
      "stateMutability": "nonpayable",
      "type": "function"
    },
    {
      "inputs": [
        {
          "internalType": "address",
          "name": "account",
          "type": "address"
        }
      ],
      "name": "getDebtAcrossMarkets",
      "outputs": [
        {
          "internalType": "int256",
          "name": "userDebt",
          "type": "int256"
        }
      ],
      "stateMutability": "view",
      "type": "function"
    },
    {
      "inputs": [
        {
          "internalType": "address",
          "name": "account",
          "type": "address"
        },
        {
          "internalType": "int256",
          "name": "ratio",
          "type": "int256"
        }
      ],
      "name": "getFreeCollateralByRatio",
      "outputs": [
        {
          "internalType": "int256",
          "name": "freeCollateral",
          "type": "int256"
        }
      ],
      "stateMutability": "view",
      "type": "function"
    },
    {
      "inputs": [],
      "name": "getNumMarkets",
      "outputs": [
        {
          "internalType": "uint256",
          "name": "",
          "type": "uint256"
        }
      ],
      "stateMutability": "view",
      "type": "function"
    },
    {
      "inputs": [
        {
          "internalType": "address",
          "name": "account",
          "type": "address"
        }
      ],
      "name": "getPnLAcrossMarkets",
      "outputs": [
        {
          "internalType": "int256",
          "name": "unrealizedPositionPnl",
          "type": "int256"
        }
      ],
      "stateMutability": "view",
      "type": "function"
    },
    {
      "inputs": [
        {
          "internalType": "bytes32",
          "name": "role",
          "type": "bytes32"
        }
      ],
      "name": "getRoleAdmin",
      "outputs": [
        {
          "internalType": "bytes32",
          "name": "",
          "type": "bytes32"
        }
      ],
      "stateMutability": "view",
      "type": "function"
    },
    {
      "inputs": [
        {
          "internalType": "address",
          "name": "account",
          "type": "address"
        },
        {
          "internalType": "int256",
          "name": "ratio",
          "type": "int256"
        }
      ],
      "name": "getTotalMarginRequirement",
      "outputs": [
        {
          "internalType": "int256",
          "name": "requiredMargin",
          "type": "int256"
        }
      ],
      "stateMutability": "view",
      "type": "function"
    },
    {
      "inputs": [
        {
          "internalType": "bytes32",
          "name": "role",
          "type": "bytes32"
        },
        {
          "internalType": "address",
          "name": "account",
          "type": "address"
        }
      ],
      "name": "grantRole",
      "outputs": [],
      "stateMutability": "nonpayable",
      "type": "function"
    },
    {
      "inputs": [
        {
          "internalType": "bytes32",
          "name": "role",
          "type": "bytes32"
        },
        {
          "internalType": "address",
          "name": "account",
          "type": "address"
        }
      ],
      "name": "hasRole",
      "outputs": [
        {
          "internalType": "bool",
          "name": "",
          "type": "bool"
        }
      ],
      "stateMutability": "view",
      "type": "function"
    },
    {
      "inputs": [],
      "name": "insurance",
      "outputs": [
        {
          "internalType": "contract IInsurance",
          "name": "",
          "type": "address"
        }
      ],
      "stateMutability": "view",
      "type": "function"
    },
    {
      "inputs": [],
      "name": "insuranceRatio",
      "outputs": [
        {
          "internalType": "uint256",
          "name": "",
          "type": "uint256"
        }
      ],
      "stateMutability": "view",
      "type": "function"
    },
    {
      "inputs": [
        {
          "internalType": "address",
          "name": "account",
          "type": "address"
        }
      ],
      "name": "isGovernor",
      "outputs": [
        {
          "internalType": "bool",
          "name": "",
          "type": "bool"
        }
      ],
      "stateMutability": "view",
      "type": "function"
    },
    {
      "inputs": [
        {
          "internalType": "address",
          "name": "account",
          "type": "address"
        }
      ],
      "name": "isManager",
      "outputs": [
        {
          "internalType": "bool",
          "name": "",
          "type": "bool"
        }
      ],
      "stateMutability": "view",
      "type": "function"
    },
    {
      "inputs": [
        {
          "internalType": "address",
          "name": "account",
          "type": "address"
        }
      ],
      "name": "isProtocolContract",
      "outputs": [
        {
          "internalType": "bool",
          "name": "",
          "type": "bool"
        }
      ],
      "stateMutability": "view",
      "type": "function"
    },
    {
      "inputs": [
        {
          "internalType": "uint256",
          "name": "idx",
          "type": "uint256"
        },
        {
          "internalType": "address",
          "name": "liquidatee",
          "type": "address"
        },
        {
          "internalType": "uint256[2]",
          "name": "minVTokenAmounts",
          "type": "uint256[2]"
        },
        {
          "internalType": "uint256",
          "name": "proposedAmount",
          "type": "uint256"
        },
        {
          "internalType": "uint256",
          "name": "minAmount",
          "type": "uint256"
        }
      ],
      "name": "liquidateLp",
      "outputs": [],
      "stateMutability": "nonpayable",
      "type": "function"
    },
    {
      "inputs": [
        {
          "internalType": "uint256",
          "name": "idx",
          "type": "uint256"
        },
        {
          "internalType": "address",
          "name": "liquidatee",
          "type": "address"
        },
        {
          "internalType": "uint256",
          "name": "proposedAmount",
          "type": "uint256"
        },
        {
          "internalType": "uint256",
          "name": "minAmount",
          "type": "uint256"
        }
      ],
      "name": "liquidateTrader",
      "outputs": [],
      "stateMutability": "nonpayable",
      "type": "function"
    },
    {
      "inputs": [],
      "name": "liquidationDiscount",
      "outputs": [
        {
          "internalType": "uint256",
          "name": "",
          "type": "uint256"
        }
      ],
      "stateMutability": "view",
      "type": "function"
    },
    {
      "inputs": [],
      "name": "liquidationReward",
      "outputs": [
        {
          "internalType": "uint256",
          "name": "",
          "type": "uint256"
        }
      ],
      "stateMutability": "view",
      "type": "function"
    },
    {
      "inputs": [],
      "name": "liquidationRewardInsuranceShare",
      "outputs": [
        {
          "internalType": "uint256",
          "name": "",
          "type": "uint256"
        }
      ],
      "stateMutability": "view",
      "type": "function"
    },
    {
      "inputs": [],
      "name": "minMargin",
      "outputs": [
        {
          "internalType": "int256",
          "name": "",
          "type": "int256"
        }
      ],
      "stateMutability": "view",
      "type": "function"
    },
    {
      "inputs": [],
      "name": "minMarginAtCreation",
      "outputs": [
        {
          "internalType": "int256",
          "name": "",
          "type": "int256"
        }
      ],
      "stateMutability": "view",
      "type": "function"
    },
    {
      "inputs": [],
      "name": "minPositiveOpenNotional",
      "outputs": [
        {
          "internalType": "uint256",
          "name": "",
          "type": "uint256"
        }
      ],
      "stateMutability": "view",
      "type": "function"
    },
    {
      "inputs": [],
      "name": "nonUACollSeizureDiscount",
      "outputs": [
        {
          "internalType": "uint256",
          "name": "",
          "type": "uint256"
        }
      ],
      "stateMutability": "view",
      "type": "function"
    },
    {
      "inputs": [
        {
          "internalType": "uint256",
          "name": "idx",
          "type": "uint256"
        },
        {
          "internalType": "uint256",
          "name": "closeProposedAmount",
          "type": "uint256"
        },
        {
          "internalType": "uint256",
          "name": "closeMinAmount",
          "type": "uint256"
        },
        {
          "internalType": "uint256",
          "name": "openProposedAmount",
          "type": "uint256"
        },
        {
          "internalType": "uint256",
          "name": "openMinAmount",
          "type": "uint256"
        },
        {
          "internalType": "enum LibPerpetual.Side",
          "name": "direction",
          "type": "uint8"
        }
      ],
      "name": "openReversePosition",
      "outputs": [],
      "stateMutability": "nonpayable",
      "type": "function"
    },
    {
      "inputs": [],
      "name": "pause",
      "outputs": [],
      "stateMutability": "nonpayable",
      "type": "function"
    },
    {
      "inputs": [],
      "name": "paused",
      "outputs": [
        {
          "internalType": "bool",
          "name": "",
          "type": "bool"
        }
      ],
      "stateMutability": "view",
      "type": "function"
    },
    {
      "inputs": [
        {
          "internalType": "uint256",
          "name": "",
          "type": "uint256"
        }
      ],
      "name": "perpetuals",
      "outputs": [
        {
          "internalType": "contract IPerpetual",
          "name": "",
          "type": "address"
        }
      ],
      "stateMutability": "view",
      "type": "function"
    },
    {
      "inputs": [
        {
          "internalType": "uint256",
          "name": "idx",
          "type": "uint256"
        },
        {
          "internalType": "uint256[2]",
          "name": "amounts",
          "type": "uint256[2]"
        },
        {
          "internalType": "uint256",
          "name": "minLpAmount",
          "type": "uint256"
        }
      ],
      "name": "provideLiquidity",
      "outputs": [],
      "stateMutability": "nonpayable",
      "type": "function"
    },
    {
      "inputs": [
        {
          "internalType": "uint256",
          "name": "idx",
          "type": "uint256"
        },
        {
          "internalType": "uint256",
          "name": "liquidityAmountToRemove",
          "type": "uint256"
        },
        {
          "internalType": "uint256[2]",
          "name": "minVTokenAmounts",
          "type": "uint256[2]"
        },
        {
          "internalType": "uint256",
          "name": "proposedAmount",
          "type": "uint256"
        },
        {
          "internalType": "uint256",
          "name": "minAmount",
          "type": "uint256"
        }
      ],
      "name": "removeLiquidity",
      "outputs": [],
      "stateMutability": "nonpayable",
      "type": "function"
    },
    {
      "inputs": [
        {
          "internalType": "bytes32",
          "name": "role",
          "type": "bytes32"
        },
        {
          "internalType": "address",
          "name": "account",
          "type": "address"
        }
      ],
      "name": "renounceRole",
      "outputs": [],
      "stateMutability": "nonpayable",
      "type": "function"
    },
    {
      "inputs": [
        {
          "internalType": "bytes32",
          "name": "role",
          "type": "bytes32"
        },
        {
          "internalType": "address",
          "name": "account",
          "type": "address"
        }
      ],
      "name": "revokeRole",
      "outputs": [],
      "stateMutability": "nonpayable",
      "type": "function"
    },
    {
      "inputs": [
        {
          "internalType": "address",
          "name": "liquidatee",
          "type": "address"
        }
      ],
      "name": "seizeCollateral",
      "outputs": [],
      "stateMutability": "nonpayable",
      "type": "function"
    },
    {
      "inputs": [
        {
          "components": [
            {
              "internalType": "int256",
              "name": "minMargin",
              "type": "int256"
            },
            {
              "internalType": "int256",
              "name": "minMarginAtCreation",
              "type": "int256"
            },
            {
              "internalType": "uint256",
              "name": "minPositiveOpenNotional",
              "type": "uint256"
            },
            {
              "internalType": "uint256",
              "name": "liquidationReward",
              "type": "uint256"
            },
            {
              "internalType": "uint256",
              "name": "insuranceRatio",
              "type": "uint256"
            },
            {
              "internalType": "uint256",
              "name": "liquidationRewardInsuranceShare",
              "type": "uint256"
            },
            {
              "internalType": "uint256",
              "name": "liquidationDiscount",
              "type": "uint256"
            },
            {
              "internalType": "uint256",
              "name": "nonUACollSeizureDiscount",
              "type": "uint256"
            },
            {
              "internalType": "int256",
              "name": "uaDebtSeizureThreshold",
              "type": "int256"
            }
          ],
          "internalType": "struct IClearingHouse.ClearingHouseParams",
          "name": "params",
          "type": "tuple"
        }
      ],
      "name": "setParameters",
      "outputs": [],
      "stateMutability": "nonpayable",
      "type": "function"
    },
    {
      "inputs": [
        {
          "internalType": "uint256",
          "name": "idx",
          "type": "uint256"
        },
        {
          "internalType": "uint256",
          "name": "proposedAmount",
          "type": "uint256"
        },
        {
          "internalType": "uint256",
          "name": "minAmount",
          "type": "uint256"
        },
        {
          "internalType": "enum LibPerpetual.Side",
          "name": "direction",
          "type": "uint8"
        }
      ],
      "name": "settleDust",
      "outputs": [],
      "stateMutability": "nonpayable",
      "type": "function"
    },
    {
      "inputs": [],
      "name": "stakingContract",
      "outputs": [
        {
          "internalType": "contract IStakingContract",
          "name": "",
          "type": "address"
        }
      ],
      "stateMutability": "view",
      "type": "function"
    },
    {
      "inputs": [
        {
          "internalType": "bytes4",
          "name": "interfaceId",
          "type": "bytes4"
        }
      ],
      "name": "supportsInterface",
      "outputs": [
        {
          "internalType": "bool",
          "name": "",
          "type": "bool"
        }
      ],
      "stateMutability": "view",
      "type": "function"
    },
    {
      "inputs": [],
      "name": "uaDebtSeizureThreshold",
      "outputs": [
        {
          "internalType": "int256",
          "name": "",
          "type": "int256"
        }
      ],
      "stateMutability": "view",
      "type": "function"
    },
    {
      "inputs": [],
      "name": "unpause",
      "outputs": [],
      "stateMutability": "nonpayable",
      "type": "function"
    },
    {
      "inputs": [],
      "name": "updateGlobalState",
      "outputs": [],
      "stateMutability": "nonpayable",
      "type": "function"
    },
    {
      "inputs": [],
      "name": "vault",
      "outputs": [
        {
          "internalType": "contract IVault",
          "name": "",
          "type": "address"
        }
      ],
      "stateMutability": "view",
      "type": "function"
    },
    {
      "inputs": [
        {
          "internalType": "uint256",
          "name": "amount",
          "type": "uint256"
        },
        {
          "internalType": "contract IERC20Metadata",
          "name": "token",
          "type": "address"
        }
      ],
      "name": "withdraw",
      "outputs": [],
      "stateMutability": "nonpayable",
      "type": "function"
    },
    {
      "inputs": [
        {
          "internalType": "contract IERC20Metadata",
          "name": "token",
          "type": "address"
        }
      ],
      "name": "withdrawAll",
      "outputs": [],
      "stateMutability": "nonpayable",
      "type": "function"
    }
  ],
  "transactionHash": "0x9beeb1a02256347240c3daf739deb711a6dcebf5b45b0e2b75e9beb940d3854a",
  "args": [
    "0x7f52e8e5501431873082F5574AdB290AEE0fB0B4",
    "0xf91bc81450B5E6A6dDa6d9c8AF502634a90f074c",
    {
      "minMargin": "30000000000000000",
      "minMarginAtCreation": "50000000000000000",
      "minPositiveOpenNotional": "35000000000000000000",
      "liquidationReward": "15000000000000000",
      "insuranceRatio": "100000000000000000",
      "liquidationRewardInsuranceShare": "300000000000000000",
      "liquidationDiscount": "950000000000000000",
      "nonUACollSeizureDiscount": "750000000000000000",
      "uaDebtSeizureThreshold": "10000000000000000000000"
    }
  ],
  "numDeployments": 1,
  "solcInputHash": "7ff88e90c8e0ebb2dab522f6b81e8fbd",
  "bytecode": "0x60806040523480156200001157600080fd5b5060405162005716380380620057168339810160408190526200003491620008f6565b6200004f600080516020620056f683398151915233620001a8565b6200006a600080516020620056f683398151915280620001b8565b62000085600080516020620056d683398151915233620001a8565b620000af600080516020620056d6833981519152600080516020620056f6833981519152620001b8565b620000db7f416446954f84eff0318fe22d8f8b4b94c80dd2e8a751e1b3ccf9003a2a5f72dd33620001a8565b620001077f416446954f84eff0318fe22d8f8b4b94c80dd2e8a751e1b3ccf9003a2a5f72dd80620001b8565b6001805460ff191681556002556001600160a01b0383166200013c5760405163059d8acb60e01b815260040160405180910390fd5b6001600160a01b038216620001645760405163059d8acb60e01b815260040160405180910390fd5b600c80546001600160a01b038086166001600160a01b031992831617909255600d8054928516929091169190911790556200019f8162000203565b50505062000b08565b620001b4828262000509565b5050565b600082815260208190526040808220600101805490849055905190918391839186917fbd79b86ffe0ab8e8776151514217cd7cacd52c909f66475c3af44e129f0b00ff9190a4505050565b600080516020620056f68339815191526200021e81620005a9565b815166470de4df82000013806200023d575081516702c68af0bb140000125b156200025c57604051636562335d60e01b815260040160405180910390fd5b815160208301511315806200027c57506706f05b59d3b200008260200151135b156200029b57604051633a52bffd60e11b815260040160405180910390fd5b683635c9adc5dea0000082604001511115620002ca57604051636ec81ebd60e01b815260040160405180910390fd5b662386f26fc1000082606001511080620003015750620002f98260000151620005b860201b620029221760201c565b826060015110155b15620003205760405163170788e160e11b815260040160405180910390fd5b6709b6e64a8ec600008260c0015110156200034e57604051633a61b1e160e11b815260040160405180910390fd5b60c082015160e08301516200036c9067016345785d8a0000620009cc565b11156200038c57604051630a8caa0f60e11b815260040160405180910390fd5b68056bc75e2d631000008261010001511215620003bc5760405163b518654d60e01b815260040160405180910390fd5b67016345785d8a000082608001511080620003e257506706f05b59d3b200008260800151115b15620004015760405163a8203b2760e01b815260040160405180910390fd5b670de0b6b3a76400008260a0015111156200042f5760405163720daaa360e01b815260040160405180910390fd5b8151600381905560408084015160058190556060850151600681905560c0860151600981905560e0870151600a819055610100880151600b8190556080890151600781905560208a0151600481905560a08b0151600881905597517f4f6dc02684d5682659d215dce8bcc83671dacc77ffc35315f697bc5774ceca5799620004fd9990989297929692959394909391988952602089019790975260408801959095526060870193909352608086019190915260a085015260c084015260e08301526101008201526101200190565b60405180910390a15050565b6000828152602081815260408083206001600160a01b038516845290915290205460ff16620001b4576000828152602081815260408083206001600160a01b03851684529091529020805460ff19166001179055620005653390565b6001600160a01b0316816001600160a01b0316837f2f8788117e7eff1d82e926ec794901d17c78024a50270940304540a733656f0d60405160405180910390a45050565b620005b58133620005d6565b50565b6000620005d0826200067a60201b620029291760201c565b92915050565b6000828152602081815260408083206001600160a01b038516845290915290205460ff16620001b45762000620816001600160a01b03166014620006d260201b6200297f1760201c565b620006368360206200297f620006d2821b17811c565b6040516020016200064992919062000a08565b60408051601f198184030181529082905262461bcd60e51b8252620006719160040162000a81565b60405180910390fd5b600080821215620006ce5760405162461bcd60e51b815260206004820181905260248201527f53616665436173743a2076616c7565206d75737420626520706f736974697665604482015260640162000671565b5090565b60606000620006e383600262000ab6565b620006f0906002620009cc565b6001600160401b038111156200070a576200070a620008a8565b6040519080825280601f01601f19166020018201604052801562000735576020820181803683370190505b509050600360fc1b8160008151811062000753576200075362000ad8565b60200101906001600160f81b031916908160001a905350600f60fb1b8160018151811062000785576200078562000ad8565b60200101906001600160f81b031916908160001a9053506000620007ab84600262000ab6565b620007b8906001620009cc565b90505b60018111156200083a576f181899199a1a9b1b9c1cb0b131b232b360811b85600f1660108110620007f057620007f062000ad8565b1a60f81b82828151811062000809576200080962000ad8565b60200101906001600160f81b031916908160001a90535060049490941c93620008328162000aee565b9050620007bb565b5083156200088b5760405162461bcd60e51b815260206004820181905260248201527f537472696e67733a20686578206c656e67746820696e73756666696369656e74604482015260640162000671565b9392505050565b6001600160a01b0381168114620005b557600080fd5b634e487b7160e01b600052604160045260246000fd5b60405161012081016001600160401b0381118282101715620008f057634e487b7160e01b600052604160045260246000fd5b60405290565b60008060008385036101608112156200090e57600080fd5b84516200091b8162000892565b60208601519094506200092e8162000892565b9250610120603f1982018113156200094557600080fd5b6200094f620008be565b915060408601518252606086015160208301526080860151604083015260a0860151606083015260c0860151608083015260e086015160a08301526101008087015160c08401528187015160e0840152610140870151818401525050809150509250925092565b634e487b7160e01b600052601160045260246000fd5b80820180821115620005d057620005d0620009b6565b60005b83811015620009ff578181015183820152602001620009e5565b50506000910152565b7f416363657373436f6e74726f6c3a206163636f756e742000000000000000000081526000835162000a42816017850160208801620009e2565b7001034b99036b4b9b9b4b733903937b6329607d1b601791840191820152835162000a75816028840160208801620009e2565b01602801949350505050565b602081526000825180602084015262000aa2816040850160208701620009e2565b601f01601f19169190910160400192915050565b600081600019048311821515161562000ad35762000ad3620009b6565b500290565b634e487b7160e01b600052603260045260246000fd5b60008162000b005762000b00620009b6565b506000190190565b614bbe8062000b186000396000f3fe608060405234801561001057600080fd5b50600436106103405760003560e01c80638053fcbe116101bd578063b339b368116100f9578063f3ae2415116100a2578063f8c808b21161007c578063f8c808b2146106e1578063fa09e630146106e9578063fbfa77cf146106fc578063fe45fe171461070f57600080fd5b8063f3ae2415146106bc578063f48cba7c146106cf578063f609ce1b146106d857600080fd5b8063e43581b8116100d3578063e43581b814610683578063ee99205c14610696578063f0dc2c20146106a957600080fd5b8063b339b36814610654578063bba52a1e1461065d578063d547741f1461067057600080fd5b806391d1485411610166578063a217fddf11610140578063a217fddf1461061d578063a9753e6514610625578063adf1ab9b1461062e578063af327c771461064157600080fd5b806391d14854146105c05780639feb2c45146105f7578063a1ac05e11461060a57600080fd5b806384f6721b1161019757806384f6721b1461059157806389cf32041461059a5780639039c639146105ad57600080fd5b80638053fcbe1461056d57806381be72ab146105765780638456cb591461058957600080fd5b806336568abe1161028c578063570ca7f2116102355780635c975abb1161020f5780635c975abb146105335780636e553f651461053e5780637d5d9535146105515780637ef8a2d31461055a57600080fd5b8063570ca7f2146104ec57806359a1ecaa146104f557806359f77e2d1461052057600080fd5b80633f4ba83a116102665780633f4ba83a146104be5780634cd74c8f146104c6578063545fb6c1146104d957600080fd5b806336568abe1461048f57806339c294be146104a25780633b8d9342146104ab57600080fd5b80631b2df850116102ee578063248a9ca3116102c8578063248a9ca314610451578063295c39a5146104745780632f2ff15d1461047c57600080fd5b80631b2df850146104045780631d48cd961461042b5780632046cc2e1461043e57600080fd5b8063146278341161031f57806314627834146103b757806318994a87146103de5780631aa05345146103f157600080fd5b8062f714ce1461034557806301ffc9a71461035a5780630d80aa9614610382575b600080fd5b6103586103533660046142ba565b610722565b005b61036d6103683660046142ea565b61083b565b60405190151581526020015b60405180910390f35b6103a97f416446954f84eff0318fe22d8f8b4b94c80dd2e8a751e1b3ccf9003a2a5f72dd81565b604051908152602001610379565b6103a97f35a7846a2a701fff6f9d61a46ebff5da578c5dcee8bdf361c569f9ea4ee6477181565b6103a96103ec36600461432c565b6108d4565b6103586103ff36600461436c565b610928565b6103a97faf290d8680820aad922855f39b306097b20e28774d6c1ad35a20325630c3a02c81565b6103586104393660046143bd565b610a69565b61035861044c3660046143da565b610bfa565b6103a961045f36600461441b565b60009081526020819052604090206001015490565b600f546103a9565b61035861048a3660046142ba565b610df3565b61035861049d3660046142ba565b610e1d565b6103a960035481565b6103586104b9366004614445565b610ea9565b6103586110c9565b6103a96104d436600461432c565b6110fe565b6103586104e7366004614496565b61111e565b6103a960045481565b61050861050336600461441b565b611334565b6040516001600160a01b039091168152602001610379565b61035861052e3660046144d5565b61135e565b60015460ff1661036d565b61035861054c3660046142ba565b6113d1565b6103a960075481565b6103a96105683660046143bd565b611438565b6103a960095481565b610358610584366004614496565b6115c4565b610358611638565b6103a9600a5481565b600d54610508906001600160a01b031681565b6103586105bb36600461452f565b61166a565b61036d6105ce3660046142ba565b6000918252602082815260408084206001600160a01b0393909316845291905290205460ff1690565b61036d6106053660046143bd565b6116dc565b610358610618366004614565565b61171c565b6103a9600081565b6103a960055481565b6103a961063c3660046143bd565b611a39565b61035861064f366004614595565b611b09565b6103a960065481565b61035861066b366004614620565b611d0e565b61035861067e3660046142ba565b6120e5565b61036d6106913660046143bd565b61210a565b600e54610508906001600160a01b031681565b6103586106b73660046143bd565b61214a565b61036d6106ca3660046143bd565b61221a565b6103a960085481565b6103a9600b5481565b61035861225a565b6103586106f73660046143bd565b6123a9565b600c54610508906001600160a01b031681565b61035861071d3660046143bd565b6124b5565b60028054036107785760405162461bcd60e51b815260206004820152601f60248201527f5265656e7472616e637947756172643a207265656e7472616e742063616c6c0060448201526064015b60405180910390fd5b60028055610784612baf565b600c546040517f69328dec000000000000000000000000000000000000000000000000000000008152336004820152602481018490526001600160a01b038381166044830152909116906369328dec90606401600060405180830381600087803b1580156107f157600080fd5b505af1158015610805573d6000803e3d6000fd5b5050505061081533600454612c04565b6108325760405163b28c857b60e01b815260040160405180910390fd5b50506001600255565b60007fffffffff0000000000000000000000000000000000000000000000000000000082167f7965db0b0000000000000000000000000000000000000000000000000000000014806108ce57507f01ffc9a7000000000000000000000000000000000000000000000000000000007fffffffff000000000000000000000000000000000000000000000000000000008316145b92915050565b6000806108e084611a39565b905060006108ef856001612c1a565b905060006108fd86866110fe565b90508061091461090d85856146b1565b8490612cab565b61091e91906146d9565b9695505050505050565b60028054036109795760405162461bcd60e51b815260206004820152601f60248201527f5265656e7472616e637947756172643a207265656e7472616e742063616c6c00604482015260640161076f565b60028055610985612baf565b61099186868684612cb7565b600f86815481106109a4576109a4614700565b600091825260209091200154604051635216b30160e11b81523360048201526001600160a01b039091169063a42d660290602401602060405180830381865afa1580156109f5573d6000803e3d6000fd5b505050506040513d601f19601f82011682018060405250810190610a199190614726565b15610a50576040517f8b36f9c000000000000000000000000000000000000000000000000000000000815260040160405180910390fd5b610a5c86848484612cb7565b5050600160025550505050565b7f35a7846a2a701fff6f9d61a46ebff5da578c5dcee8bdf361c569f9ea4ee64771610a9381613017565b6001600160a01b038216610ad3576040517f059d8acb00000000000000000000000000000000000000000000000000000000815260040160405180910390fd5b60005b600f54811015610b5b57826001600160a01b0316600f8281548110610afd57610afd614700565b6000918252602090912001546001600160a01b031603610b49576040517f039684cd00000000000000000000000000000000000000000000000000000000815260040160405180910390fd5b80610b5381614741565b915050610ad6565b50600f805460018101825560008290527f8d1108e10bcb7c27dddfc02ed9d693a074039d026cf4ea4240b40f7d581ac8020180547fffffffffffffffffffffffff0000000000000000000000000000000000000000166001600160a01b03851690811790915590546040519081527fa64754291535175942be6f35fba8deab36d97ea608b17d06cc5efb985e17215f9060200160405180910390a25050565b6002805403610c4b5760405162461bcd60e51b815260206004820152601f60248201527f5265656e7472616e637947756172643a207265656e7472616e742063616c6c00604482015260640161076f565b60028055610c57612baf565b6000610c638533613021565b60200151600f0b90506000808213610c7c576000610c7f565b60015b9050610c8d86868684612cb7565b600f8681548110610ca057610ca0614700565b600091825260209091200154604051635216b30160e11b81523360048201526001600160a01b039091169063a42d660290602401602060405180830381865afa158015610cf1573d6000803e3d6000fd5b505050506040513d601f19601f82011682018060405250810190610d159190614726565b15610d4c576040517f8b36f9c000000000000000000000000000000000000000000000000000000000815260040160405180910390fd5b600c546040517f09cae2c80000000000000000000000000000000000000000000000000000000081523360048201526001600160a01b038581166024830152909116906309cae2c890604401600060405180830381600087803b158015610db257600080fd5b505af1158015610dc6573d6000803e3d6000fd5b50505050610dd633600454612c04565b610a5c5760405163b28c857b60e01b815260040160405180910390fd5b600082815260208190526040902060010154610e0e81613017565b610e1883836130e1565b505050565b6001600160a01b0381163314610e9b5760405162461bcd60e51b815260206004820152602f60248201527f416363657373436f6e74726f6c3a2063616e206f6e6c792072656e6f756e636560448201527f20726f6c657320666f722073656c660000000000000000000000000000000000606482015260840161076f565b610ea5828261317f565b5050565b6002805403610efa5760405162461bcd60e51b815260206004820152601f60248201527f5265656e7472616e637947756172643a207265656e7472616e742063616c6c00604482015260640161076f565b60028055610f06612baf565b33610f10856131fe565b600f8681548110610f2357610f23614700565b6000918252602090912001546040517f9d36b7590000000000000000000000000000000000000000000000000000000081526001600160a01b03878116600483015290911690639d36b75990602401602060405180830381865afa158015610f8f573d6000803e3d6000fd5b505050506040513d601f19601f82011682018060405250810190610fb39190614726565b610fe9576040517f52efa2c600000000000000000000000000000000000000000000000000000000815260040160405180910390fd5b610ff585600354612c04565b1561102c576040517f713f9b1200000000000000000000000000000000000000000000000000000000815260040160405180910390fd5b600080600061103e8989898989613494565b9250925092506000611052858a868561356e565b9050846001600160a01b0316896001600160a01b03168b7f05993ce14f7a60b5f41792bbc8437d898e3f9715e0ddc6bc8f02281bf211125561109386612922565b604080519182526020820187905281018890526000606082015260800160405180910390a4505060016002555050505050505050565b7faf290d8680820aad922855f39b306097b20e28774d6c1ad35a20325630c3a02c6110f381613017565b6110fb61373e565b50565b60008061110a84611438565b90506111168184613790565b949350505050565b600280540361116f5760405162461bcd60e51b815260206004820152601f60248201527f5265656e7472616e637947756172643a207265656e7472616e742063616c6c00604482015260640161076f565b600280557faf290d8680820aad922855f39b306097b20e28774d6c1ad35a20325630c3a02c61119d81613017565b6111a6306131fe565b600080600f87815481106111bc576111bc614700565b60009182526020822001546040516394b661e960e01b81526001600160a01b03909116916394b661e9916111fb9130918b918b918b919060040161477d565b60c0604051808303816000875af115801561121a573d6000803e3d6000fd5b505050506040513d601f19601f8201168201806040525081019061123e91906147ba565b50509350935050506000821215611281576040517f426a2d5c00000000000000000000000000000000000000000000000000000000815260040160405180910390fd5b600d546001600160a01b03166352ac183b61129b84612922565b6040518263ffffffff1660e01b81526004016112b991815260200190565b600060405180830381600087803b1580156112d357600080fd5b505af11580156112e7573d6000803e3d6000fd5b505060408051858152602081018590528a93507f4686c7bc17b7941e80710e358e6e2d2c9843418ead5f89e14c17ffc1ed0158c192500160405180910390a2505060016002555050505050565b600f818154811061134457600080fd5b6000918252602090912001546001600160a01b0316905081565b60028054036113af5760405162461bcd60e51b815260206004820152601f60248201527f5265656e7472616e637947756172643a207265656e7472616e742063616c6c00604482015260640161076f565b600280556113bb612baf565b6113c5858561379c565b610a5c86848385612cb7565b60028054036114225760405162461bcd60e51b815260206004820152601f60248201527f5265656e7472616e637947756172643a207265656e7472616e742063616c6c00604482015260640161076f565b6002805561142e612baf565b610832828261379c565b600080611444600f5490565b905060005b818110156115bd576000600f828154811061146657611466614700565b60009182526020918290200154604080517f632b6b1100000000000000000000000000000000000000000000000000000000815290516001600160a01b039092169263632b6b11926004808401938290030181865afa1580156114cd573d6000803e3d6000fd5b505050506040513d601f19601f820116820180604052508101906114f19190614806565b90506115a86114ff82613826565b600f848154811061151257611512614700565b6000918252602090912001546040517fe65896c90000000000000000000000000000000000000000000000000000000081526001600160a01b0389811660048301529091169063e65896c990602401602060405180830381865afa15801561157e573d6000803e3d6000fd5b505050506040513d601f19601f820116820180604052508101906115a29190614806565b90613790565b6115b290856146b1565b935050600101611449565b5050919050565b60028054036116155760405162461bcd60e51b815260206004820152601f60248201527f5265656e7472616e637947756172643a207265656e7472616e742063616c6c00604482015260640161076f565b60028055611621612baf565b61162d84848484612cb7565b505060016002555050565b7faf290d8680820aad922855f39b306097b20e28774d6c1ad35a20325630c3a02c61166281613017565b6110fb613831565b60028054036116bb5760405162461bcd60e51b815260206004820152601f60248201527f5265656e7472616e637947756172643a207265656e7472616e742063616c6c00604482015260640161076f565b600280556116c7612baf565b6116d283838361386c565b5050600160025550565b6001600160a01b03811660009081527f2a44416f361f8e49a83fe9bab49cc0b52eda37ffb2f4186f605cad98e765342a602052604081205460ff166108ce565b600280540361176d5760405162461bcd60e51b815260206004820152601f60248201527f5265656e7472616e637947756172643a207265656e7472616e742063616c6c00604482015260640161076f565b60028055611779612baf565b611782336131fe565b6000806000806000600f8a8154811061179d5761179d614700565b60009182526020822001546040517f8fa1967c0000000000000000000000000000000000000000000000000000000081526001600160a01b0390911691638fa1967c916117f69133918e918e918e918e9160040161481f565b60a0604051808303816000875af1158015611815573d6000803e3d6000fd5b505050506040513d601f19601f82011682018060405250810190611839919061485c565b9450945094509450945060006118ef600f8c8154811061185b5761185b614700565b60009182526020918290200154604080517f97c4fac700000000000000000000000000000000000000000000000000000000815290516001600160a01b03909216926397c4fac7926004808401938290030181865afa1580156118c2573d6000803e3d6000fd5b505050506040513d601f19601f820116820180604052508101906118e69190614806565b6115a285613b66565b600d549091506001600160a01b03166352ac183b61190c83612922565b6040518263ffffffff1660e01b815260040161192a91815260200190565b600060405180830381600087803b15801561194457600080fd5b505af1158015611958573d6000803e3d6000fd5b50505050808661196891906146d9565b600c546040516362990d2f60e01b8152336004820152602481018390529197506001600160a01b0316906362990d2f90604401600060405180830381600087803b1580156119b557600080fd5b505af11580156119c9573d6000803e3d6000fd5b505050506119d98b336000613b71565b506040805185815260208101889052908101869052821515606082015233908c907f4f6f0ef67b0ccf892603f6c61fad819c4005b92287665a4b5b02caeabfd935029060800160405180910390a350506001600255505050505050505050565b600080611a45600f5490565b905060005b818110156115bd57600f8181548110611a6557611a65614700565b6000918252602090912001546040517fe873557a0000000000000000000000000000000000000000000000000000000081526001600160a01b0386811660048301529091169063e873557a90602401602060405180830381865afa158015611ad1573d6000803e3d6000fd5b505050506040513d601f19601f82011682018060405250810190611af59190614806565b611aff90846146b1565b9250600101611a4a565b6002805403611b5a5760405162461bcd60e51b815260206004820152601f60248201527f5265656e7472616e637947756172643a207265656e7472616e742063616c6c00604482015260640161076f565b60028055611b66612baf565b33611b70846131fe565b600f8581548110611b8357611b83614700565b600091825260209091200154604051635216b30160e11b81526001600160a01b0386811660048301529091169063a42d660290602401602060405180830381865afa158015611bd6573d6000803e3d6000fd5b505050506040513d601f19601f82011682018060405250810190611bfa9190614726565b611c30576040517f52efa2c600000000000000000000000000000000000000000000000000000000815260040160405180910390fd5b611c3c84600354612c04565b15611c73576040517f713f9b1200000000000000000000000000000000000000000000000000000000815260040160405180910390fd5b6000806000611c8488888888613bce565b9250925092506000611c988589868561356e565b9050846001600160a01b0316886001600160a01b03168a7f05993ce14f7a60b5f41792bbc8437d898e3f9715e0ddc6bc8f02281bf2111255611cd986612922565b604080519182526020820187905281018890526001606082015260800160405180910390a45050600160025550505050505050565b7f35a7846a2a701fff6f9d61a46ebff5da578c5dcee8bdf361c569f9ea4ee64771611d3881613017565b815166470de4df8200001380611d56575081516702c68af0bb140000125b15611d8d576040517f6562335d00000000000000000000000000000000000000000000000000000000815260040160405180910390fd5b81516020830151131580611dac57506706f05b59d3b200008260200151135b15611de3576040517f74a57ffa00000000000000000000000000000000000000000000000000000000815260040160405180910390fd5b683635c9adc5dea0000082604001511115611e2a576040517f6ec81ebd00000000000000000000000000000000000000000000000000000000815260040160405180910390fd5b662386f26fc1000082606001511080611e5157508151611e4990612922565b826060015110155b15611e88576040517f2e0f11c200000000000000000000000000000000000000000000000000000000815260040160405180910390fd5b6709b6e64a8ec600008260c001511015611ece576040517f74c363c200000000000000000000000000000000000000000000000000000000815260040160405180910390fd5b60c082015160e0830151611eea9067016345785d8a00006148a5565b1115611f22576040517f1519541e00000000000000000000000000000000000000000000000000000000815260040160405180910390fd5b68056bc75e2d631000008261010001511215611f6a576040517fb518654d00000000000000000000000000000000000000000000000000000000815260040160405180910390fd5b67016345785d8a000082608001511080611f8f57506706f05b59d3b200008260800151115b15611fc6576040517fa8203b2700000000000000000000000000000000000000000000000000000000815260040160405180910390fd5b670de0b6b3a76400008260a00151111561200c576040517f720daaa300000000000000000000000000000000000000000000000000000000815260040160405180910390fd5b8151600381905560408084015160058190556060850151600681905560c0860151600981905560e0870151600a819055610100880151600b8190556080890151600781905560208a0151600481905560a08b0151600881905597517f4f6dc02684d5682659d215dce8bcc83671dacc77ffc35315f697bc5774ceca57996120d99990989297929692959394909391988952602089019790975260408801959095526060870193909352608086019190915260a085015260c084015260e08301526101008201526101200190565b60405180910390a15050565b60008281526020819052604090206001015461210081613017565b610e18838361317f565b6001600160a01b03811660009081527f07e5daa527f8ed122c1f9491c56fb5cc2a6633e25a54f8cf579244e9c7000932602052604081205460ff166108ce565b7f35a7846a2a701fff6f9d61a46ebff5da578c5dcee8bdf361c569f9ea4ee6477161217481613017565b6001600160a01b0382166121b4576040517f059d8acb00000000000000000000000000000000000000000000000000000000815260040160405180910390fd5b600e80547fffffffffffffffffffffffff0000000000000000000000000000000000000000166001600160a01b0384169081179091556040519081527f37f339b442273d59b9ccb58c1ed2c06e695bd9b0a68db21495afb7fc86de692c906020016120d9565b6001600160a01b03811660009081527f511473bfc0317b2ecebc3e7070288e5dde2957151ef598d1c2d01ac136128f32602052604081205460ff166108ce565b6000612265600f5490565b905060005b81811015610ea557600f818154811061228557612285614700565b60009182526020918290200154604080517f5c975abb00000000000000000000000000000000000000000000000000000000815290516001600160a01b0390921692635c975abb926004808401938290030181865afa1580156122ec573d6000803e3d6000fd5b505050506040513d601f19601f820116820180604052508101906123109190614726565b6123a157600f818154811061232757612327614700565b6000918252602082200154604080517ff8c808b200000000000000000000000000000000000000000000000000000000815290516001600160a01b039092169263f8c808b29260048084019382900301818387803b15801561238857600080fd5b505af115801561239c573d6000803e3d6000fd5b505050505b60010161226a565b60028054036123fa5760405162461bcd60e51b815260206004820152601f60248201527f5265656e7472616e637947756172643a207265656e7472616e742063616c6c00604482015260640161076f565b60028055612406612baf565b600c546040517f09cae2c80000000000000000000000000000000000000000000000000000000081523360048201526001600160a01b038381166024830152909116906309cae2c890604401600060405180830381600087803b15801561246c57600080fd5b505af1158015612480573d6000803e3d6000fd5b5050505061249033600454612c04565b6124ad5760405163b28c857b60e01b815260040160405180910390fd5b506001600255565b60028054036125065760405162461bcd60e51b815260206004820152601f60248201527f5265656e7472616e637947756172643a207265656e7472616e742063616c6c00604482015260640161076f565b60028055612512612baf565b3360008061251f600f5490565b905060005b8181101561267557600f818154811061253f5761253f614700565b600091825260209091200154604051635216b30160e11b81526001600160a01b0387811660048301529091169063a42d660290602401602060405180830381865afa158015612592573d6000803e3d6000fd5b505050506040513d601f19601f820116820180604052508101906125b69190614726565b8061265f5750600f81815481106125cf576125cf614700565b6000918252602090912001546040517f9d36b7590000000000000000000000000000000000000000000000000000000081526001600160a01b03878116600483015290911690639d36b75990602401602060405180830381865afa15801561263b573d6000803e3d6000fd5b505050506040513d601f19601f8201168201806040525081019061265f9190614726565b1561266d5760019250612675565b600101612524565b50600c546040517f2b04e8400000000000000000000000000000000000000000000000000000000081526001600160a01b038681166004830152600060248301819052921690632b04e84090604401602060405180830381865afa1580156126e1573d6000803e3d6000fd5b505050506040513d601f19601f820116820180604052508101906127059190614806565b600c546040517f29122eb00000000000000000000000000000000000000000000000000000000081526001600160a01b03888116600483015260016024830152929350600092909116906329122eb090604401602060405180830381865afa158015612775573d6000803e3d6000fd5b505050506040513d601f19601f820116820180604052508101906127999190614806565b905060006127a783836146d9565b9050600083126127e3576040517f893cde2600000000000000000000000000000000000000000000000000000000815260040160405180910390fd5b6127f86127f1600a54613826565b8290613790565b612801846148b8565b13801561280c575084155b806128205750600b5461281e846148b8565b135b156128e257600c546040517f586b4ecc0000000000000000000000000000000000000000000000000000000081526001600160a01b03888116600483015289811660248301529091169063586b4ecc90604401600060405180830381600087803b15801561288d57600080fd5b505af11580156128a1573d6000803e3d6000fd5b50506040516001600160a01b03808a1693508a1691507fe3bf82689d5393dcc1c3be2e48e2279199f8bf891f818b717e30a42622f3be0c90600090a3612914565b6040517ff04aeccb00000000000000000000000000000000000000000000000000000000815260040160405180910390fd5b505060016002555050505050565b60006108ce825b60008082121561297b5760405162461bcd60e51b815260206004820181905260248201527f53616665436173743a2076616c7565206d75737420626520706f736974697665604482015260640161076f565b5090565b6060600061298e8360026148cd565b6129999060026148a5565b67ffffffffffffffff8111156129b1576129b16145d2565b6040519080825280601f01601f1916602001820160405280156129db576020820181803683370190505b5090507f300000000000000000000000000000000000000000000000000000000000000081600081518110612a1257612a12614700565b60200101907effffffffffffffffffffffffffffffffffffffffffffffffffffffffffffff1916908160001a9053507f780000000000000000000000000000000000000000000000000000000000000081600181518110612a7557612a75614700565b60200101907effffffffffffffffffffffffffffffffffffffffffffffffffffffffffffff1916908160001a9053506000612ab18460026148cd565b612abc9060016148a5565b90505b6001811115612b59577f303132333435363738396162636465660000000000000000000000000000000085600f1660108110612afd57612afd614700565b1a60f81b828281518110612b1357612b13614700565b60200101907effffffffffffffffffffffffffffffffffffffffffffffffffffffffffffff1916908160001a90535060049490941c93612b52816148ec565b9050612abf565b508315612ba85760405162461bcd60e51b815260206004820181905260248201527f537472696e67733a20686578206c656e67746820696e73756666696369656e74604482015260640161076f565b9392505050565b60015460ff1615612c025760405162461bcd60e51b815260206004820152601060248201527f5061757361626c653a2070617573656400000000000000000000000000000000604482015260640161076f565b565b600080612c1184846108d4565b12159392505050565b600c546040517f29122eb00000000000000000000000000000000000000000000000000000000081526001600160a01b038481166004830152831515602483015260009216906329122eb0906044015b602060405180830381865afa158015612c87573d6000803e3d6000fd5b505050506040513d601f19601f82011682018060405250810190612ba89190614806565b6000612ba88383613d81565b82600003612cf1576040517f21d7db4300000000000000000000000000000000000000000000000000000000815260040160405180910390fd5b612cfa336131fe565b600080600080600080600f8a81548110612d1657612d16614700565b60009182526020822001546040516394b661e960e01b81526001600160a01b03909116916394b661e991612d559133918e918e918e919060040161477d565b60c0604051808303816000875af1158015612d74573d6000803e3d6000fd5b505050506040513d601f19601f82011682018060405250810190612d9891906147ba565b95509550955095509550955060008215612ec457612e56600f8c81548110612dc257612dc2614700565b60009182526020918290200154604080517f97c4fac700000000000000000000000000000000000000000000000000000000815290516001600160a01b03909216926397c4fac7926004808401938290030181865afa158015612e29573d6000803e3d6000fd5b505050506040513d601f19601f82011682018060405250810190612e4d9190614806565b6115a289613b66565b600d549091506001600160a01b03166352ac183b612e7383612922565b6040518263ffffffff1660e01b8152600401612e9191815260200190565b600060405180830381600087803b158015612eab57600080fd5b505af1158015612ebf573d6000803e3d6000fd5b505050505b6000612ed082876146d9565b600c546040516362990d2f60e01b8152336004820152602481018390529192506001600160a01b0316906362990d2f90604401600060405180830381600087803b158015612f1d57600080fd5b505af1158015612f31573d6000803e3d6000fd5b50505050612f4133600454612c04565b612f77576040517fafd1ab8500000000000000000000000000000000000000000000000000000000815260040160405180910390fd5b612f838c336001613b71565b612fb9576040517f282c809700000000000000000000000000000000000000000000000000000000815260040160405180910390fd5b336001600160a01b03168c7f0e488473640fd9c5b2e34c335c8f9f49322171f7ba1d10f29372e98eb802f8a38b8b8b868b898c8c604051613001989796959493929190614903565b60405180910390a3505050505050505050505050565b6110fb8133613d97565b6040805160608101825260008082526020820181905291810191909152600f838154811061305157613051614700565b6000918252602090912001546040517f793962d80000000000000000000000000000000000000000000000000000000081526001600160a01b0384811660048301529091169063793962d890602401606060405180830381865afa1580156130bd573d6000803e3d6000fd5b505050506040513d601f19601f82011682018060405250810190612ba8919061495d565b6000828152602081815260408083206001600160a01b038516845290915290205460ff16610ea5576000828152602081815260408083206001600160a01b03851684529091529020805460ff1916600117905561313b3390565b6001600160a01b0316816001600160a01b0316837f2f8788117e7eff1d82e926ec794901d17c78024a50270940304540a733656f0d60405160405180910390a45050565b6000828152602081815260408083206001600160a01b038516845290915290205460ff1615610ea5576000828152602081815260408083206001600160a01b0385168085529252808320805460ff1916905551339285917ff6391f5c32d9c69d2a47ea670b442974b53935d1edc7fd64eb21e047a839171b9190a45050565b60008061320a600f5490565b905060005b8181101561342257600f818154811061322a5761322a614700565b60009182526020918290200154604080517f5c975abb00000000000000000000000000000000000000000000000000000000815290516001600160a01b0390921692635c975abb926004808401938290030181865afa158015613291573d6000803e3d6000fd5b505050506040513d601f19601f820116820180604052508101906132b59190614726565b61341a57600f81815481106132cc576132cc614700565b6000918252602090912001546040517f3876d0550000000000000000000000000000000000000000000000000000000081526001600160a01b03868116600483015290911690633876d055906024016020604051808303816000875af115801561333a573d6000803e3d6000fd5b505050506040513d601f19601f8201168201806040525081019061335e9190614806565b600f828154811061337157613371614700565b6000918252602090912001546040517f69395df40000000000000000000000000000000000000000000000000000000081526001600160a01b038781166004830152909116906369395df4906024016020604051808303816000875af11580156133df573d6000803e3d6000fd5b505050506040513d601f19601f820116820180604052508101906134039190614806565b61340d91906146b1565b61341790846146b1565b92505b60010161320f565b508115610e1857600c546040516362990d2f60e01b81526001600160a01b03858116600483015260248201859052909116906362990d2f90604401600060405180830381600087803b15801561347757600080fd5b505af115801561348b573d6000803e3d6000fd5b50505050505050565b60008060006134ab6134a68989613e15565b613b66565b9050600f88815481106134c0576134c0614700565b6000918252602090912001546001600160a01b0316638fa1967c886134e58b82613e7e565b89898960016040518763ffffffff1660e01b815260040161350b9695949392919061481f565b60a0604051808303816000875af115801561352a573d6000803e3d6000fd5b505050506040513d601f19601f8201168201806040525081019061354e919061485c565b50929550909350613563915089905088613ee7565b955095509592505050565b60008061358660065461358085612922565b90613f4a565b9050600061359f60085483613f4a90919063ffffffff16565b905060006135ad82846149d7565b600c549091506001600160a01b03166362990d2f896135cb84613826565b6040517fffffffff0000000000000000000000000000000000000000000000000000000060e085901b1681526001600160a01b0390921660048301526024820152604401600060405180830381600087803b15801561362957600080fd5b505af115801561363d573d6000803e3d6000fd5b5050600d546040517f52ac183b000000000000000000000000000000000000000000000000000000008152600481018690526001600160a01b0390911692506352ac183b9150602401600060405180830381600087803b1580156136a057600080fd5b505af11580156136b4573d6000803e3d6000fd5b505050506136c183613826565b6136cb90876146d9565b600c546040516362990d2f60e01b81526001600160a01b038a81166004830152602482018490529296509116906362990d2f90604401600060405180830381600087803b15801561371b57600080fd5b505af115801561372f573d6000803e3d6000fd5b50505050505050949350505050565b613746613f56565b6001805460ff191690557f5db9ee0a495bf2e6ff9c91a7834c1ba4fdd244a5e8aa4e537bd38aeae4b073aa335b6040516001600160a01b03909116815260200160405180910390a1565b6000612ba88383613fa8565b600c546040517ff45346dc000000000000000000000000000000000000000000000000000000008152336004820152602481018490526001600160a01b0383811660448301529091169063f45346dc906064015b600060405180830381600087803b15801561380a57600080fd5b505af115801561381e573d6000803e3d6000fd5b505050505050565b60006108ce826140b8565b613839612baf565b6001805460ff1916811790557f62e78cea01bee320cd4e420270b5ea74000d11b0c9f74754ebdbfc544b05a25833613773565b813515801561387d57506020820135155b156138b4576040517f71a4551600000000000000000000000000000000000000000000000000000000815260040160405180910390fd5b6138bd336131fe565b60006138cb336004546108d4565b90506138d88160026149ea565b61398a600f86815481106138ee576138ee614700565b60009182526020918290200154604080517f10bace8c00000000000000000000000000000000000000000000000000000000815290516001600160a01b03909216926310bace8c926004808401938290030181865afa158015613955573d6000803e3d6000fd5b505050506040513d601f19601f820116820180604052508101906139799190614806565b6115a28660015b6020020135613826565b613995856000613980565b61399f91906146b1565b13156139d7576040517f0cdb992300000000000000000000000000000000000000000000000000000000815260040160405180910390fd5b6000600f85815481106139ec576139ec614700565b6000918252602090912001546040517f43a4fee00000000000000000000000000000000000000000000000000000000081526001600160a01b03909116906343a4fee090613a4290339088908890600401614a8a565b6020604051808303816000875af1158015613a61573d6000803e3d6000fd5b505050506040513d601f19601f82011682018060405250810190613a859190614806565b90508015613af257600c546040516362990d2f60e01b8152336004820152602481018390526001600160a01b03909116906362990d2f90604401600060405180830381600087803b158015613ad957600080fd5b505af1158015613aed573d6000803e3d6000fd5b505050505b613afc8533613ee7565b613b0885336000613b71565b50613b1533600454612c04565b50604080518535815260208087013590820152908101829052339086907f02d139c446fb619ae67900f1fef841c6157b502f4c93de2efeb7a0398015e5609060600160405180910390a35050505050565b60006108ce82614150565b60008082613b8857613b838585613e15565b613b97565b613b928585613021565b51600f0b5b90506000613bac613ba783613b66565b612922565b90508015613bc257600554811192505050612ba8565b50600195945050505050565b6000806000613be9613be08888613021565b51600f0b613b66565b9050600080613bf88989613021565b60200151600f0b1215613c0c576000613c0f565b60015b9050600f8881548110613c2457613c24614700565b6000918252602090912001546040516394b661e960e01b81526001600160a01b03909116906394b661e990613c66908a908a908a90879060019060040161477d565b60c0604051808303816000875af1158015613c85573d6000803e3d6000fd5b505050506040513d601f19601f82011682018060405250810190613ca991906147ba565b5050600f805492985090965092508a91508110613cc857613cc8614700565b600091825260209091200154604051635216b30160e11b81526001600160a01b0389811660048301529091169063a42d660290602401602060405180830381865afa158015613d1b573d6000803e3d6000fd5b505050506040513d601f19601f82011682018060405250810190613d3f9190614726565b15613d76576040517f120dbeb300000000000000000000000000000000000000000000000000000000815260040160405180910390fd5b509450945094915050565b6000818312613d905781612ba8565b5090919050565b6000828152602081815260408083206001600160a01b038516845290915290205460ff16610ea557613dd3816001600160a01b0316601461297f565b613dde83602061297f565b604051602001613def929190614ad4565b60408051601f198184030181529082905262461bcd60e51b825261076f91600401614b55565b6000600f8381548110613e2a57613e2a614700565b6000918252602090912001546040517f151d7fad0000000000000000000000000000000000000000000000000000000081526001600160a01b0384811660048301529091169063151d7fad90602401612c6a565b6000600f8381548110613e9357613e93614700565b6000918252602090912001546040517f7f338ecf0000000000000000000000000000000000000000000000000000000081526001600160a01b03848116600483015290911690637f338ecf90602401612c6a565b600e546001600160a01b031615610ea557600e546040517f22146e33000000000000000000000000000000000000000000000000000000008152600481018490526001600160a01b038381166024830152909116906322146e33906044016137f0565b6000612ba883836141a4565b60015460ff16612c025760405162461bcd60e51b815260206004820152601460248201527f5061757361626c653a206e6f7420706175736564000000000000000000000000604482015260640161076f565b6000600160ff1b831480613fbf5750600160ff1b82145b15613ff6576040517f3406846c00000000000000000000000000000000000000000000000000000000815260040160405180910390fd5b60008060008512614007578461400c565b846000035b91506000841261401c5783614021565b836000035b9050600061402f83836141ac565b90507f7fffffffffffffffffffffffffffffffffffffffffffffffffffffffffffffff81111561408e576040517fbf79e8d90000000000000000000000000000000000000000000000000000000081526004810182905260240161076f565b6000198087139086138082186001146140a757826140ac565b826000035b98975050505050505050565b60007f7fffffffffffffffffffffffffffffffffffffffffffffffffffffffffffffff82111561297b5760405162461bcd60e51b815260206004820152602860248201527f53616665436173743a2076616c756520646f65736e27742066697420696e206160448201527f6e20696e74323536000000000000000000000000000000000000000000000000606482015260840161076f565b6000600160ff1b820361418f576040517f741d0b8c00000000000000000000000000000000000000000000000000000000815260040160405180910390fd5b6000821261419d57816108ce565b5060000390565b6000612ba883835b60008080600019848609848602925082811083820303915050670de0b6b3a76400008110614209576040517fd31b34020000000000000000000000000000000000000000000000000000000081526004810182905260240161076f565b600080670de0b6b3a764000086880991506706f05b59d3b1ffff82119050826000036142475780670de0b6b3a76400008504019450505050506108ce565b6204000082850304939091119091037d40000000000000000000000000000000000000000000000000000000000002919091177faccb18165bd6fe31ae1cf318dc5b51eee0e1ba569b88cd74c1773b91fac106690201905092915050565b6001600160a01b03811681146110fb57600080fd5b600080604083850312156142cd57600080fd5b8235915060208301356142df816142a5565b809150509250929050565b6000602082840312156142fc57600080fd5b81357fffffffff0000000000000000000000000000000000000000000000000000000081168114612ba857600080fd5b6000806040838503121561433f57600080fd5b823561434a816142a5565b946020939093013593505050565b80356002811061436757600080fd5b919050565b60008060008060008060c0878903121561438557600080fd5b86359550602087013594506040870135935060608701359250608087013591506143b160a08801614358565b90509295509295509295565b6000602082840312156143cf57600080fd5b8135612ba8816142a5565b600080600080608085870312156143f057600080fd5b8435935060208501359250604085013591506060850135614410816142a5565b939692955090935050565b60006020828403121561442d57600080fd5b5035919050565b80604081018310156108ce57600080fd5b600080600080600060c0868803121561445d57600080fd5b85359450602086013561446f816142a5565b935061447e8760408801614434565b949793965093946080810135945060a0013592915050565b600080600080608085870312156144ac57600080fd5b8435935060208501359250604085013591506144ca60608601614358565b905092959194509250565b60008060008060008060c087890312156144ee57600080fd5b86359550602087013594506040870135614507816142a5565b93506060870135925061451c60808801614358565b915060a087013590509295509295509295565b60008060006080848603121561454457600080fd5b833592506145558560208601614434565b9150606084013590509250925092565b600080600080600060c0868803121561457d57600080fd5b853594506020860135935061447e8760408801614434565b600080600080608085870312156145ab57600080fd5b8435935060208501356145bd816142a5565b93969395505050506040820135916060013590565b634e487b7160e01b600052604160045260246000fd5b604051610120810167ffffffffffffffff8111828210171561461a57634e487b7160e01b600052604160045260246000fd5b60405290565b6000610120828403121561463357600080fd5b61463b6145e8565b823581526020830135602082015260408301356040820152606083013560608201526080830135608082015260a083013560a082015260c083013560c082015260e083013560e08201526101008084013581830152508091505092915050565b634e487b7160e01b600052601160045260246000fd5b80820182811260008312801582168215821617156146d1576146d161469b565b505092915050565b81810360008312801583831316838312821617156146f9576146f961469b565b5092915050565b634e487b7160e01b600052603260045260246000fd5b8051801515811461436757600080fd5b60006020828403121561473857600080fd5b612ba882614716565b600060001982036147545761475461469b565b5060010190565b6002811061477957634e487b7160e01b600052602160045260246000fd5b9052565b6001600160a01b0386168152602081018590526040810184905260a081016147a8606083018561475b565b82151560808301529695505050505050565b60008060008060008060c087890312156147d357600080fd5b865195506020870151945060408701519350606087015192506147f860808801614716565b91506143b160a08801614716565b60006020828403121561481857600080fd5b5051919050565b6001600160a01b03871681526020810186905260e08101604086818401378460808301528360a083015282151560c0830152979650505050505050565b600080600080600060a0868803121561487457600080fd5b8551945060208601519350604086015192506060860151915061489960808701614716565b90509295509295909350565b808201808211156108ce576108ce61469b565b6000600160ff1b820361419d5761419d61469b565b60008160001904831182151516156148e7576148e761469b565b500290565b6000816148fb576148fb61469b565b506000190190565b6101008101614912828b61475b565b602082019890985260408101969096526060860194909452608085019290925260a0840152151560c0830152151560e090910152919050565b8051600f81900b811461436757600080fd5b60006060828403121561496f57600080fd5b6040516060810181811067ffffffffffffffff821117156149a057634e487b7160e01b600052604160045260246000fd5b6040526149ac8361494b565b81526149ba6020840161494b565b60208201526149cb6040840161494b565b60408201529392505050565b818103818111156108ce576108ce61469b565b60007f7fffffffffffffffffffffffffffffffffffffffffffffffffffffffffffffff600084136000841385830485118282161615614a2b57614a2b61469b565b600160ff1b6000871286820588128184161615614a4a57614a4a61469b565b60008712925087820587128484161615614a6657614a6661469b565b87850587128184161615614a7c57614a7c61469b565b505050929093029392505050565b6001600160a01b0384168152608081016040846020840137826060830152949350505050565b60005b83811015614acb578181015183820152602001614ab3565b50506000910152565b7f416363657373436f6e74726f6c3a206163636f756e7420000000000000000000815260008351614b0c816017850160208801614ab0565b7f206973206d697373696e6720726f6c65200000000000000000000000000000006017918401918201528351614b49816028840160208801614ab0565b01602801949350505050565b6020815260008251806020840152614b74816040850160208701614ab0565b601f01601f1916919091016040019291505056fea2646970667358221220958cad4a3b0565860622970e6ee5bda1b1634ec6c6b15823dccfc81ff085ee8f64736f6c63430008100033af290d8680820aad922855f39b306097b20e28774d6c1ad35a20325630c3a02c35a7846a2a701fff6f9d61a46ebff5da578c5dcee8bdf361c569f9ea4ee64771",
  "devdoc": {
    "kind": "dev",
    "methods": {
      "addStakingContract(address)": {
        "details": "Staking contract is not implemented yet",
        "params": {
          "staking": "Staking Contract"
        }
      },
      "allowListPerpetual(address)": {
        "params": {
          "perp": "Market to add to the list of supported market"
        }
      },
      "changePosition(uint256,uint256,uint256,uint8)": {
        "details": "No number for the leverage is given but the amount in the vault must be bigger than minMarginAtCreation",
        "params": {
          "amount": "Amount in vQuote (if LONG) or vBase (if SHORT) to sell. 18 decimals",
          "direction": "Whether the trader wants to go in the LONG or SHORT direction overall",
          "idx": "Index of the perpetual market",
          "minAmount": "Minimum amount that the user is willing to accept. 18 decimals"
        }
      },
      "closePositionWithdrawCollateral(uint256,uint256,uint256,address)": {
        "params": {
          "idx": "Index of the perpetual market",
          "minAmount": "Minimum amount that the user is willing to accept, in vQuote if LONG, in vBase if SHORT. 18 decimals",
          "proposedAmount": "Amount of tokens to be sold, in vBase if LONG, in vQuote if SHORT. 18 decimals",
          "token": "Token used for the collateral"
        }
      },
      "deposit(uint256,address)": {
        "params": {
          "amount": "Amount to be used as collateral. Might not be 18 decimals",
          "token": "Token to be used for the collateral"
        }
      },
      "extendPositionWithCollateral(uint256,uint256,address,uint256,uint8,uint256)": {
        "params": {
          "collateralAmount": "Amount to be used as the collateral of the position. Might not be 18 decimals",
          "direction": "Whether the position is LONG or SHORT",
          "idx": "Index of the perpetual market",
          "minAmount": "Minimum amount that the user is willing to accept. 18 decimals",
          "positionAmount": "Amount to be sold, in vQuote (if LONG) or vBase (if SHORT). Must be 18 decimals",
          "token": "Token to be used for the collateral of the position"
        }
      },
      "getDebtAcrossMarkets(address)": {
        "params": {
          "account": "User address (trader and/or liquidity provider)"
        }
      },
      "getFreeCollateralByRatio(address,int256)": {
        "params": {
          "account": "User address (trader and/or liquidity provider)",
          "ratio": "Margin ratio (minMargin or minMarginAtCreation)"
        }
      },
      "getPnLAcrossMarkets(address)": {
        "params": {
          "account": "User address (trader and/or liquidity provider)"
        }
      },
      "getRoleAdmin(bytes32)": {
        "details": "Returns the admin role that controls `role`. See {grantRole} and {revokeRole}. To change a role's admin, use {_setRoleAdmin}."
      },
      "getTotalMarginRequirement(address,int256)": {
        "params": {
          "account": "User address (trader and/or liquidity provider)",
          "ratio": "Margin ratio (minMargin or minMarginAtCreation)"
        }
      },
      "grantRole(bytes32,address)": {
        "details": "Grants `role` to `account`. If `account` had not been already granted `role`, emits a {RoleGranted} event. Requirements: - the caller must have ``role``'s admin role. May emit a {RoleGranted} event."
      },
      "hasRole(bytes32,address)": {
        "details": "Returns `true` if `account` has been granted `role`."
      },
      "liquidateLp(uint256,address,uint256[2],uint256,uint256)": {
        "params": {
          "idx": "Index of the perpetual market",
          "liquidatee": "Address of the account to liquidate",
          "minAmount": "Minimum amount that the user is willing to accept. 18 decimals",
          "proposedAmount": "Amount of tokens to be sold, in vBase if LONG, in vQuote if SHORT. 18 decimals"
        }
      },
      "liquidateTrader(uint256,address,uint256,uint256)": {
        "params": {
          "idx": "Index of the perpetual market",
          "liquidatee": "Address of the account to liquidate",
          "minAmount": "Minimum amount that the user is willing to accept. 18 decimals",
          "proposedAmount": "Amount of tokens to be sold, in vBase if LONG, in vQuote if SHORT. 18 decimals"
        }
      },
      "openReversePosition(uint256,uint256,uint256,uint256,uint256,uint8)": {
        "params": {
          "closeMinAmount": "Minimum amount that the user is willing to accept when closing the position. 18 decimals",
          "closeProposedAmount": "Amount in vQuote (if LONG) or vBase (if SHORT) to sell to close the position. 18 decimals",
          "direction": "Whether the trader wants to go in the LONG or SHORT direction overall",
          "idx": "Index of the perpetual market",
          "openMinAmount": "Minimum amount that the user is willing to accept when opening the reversed position. 18 decimals",
          "openProposedAmount": "Amount in vQuote (if LONG) or vBase (if SHORT) to sell to open the reversed position. 18 decimals"
        }
      },
      "pause()": {
        "details": "Can only be called by Manager"
      },
      "paused()": {
        "details": "Returns true if the contract is paused, and false otherwise."
      },
      "provideLiquidity(uint256,uint256[2],uint256)": {
        "params": {
          "amounts": "Amount of virtual tokens ([vQuote, vBase]) provided. 18 decimals",
          "idx": "Index of the perpetual market",
          "minLpAmount": "Minimum amount of Lp tokens minted. 18 decimals"
        }
      },
      "removeLiquidity(uint256,uint256,uint256[2],uint256,uint256)": {
        "params": {
          "idx": "Index of the perpetual market",
          "liquidityAmountToRemove": "Amount of liquidity (in LP tokens) to be removed from the pool. 18 decimals",
          "minAmount": "Minimum amount that the user is willing to accept when closing his active position        generated after removing liquidity, in vQuote if LONG, in vBase if SHORT. 18 decimals",
          "minVTokenAmounts": "Minimum amount of virtual tokens [vQuote, vBase] to withdraw from the curve pool. 18 decimals",
          "proposedAmount": "Amount at which to sell the active LP position (in vBase if LONG, in vQuote if SHORT). 18 decimals"
        }
      },
      "renounceRole(bytes32,address)": {
        "details": "Revokes `role` from the calling account. Roles are often managed via {grantRole} and {revokeRole}: this function's purpose is to provide a mechanism for accounts to lose their privileges if they are compromised (such as when a trusted device is misplaced). If the calling account had been revoked `role`, emits a {RoleRevoked} event. Requirements: - the caller must be `account`. May emit a {RoleRevoked} event."
      },
      "revokeRole(bytes32,address)": {
        "details": "Revokes `role` from `account`. If `account` had been granted `role`, emits a {RoleRevoked} event. Requirements: - the caller must have ``role``'s admin role. May emit a {RoleRevoked} event."
      },
      "seizeCollateral(address)": {
        "params": {
          "liquidatee": "Address of the account to liquidate"
        }
      },
      "setParameters((int256,int256,uint256,uint256,uint256,uint256,uint256,uint256,int256))": {
        "params": {
          "params": "New economic parameters"
        }
      },
      "settleDust(uint256,uint256,uint256,uint8)": {
        "details": "Can only be called by Manager",
        "params": {
          "idx": "Index of the perpetual market to sell dust from",
          "minAmount": "Minimum amount that the user is willing to accept, in vQuote if LONG, in vBase if SHORT. 18 decimals",
          "proposedAmount": "Amount of tokens to be sold, in vBase if LONG, in vQuote if SHORT. 18 decimals"
        }
      },
      "supportsInterface(bytes4)": {
        "details": "See {IERC165-supportsInterface}."
      },
      "unpause()": {
        "details": "Can only be called by Manager"
      },
      "withdraw(uint256,address)": {
        "params": {
          "amount": "Amount of collateral to withdraw. Might not be 18 decimals (decimals of `token`)",
          "token": "Token of the collateral"
        }
      },
      "withdrawAll(address)": {
        "details": "Should only be called by the trader",
        "params": {
          "token": "Token of the collateral"
        }
      }
    },
    "stateVariables": {
      "insuranceRatio": {
        "details": "Once the insurance reserve exceed this ratio of the tvl, governance can withdraw exceeding insurance fee"
      },
      "liquidationReward": {
        "details": "Paid on dollar value of an trader position. important: liquidationReward < minMargin or liquidations will result in protocol losses"
      },
      "nonUACollSeizureDiscount": {
        "details": "Must be lower than liquidationDiscount to ensure liquidations don't generate bad debt"
      }
    },
    "version": 1
  },
  "userdoc": {
    "errors": {
      "ClearingHouse_AmountProvidedTooLarge()": [
        {
          "notice": "Emitted when a user attempts to provide liquidity with amount larger than his free collateral or collateral balance"
        }
      ],
      "ClearingHouse_ChangePositionZeroAmount()": [
        {
          "notice": "Emitted when a user attempts to change his position with no amount"
        }
      ],
      "ClearingHouse_ClosePositionStillOpen()": [
        {
          "notice": "Emitted when the position is not reduced entirely using closePositionWithdrawCollateral"
        }
      ],
      "ClearingHouse_ExcessiveLiquidationDiscount()": [
        {
          "notice": "Emitted when the liquidationDiscount is too high"
        }
      ],
      "ClearingHouse_ExcessiveLiquidationRewardInsuranceShare()": [
        {
          "notice": "Emitted when the proposed share of the liquidation reward for the insurance is too high"
        }
      ],
      "ClearingHouse_ExcessivePositiveOpenNotional()": [
        {
          "notice": "Emitted when the proposed minimum open notional is too high"
        }
      ],
      "ClearingHouse_ExtendPositionInsufficientMargin()": [
        {
          "notice": "Emitted when there is not enough margin to extend to the proposed position amount"
        }
      ],
      "ClearingHouse_ExtendPositionZeroAmount()": [
        {
          "notice": "Emitted when a user attempts to extend their position with amount equal to 0"
        }
      ],
      "ClearingHouse_InsufficientDiffBtwLiquidationDiscountAndNonUACollSeizureDiscount()": [
        {
          "notice": "Emitted when the difference between liquidationDiscount and nonUACollSeizureDiscount isn't large enough"
        }
      ],
      "ClearingHouse_InsufficientUaDebtSeizureThreshold()": [
        {
          "notice": "Emitted when the proposed UA debt limit is lower than the minimum acceptable value"
        }
      ],
      "ClearingHouse_InvalidInsuranceRatio()": [
        {
          "notice": "Emitted when the proposed insurance ratio is too low or too high"
        }
      ],
      "ClearingHouse_InvalidLiquidationReward()": [
        {
          "notice": "Emitted when the proposed liquidation reward is too low or too high"
        }
      ],
      "ClearingHouse_InvalidMinMargin()": [
        {
          "notice": "Emitted when the proposed minMargin is too low or too high"
        }
      ],
      "ClearingHouse_InvalidMinMarginAtCreation()": [
        {
          "notice": "Emitted when the proposed minMarginAtCreation is too low or too high"
        }
      ],
      "ClearingHouse_LiquidateInsufficientProposedAmount()": [
        {
          "notice": "Emitted when the attempted liquidation does not close the full position"
        }
      ],
      "ClearingHouse_LiquidateInvalidPosition()": [
        {
          "notice": "Emitted when the liquidatee does not have an open position"
        }
      ],
      "ClearingHouse_LiquidateValidMargin()": [
        {
          "notice": "Emitted when the margin of the liquidatee's position is still valid"
        }
      ],
      "ClearingHouse_LiquidationDebtSizeZero()": [
        {
          "notice": "Emitted when a collateral liquidation for a user with no UA debt is tried"
        }
      ],
      "ClearingHouse_NegativeDustProceeds()": [
        {
          "notice": "Emitted when governance tries to sell dust with a negative balance"
        }
      ],
      "ClearingHouse_PerpetualMarketAlreadyAssigned()": [
        {
          "notice": "Emitted when passing the address of a perpetual market which has already been added"
        }
      ],
      "ClearingHouse_ProvideLiquidityZeroAmount()": [
        {
          "notice": "Emitted when a user attempts to provide liquidity with amount equal to 0"
        }
      ],
      "ClearingHouse_ReducePositionZeroAmount()": [
        {
          "notice": "Emitted when a user attempts to reduce their position with amount equal to 0"
        }
      ],
      "ClearingHouse_RemoveLiquidityInsufficientFunds()": [
        {
          "notice": "Emitted when a user attempts to withdraw more liquidity than they have"
        }
      ],
      "ClearingHouse_SufficientUserCollateral()": [
        {
          "notice": "Emitted when a liquidator tries seizing collateral of user with sufficient collaterals level"
        }
      ],
      "ClearingHouse_UnderOpenNotionalAmountRequired()": [
        {
          "notice": "Emitted when a user tries to open a position with an incorrect open notional amount"
        }
      ],
      "ClearingHouse_WithdrawInsufficientMargin()": [
        {
          "notice": "Emitted when there is not enough margin to withdraw the requested amount"
        }
      ],
      "ClearingHouse_ZeroAddress()": [
        {
          "notice": "Emitted when the zero address is provided"
        }
      ],
      "PRBMathSD59x18__AbsInputTooSmall()": [
        {
          "notice": "Emitted when the input is MIN_SD59x18."
        }
      ],
      "PRBMathSD59x18__MulInputTooSmall()": [
        {
          "notice": "Emitted when one of the inputs is MIN_SD59x18."
        }
      ],
      "PRBMathSD59x18__MulOverflow(uint256)": [
        {
          "notice": "Emitted when the intermediary absolute result overflows SD59x18."
        }
      ],
      "PRBMath__MulDivFixedPointOverflow(uint256)": [
        {
          "notice": "Emitted when the result overflows uint256."
        }
      ]
    },
    "events": {
      "ChangePosition(uint256,address,uint8,int256,int256,int256,int256,int256,bool,bool)": {
        "notice": "Emitted when a position is opened/extended"
      },
      "ClearingHouseParametersChanged(int256,int256,uint256,uint256,uint256,uint256,uint256,uint256,int256)": {
        "notice": "Emitted when parameters are changed"
      },
      "DustSold(uint256,int256,int256)": {
        "notice": "Emitted when dust is sold by governance"
      },
      "LiquidationCall(uint256,address,address,uint256,int256,int256,bool)": {
        "notice": "Emitted when an user position is liquidated"
      },
      "LiquidityProvided(uint256,address,uint256,uint256,int256)": {
        "notice": "Emitted when (additional) liquidity is provided"
      },
      "LiquidityRemoved(uint256,address,uint256,int256,int256,bool)": {
        "notice": "Emitted when liquidity is removed"
      },
      "MarketAdded(address,uint256)": {
        "notice": "Emitted when new perpetual market is added"
      },
      "SeizeCollateral(address,address)": {
        "notice": "Emitted when an user non-UA collaterals are seized"
      }
    },
    "kind": "user",
    "methods": {
      "addStakingContract(address)": {
        "notice": "Add a staking contract"
      },
      "allowListPerpetual(address)": {
        "notice": "Add one perpetual market to the list of markets"
      },
      "changePosition(uint256,uint256,uint256,uint8)": {
        "notice": "Open or increase or reduce a position, either LONG or SHORT"
      },
      "closePositionWithdrawCollateral(uint256,uint256,uint256,address)": {
        "notice": "Single close position function, groups closing position and withdrawing collateralImportant: `proposedAmount` must be large enough to close the entire position else the function call will fail"
      },
      "deposit(uint256,address)": {
        "notice": "Deposit tokens into the vault"
      },
      "extendPositionWithCollateral(uint256,uint256,address,uint256,uint8,uint256)": {
        "notice": "Single open position function, groups depositing collateral and extending position"
      },
      "getDebtAcrossMarkets(address)": {
        "notice": "Get user debt across all perpetual markets"
      },
      "getFreeCollateralByRatio(address,int256)": {
        "notice": "Get free collateral of a user given a chosen margin ratio"
      },
      "getNumMarkets()": {
        "notice": "Return the number of active markets"
      },
      "getPnLAcrossMarkets(address)": {
        "notice": "Get user profit/loss across all perpetual markets"
      },
      "getTotalMarginRequirement(address,int256)": {
        "notice": "Get the margin required to serve user debt at a chosen margin ratio"
      },
      "insurance()": {
        "notice": "Insurance contract"
      },
      "insuranceRatio()": {
        "notice": "Insurance ratio"
      },
      "liquidateLp(uint256,address,uint256[2],uint256,uint256)": {
        "notice": "Submit the address of a LP whose position is worth liquidating for a reward"
      },
      "liquidateTrader(uint256,address,uint256,uint256)": {
        "notice": "Submit the address of an Trader whose position is worth liquidating for a reward"
      },
      "liquidationDiscount()": {
        "notice": "Discount on the collateral price for the liquidator"
      },
      "liquidationReward()": {
        "notice": "liquidation reward payed to liquidators"
      },
      "liquidationRewardInsuranceShare()": {
        "notice": "Portion of the liquidation reward that the insurance gets"
      },
      "minMargin()": {
        "notice": "minimum maintenance margin"
      },
      "minMarginAtCreation()": {
        "notice": "minimum margin when opening a position"
      },
      "minPositiveOpenNotional()": {
        "notice": "minimum positive open notional when opening a position"
      },
      "nonUACollSeizureDiscount()": {
        "notice": "Discount ratio to be applied on non-UA collaterals before seizing said collaterals for some UA"
      },
      "openReversePosition(uint256,uint256,uint256,uint256,uint256,uint8)": {
        "notice": "Open a position in the opposite direction of the currently opened positionFor example, a trader with a LONG position can switch to a SHORT position with just one call to this function"
      },
      "pause()": {
        "notice": "Pause the contract"
      },
      "perpetuals(uint256)": {
        "notice": "Allowlisted Perpetual contracts"
      },
      "provideLiquidity(uint256,uint256[2],uint256)": {
        "notice": "Provide liquidity to the pool, without depositing new capital in the vault"
      },
      "removeLiquidity(uint256,uint256,uint256[2],uint256,uint256)": {
        "notice": "Remove liquidity from the pool and account profit/loss in UA"
      },
      "seizeCollateral(address)": {
        "notice": "Buy the non-UA collaterals of a user at a discounted UA price to settle the debt of said user"
      },
      "setParameters((int256,int256,uint256,uint256,uint256,uint256,uint256,uint256,int256))": {
        "notice": "Update the value of the param listed in `IClearingHouse.ClearingHouseParams`"
      },
      "settleDust(uint256,uint256,uint256,uint8)": {
        "notice": "Sell dust of a given market"
      },
      "stakingContract()": {
        "notice": "Staking contract"
      },
      "uaDebtSeizureThreshold()": {
        "notice": "UA debt amount at which non-UA collaterals can be seized to pay back UA debts"
      },
      "unpause()": {
        "notice": "Unpause the contract"
      },
      "vault()": {
        "notice": "Vault contract"
      },
      "withdraw(uint256,address)": {
        "notice": "Withdraw tokens from the vault"
      },
      "withdrawAll(address)": {
        "notice": "Withdraw all tokens from the vault"
      }
    },
    "notice": "Entry point for users to vault and perpetual markets",
    "version": 1
  },
  "storageLayout": {
    "storage": [
      {
        "astId": 127,
        "contract": "contracts/ClearingHouse.sol:ClearingHouse",
        "label": "_roles",
        "offset": 0,
        "slot": "0",
        "type": "t_mapping(t_bytes32,t_struct(RoleData)122_storage)"
      },
      {
        "astId": 794,
        "contract": "contracts/ClearingHouse.sol:ClearingHouse",
        "label": "_paused",
        "offset": 0,
        "slot": "1",
        "type": "t_bool"
      },
      {
        "astId": 895,
        "contract": "contracts/ClearingHouse.sol:ClearingHouse",
        "label": "_status",
        "offset": 0,
        "slot": "2",
        "type": "t_uint256"
      },
      {
        "astId": 5916,
        "contract": "contracts/ClearingHouse.sol:ClearingHouse",
        "label": "minMargin",
        "offset": 0,
        "slot": "3",
        "type": "t_int256"
      },
      {
        "astId": 5920,
        "contract": "contracts/ClearingHouse.sol:ClearingHouse",
        "label": "minMarginAtCreation",
        "offset": 0,
        "slot": "4",
        "type": "t_int256"
      },
      {
        "astId": 5924,
        "contract": "contracts/ClearingHouse.sol:ClearingHouse",
        "label": "minPositiveOpenNotional",
        "offset": 0,
        "slot": "5",
        "type": "t_uint256"
      },
      {
        "astId": 5928,
        "contract": "contracts/ClearingHouse.sol:ClearingHouse",
        "label": "liquidationReward",
        "offset": 0,
        "slot": "6",
        "type": "t_uint256"
      },
      {
        "astId": 5932,
        "contract": "contracts/ClearingHouse.sol:ClearingHouse",
        "label": "insuranceRatio",
        "offset": 0,
        "slot": "7",
        "type": "t_uint256"
      },
      {
        "astId": 5936,
        "contract": "contracts/ClearingHouse.sol:ClearingHouse",
        "label": "liquidationRewardInsuranceShare",
        "offset": 0,
        "slot": "8",
        "type": "t_uint256"
      },
      {
        "astId": 5940,
        "contract": "contracts/ClearingHouse.sol:ClearingHouse",
        "label": "liquidationDiscount",
        "offset": 0,
        "slot": "9",
        "type": "t_uint256"
      },
      {
        "astId": 5944,
        "contract": "contracts/ClearingHouse.sol:ClearingHouse",
        "label": "nonUACollSeizureDiscount",
        "offset": 0,
        "slot": "10",
        "type": "t_uint256"
      },
      {
        "astId": 5948,
        "contract": "contracts/ClearingHouse.sol:ClearingHouse",
        "label": "uaDebtSeizureThreshold",
        "offset": 0,
        "slot": "11",
        "type": "t_int256"
      },
      {
        "astId": 5953,
        "contract": "contracts/ClearingHouse.sol:ClearingHouse",
        "label": "vault",
        "offset": 0,
        "slot": "12",
        "type": "t_contract(IVault)18813"
      },
      {
        "astId": 5958,
        "contract": "contracts/ClearingHouse.sol:ClearingHouse",
        "label": "insurance",
        "offset": 0,
        "slot": "13",
        "type": "t_contract(IInsurance)17612"
      },
      {
        "astId": 5963,
        "contract": "contracts/ClearingHouse.sol:ClearingHouse",
        "label": "stakingContract",
        "offset": 0,
        "slot": "14",
        "type": "t_contract(IStakingContract)18311"
      },
      {
        "astId": 5969,
        "contract": "contracts/ClearingHouse.sol:ClearingHouse",
        "label": "perpetuals",
        "offset": 0,
        "slot": "15",
        "type": "t_array(t_contract(IPerpetual)18301)dyn_storage"
      }
    ],
    "types": {
      "t_address": {
        "encoding": "inplace",
        "label": "address",
        "numberOfBytes": "20"
      },
      "t_array(t_contract(IPerpetual)18301)dyn_storage": {
        "base": "t_contract(IPerpetual)18301",
        "encoding": "dynamic_array",
        "label": "contract IPerpetual[]",
        "numberOfBytes": "32"
      },
      "t_bool": {
        "encoding": "inplace",
        "label": "bool",
        "numberOfBytes": "1"
      },
      "t_bytes32": {
        "encoding": "inplace",
        "label": "bytes32",
        "numberOfBytes": "32"
      },
      "t_contract(IInsurance)17612": {
        "encoding": "inplace",
        "label": "contract IInsurance",
        "numberOfBytes": "20"
      },
      "t_contract(IPerpetual)18301": {
        "encoding": "inplace",
        "label": "contract IPerpetual",
        "numberOfBytes": "20"
      },
      "t_contract(IStakingContract)18311": {
        "encoding": "inplace",
        "label": "contract IStakingContract",
        "numberOfBytes": "20"
      },
      "t_contract(IVault)18813": {
        "encoding": "inplace",
        "label": "contract IVault",
        "numberOfBytes": "20"
      },
      "t_int256": {
        "encoding": "inplace",
        "label": "int256",
        "numberOfBytes": "32"
      },
      "t_mapping(t_address,t_bool)": {
        "encoding": "mapping",
        "key": "t_address",
        "label": "mapping(address => bool)",
        "numberOfBytes": "32",
        "value": "t_bool"
      },
      "t_mapping(t_bytes32,t_struct(RoleData)122_storage)": {
        "encoding": "mapping",
        "key": "t_bytes32",
        "label": "mapping(bytes32 => struct AccessControl.RoleData)",
        "numberOfBytes": "32",
        "value": "t_struct(RoleData)122_storage"
      },
      "t_struct(RoleData)122_storage": {
        "encoding": "inplace",
        "label": "struct AccessControl.RoleData",
        "members": [
          {
            "astId": 119,
            "contract": "contracts/ClearingHouse.sol:ClearingHouse",
            "label": "members",
            "offset": 0,
            "slot": "0",
            "type": "t_mapping(t_address,t_bool)"
          },
          {
            "astId": 121,
            "contract": "contracts/ClearingHouse.sol:ClearingHouse",
            "label": "adminRole",
            "offset": 0,
            "slot": "1",
            "type": "t_bytes32"
          }
        ],
        "numberOfBytes": "64"
      },
      "t_uint256": {
        "encoding": "inplace",
        "label": "uint256",
        "numberOfBytes": "32"
      }
    }
  }
}