{
  "address": "0xFd581492b91E5C93fF16B6f9C829E534579a6808",
  "abi": [
    {
      "inputs": [
        {
          "internalType": "contract IClearingHouse",
          "name": "_clearingHouse",
          "type": "address"
        }
      ],
      "stateMutability": "nonpayable",
      "type": "constructor"
    },
    {
      "inputs": [],
      "name": "ClearingHouseViewer_LpTokenAmountPassedLargerThanBalance",
      "type": "error"
    },
    {
      "inputs": [],
      "name": "ClearingHouseViewer_ReductionRatioTooLarge",
      "type": "error"
    },
    {
      "inputs": [
        {
          "internalType": "uint8",
          "name": "paramIndex",
          "type": "uint8"
        }
      ],
      "name": "ClearingHouseViewer_ZeroAddressConstructor",
      "type": "error"
    },
    {
      "inputs": [],
      "name": "PRBMathSD59x18__AbsInputTooSmall",
      "type": "error"
    },
    {
      "inputs": [],
      "name": "PRBMathSD59x18__DivInputTooSmall",
      "type": "error"
    },
    {
      "inputs": [
        {
          "internalType": "uint256",
          "name": "rAbs",
          "type": "uint256"
        }
      ],
      "name": "PRBMathSD59x18__DivOverflow",
      "type": "error"
    },
    {
      "inputs": [],
      "name": "PRBMathSD59x18__MulInputTooSmall",
      "type": "error"
    },
    {
      "inputs": [
        {
          "internalType": "uint256",
          "name": "rAbs",
          "type": "uint256"
        }
      ],
      "name": "PRBMathSD59x18__MulOverflow",
      "type": "error"
    },
    {
      "inputs": [
        {
          "internalType": "uint256",
          "name": "prod1",
          "type": "uint256"
        }
      ],
      "name": "PRBMath__MulDivFixedPointOverflow",
      "type": "error"
    },
    {
      "inputs": [
        {
          "internalType": "uint256",
          "name": "prod1",
          "type": "uint256"
        },
        {
          "internalType": "uint256",
          "name": "denominator",
          "type": "uint256"
        }
      ],
      "name": "PRBMath__MulDivOverflow",
      "type": "error"
    },
    {
      "inputs": [
        {
          "internalType": "address",
          "name": "account",
          "type": "address"
        }
      ],
      "name": "accountLeverage",
      "outputs": [
        {
          "internalType": "int256",
          "name": "",
          "type": "int256"
        }
      ],
      "stateMutability": "view",
      "type": "function"
    },
    {
      "inputs": [],
      "name": "clearingHouse",
      "outputs": [
        {
          "internalType": "contract IClearingHouse",
          "name": "",
          "type": "address"
        }
      ],
      "stateMutability": "view",
      "type": "function"
    },
    {
      "inputs": [
        {
          "internalType": "address",
          "name": "user",
          "type": "address"
        },
        {
          "internalType": "uint256",
          "name": "tokenIdx",
          "type": "uint256"
        }
      ],
      "name": "getBalance",
      "outputs": [
        {
          "internalType": "int256",
          "name": "",
          "type": "int256"
        }
      ],
      "stateMutability": "view",
      "type": "function"
    },
    {
      "inputs": [
        {
          "internalType": "uint256",
          "name": "idx",
          "type": "uint256"
        }
      ],
      "name": "getBaseBalance",
      "outputs": [
        {
          "internalType": "uint256",
          "name": "",
          "type": "uint256"
        }
      ],
      "stateMutability": "view",
      "type": "function"
    },
    {
      "inputs": [
        {
          "internalType": "uint256",
          "name": "idx",
          "type": "uint256"
        }
      ],
      "name": "getBaseDust",
      "outputs": [
        {
          "internalType": "int256",
          "name": "",
          "type": "int256"
        }
      ],
      "stateMutability": "view",
      "type": "function"
    },
    {
      "inputs": [
        {
          "internalType": "uint256",
          "name": "idx",
          "type": "uint256"
        },
        {
          "internalType": "uint256[2]",
          "name": "amounts",
          "type": "uint256[2]"
        }
      ],
      "name": "getExpectedLpTokenAmount",
      "outputs": [
        {
          "internalType": "uint256",
          "name": "",
          "type": "uint256"
        }
      ],
      "stateMutability": "view",
      "type": "function"
    },
    {
      "inputs": [
        {
          "internalType": "uint256",
          "name": "idx",
          "type": "uint256"
        },
        {
          "internalType": "uint256",
          "name": "vQuoteAmountToSpend",
          "type": "uint256"
        }
      ],
      "name": "getExpectedVBaseAmount",
      "outputs": [
        {
          "internalType": "uint256",
          "name": "",
          "type": "uint256"
        }
      ],
      "stateMutability": "view",
      "type": "function"
    },
    {
      "inputs": [
        {
          "internalType": "uint256",
          "name": "idx",
          "type": "uint256"
        },
        {
          "internalType": "uint256",
          "name": "vQuoteAmountToSpend",
          "type": "uint256"
        }
      ],
      "name": "getExpectedVBaseAmountExFees",
      "outputs": [
        {
          "internalType": "uint256",
          "name": "",
          "type": "uint256"
        }
      ],
      "stateMutability": "view",
      "type": "function"
    },
    {
      "inputs": [
        {
          "internalType": "uint256",
          "name": "idx",
          "type": "uint256"
        },
        {
          "internalType": "uint256",
          "name": "vBaseAmountToSpend",
          "type": "uint256"
        }
      ],
      "name": "getExpectedVQuoteAmount",
      "outputs": [
        {
          "internalType": "uint256",
          "name": "",
          "type": "uint256"
        }
      ],
      "stateMutability": "view",
      "type": "function"
    },
    {
      "inputs": [
        {
          "internalType": "uint256",
          "name": "idx",
          "type": "uint256"
        },
        {
          "internalType": "uint256",
          "name": "vBaseAmountToSpend",
          "type": "uint256"
        }
      ],
      "name": "getExpectedVQuoteAmountExFees",
      "outputs": [
        {
          "internalType": "uint256",
          "name": "",
          "type": "uint256"
        }
      ],
      "stateMutability": "view",
      "type": "function"
    },
    {
      "inputs": [
        {
          "internalType": "uint256",
          "name": "idx",
          "type": "uint256"
        },
        {
          "internalType": "address",
          "name": "account",
          "type": "address"
        },
        {
          "internalType": "uint256",
          "name": "lpTokenAmountToWithdraw",
          "type": "uint256"
        }
      ],
      "name": "getExpectedVirtualTokenAmountsFromLpTokenAmount",
      "outputs": [
        {
          "internalType": "uint256[2]",
          "name": "",
          "type": "uint256[2]"
        }
      ],
      "stateMutability": "view",
      "type": "function"
    },
    {
      "inputs": [
        {
          "internalType": "address",
          "name": "account",
          "type": "address"
        },
        {
          "internalType": "int256",
          "name": "ratio",
          "type": "int256"
        }
      ],
      "name": "getFreeCollateralByRatio",
      "outputs": [
        {
          "internalType": "int256",
          "name": "freeCollateral",
          "type": "int256"
        }
      ],
      "stateMutability": "view",
      "type": "function"
    },
    {
      "inputs": [
        {
          "internalType": "uint256",
          "name": "idx",
          "type": "uint256"
        },
        {
          "internalType": "address",
          "name": "account",
          "type": "address"
        }
      ],
      "name": "getFundingPayments",
      "outputs": [
        {
          "internalType": "int256",
          "name": "fundingPayments",
          "type": "int256"
        }
      ],
      "stateMutability": "view",
      "type": "function"
    },
    {
      "inputs": [
        {
          "internalType": "address",
          "name": "account",
          "type": "address"
        }
      ],
      "name": "getFundingPaymentsAcrossMarkets",
      "outputs": [
        {
          "internalType": "int256",
          "name": "fundingPayments",
          "type": "int256"
        }
      ],
      "stateMutability": "view",
      "type": "function"
    },
    {
      "inputs": [
        {
          "internalType": "uint256",
          "name": "idx",
          "type": "uint256"
        }
      ],
      "name": "getGlobalPosition",
      "outputs": [
        {
          "components": [
            {
              "internalType": "uint64",
              "name": "timeOfLastTrade",
              "type": "uint64"
            },
            {
              "internalType": "uint64",
              "name": "timeOfLastTwapUpdate",
              "type": "uint64"
            },
            {
              "internalType": "int128",
              "name": "cumFundingRate",
              "type": "int128"
            },
            {
              "internalType": "uint256",
              "name": "totalQuoteProvided",
              "type": "uint256"
            },
            {
              "internalType": "uint128",
              "name": "currentBlockTradeAmount",
              "type": "uint128"
            },
            {
              "internalType": "uint128",
              "name": "totalTradingFeesGrowth",
              "type": "uint128"
            },
            {
              "internalType": "uint128",
              "name": "totalBaseFeesGrowth",
              "type": "uint128"
            },
            {
              "internalType": "uint128",
              "name": "totalQuoteFeesGrowth",
              "type": "uint128"
            }
          ],
          "internalType": "struct LibPerpetual.GlobalPosition",
          "name": "",
          "type": "tuple"
        }
      ],
      "stateMutability": "view",
      "type": "function"
    },
    {
      "inputs": [
        {
          "internalType": "uint256",
          "name": "idx",
          "type": "uint256"
        },
        {
          "internalType": "address",
          "name": "account",
          "type": "address"
        }
      ],
      "name": "getLpEstimatedPnl",
      "outputs": [
        {
          "internalType": "int256",
          "name": "",
          "type": "int256"
        }
      ],
      "stateMutability": "view",
      "type": "function"
    },
    {
      "inputs": [
        {
          "internalType": "uint256",
          "name": "idx",
          "type": "uint256"
        },
        {
          "internalType": "address",
          "name": "account",
          "type": "address"
        }
      ],
      "name": "getLpFundingPayments",
      "outputs": [
        {
          "internalType": "int256",
          "name": "",
          "type": "int256"
        }
      ],
      "stateMutability": "view",
      "type": "function"
    },
    {
      "inputs": [
        {
          "internalType": "uint256",
          "name": "idx",
          "type": "uint256"
        },
        {
          "internalType": "address",
          "name": "account",
          "type": "address"
        }
      ],
      "name": "getLpPosition",
      "outputs": [
        {
          "components": [
            {
              "internalType": "int128",
              "name": "openNotional",
              "type": "int128"
            },
            {
              "internalType": "int128",
              "name": "positionSize",
              "type": "int128"
            },
            {
              "internalType": "int128",
              "name": "cumFundingRate",
              "type": "int128"
            },
            {
              "internalType": "uint128",
              "name": "liquidityBalance",
              "type": "uint128"
            },
            {
              "internalType": "uint64",
              "name": "depositTime",
              "type": "uint64"
            },
            {
              "internalType": "uint128",
              "name": "totalTradingFeesGrowth",
              "type": "uint128"
            },
            {
              "internalType": "uint128",
              "name": "totalBaseFeesGrowth",
              "type": "uint128"
            },
            {
              "internalType": "uint128",
              "name": "totalQuoteFeesGrowth",
              "type": "uint128"
            }
          ],
          "internalType": "struct LibPerpetual.LiquidityProviderPosition",
          "name": "",
          "type": "tuple"
        }
      ],
      "stateMutability": "view",
      "type": "function"
    },
    {
      "inputs": [
        {
          "internalType": "uint256",
          "name": "idx",
          "type": "uint256"
        },
        {
          "internalType": "address",
          "name": "account",
          "type": "address"
        }
      ],
      "name": "getLpPositionAfterWithdrawal",
      "outputs": [
        {
          "components": [
            {
              "internalType": "int128",
              "name": "openNotional",
              "type": "int128"
            },
            {
              "internalType": "int128",
              "name": "positionSize",
              "type": "int128"
            },
            {
              "internalType": "int128",
              "name": "cumFundingRate",
              "type": "int128"
            }
          ],
          "internalType": "struct LibPerpetual.TraderPosition",
          "name": "",
          "type": "tuple"
        }
      ],
      "stateMutability": "view",
      "type": "function"
    },
    {
      "inputs": [
        {
          "internalType": "uint256",
          "name": "idx",
          "type": "uint256"
        },
        {
          "internalType": "address",
          "name": "user",
          "type": "address"
        },
        {
          "internalType": "uint256",
          "name": "reductionRatio",
          "type": "uint256"
        },
        {
          "internalType": "uint256",
          "name": "iter",
          "type": "uint256"
        },
        {
          "internalType": "uint256[2]",
          "name": "minVTokenAmounts",
          "type": "uint256[2]"
        }
      ],
      "name": "getLpProposedAmount",
      "outputs": [
        {
          "internalType": "uint256",
          "name": "proposedAmount",
          "type": "uint256"
        }
      ],
      "stateMutability": "nonpayable",
      "type": "function"
    },
    {
      "inputs": [
        {
          "internalType": "uint256",
          "name": "idx",
          "type": "uint256"
        },
        {
          "internalType": "address",
          "name": "account",
          "type": "address"
        }
      ],
      "name": "getLpTradingFees",
      "outputs": [
        {
          "internalType": "uint256",
          "name": "",
          "type": "uint256"
        }
      ],
      "stateMutability": "view",
      "type": "function"
    },
    {
      "inputs": [
        {
          "internalType": "uint256",
          "name": "idx",
          "type": "uint256"
        },
        {
          "internalType": "address",
          "name": "account",
          "type": "address"
        }
      ],
      "name": "getLpUnrealizedPnL",
      "outputs": [
        {
          "internalType": "int256",
          "name": "",
          "type": "int256"
        }
      ],
      "stateMutability": "view",
      "type": "function"
    },
    {
      "inputs": [
        {
          "internalType": "uint256",
          "name": "idx",
          "type": "uint256"
        }
      ],
      "name": "getMarket",
      "outputs": [
        {
          "internalType": "contract ICryptoSwap",
          "name": "",
          "type": "address"
        }
      ],
      "stateMutability": "view",
      "type": "function"
    },
    {
      "inputs": [
        {
          "internalType": "uint256",
          "name": "idx",
          "type": "uint256"
        }
      ],
      "name": "getQuoteBalance",
      "outputs": [
        {
          "internalType": "uint256",
          "name": "",
          "type": "uint256"
        }
      ],
      "stateMutability": "view",
      "type": "function"
    },
    {
      "inputs": [
        {
          "internalType": "address",
          "name": "account",
          "type": "address"
        },
        {
          "internalType": "bool",
          "name": "isDiscounted",
          "type": "bool"
        }
      ],
      "name": "getReserveValue",
      "outputs": [
        {
          "internalType": "int256",
          "name": "",
          "type": "int256"
        }
      ],
      "stateMutability": "view",
      "type": "function"
    },
    {
      "inputs": [
        {
          "internalType": "uint256",
          "name": "idx",
          "type": "uint256"
        }
      ],
      "name": "getTotalLiquidityProvided",
      "outputs": [
        {
          "internalType": "uint256",
          "name": "",
          "type": "uint256"
        }
      ],
      "stateMutability": "view",
      "type": "function"
    },
    {
      "inputs": [
        {
          "internalType": "uint256",
          "name": "idx",
          "type": "uint256"
        },
        {
          "internalType": "address",
          "name": "account",
          "type": "address"
        }
      ],
      "name": "getTraderFundingPayments",
      "outputs": [
        {
          "internalType": "int256",
          "name": "",
          "type": "int256"
        }
      ],
      "stateMutability": "view",
      "type": "function"
    },
    {
      "inputs": [
        {
          "internalType": "uint256",
          "name": "idx",
          "type": "uint256"
        },
        {
          "internalType": "address",
          "name": "account",
          "type": "address"
        }
      ],
      "name": "getTraderPosition",
      "outputs": [
        {
          "components": [
            {
              "internalType": "int128",
              "name": "openNotional",
              "type": "int128"
            },
            {
              "internalType": "int128",
              "name": "positionSize",
              "type": "int128"
            },
            {
              "internalType": "int128",
              "name": "cumFundingRate",
              "type": "int128"
            }
          ],
          "internalType": "struct LibPerpetual.TraderPosition",
          "name": "",
          "type": "tuple"
        }
      ],
      "stateMutability": "view",
      "type": "function"
    },
    {
      "inputs": [
        {
          "internalType": "uint256",
          "name": "idx",
          "type": "uint256"
        },
        {
          "internalType": "address",
          "name": "user",
          "type": "address"
        },
        {
          "internalType": "uint256",
          "name": "reductionRatio",
          "type": "uint256"
        },
        {
          "internalType": "uint256",
          "name": "iter",
          "type": "uint256"
        },
        {
          "internalType": "uint256",
          "name": "minAmount",
          "type": "uint256"
        }
      ],
      "name": "getTraderProposedAmount",
      "outputs": [
        {
          "internalType": "uint256",
          "name": "proposedAmount",
          "type": "uint256"
        }
      ],
      "stateMutability": "view",
      "type": "function"
    },
    {
      "inputs": [
        {
          "internalType": "uint256",
          "name": "idx",
          "type": "uint256"
        },
        {
          "internalType": "address",
          "name": "account",
          "type": "address"
        }
      ],
      "name": "getTraderUnrealizedPnL",
      "outputs": [
        {
          "internalType": "int256",
          "name": "",
          "type": "int256"
        }
      ],
      "stateMutability": "view",
      "type": "function"
    },
    {
      "inputs": [
        {
          "internalType": "uint256",
          "name": "idx",
          "type": "uint256"
        }
      ],
      "name": "indexPrice",
      "outputs": [
        {
          "internalType": "int256",
          "name": "",
          "type": "int256"
        }
      ],
      "stateMutability": "view",
      "type": "function"
    },
    {
      "inputs": [
        {
          "internalType": "uint256",
          "name": "idx",
          "type": "uint256"
        }
      ],
      "name": "insuranceFee",
      "outputs": [
        {
          "internalType": "int256",
          "name": "",
          "type": "int256"
        }
      ],
      "stateMutability": "view",
      "type": "function"
    },
    {
      "inputs": [
        {
          "internalType": "uint256",
          "name": "idx",
          "type": "uint256"
        },
        {
          "internalType": "address",
          "name": "account",
          "type": "address"
        }
      ],
      "name": "isLpPositionOpen",
      "outputs": [
        {
          "internalType": "bool",
          "name": "",
          "type": "bool"
        }
      ],
      "stateMutability": "view",
      "type": "function"
    },
    {
      "inputs": [
        {
          "internalType": "address",
          "name": "account",
          "type": "address"
        },
        {
          "internalType": "int256",
          "name": "ratio",
          "type": "int256"
        }
      ],
      "name": "isMarginValid",
      "outputs": [
        {
          "internalType": "bool",
          "name": "",
          "type": "bool"
        }
      ],
      "stateMutability": "view",
      "type": "function"
    },
    {
      "inputs": [
        {
          "internalType": "address",
          "name": "account",
          "type": "address"
        }
      ],
      "name": "isPositionOpen",
      "outputs": [
        {
          "internalType": "bool",
          "name": "",
          "type": "bool"
        }
      ],
      "stateMutability": "view",
      "type": "function"
    },
    {
      "inputs": [
        {
          "internalType": "uint256",
          "name": "idx",
          "type": "uint256"
        },
        {
          "internalType": "address",
          "name": "account",
          "type": "address"
        }
      ],
      "name": "isTraderPositionOpen",
      "outputs": [
        {
          "internalType": "bool",
          "name": "",
          "type": "bool"
        }
      ],
      "stateMutability": "view",
      "type": "function"
    },
    {
      "inputs": [
        {
          "internalType": "address",
          "name": "account",
          "type": "address"
        }
      ],
      "name": "marginRatio",
      "outputs": [
        {
          "internalType": "int256",
          "name": "",
          "type": "int256"
        }
      ],
      "stateMutability": "view",
      "type": "function"
    },
    {
      "inputs": [
        {
          "internalType": "uint256",
          "name": "idx",
          "type": "uint256"
        },
        {
          "internalType": "address",
          "name": "account",
          "type": "address"
        }
      ],
      "name": "marketLeverage",
      "outputs": [
        {
          "internalType": "int256",
          "name": "",
          "type": "int256"
        }
      ],
      "stateMutability": "view",
      "type": "function"
    },
    {
      "inputs": [
        {
          "internalType": "uint256",
          "name": "idx",
          "type": "uint256"
        }
      ],
      "name": "marketPrice",
      "outputs": [
        {
          "internalType": "uint256",
          "name": "",
          "type": "uint256"
        }
      ],
      "stateMutability": "view",
      "type": "function"
    },
    {
      "inputs": [
        {
          "internalType": "uint256",
          "name": "idx",
          "type": "uint256"
        },
        {
          "internalType": "address",
          "name": "user",
          "type": "address"
        },
        {
          "internalType": "uint256",
          "name": "liquidityAmountToRemove",
          "type": "uint256"
        },
        {
          "internalType": "uint256[2]",
          "name": "minVTokenAmounts",
          "type": "uint256[2]"
        },
        {
          "internalType": "uint256",
          "name": "proposedAmount",
          "type": "uint256"
        },
        {
          "internalType": "enum LibPerpetual.Side",
          "name": "direction",
          "type": "uint8"
        },
        {
          "internalType": "bool",
          "name": "withCurveTradingFees",
          "type": "bool"
        }
      ],
      "name": "removeLiquiditySwap",
      "outputs": [
        {
          "internalType": "uint256",
          "name": "proceeds",
          "type": "uint256"
        }
      ],
      "stateMutability": "nonpayable",
      "type": "function"
    },
    {
      "inputs": [
        {
          "internalType": "uint256",
          "name": "idx",
          "type": "uint256"
        }
      ],
      "name": "totalLpTokenSupply",
      "outputs": [
        {
          "internalType": "uint256",
          "name": "",
          "type": "uint256"
        }
      ],
      "stateMutability": "view",
      "type": "function"
    }
  ],
  "transactionHash": "0x07c912004628dc0331e1bd4dbef92f55386e167fd9fef2f386238e6bd7bb9e4f",
  "args": [
    "0x147A6744D330C1A667a29C501Ff12843dD5B28f5"
  ],
  "numDeployments": 1,
  "solcInputHash": "7ff88e90c8e0ebb2dab522f6b81e8fbd",
  "bytecode": "0x60806040523480156200001157600080fd5b506040516200408838038062004088833981016040819052620000349162000089565b6001600160a01b0381166200006357604051632c9334bd60e11b81526000600482015260240160405180910390fd5b600080546001600160a01b0319166001600160a01b0392909216919091179055620000bb565b6000602082840312156200009c57600080fd5b81516001600160a01b0381168114620000b457600080fd5b9392505050565b613fbd80620000cb6000396000f3fe608060405234801561001057600080fd5b50600436106102d35760003560e01c80633d5333f6116101865780639f4a8367116100e3578063c6854acc11610097578063eb44fdd311610071578063eb44fdd314610638578063f82a61ec1461064b578063fca9b4131461065e57600080fd5b8063c6854acc146105f2578063cc2923c514610605578063ce48674f1461062557600080fd5b8063b44a823f116100c8578063b44a823f146105b9578063c0bf8daa146105cc578063c55f3b0c146105df57600080fd5b80639f4a836714610593578063b15da792146105a657600080fd5b80636ccc242f1161013a57806382ac48d51161011f57806382ac48d51461054a578063895400a21461055d5780638e78dec21461057057600080fd5b80636ccc242f1461051757806379cd60fe1461052a57600080fd5b806351aa4c9d1161016b57806351aa4c9d146104b257806359e39aab146104c557806366e910dd1461050457600080fd5b80633d5333f61461048c5780634af6d8f21461049f57600080fd5b80631fb4ef67116102345780632b04e840116101e85780632caca468116101cd5780632caca468146104535780633adec5a7146104665780633c42f81f1461047957600080fd5b80632b04e8401461042d5780632b1c12c21461044057600080fd5b806324012fcd1161021957806324012fcd146103f457806326b59eae1461040757806329122eb01461041a57600080fd5b80631fb4ef67146103c15780631fdbc3c8146103d457600080fd5b806314816f931161028b57806317941c231161027057806317941c231461038857806318994a871461039b5780631da1783e146103ae57600080fd5b806314816f931461036257806314ee9c051461037557600080fd5b80630af96800116102bc5780630af96800146103115780630cd4ff3a1461033c5780630eedb38f1461034f57600080fd5b8063059d2cf5146102d85780630af4d784146102fe575b600080fd5b6102eb6102e63660046137c5565b610671565b6040519081526020015b60405180910390f35b6102eb61030c3660046137f5565b610785565b600054610324906001600160a01b031681565b6040516001600160a01b0390911681526020016102f5565b6102eb61034a3660046137c5565b610ab6565b6102eb61035d3660046137c5565b610b84565b6102eb61037036600461383d565b610dc1565b6102eb61038336600461383d565b610e90565b6102eb6103963660046137c5565b610f9c565b6102eb6103a9366004613856565b610fd5565b6102eb6103bc366004613882565b611118565b6102eb6103cf36600461383d565b611257565b6103e76103e23660046137c5565b611302565b6040516102f591906138a4565b6102eb6104023660046137c5565b611432565b6102eb610415366004613882565b6114e9565b6102eb61042836600461397e565b61160e565b6102eb61043b366004613856565b6116d7565b6102eb61044e3660046139ac565b61179f565b6102eb61046136600461383d565b61184d565b6102eb61047436600461383d565b6118f8565b6102eb6104873660046139ac565b6119a3565b6102eb61049a3660046139ac565b611acb565b6102eb6104ad3660046137c5565b611bf0565b6102eb6104c0366004613882565b611ca7565b6104d86104d33660046137c5565b611dcc565b604080518251600f90810b8252602080850151820b908301529282015190920b908201526060016102f5565b6104d86105123660046137c5565b611ed8565b6102eb6105253660046137c5565b611fa7565b61053d6105383660046139c9565b612075565b6040516102f59190613a01565b6102eb610558366004613a43565b6123ed565b6102eb61056b36600461383d565b6124e7565b61058361057e3660046137c5565b6125f3565b60405190151581526020016102f5565b6102eb6105a136600461383d565b6126e7565b6105836105b43660046137c5565b612792565b6105836105c7366004613856565b612849565b6105836105da3660046139ac565b61285e565b6102eb6105ed366004613882565b61292d565b6102eb610600366004613a70565b612a6c565b61061861061336600461383d565b612b91565b6040516102f59190613aef565b6102eb6106333660046137c5565b612c9d565b61032461064636600461383d565b612e82565b6102eb61065936600461383d565b612f51565b6102eb61066c366004613b6a565b612f76565b600061067d8383612792565b6106895750600061077f565b600054604051632cd0f65560e11b8152600481018590526001600160a01b03909116906359a1ecaa90602401602060405180830381865afa1580156106d2573d6000803e3d6000fd5b505050506040513d601f19601f820116820180604052508101906106f69190613bbd565b6040517ffa9c7b9a0000000000000000000000000000000000000000000000000000000081526001600160a01b038481166004830152919091169063fa9c7b9a906024015b602060405180830381865afa158015610758573d6000803e3d6000fd5b505050506040513d601f19601f8201168201806040525081019061077c9190613bda565b90505b92915050565b6000806107928787611ed8565b60200151600f0b9050670de0b6b3a76400008511156107dd576040517f9932d97900000000000000000000000000000000000000000000000000000000815260040160405180910390fd5b60006107f26107eb87613188565b8390613193565b905060008083131561080e576108078261319f565b9350610aaa565b600061082161081c84613c09565b61319f565b905061083661082f8b6118f8565b82906131aa565b94506000600a61084787600f613c1e565b6108519190613c53565b90506000600a610862886005613c1e565b61086c9190613c53565b905060005b89811015610a455760026108858484613c75565b61088f9190613c53565b975060008054906101000a90046001600160a01b03166001600160a01b03166359a1ecaa8e6040518263ffffffff1660e01b81526004016108d291815260200190565b602060405180830381865afa1580156108ef573d6000803e3d6000fd5b505050506040513d601f19601f820116820180604052508101906109139190613bbd565b6001600160a01b031663e6574ee96040518163ffffffff1660e01b8152600401602060405180830381865afa158015610950573d6000803e3d6000fd5b505050506040513d601f19601f820116820180604052508101906109749190613bbd565b6001600160a01b031663f121cce661098b8f612e82565b6040517fffffffff0000000000000000000000000000000000000000000000000000000060e084901b1681526001600160a01b0390911660048201526000602482015260016044820152606481018b9052608401602060405180830381865afa1580156109fc573d6000803e3d6000fd5b505050506040513d601f19601f82011682018060405250810190610a209190613bda565b9450838514610a455783851015610a3957879150610a3d565b8792505b600101610871565b5082841015610a52578196505b878411610aa65760405162461bcd60e51b815260206004820152601360248201527f416d6f756e7420697320746f6f20736d616c6c0000000000000000000000000060448201526064015b60405180910390fd5b5050505b50505095945050505050565b6000610ac28383612792565b610ace5750600061077f565b600054604051632cd0f65560e11b8152600481018590526001600160a01b03909116906359a1ecaa90602401602060405180830381865afa158015610b17573d6000803e3d6000fd5b505050506040513d601f19601f82011682018060405250810190610b3b9190613bbd565b6040517f80e864fe0000000000000000000000000000000000000000000000000000000081526001600160a01b03848116600483015291909116906380e864fe9060240161073b565b60008054604051632cd0f65560e11b81526004810185905282916001600160a01b0316906359a1ecaa90602401602060405180830381865afa158015610bce573d6000803e3d6000fd5b505050506040513d601f19601f82011682018060405250810190610bf29190613bbd565b6040517fe873557a0000000000000000000000000000000000000000000000000000000081526001600160a01b03858116600483015291925060009183169063e873557a90602401602060405180830381865afa158015610c57573d6000803e3d6000fd5b505050506040513d601f19601f82011682018060405250810190610c7b9190613bda565b90506000610d75610cec846001600160a01b031663632b6b116040518163ffffffff1660e01b8152600401602060405180830381865afa158015610cc3573d6000803e3d6000fd5b505050506040513d601f19601f82011682018060405250810190610ce79190613bda565b613188565b6040517fe65896c90000000000000000000000000000000000000000000000000000000081526001600160a01b03888116600483015286169063e65896c990602401602060405180830381865afa158015610d4b573d6000803e3d6000fd5b505050506040513d601f19601f82011682018060405250810190610d6f9190613bda565b90613193565b90506000610d838787612c9d565b905081600003610d9a57600094505050505061077f565b6000610da787600061160e565b9050610db5818584866131b6565b98975050505050505050565b60008054604051632cd0f65560e11b8152600481018490526001600160a01b03909116906359a1ecaa90602401602060405180830381865afa158015610e0b573d6000803e3d6000fd5b505050506040513d601f19601f82011682018060405250810190610e2f9190613bbd565b6001600160a01b03166389fd335b6040518163ffffffff1660e01b8152600401602060405180830381865afa158015610e6c573d6000803e3d6000fd5b505050506040513d601f19601f8201168201806040525081019061077f9190613bda565b60008054604051632cd0f65560e11b8152600481018490526001600160a01b03909116906359a1ecaa90602401602060405180830381865afa158015610eda573d6000803e3d6000fd5b505050506040513d601f19601f82011682018060405250810190610efe9190613bbd565b6001600160a01b031663c5f1916c6040518163ffffffff1660e01b8152600401602060405180830381865afa158015610f3b573d6000803e3d6000fd5b505050506040513d601f19601f82011682018060405250810190610f5f9190613bbd565b6001600160a01b03166318160ddd6040518163ffffffff1660e01b8152600401602060405180830381865afa158015610e6c573d6000803e3d6000fd5b6000610fa88383612792565b610fb45750600061077f565b610fc1610ce78484610671565b610fcb8484610ab6565b61077c9190613c88565b6000805460405163adf1ab9b60e01b81526001600160a01b0385811660048301528392169063adf1ab9b90602401602060405180830381865afa158015611020573d6000803e3d6000fd5b505050506040513d601f19601f820116820180604052508101906110449190613bda565b905060006110518561179f565b60008054604051637ef8a2d360e01b81526001600160a01b03898116600483015293945091921690637ef8a2d390602401602060405180830381865afa15801561109f573d6000803e3d6000fd5b505050506040513d601f19601f820116820180604052508101906110c39190613bda565b905060006110d18287613193565b9050816000036110df575060005b60006110ec88600061160e565b905081846111046110fd8885613c88565b84906131e8565b61110e9190613c88565b610db59190613cb0565b60008054604051632cd0f65560e11b8152600481018590526001600160a01b03909116906359a1ecaa90602401602060405180830381865afa158015611162573d6000803e3d6000fd5b505050506040513d601f19601f820116820180604052508101906111869190613bbd565b6001600160a01b031663e6574ee96040518163ffffffff1660e01b8152600401602060405180830381865afa1580156111c3573d6000803e3d6000fd5b505050506040513d601f19601f820116820180604052508101906111e79190613bbd565b6001600160a01b031663f121cce66111fe85612e82565b6040517fffffffff0000000000000000000000000000000000000000000000000000000060e084901b1681526001600160a01b03909116600482015260016024820152600060448201526064810185905260840161073b565b60008054604051632cd0f65560e11b8152600481018490526001600160a01b03909116906359a1ecaa90602401602060405180830381865afa1580156112a1573d6000803e3d6000fd5b505050506040513d601f19601f820116820180604052508101906112c59190613bbd565b6001600160a01b03166310bace8c6040518163ffffffff1660e01b8152600401602060405180830381865afa158015610e6c573d6000803e3d6000fd5b6040805161010081018252600080825260208201819052818301819052606082018190526080820181905260a0820181905260c0820181905260e08201819052549151632cd0f65560e11b81526004810185905290916001600160a01b0316906359a1ecaa90602401602060405180830381865afa158015611388573d6000803e3d6000fd5b505050506040513d601f19601f820116820180604052508101906113ac9190613bbd565b6040517fcefc49930000000000000000000000000000000000000000000000000000000081526001600160a01b038481166004830152919091169063cefc49939060240161010060405180830381865afa15801561140e573d6000803e3d6000fd5b505050506040513d601f19601f8201168201806040525081019061077c9190613d57565b60008054604051632cd0f65560e11b8152600481018590526001600160a01b03909116906359a1ecaa90602401602060405180830381865afa15801561147c573d6000803e3d6000fd5b505050506040513d601f19601f820116820180604052508101906114a09190613bbd565b6040517faa407ae10000000000000000000000000000000000000000000000000000000081526001600160a01b038481166004830152919091169063aa407ae19060240161073b565b60008054604051632cd0f65560e11b8152600481018590526001600160a01b03909116906359a1ecaa90602401602060405180830381865afa158015611533573d6000803e3d6000fd5b505050506040513d601f19601f820116820180604052508101906115579190613bbd565b6001600160a01b03166380f556056040518163ffffffff1660e01b8152600401602060405180830381865afa158015611594573d6000803e3d6000fd5b505050506040513d601f19601f820116820180604052508101906115b89190613bbd565b6040517f556d6e9f0000000000000000000000000000000000000000000000000000000081526000600482015260016024820152604481018490526001600160a01b03919091169063556d6e9f9060640161073b565b60008060009054906101000a90046001600160a01b03166001600160a01b031663fbfa77cf6040518163ffffffff1660e01b8152600401602060405180830381865afa158015611662573d6000803e3d6000fd5b505050506040513d601f19601f820116820180604052508101906116869190613bbd565b6040517f29122eb00000000000000000000000000000000000000000000000000000000081526001600160a01b038581166004830152841515602483015291909116906329122eb09060440161073b565b60008060009054906101000a90046001600160a01b03166001600160a01b031663fbfa77cf6040518163ffffffff1660e01b8152600401602060405180830381865afa15801561172b573d6000803e3d6000fd5b505050506040513d601f19601f8201168201806040525081019061174f9190613bbd565b6040517f2b04e8400000000000000000000000000000000000000000000000000000000081526001600160a01b038581166004830152602482018590529190911690632b04e8409060440161073b565b6000805b60008054906101000a90046001600160a01b03166001600160a01b031663295c39a56040518163ffffffff1660e01b8152600401602060405180830381865afa1580156117f4573d6000803e3d6000fd5b505050506040513d601f19601f820116820180604052508101906118189190613bda565b811015611847576118298184612c9d565b6118339083613c88565b91508061183f81613dfb565b9150506117a3565b50919050565b60008054604051632cd0f65560e11b8152600481018490526001600160a01b03909116906359a1ecaa90602401602060405180830381865afa158015611897573d6000803e3d6000fd5b505050506040513d601f19601f820116820180604052508101906118bb9190613bbd565b6001600160a01b03166397c4fac76040518163ffffffff1660e01b8152600401602060405180830381865afa158015610e6c573d6000803e3d6000fd5b60008054604051632cd0f65560e11b8152600481018490526001600160a01b03909116906359a1ecaa90602401602060405180830381865afa158015611942573d6000803e3d6000fd5b505050506040513d601f19601f820116820180604052508101906119669190613bbd565b6001600160a01b03166345a153886040518163ffffffff1660e01b8152600401602060405180830381865afa158015610e6c573d6000803e3d6000fd5b6000805460405163adf1ab9b60e01b81526001600160a01b0384811660048301528392169063adf1ab9b90602401602060405180830381865afa1580156119ee573d6000803e3d6000fd5b505050506040513d601f19601f82011682018060405250810190611a129190613bda565b60008054604051637ef8a2d360e01b81526001600160a01b03878116600483015293945091921690637ef8a2d390602401602060405180830381865afa158015611a60573d6000803e3d6000fd5b505050506040513d601f19601f82011682018060405250810190611a849190613bda565b90506000611a918561179f565b905081600003611aa657506000949350505050565b6000611ab386600061160e565b9050611ac1818584866131b6565b9695505050505050565b6000805460405163adf1ab9b60e01b81526001600160a01b0384811660048301528392169063adf1ab9b90602401602060405180830381865afa158015611b16573d6000803e3d6000fd5b505050506040513d601f19601f82011682018060405250810190611b3a9190613bda565b60008054604051637ef8a2d360e01b81526001600160a01b03878116600483015293945091921690637ef8a2d390602401602060405180830381865afa158015611b88573d6000803e3d6000fd5b505050506040513d601f19601f82011682018060405250810190611bac9190613bda565b90506000611bb98561179f565b905081600003611bd55750670de0b6b3a7640000949350505050565b6000611be286600061160e565b9050611ac1818584866131f4565b60008054604051632cd0f65560e11b8152600481018590526001600160a01b03909116906359a1ecaa90602401602060405180830381865afa158015611c3a573d6000803e3d6000fd5b505050506040513d601f19601f82011682018060405250810190611c5e9190613bbd565b6040517f2d3eb79b0000000000000000000000000000000000000000000000000000000081526001600160a01b0384811660048301529190911690632d3eb79b9060240161073b565b60008054604051632cd0f65560e11b8152600481018590526001600160a01b03909116906359a1ecaa90602401602060405180830381865afa158015611cf1573d6000803e3d6000fd5b505050506040513d601f19601f82011682018060405250810190611d159190613bbd565b6001600160a01b03166380f556056040518163ffffffff1660e01b8152600401602060405180830381865afa158015611d52573d6000803e3d6000fd5b505050506040513d601f19601f82011682018060405250810190611d769190613bbd565b6040517f556d6e9f0000000000000000000000000000000000000000000000000000000081526001600482015260006024820152604481018490526001600160a01b03919091169063556d6e9f9060640161073b565b60408051606081018252600080825260208201819052818301819052549151632cd0f65560e11b81526004810185905290916001600160a01b0316906359a1ecaa90602401602060405180830381865afa158015611e2e573d6000803e3d6000fd5b505050506040513d601f19601f82011682018060405250810190611e529190613bbd565b6040517fc70fbda00000000000000000000000000000000000000000000000000000000081526001600160a01b038481166004830152919091169063c70fbda0906024015b606060405180830381865afa158015611eb4573d6000803e3d6000fd5b505050506040513d601f19601f8201168201806040525081019061077c9190613e15565b60408051606081018252600080825260208201819052818301819052549151632cd0f65560e11b81526004810185905290916001600160a01b0316906359a1ecaa90602401602060405180830381865afa158015611f3a573d6000803e3d6000fd5b505050506040513d601f19601f82011682018060405250810190611f5e9190613bbd565b6040517f793962d80000000000000000000000000000000000000000000000000000000081526001600160a01b038481166004830152919091169063793962d890602401611e97565b6000611fb383836125f3565b611fbf5750600061077f565b600054604051632cd0f65560e11b8152600481018590526001600160a01b03909116906359a1ecaa90602401602060405180830381865afa158015612008573d6000803e3d6000fd5b505050506040513d601f19601f8201168201806040525081019061202c9190613bbd565b6040517f76c469b60000000000000000000000000000000000000000000000000000000081526001600160a01b03848116600483015291909116906376c469b69060240161073b565b61207d61378f565b816120888585611302565b606001516fffffffffffffffffffffffffffffffff1610156120d6576040517fca2fc97300000000000000000000000000000000000000000000000000000000815260040160405180910390fd5b60006120e1856124e7565b60008054604051632cd0f65560e11b815260048101899052929350909183916001600160a01b0316906359a1ecaa90602401602060405180830381865afa158015612130573d6000803e3d6000fd5b505050506040513d601f19601f820116820180604052508101906121549190613bbd565b6001600160a01b03166380f556056040518163ffffffff1660e01b8152600401602060405180830381865afa158015612191573d6000803e3d6000fd5b505050506040513d601f19601f820116820180604052508101906121b59190613bbd565b6040517f4903b0d1000000000000000000000000000000000000000000000000000000008152600060048201526001600160a01b039190911690634903b0d190602401602060405180830381865afa158015612215573d6000803e3d6000fd5b505050506040513d601f19601f820116820180604052508101906122399190613bda565b612244600187613e8f565b61224e9190613c1e565b6122589190613c53565b60008054604051632cd0f65560e11b8152600481018a9052929350909184916001600160a01b0316906359a1ecaa90602401602060405180830381865afa1580156122a7573d6000803e3d6000fd5b505050506040513d601f19601f820116820180604052508101906122cb9190613bbd565b6001600160a01b03166380f556056040518163ffffffff1660e01b8152600401602060405180830381865afa158015612308573d6000803e3d6000fd5b505050506040513d601f19601f8201168201806040525081019061232c9190613bbd565b6040517f4903b0d1000000000000000000000000000000000000000000000000000000008152600160048201526001600160a01b039190911690634903b0d190602401602060405180830381865afa15801561238c573d6000803e3d6000fd5b505050506040513d601f19601f820116820180604052508101906123b09190613bda565b6123bb600188613e8f565b6123c59190613c1e565b6123cf9190613c53565b604080518082019091529283526020830152509150505b9392505050565b60008054604051632cd0f65560e11b8152600481018590526001600160a01b03909116906359a1ecaa90602401602060405180830381865afa158015612437573d6000803e3d6000fd5b505050506040513d601f19601f8201168201806040525081019061245b9190613bbd565b6001600160a01b03166380f556056040518163ffffffff1660e01b8152600401602060405180830381865afa158015612498573d6000803e3d6000fd5b505050506040513d601f19601f820116820180604052508101906124bc9190613bbd565b6001600160a01b0316638d8ea727836040518263ffffffff1660e01b815260040161073b9190613ea2565b60008054604051632cd0f65560e11b8152600481018490526001600160a01b03909116906359a1ecaa90602401602060405180830381865afa158015612531573d6000803e3d6000fd5b505050506040513d601f19601f820116820180604052508101906125559190613bbd565b6001600160a01b03166380f556056040518163ffffffff1660e01b8152600401602060405180830381865afa158015612592573d6000803e3d6000fd5b505050506040513d601f19601f820116820180604052508101906125b69190613bbd565b6001600160a01b031663fc0c546a6040518163ffffffff1660e01b8152600401602060405180830381865afa158015610f3b573d6000803e3d6000fd5b60008054604051632cd0f65560e11b8152600481018590526001600160a01b03909116906359a1ecaa90602401602060405180830381865afa15801561263d573d6000803e3d6000fd5b505050506040513d601f19601f820116820180604052508101906126619190613bbd565b6040517fa42d66020000000000000000000000000000000000000000000000000000000081526001600160a01b038481166004830152919091169063a42d6602906024015b602060405180830381865afa1580156126c3573d6000803e3d6000fd5b505050506040513d601f19601f8201168201806040525081019061077c9190613eb1565b60008054604051632cd0f65560e11b8152600481018490526001600160a01b03909116906359a1ecaa90602401602060405180830381865afa158015612731573d6000803e3d6000fd5b505050506040513d601f19601f820116820180604052508101906127559190613bbd565b6001600160a01b0316634bc36bd66040518163ffffffff1660e01b8152600401602060405180830381865afa158015610f3b573d6000803e3d6000fd5b60008054604051632cd0f65560e11b8152600481018590526001600160a01b03909116906359a1ecaa90602401602060405180830381865afa1580156127dc573d6000803e3d6000fd5b505050506040513d601f19601f820116820180604052508101906128009190613bbd565b6040517f9d36b7590000000000000000000000000000000000000000000000000000000081526001600160a01b0384811660048301529190911690639d36b759906024016126a6565b60008161285584611acb565b12159392505050565b60008054604080517f295c39a5000000000000000000000000000000000000000000000000000000008152905183926001600160a01b03169163295c39a59160048083019260209291908290030181865afa1580156128c1573d6000803e3d6000fd5b505050506040513d601f19601f820116820180604052508101906128e59190613bda565b905060005b81811015612923576128fc81856125f3565b8061290c575061290c8185612792565b1561291b575060019392505050565b6001016128ea565b5060009392505050565b60008054604051632cd0f65560e11b8152600481018590526001600160a01b03909116906359a1ecaa90602401602060405180830381865afa158015612977573d6000803e3d6000fd5b505050506040513d601f19601f8201168201806040525081019061299b9190613bbd565b6001600160a01b031663e6574ee96040518163ffffffff1660e01b8152600401602060405180830381865afa1580156129d8573d6000803e3d6000fd5b505050506040513d601f19601f820116820180604052508101906129fc9190613bbd565b6001600160a01b031663f121cce6612a1385612e82565b6040517fffffffff0000000000000000000000000000000000000000000000000000000060e084901b1681526001600160a01b03909116600482015260006024820152600160448201526064810185905260840161073b565b60008054604051632cd0f65560e11b8152600481018a90526001600160a01b03909116906359a1ecaa90602401602060405180830381865afa158015612ab6573d6000803e3d6000fd5b505050506040513d601f19601f82011682018060405250810190612ada9190613bbd565b6001600160a01b031663a9f97b688888888888886040518763ffffffff1660e01b8152600401612b0f96959493929190613ece565b600060405180830381600087803b158015612b2957600080fd5b505af1925050508015612b3a575060015b612b86573d808015612b68576040519150601f19603f3d011682016040523d82523d6000602084013e612b6d565b606091505b5080806020019051810190612b829190613bda565b9150505b979650505050505050565b6040805161010081018252600080825260208201819052818301819052606082018190526080820181905260a0820181905260c0820181905260e08201819052549151632cd0f65560e11b81526004810184905290916001600160a01b0316906359a1ecaa90602401602060405180830381865afa158015612c17573d6000803e3d6000fd5b505050506040513d601f19601f82011682018060405250810190612c3b9190613bbd565b6001600160a01b0316639027b59e6040518163ffffffff1660e01b815260040161010060405180830381865afa158015612c79573d6000803e3d6000fd5b505050506040513d601f19601f8201168201806040525081019061077f9190613f29565b60008054604051632cd0f65560e11b8152600481018590526001600160a01b03909116906359a1ecaa90602401602060405180830381865afa158015612ce7573d6000803e3d6000fd5b505050506040513d601f19601f82011682018060405250810190612d0b9190613bbd565b6040517faa407ae10000000000000000000000000000000000000000000000000000000081526001600160a01b038481166004830152919091169063aa407ae190602401602060405180830381865afa158015612d6c573d6000803e3d6000fd5b505050506040513d601f19601f82011682018060405250810190612d909190613bda565b600054604051632cd0f65560e11b8152600481018690526001600160a01b03909116906359a1ecaa90602401602060405180830381865afa158015612dd9573d6000803e3d6000fd5b505050506040513d601f19601f82011682018060405250810190612dfd9190613bbd565b6040517f2d3eb79b0000000000000000000000000000000000000000000000000000000081526001600160a01b0385811660048301529190911690632d3eb79b90602401602060405180830381865afa158015612e5e573d6000803e3d6000fd5b505050506040513d601f19601f82011682018060405250810190610fcb9190613bda565b60008054604051632cd0f65560e11b8152600481018490526001600160a01b03909116906359a1ecaa90602401602060405180830381865afa158015612ecc573d6000803e3d6000fd5b505050506040513d601f19601f82011682018060405250810190612ef09190613bbd565b6001600160a01b03166380f556056040518163ffffffff1660e01b8152600401602060405180830381865afa158015612f2d573d6000803e3d6000fd5b505050506040513d601f19601f8201168201806040525081019061077f9190613bbd565b60008054612f699083906001600160a01b0316611ed8565b60200151600f0b92915050565b600080612f838787611dcc565b60200151600f0b9050670de0b6b3a7640000851115612fce576040517f9932d97900000000000000000000000000000000000000000000000000000000815260040160405180910390fd5b6000612fdc6107eb87613188565b90506000811315612ff757612ff08161319f565b925061317d565b6000613023876130078b8b611302565b606001516fffffffffffffffffffffffffffffffff16906131aa565b905060008061303461081c85613c09565b90506130a36130428c612e82565b6001600160a01b03166386fc88d36040518163ffffffff1660e01b8152600401602060405180830381865afa15801561307f573d6000803e3d6000fd5b505050506040513d601f19601f8201168201806040525081019061082f9190613bda565b95506000600a6130b488600f613c1e565b6130be9190613c53565b90506000600a6130cf896005613c1e565b6130d99190613c53565b905060005b8a8110156131575760026130f28484613c75565b6130fc9190613c53565b985061310f8e8e888d8d60006001612a6c565b94508385101561312157889150613136565b8385111561313157889250613136565b613157565b6131408284613e8f565b60010361314f57829850613157565b6001016130de565b5082841015613177578197506131748d8d878c8c60006001612a6c565b93505b50505050505b505095945050505050565b600061077f82613217565b600061077c83836132b3565b600061077f826133c0565b600061077c8383613412565b60006131df836131c68688613c88565b6131d09190613c88565b6131d98461341e565b90613429565b95945050505050565b600061077c8383613435565b60006131df6132028361341e565b8461320d8789613c88565b6131d99190613c88565b60007f7fffffffffffffffffffffffffffffffffffffffffffffffffffffffffffffff8211156132af5760405162461bcd60e51b815260206004820152602860248201527f53616665436173743a2076616c756520646f65736e27742066697420696e206160448201527f6e20696e743235360000000000000000000000000000000000000000000000006064820152608401610a9d565b5090565b6000600160ff1b8314806132ca5750600160ff1b82145b15613301576040517f3406846c00000000000000000000000000000000000000000000000000000000815260040160405180910390fd5b600080600085126133125784613317565b846000035b915060008412613327578361332c565b836000035b9050600061333a838361344b565b90507f7fffffffffffffffffffffffffffffffffffffffffffffffffffffffffffffff811115613399576040517fbf79e8d900000000000000000000000000000000000000000000000000000000815260048101829052602401610a9d565b6000198087139086138082186001146133b25782610db5565b505060000395945050505050565b6000808212156132af5760405162461bcd60e51b815260206004820181905260248201527f53616665436173743a2076616c7565206d75737420626520706f7369746976656044820152606401610a9d565b600061077c838361344b565b600061077f82613544565b600061077c8383613598565b6000818312613444578161077c565b5090919050565b60008080600019848609848602925082811083820303915050670de0b6b3a764000081106134a8576040517fd31b340200000000000000000000000000000000000000000000000000000000815260048101829052602401610a9d565b600080670de0b6b3a764000086880991506706f05b59d3b1ffff82119050826000036134e65780670de0b6b3a764000085040194505050505061077f565b6204000082850304939091119091037d40000000000000000000000000000000000000000000000000000000000002919091177faccb18165bd6fe31ae1cf318dc5b51eee0e1ba569b88cd74c1773b91fac106690201905092915050565b6000600160ff1b8203613583576040517f741d0b8c00000000000000000000000000000000000000000000000000000000815260040160405180910390fd5b60008212613591578161077f565b5060000390565b6000600160ff1b8314806135af5750600160ff1b82145b156135e6576040517fb3c754a300000000000000000000000000000000000000000000000000000000815260040160405180910390fd5b600080600085126135f757846135fc565b846000035b91506000841261360c5783613611565b836000035b9050600061362883670de0b6b3a7640000846136a9565b90507f7fffffffffffffffffffffffffffffffffffffffffffffffffffffffffffffff811115613687576040517f7cb4bef500000000000000000000000000000000000000000000000000000000815260048101829052602401610a9d565b6000198087139086138082186001146136a05782610db5565b610db583613c09565b60008080600019858709858702925082811083820303915050806000036136e3578382816136d9576136d9613c3d565b04925050506123e6565b838110613726576040517f773cc18c0000000000000000000000000000000000000000000000000000000081526004810182905260248101859052604401610a9d565b60008486880960026001871981018816978890046003810283188082028403028082028403028082028403028082028403028082028403029081029092039091026000889003889004909101858311909403939093029303949094049190911702949350505050565b60405180604001604052806002906020820280368337509192915050565b6001600160a01b03811681146137c257600080fd5b50565b600080604083850312156137d857600080fd5b8235915060208301356137ea816137ad565b809150509250929050565b600080600080600060a0868803121561380d57600080fd5b85359450602086013561381f816137ad565b94979496505050506040830135926060810135926080909101359150565b60006020828403121561384f57600080fd5b5035919050565b6000806040838503121561386957600080fd5b8235613874816137ad565b946020939093013593505050565b6000806040838503121561389557600080fd5b50508035926020909101359150565b6000610100820190508251600f0b82526020830151600f0b60208301526040830151600f0b60408301526fffffffffffffffffffffffffffffffff606084015116606083015267ffffffffffffffff608084015116608083015260a083015161392160a08401826fffffffffffffffffffffffffffffffff169052565b5060c083015161394560c08401826fffffffffffffffffffffffffffffffff169052565b5060e083015161396960e08401826fffffffffffffffffffffffffffffffff169052565b5092915050565b80151581146137c257600080fd5b6000806040838503121561399157600080fd5b823561399c816137ad565b915060208301356137ea81613970565b6000602082840312156139be57600080fd5b81356123e6816137ad565b6000806000606084860312156139de57600080fd5b8335925060208401356139f0816137ad565b929592945050506040919091013590565b60408101818360005b6002811015613a29578151835260209283019290910190600101613a0a565b50505092915050565b806040810183101561077f57600080fd5b60008060608385031215613a5657600080fd5b82359150613a678460208501613a32565b90509250929050565b6000806000806000806000610100888a031215613a8c57600080fd5b873596506020880135613a9e816137ad565b955060408801359450613ab48960608a01613a32565b935060a0880135925060c088013560028110613acf57600080fd5b915060e0880135613adf81613970565b8091505092959891949750929550565b60006101008201905067ffffffffffffffff808451168352806020850151166020840152506040830151600f0b6040830152606083015160608301526fffffffffffffffffffffffffffffffff608084015116608083015260a083015161392160a08401826fffffffffffffffffffffffffffffffff169052565b600080600080600060c08688031215613b8257600080fd5b853594506020860135613b94816137ad565b93506040860135925060608601359150613bb18760808801613a32565b90509295509295909350565b600060208284031215613bcf57600080fd5b81516123e6816137ad565b600060208284031215613bec57600080fd5b5051919050565b634e487b7160e01b600052601160045260246000fd5b6000600160ff1b820361359157613591613bf3565b6000816000190483118215151615613c3857613c38613bf3565b500290565b634e487b7160e01b600052601260045260246000fd5b600082613c7057634e487b7160e01b600052601260045260246000fd5b500490565b8082018082111561077f5761077f613bf3565b8082018281126000831280158216821582161715613ca857613ca8613bf3565b505092915050565b818103600083128015838313168383128216171561396957613969613bf3565b604051610100810167ffffffffffffffff81118282101715613d0257634e487b7160e01b600052604160045260246000fd5b60405290565b8051600f81900b8114613d1a57600080fd5b919050565b80516fffffffffffffffffffffffffffffffff81168114613d1a57600080fd5b805167ffffffffffffffff81168114613d1a57600080fd5b60006101008284031215613d6a57600080fd5b613d72613cd0565b613d7b83613d08565b8152613d8960208401613d08565b6020820152613d9a60408401613d08565b6040820152613dab60608401613d1f565b6060820152613dbc60808401613d3f565b6080820152613dcd60a08401613d1f565b60a0820152613dde60c08401613d1f565b60c0820152613def60e08401613d1f565b60e08201529392505050565b60006000198203613e0e57613e0e613bf3565b5060010190565b600060608284031215613e2757600080fd5b6040516060810181811067ffffffffffffffff82111715613e5857634e487b7160e01b600052604160045260246000fd5b604052613e6483613d08565b8152613e7260208401613d08565b6020820152613e8360408401613d08565b60408201529392505050565b8181038181111561077f5761077f613bf3565b60408181019083833792915050565b600060208284031215613ec357600080fd5b81516123e681613970565b6001600160a01b03871681526020810186905260e081016040868184013784608083015260028410613f1057634e487b7160e01b600052602160045260246000fd5b8360a083015282151560c0830152979650505050505050565b60006101008284031215613f3c57600080fd5b613f44613cd0565b613f4d83613d3f565b8152613f5b60208401613d3f565b6020820152613f6c60408401613d08565b604082015260608301516060820152613dbc60808401613d1f56fea2646970667358221220409f5fe40bbc7f8a6c097a7f787a1993efefe5b34e94b8f30bcc3d6409a9b79d64736f6c63430008100033",
  "devdoc": {
    "kind": "dev",
    "methods": {
      "accountLeverage(address)": {
        "params": {
          "account": "User to get the account leverage from"
        }
      },
      "getBalance(address,uint256)": {
        "params": {
          "tokenIdx": "Token to get the balance of",
          "user": "User to get the balance of"
        }
      },
      "getBaseBalance(uint256)": {
        "params": {
          "idx": "Index of the perpetual market"
        }
      },
      "getBaseDust(uint256)": {
        "returns": {
          "_0": "Base balance of Governance. 18 decimals"
        }
      },
      "getExpectedLpTokenAmount(uint256,uint256[2])": {
        "details": "Given that the estimated amount might be slightly off (slippage) and that the market may move a bit      between this call and the next, users should apply a small reduction on the returned amount.",
        "params": {
          "amounts": "Array of 2 amounts, a vQuote and a vBase amount",
          "idx": "Index of the perpetual market"
        }
      },
      "getExpectedVBaseAmount(uint256,uint256)": {
        "details": "It's up to the client to apply a reduction of this amount (e.g. -1%) to then use it as a reasonable value for `minAmount` in `extendPosition`",
        "params": {
          "idx": "Index of the perpetual market",
          "vQuoteAmountToSpend": "Amount of vQuote to be exchanged against some vBase. 18 decimals"
        }
      },
      "getExpectedVBaseAmountExFees(uint256,uint256)": {
        "details": "It's up to the client to apply a reduction of this amount (e.g. -1%) to then use it as a reasonable value for `minAmount` in `extendPosition`",
        "params": {
          "idx": "Index of the perpetual market",
          "vQuoteAmountToSpend": "Amount of vQuote to be exchanged against some vBase. 18 decimals"
        }
      },
      "getExpectedVQuoteAmount(uint256,uint256)": {
        "details": "It's up to the client to apply a reduction of this amount (e.g. -1%) to then use it as a reasonable value for `minAmount` in `extendPosition`",
        "params": {
          "idx": "Index of the perpetual market",
          "vBaseAmountToSpend": "Amount of vBase to be exchanged against some vQuote. 18 decimals"
        }
      },
      "getExpectedVQuoteAmountExFees(uint256,uint256)": {
        "details": "It's up to the client to apply a reduction of this amount (e.g. -1%) to then use it as a reasonable value for `minAmount` in `extendPosition`",
        "params": {
          "idx": "Index of the perpetual market",
          "vBaseAmountToSpend": "Amount of vBase to be exchanged against some vQuote. 18 decimals"
        }
      },
      "getExpectedVirtualTokenAmountsFromLpTokenAmount(uint256,address,uint256)": {
        "details": "Apply a small reduction to the token amounts to ensure that the call to `removeLiquidity` passes",
        "params": {
          "account": "Address of the LP account",
          "idx": "Index of the perpetual market",
          "lpTokenAmountToWithdraw": "Amount of LP tokens to return to the market"
        }
      },
      "getFreeCollateralByRatio(address,int256)": {
        "details": "free collateral = profit + discounted collaterals USD value"
      },
      "getFundingPayments(uint256,address)": {
        "params": {
          "account": "User to get the funding payments of",
          "idx": "Index of the perpetual market"
        }
      },
      "getFundingPaymentsAcrossMarkets(address)": {
        "params": {
          "account": "User to get the funding payments of"
        }
      },
      "getGlobalPosition(uint256)": {
        "params": {
          "idx": "Index of the perpetual market"
        }
      },
      "getLpEstimatedPnl(uint256,address)": {
        "params": {
          "account": "Lp to get the pnl and trading fees earned from"
        },
        "returns": {
          "_0": "pnl Unrealized profit and loss and trading fees earned. 18 decimals"
        }
      },
      "getLpFundingPayments(uint256,address)": {
        "params": {
          "account": "Lp to get the funding payments",
          "idx": "Index of the perpetual market"
        }
      },
      "getLpPosition(uint256,address)": {
        "params": {
          "account": "Address to get the LP position from",
          "idx": "Index of the perpetual market"
        }
      },
      "getLpPositionAfterWithdrawal(uint256,address)": {
        "params": {
          "account": "Liquidity Provider"
        },
        "returns": {
          "_0": "(Active) Liquidity Provider position"
        }
      },
      "getLpProposedAmount(uint256,address,uint256,uint256,uint256[2])": {
        "params": {
          "idx": "Index of the perpetual market",
          "iter": "Maximum iterations",
          "minVTokenAmounts": "Minimum amount that the user is willing to accept of remove liquidity. 18 decimals",
          "reductionRatio": "Percentage of the position that the user wishes to close. Min: 0. Max: 1e18",
          "user": "Account"
        },
        "returns": {
          "proposedAmount": "Amount of tokens to swap. 18 decimals"
        }
      },
      "getLpTradingFees(uint256,address)": {
        "params": {
          "account": "Lp to get the trading fees earned from",
          "idx": "Index of the perpetual market"
        },
        "returns": {
          "_0": "tradingFeesEarned Trading fees earned by the Liquidity Provider. 18 decimals"
        }
      },
      "getLpUnrealizedPnL(uint256,address)": {
        "params": {
          "account": "Lp to get the unrealized PnL from",
          "idx": "Index of the perpetual market"
        }
      },
      "getMarket(uint256)": {
        "params": {
          "idx": "Index of the perpetual market"
        }
      },
      "getQuoteBalance(uint256)": {
        "params": {
          "idx": "Index of the perpetual market"
        }
      },
      "getReserveValue(address,bool)": {
        "params": {
          "account": "Address to get the portfolio value from",
          "isDiscounted": "Whether or not the reserve value should be discounted by the weight of the collateral"
        },
        "returns": {
          "_0": "reserveValue Value of collaterals in USD. 18 decimals"
        }
      },
      "getTotalLiquidityProvided(uint256)": {
        "params": {
          "idx": "Index of the perpetual market"
        }
      },
      "getTraderFundingPayments(uint256,address)": {
        "params": {
          "account": "User to get the funding payments of",
          "idx": "Index of the perpetual market"
        }
      },
      "getTraderPosition(uint256,address)": {
        "params": {
          "account": "Address to get the trading position from",
          "idx": "Index of the perpetual market"
        }
      },
      "getTraderProposedAmount(uint256,address,uint256,uint256,uint256)": {
        "params": {
          "idx": "Index of the perpetual market",
          "iter": "Maximum iterations",
          "minAmount": "Minimum amount that the user is willing to accept. 18 decimals",
          "reductionRatio": "Percentage of the position that the user wishes to close. Min: 0. Max: 1e18",
          "user": "Account"
        },
        "returns": {
          "proposedAmount": "Amount of tokens to swap. 18 decimals"
        }
      },
      "getTraderUnrealizedPnL(uint256,address)": {
        "params": {
          "account": "Trader to get the unrealized PnL from",
          "idx": "Index of the perpetual market"
        }
      },
      "indexPrice(uint256)": {
        "params": {
          "idx": "Index of the perpetual market"
        }
      },
      "insuranceFee(uint256)": {
        "params": {
          "idx": "Index of the perpetual market"
        }
      },
      "isLpPositionOpen(uint256,address)": {
        "params": {
          "account": "Address of the LP account",
          "idx": "Index of the perpetual market"
        }
      },
      "isMarginValid(address,int256)": {
        "details": "Differ from `ClearingHouse._isPositionValid` in that it includes an estimate of pending funding payments,      also `_isPositionValid` formula is arranged differently",
        "params": {
          "account": "Account of the position to get the margin ratio from",
          "ratio": "Proposed ratio to compare the position against"
        }
      },
      "isPositionOpen(address)": {
        "params": {
          "account": "Address of the user account"
        }
      },
      "isTraderPositionOpen(uint256,address)": {
        "params": {
          "account": "Address of the trading account",
          "idx": "Index of the perpetual market"
        }
      },
      "marginRatio(address)": {
        "details": "Unlike ClearingHouse.getFreeCollateralByRatio, ClearingHouseViewer.marginRatio includes fundingPayments      and formula is arranged differently",
        "params": {
          "account": "Account of the position to get the margin ratio from"
        }
      },
      "marketLeverage(uint256,address)": {
        "params": {
          "account": "User to get the account leverage from",
          "idx": "Index of the perpetual market"
        }
      },
      "marketPrice(uint256)": {
        "params": {
          "idx": "Index of the perpetual market"
        }
      },
      "removeLiquiditySwap(uint256,address,uint256,uint256[2],uint256,uint8,bool)": {
        "params": {
          "direction": "If Long, vQuote should be traded for vBase otherwise vBase should be traded for vQuote    /// @return proceeds received from swapping after removing liquidity",
          "idx": "Index of the perpetual market",
          "liquidityAmountToRemove": "Amount of liquidity (in LP tokens) to be removed from the pool. 18 decimals",
          "minVTokenAmounts": "Minimum amount of virtual tokens [vQuote, vBase] withdrawn from the curve pool. 18 decimals",
          "proposedAmount": "Amount at which to get the LP position (in vBase if LONG, in vQuote if SHORT). 18 decimals",
          "withCurveTradingFees": "Whether or not Curve trading fees should be included"
        }
      },
      "totalLpTokenSupply(uint256)": {
        "params": {
          "idx": "Index of the perpetual market"
        }
      }
    },
    "title": "Clearing House Helper Contract",
    "version": 1
  },
  "userdoc": {
    "errors": {
      "ClearingHouseViewer_LpTokenAmountPassedLargerThanBalance()": [
        {
          "notice": "Emitted when the amount of LP tokens passed is larger than the user LP token balance"
        }
      ],
      "ClearingHouseViewer_ReductionRatioTooLarge()": [
        {
          "notice": "Emitted when the reduction ratio given is larger than 1e18"
        }
      ],
      "ClearingHouseViewer_ZeroAddressConstructor(uint8)": [
        {
          "notice": "Emitted when the zero address is provided as a parameter in the constructor"
        }
      ],
      "PRBMathSD59x18__AbsInputTooSmall()": [
        {
          "notice": "Emitted when the input is MIN_SD59x18."
        }
      ],
      "PRBMathSD59x18__DivInputTooSmall()": [
        {
          "notice": "Emitted when one of the inputs is MIN_SD59x18."
        }
      ],
      "PRBMathSD59x18__DivOverflow(uint256)": [
        {
          "notice": "Emitted when one of the intermediary unsigned results overflows SD59x18."
        }
      ],
      "PRBMathSD59x18__MulInputTooSmall()": [
        {
          "notice": "Emitted when one of the inputs is MIN_SD59x18."
        }
      ],
      "PRBMathSD59x18__MulOverflow(uint256)": [
        {
          "notice": "Emitted when the intermediary absolute result overflows SD59x18."
        }
      ],
      "PRBMath__MulDivFixedPointOverflow(uint256)": [
        {
          "notice": "Emitted when the result overflows uint256."
        }
      ],
      "PRBMath__MulDivOverflow(uint256,uint256)": [
        {
          "notice": "Emitted when the result overflows uint256."
        }
      ]
    },
    "kind": "user",
    "methods": {
      "accountLeverage(address)": {
        "notice": "Get the account leverage across markets"
      },
      "getBalance(address,uint256)": {
        "notice": "Get User Collateral balance"
      },
      "getBaseBalance(uint256)": {
        "notice": "Return the total supply of base tokens provided to a perpetual market"
      },
      "getBaseDust(uint256)": {
        "notice": "Get the current (base) dust balance"
      },
      "getExpectedLpTokenAmount(uint256,uint256[2])": {
        "notice": "Return amount of LP tokens one would receive from exchanging `amounts` in a selected market"
      },
      "getExpectedVBaseAmount(uint256,uint256)": {
        "notice": "Return amount for vBase one would receive for exchanging `vQuoteAmountToSpend` in a select market (excluding slippage)"
      },
      "getExpectedVBaseAmountExFees(uint256,uint256)": {
        "notice": "Return amount for vBase one would receive for exchanging `vQuoteAmountToSpend` in a select market (excluding slippage)"
      },
      "getExpectedVQuoteAmount(uint256,uint256)": {
        "notice": "Return amount for vQuote one would receive for exchanging `vBaseAmountToSpend` in a select market (excluding slippage)"
      },
      "getExpectedVQuoteAmountExFees(uint256,uint256)": {
        "notice": "Return amount for vQuote one would receive for exchanging `vBaseAmountToSpend` in a select market (excluding slippage)"
      },
      "getExpectedVirtualTokenAmountsFromLpTokenAmount(uint256,address,uint256)": {
        "notice": "Return estimation of quote and base tokens one LP should get in exchange for LP tokens"
      },
      "getFreeCollateralByRatio(address,int256)": {
        "notice": "Get free collateral of a user, with a given ratio applied on his debts"
      },
      "getFundingPayments(uint256,address)": {
        "notice": "Get the funding payments of an user on a perpetual markets"
      },
      "getFundingPaymentsAcrossMarkets(address)": {
        "notice": "Get the funding payments of an user across all perpetual markets"
      },
      "getGlobalPosition(uint256)": {
        "notice": "Return a the GlobalPosition struct of a given market"
      },
      "getLpEstimatedPnl(uint256,address)": {
        "notice": "Get the unrealized profit and Loss and the trading fees earned of a  Liquidity Provider"
      },
      "getLpFundingPayments(uint256,address)": {
        "notice": "Calculate missed funding payments"
      },
      "getLpPosition(uint256,address)": {
        "notice": "Get Lp position"
      },
      "getLpPositionAfterWithdrawal(uint256,address)": {
        "notice": "Get the (active) position of a liquidity provider after withdrawing liquidity"
      },
      "getLpProposedAmount(uint256,address,uint256,uint256,uint256[2])": {
        "notice": "Get the proposed amount needed to close a lp position"
      },
      "getMarket(uint256)": {
        "notice": "Return the address of the curve market from a perpetual index"
      },
      "getQuoteBalance(uint256)": {
        "notice": "Return the total supply of quote tokens provided to a perpetual market"
      },
      "getReserveValue(address,bool)": {
        "notice": "Get the portfolio value of a trader / lp"
      },
      "getTotalLiquidityProvided(uint256)": {
        "notice": "Return the total supply of liquidity tokens in a perpetual market"
      },
      "getTraderFundingPayments(uint256,address)": {
        "notice": "Calculate missed funding payments"
      },
      "getTraderPosition(uint256,address)": {
        "notice": "Get trader position"
      },
      "getTraderProposedAmount(uint256,address,uint256,uint256,uint256)": {
        "notice": "Get the proposed amount needed to close a trader position"
      },
      "getTraderUnrealizedPnL(uint256,address)": {
        "notice": "Calculate missed funding payments"
      },
      "indexPrice(uint256)": {
        "notice": "Return the current off-chain exchange rate for vBase/vQuote"
      },
      "insuranceFee(uint256)": {
        "notice": "Return the insurance fee of a perpetual market"
      },
      "isLpPositionOpen(uint256,address)": {
        "notice": "Whether a given LP position is open"
      },
      "isMarginValid(address,int256)": {
        "notice": "Approximately determine whether or not a position is valid for a given margin ratio"
      },
      "isPositionOpen(address)": {
        "notice": "Whether any trader/lp position is open"
      },
      "isTraderPositionOpen(uint256,address)": {
        "notice": "Whether a given trader position is open"
      },
      "marginRatio(address)": {
        "notice": "Get the margin ratio of a user, i.e. all trading and LP positions across all markets"
      },
      "marketLeverage(uint256,address)": {
        "notice": "Get the account leverage for an market"
      },
      "marketPrice(uint256)": {
        "notice": "Return the last traded price (used for TWAP)"
      },
      "removeLiquiditySwap(uint256,address,uint256,uint256[2],uint256,uint8,bool)": {
        "notice": "ONLY STATIC CALLReturns amount of swapping after removing liquidityUsed to estimate proposedAmount for removing liquidity"
      },
      "totalLpTokenSupply(uint256)": {
        "notice": "Return the total supply of LP tokens in the market"
      }
    },
    "notice": "Utility functions to easily extract data from Perpetual Contracts",
    "version": 1
  },
  "storageLayout": {
    "storage": [
      {
        "astId": 8015,
        "contract": "contracts/ClearingHouseViewer.sol:ClearingHouseViewer",
        "label": "clearingHouse",
        "offset": 0,
        "slot": "0",
        "type": "t_contract(IClearingHouse)16655"
      }
    ],
    "types": {
      "t_contract(IClearingHouse)16655": {
        "encoding": "inplace",
        "label": "contract IClearingHouse",
        "numberOfBytes": "20"
      }
    }
  }
}