{
  "address": "0x802d62ccd22fbC85394144b2303B2c01171A935B",
  "abi": [
    {
      "inputs": [
        {
          "internalType": "contract IERC20Metadata",
          "name": "_ua",
          "type": "address"
        }
      ],
      "stateMutability": "nonpayable",
      "type": "constructor"
    },
    {
      "inputs": [],
      "name": "PRBMathSD59x18__MulInputTooSmall",
      "type": "error"
    },
    {
      "inputs": [
        {
          "internalType": "uint256",
          "name": "rAbs",
          "type": "uint256"
        }
      ],
      "name": "PRBMathSD59x18__MulOverflow",
      "type": "error"
    },
    {
      "inputs": [
        {
          "internalType": "uint256",
          "name": "prod1",
          "type": "uint256"
        }
      ],
      "name": "PRBMath__MulDivFixedPointOverflow",
      "type": "error"
    },
    {
      "inputs": [
        {
          "internalType": "uint256",
          "name": "prod1",
          "type": "uint256"
        },
        {
          "internalType": "uint256",
          "name": "denominator",
          "type": "uint256"
        }
      ],
      "name": "PRBMath__MulDivOverflow",
      "type": "error"
    },
    {
      "inputs": [],
      "name": "Vault_ClearingHouseAlreadySet",
      "type": "error"
    },
    {
      "inputs": [],
      "name": "Vault_ClearingHouseZeroAddress",
      "type": "error"
    },
    {
      "inputs": [],
      "name": "Vault_CollateralAlreadyWhiteListed",
      "type": "error"
    },
    {
      "inputs": [],
      "name": "Vault_ExcessiveCollateralWeight",
      "type": "error"
    },
    {
      "inputs": [],
      "name": "Vault_InsufficientBalance",
      "type": "error"
    },
    {
      "inputs": [],
      "name": "Vault_InsufficientCollateralWeight",
      "type": "error"
    },
    {
      "inputs": [],
      "name": "Vault_InsuranceAlreadySet",
      "type": "error"
    },
    {
      "inputs": [],
      "name": "Vault_InsuranceZeroAddress",
      "type": "error"
    },
    {
      "inputs": [],
      "name": "Vault_MaxCollateralAmountExceeded",
      "type": "error"
    },
    {
      "inputs": [],
      "name": "Vault_OracleZeroAddress",
      "type": "error"
    },
    {
      "inputs": [],
      "name": "Vault_SenderNotClearingHouse",
      "type": "error"
    },
    {
      "inputs": [],
      "name": "Vault_SenderNotClearingHouseNorInsurance",
      "type": "error"
    },
    {
      "inputs": [],
      "name": "Vault_UADebt",
      "type": "error"
    },
    {
      "inputs": [],
      "name": "Vault_UnsupportedCollateral",
      "type": "error"
    },
    {
      "inputs": [],
      "name": "Vault_WithdrawExcessiveAmount",
      "type": "error"
    },
    {
      "inputs": [],
      "name": "Vault_WithdrawReductionRatioTooHigh",
      "type": "error"
    },
    {
      "inputs": [
        {
          "internalType": "uint8",
          "name": "paramIndex",
          "type": "uint8"
        }
      ],
      "name": "Vault_ZeroAddressConstructor",
      "type": "error"
    },
    {
      "anonymous": false,
      "inputs": [
        {
          "indexed": false,
          "internalType": "contract IClearingHouse",
          "name": "newClearingHouse",
          "type": "address"
        }
      ],
      "name": "ClearingHouseChanged",
      "type": "event"
    },
    {
      "anonymous": false,
      "inputs": [
        {
          "indexed": false,
          "internalType": "contract IERC20Metadata",
          "name": "asset",
          "type": "address"
        },
        {
          "indexed": false,
          "internalType": "uint256",
          "name": "weight",
          "type": "uint256"
        },
        {
          "indexed": false,
          "internalType": "uint256",
          "name": "maxAmount",
          "type": "uint256"
        }
      ],
      "name": "CollateralAdded",
      "type": "event"
    },
    {
      "anonymous": false,
      "inputs": [
        {
          "indexed": false,
          "internalType": "contract IERC20Metadata",
          "name": "asset",
          "type": "address"
        },
        {
          "indexed": false,
          "internalType": "uint256",
          "name": "newMaxAmount",
          "type": "uint256"
        }
      ],
      "name": "CollateralMaxAmountChanged",
      "type": "event"
    },
    {
      "anonymous": false,
      "inputs": [
        {
          "indexed": false,
          "internalType": "contract IERC20Metadata",
          "name": "asset",
          "type": "address"
        },
        {
          "indexed": false,
          "internalType": "uint256",
          "name": "newWeight",
          "type": "uint256"
        }
      ],
      "name": "CollateralWeightChanged",
      "type": "event"
    },
    {
      "anonymous": false,
      "inputs": [
        {
          "indexed": true,
          "internalType": "address",
          "name": "user",
          "type": "address"
        },
        {
          "indexed": true,
          "internalType": "address",
          "name": "asset",
          "type": "address"
        },
        {
          "indexed": false,
          "internalType": "uint256",
          "name": "amount",
          "type": "uint256"
        }
      ],
      "name": "Deposit",
      "type": "event"
    },
    {
      "anonymous": false,
      "inputs": [
        {
          "indexed": false,
          "internalType": "contract IInsurance",
          "name": "newInsurance",
          "type": "address"
        }
      ],
      "name": "InsuranceChanged",
      "type": "event"
    },
    {
      "anonymous": false,
      "inputs": [
        {
          "indexed": false,
          "internalType": "contract IOracle",
          "name": "newOracle",
          "type": "address"
        }
      ],
      "name": "OracleChanged",
      "type": "event"
    },
    {
      "anonymous": false,
      "inputs": [
        {
          "indexed": true,
          "internalType": "bytes32",
          "name": "role",
          "type": "bytes32"
        },
        {
          "indexed": true,
          "internalType": "bytes32",
          "name": "previousAdminRole",
          "type": "bytes32"
        },
        {
          "indexed": true,
          "internalType": "bytes32",
          "name": "newAdminRole",
          "type": "bytes32"
        }
      ],
      "name": "RoleAdminChanged",
      "type": "event"
    },
    {
      "anonymous": false,
      "inputs": [
        {
          "indexed": true,
          "internalType": "bytes32",
          "name": "role",
          "type": "bytes32"
        },
        {
          "indexed": true,
          "internalType": "address",
          "name": "account",
          "type": "address"
        },
        {
          "indexed": true,
          "internalType": "address",
          "name": "sender",
          "type": "address"
        }
      ],
      "name": "RoleGranted",
      "type": "event"
    },
    {
      "anonymous": false,
      "inputs": [
        {
          "indexed": true,
          "internalType": "bytes32",
          "name": "role",
          "type": "bytes32"
        },
        {
          "indexed": true,
          "internalType": "address",
          "name": "account",
          "type": "address"
        },
        {
          "indexed": true,
          "internalType": "address",
          "name": "sender",
          "type": "address"
        }
      ],
      "name": "RoleRevoked",
      "type": "event"
    },
    {
      "anonymous": false,
      "inputs": [
        {
          "indexed": false,
          "internalType": "address",
          "name": "beneficiary",
          "type": "address"
        },
        {
          "indexed": false,
          "internalType": "uint256",
          "name": "amount",
          "type": "uint256"
        }
      ],
      "name": "TraderBadDebtGenerated",
      "type": "event"
    },
    {
      "anonymous": false,
      "inputs": [
        {
          "indexed": true,
          "internalType": "address",
          "name": "user",
          "type": "address"
        },
        {
          "indexed": true,
          "internalType": "address",
          "name": "asset",
          "type": "address"
        },
        {
          "indexed": false,
          "internalType": "uint256",
          "name": "amount",
          "type": "uint256"
        }
      ],
      "name": "Withdraw",
      "type": "event"
    },
    {
      "inputs": [],
      "name": "DEFAULT_ADMIN_ROLE",
      "outputs": [
        {
          "internalType": "bytes32",
          "name": "",
          "type": "bytes32"
        }
      ],
      "stateMutability": "view",
      "type": "function"
    },
    {
      "inputs": [],
      "name": "GOVERNANCE",
      "outputs": [
        {
          "internalType": "bytes32",
          "name": "",
          "type": "bytes32"
        }
      ],
      "stateMutability": "view",
      "type": "function"
    },
    {
      "inputs": [],
      "name": "MANAGER",
      "outputs": [
        {
          "internalType": "bytes32",
          "name": "",
          "type": "bytes32"
        }
      ],
      "stateMutability": "view",
      "type": "function"
    },
    {
      "inputs": [],
      "name": "PROTOCOL_CONTRACT",
      "outputs": [
        {
          "internalType": "bytes32",
          "name": "",
          "type": "bytes32"
        }
      ],
      "stateMutability": "view",
      "type": "function"
    },
    {
      "inputs": [],
      "name": "UA",
      "outputs": [
        {
          "internalType": "contract IERC20Metadata",
          "name": "",
          "type": "address"
        }
      ],
      "stateMutability": "view",
      "type": "function"
    },
    {
      "inputs": [],
      "name": "UA_IDX",
      "outputs": [
        {
          "internalType": "uint256",
          "name": "",
          "type": "uint256"
        }
      ],
      "stateMutability": "view",
      "type": "function"
    },
    {
      "inputs": [
        {
          "internalType": "contract IERC20Metadata",
          "name": "asset",
          "type": "address"
        },
        {
          "internalType": "uint256",
          "name": "weight",
          "type": "uint256"
        },
        {
          "internalType": "uint256",
          "name": "maxAmount",
          "type": "uint256"
        }
      ],
      "name": "addWhiteListedCollateral",
      "outputs": [],
      "stateMutability": "nonpayable",
      "type": "function"
    },
    {
      "inputs": [
        {
          "internalType": "contract IERC20Metadata",
          "name": "asset",
          "type": "address"
        },
        {
          "internalType": "uint256",
          "name": "newMaxAmount",
          "type": "uint256"
        }
      ],
      "name": "changeCollateralMaxAmount",
      "outputs": [],
      "stateMutability": "nonpayable",
      "type": "function"
    },
    {
      "inputs": [
        {
          "internalType": "contract IERC20Metadata",
          "name": "asset",
          "type": "address"
        },
        {
          "internalType": "uint256",
          "name": "newWeight",
          "type": "uint256"
        }
      ],
      "name": "changeCollateralWeight",
      "outputs": [],
      "stateMutability": "nonpayable",
      "type": "function"
    },
    {
      "inputs": [],
      "name": "clearingHouse",
      "outputs": [
        {
          "internalType": "contract IClearingHouse",
          "name": "",
          "type": "address"
        }
      ],
      "stateMutability": "view",
      "type": "function"
    },
    {
      "inputs": [
        {
          "internalType": "address",
          "name": "user",
          "type": "address"
        },
        {
          "internalType": "uint256",
          "name": "amount",
          "type": "uint256"
        },
        {
          "internalType": "contract IERC20Metadata",
          "name": "depositToken",
          "type": "address"
        }
      ],
      "name": "deposit",
      "outputs": [],
      "stateMutability": "nonpayable",
      "type": "function"
    },
    {
      "inputs": [
        {
          "internalType": "address",
          "name": "user",
          "type": "address"
        },
        {
          "internalType": "uint256",
          "name": "tokenIdx",
          "type": "uint256"
        }
      ],
      "name": "getBalance",
      "outputs": [
        {
          "internalType": "int256",
          "name": "",
          "type": "int256"
        }
      ],
      "stateMutability": "view",
      "type": "function"
    },
    {
      "inputs": [],
      "name": "getNumberOfCollaterals",
      "outputs": [
        {
          "internalType": "uint256",
          "name": "",
          "type": "uint256"
        }
      ],
      "stateMutability": "view",
      "type": "function"
    },
    {
      "inputs": [
        {
          "internalType": "address",
          "name": "user",
          "type": "address"
        },
        {
          "internalType": "bool",
          "name": "isDiscounted",
          "type": "bool"
        }
      ],
      "name": "getReserveValue",
      "outputs": [
        {
          "internalType": "int256",
          "name": "",
          "type": "int256"
        }
      ],
      "stateMutability": "view",
      "type": "function"
    },
    {
      "inputs": [
        {
          "internalType": "bytes32",
          "name": "role",
          "type": "bytes32"
        }
      ],
      "name": "getRoleAdmin",
      "outputs": [
        {
          "internalType": "bytes32",
          "name": "",
          "type": "bytes32"
        }
      ],
      "stateMutability": "view",
      "type": "function"
    },
    {
      "inputs": [],
      "name": "getTotalValueLocked",
      "outputs": [
        {
          "internalType": "int256",
          "name": "",
          "type": "int256"
        }
      ],
      "stateMutability": "view",
      "type": "function"
    },
    {
      "inputs": [
        {
          "internalType": "uint256",
          "name": "idx",
          "type": "uint256"
        }
      ],
      "name": "getWhiteListedCollateral",
      "outputs": [
        {
          "components": [
            {
              "internalType": "contract IERC20Metadata",
              "name": "asset",
              "type": "address"
            },
            {
              "internalType": "uint256",
              "name": "weight",
              "type": "uint256"
            },
            {
              "internalType": "uint8",
              "name": "decimals",
              "type": "uint8"
            },
            {
              "internalType": "uint256",
              "name": "currentAmount",
              "type": "uint256"
            },
            {
              "internalType": "uint256",
              "name": "maxAmount",
              "type": "uint256"
            }
          ],
          "internalType": "struct IVault.Collateral",
          "name": "",
          "type": "tuple"
        }
      ],
      "stateMutability": "view",
      "type": "function"
    },
    {
      "inputs": [
        {
          "internalType": "bytes32",
          "name": "role",
          "type": "bytes32"
        },
        {
          "internalType": "address",
          "name": "account",
          "type": "address"
        }
      ],
      "name": "grantRole",
      "outputs": [],
      "stateMutability": "nonpayable",
      "type": "function"
    },
    {
      "inputs": [
        {
          "internalType": "bytes32",
          "name": "role",
          "type": "bytes32"
        },
        {
          "internalType": "address",
          "name": "account",
          "type": "address"
        }
      ],
      "name": "hasRole",
      "outputs": [
        {
          "internalType": "bool",
          "name": "",
          "type": "bool"
        }
      ],
      "stateMutability": "view",
      "type": "function"
    },
    {
      "inputs": [],
      "name": "insurance",
      "outputs": [
        {
          "internalType": "contract IInsurance",
          "name": "",
          "type": "address"
        }
      ],
      "stateMutability": "view",
      "type": "function"
    },
    {
      "inputs": [
        {
          "internalType": "address",
          "name": "account",
          "type": "address"
        }
      ],
      "name": "isGovernor",
      "outputs": [
        {
          "internalType": "bool",
          "name": "",
          "type": "bool"
        }
      ],
      "stateMutability": "view",
      "type": "function"
    },
    {
      "inputs": [
        {
          "internalType": "address",
          "name": "account",
          "type": "address"
        }
      ],
      "name": "isManager",
      "outputs": [
        {
          "internalType": "bool",
          "name": "",
          "type": "bool"
        }
      ],
      "stateMutability": "view",
      "type": "function"
    },
    {
      "inputs": [
        {
          "internalType": "address",
          "name": "account",
          "type": "address"
        }
      ],
      "name": "isProtocolContract",
      "outputs": [
        {
          "internalType": "bool",
          "name": "",
          "type": "bool"
        }
      ],
      "stateMutability": "view",
      "type": "function"
    },
    {
      "inputs": [],
      "name": "oracle",
      "outputs": [
        {
          "internalType": "contract IOracle",
          "name": "",
          "type": "address"
        }
      ],
      "stateMutability": "view",
      "type": "function"
    },
    {
      "inputs": [
        {
          "internalType": "bytes32",
          "name": "role",
          "type": "bytes32"
        },
        {
          "internalType": "address",
          "name": "account",
          "type": "address"
        }
      ],
      "name": "renounceRole",
      "outputs": [],
      "stateMutability": "nonpayable",
      "type": "function"
    },
    {
      "inputs": [
        {
          "internalType": "bytes32",
          "name": "role",
          "type": "bytes32"
        },
        {
          "internalType": "address",
          "name": "account",
          "type": "address"
        }
      ],
      "name": "revokeRole",
      "outputs": [],
      "stateMutability": "nonpayable",
      "type": "function"
    },
    {
      "inputs": [
        {
          "internalType": "contract IClearingHouse",
          "name": "newClearingHouse",
          "type": "address"
        }
      ],
      "name": "setClearingHouse",
      "outputs": [],
      "stateMutability": "nonpayable",
      "type": "function"
    },
    {
      "inputs": [
        {
          "internalType": "contract IInsurance",
          "name": "newInsurance",
          "type": "address"
        }
      ],
      "name": "setInsurance",
      "outputs": [],
      "stateMutability": "nonpayable",
      "type": "function"
    },
    {
      "inputs": [
        {
          "internalType": "contract IOracle",
          "name": "newOracle",
          "type": "address"
        }
      ],
      "name": "setOracle",
      "outputs": [],
      "stateMutability": "nonpayable",
      "type": "function"
    },
    {
      "inputs": [
        {
          "internalType": "address",
          "name": "liquidator",
          "type": "address"
        },
        {
          "internalType": "address",
          "name": "liquidatee",
          "type": "address"
        }
      ],
      "name": "settleLiquidationOnCollaterals",
      "outputs": [],
      "stateMutability": "nonpayable",
      "type": "function"
    },
    {
      "inputs": [
        {
          "internalType": "address",
          "name": "user",
          "type": "address"
        },
        {
          "internalType": "int256",
          "name": "amount",
          "type": "int256"
        }
      ],
      "name": "settlePnL",
      "outputs": [],
      "stateMutability": "nonpayable",
      "type": "function"
    },
    {
      "inputs": [
        {
          "internalType": "bytes4",
          "name": "interfaceId",
          "type": "bytes4"
        }
      ],
      "name": "supportsInterface",
      "outputs": [
        {
          "internalType": "bool",
          "name": "",
          "type": "bool"
        }
      ],
      "stateMutability": "view",
      "type": "function"
    },
    {
      "inputs": [
        {
          "internalType": "contract IERC20Metadata",
          "name": "",
          "type": "address"
        }
      ],
      "name": "tokenToCollateralIdx",
      "outputs": [
        {
          "internalType": "uint256",
          "name": "",
          "type": "uint256"
        }
      ],
      "stateMutability": "view",
      "type": "function"
    },
    {
      "inputs": [
        {
          "internalType": "address",
          "name": "user",
          "type": "address"
        },
        {
          "internalType": "uint256",
          "name": "amount",
          "type": "uint256"
        }
      ],
      "name": "transferUa",
      "outputs": [],
      "stateMutability": "nonpayable",
      "type": "function"
    },
    {
      "inputs": [
        {
          "internalType": "address",
          "name": "user",
          "type": "address"
        },
        {
          "internalType": "uint256",
          "name": "amount",
          "type": "uint256"
        },
        {
          "internalType": "contract IERC20Metadata",
          "name": "withdrawToken",
          "type": "address"
        }
      ],
      "name": "withdraw",
      "outputs": [],
      "stateMutability": "nonpayable",
      "type": "function"
    },
    {
      "inputs": [
        {
          "internalType": "address",
          "name": "user",
          "type": "address"
        },
        {
          "internalType": "contract IERC20Metadata",
          "name": "withdrawToken",
          "type": "address"
        }
      ],
      "name": "withdrawAll",
      "outputs": [],
      "stateMutability": "nonpayable",
      "type": "function"
    }
  ],
  "transactionHash": "0x8f4fb8f5c2542c4312b84f3aa01b5f730302d30174a95b0988e85f5408396623",
  "args": [
    "0x296053950647c1e0Ed486425E4178E3055BA4821"
  ],
  "numDeployments": 1,
  "solcInputHash": "32bbb5ff174311b520f509df94528b11",
  "bytecode": "0x60a06040523480156200001157600080fd5b5060405162003bac38038062003bac8339810160408190526200003491620008de565b6200004f60008051602062003b8c8339815191523362000162565b6200006a60008051602062003b8c8339815191528062000172565b6200008560008051602062003b6c8339815191523362000162565b620000af60008051602062003b6c83398151915260008051602062003b8c83398151915262000172565b620000db7f416446954f84eff0318fe22d8f8b4b94c80dd2e8a751e1b3ccf9003a2a5f72dd3362000162565b620001077f416446954f84eff0318fe22d8f8b4b94c80dd2e8a751e1b3ccf9003a2a5f72dd8062000172565b6001600160a01b038116620001375760405163356b644560e01b8152600060048201526024015b60405180910390fd5b6001600160a01b0381166080526200015b81670de0b6b3a7640000600019620001bd565b5062000ac8565b6200016e8282620003eb565b5050565b600082815260208190526040808220600101805490849055905190918391839186917fbd79b86ffe0ab8e8776151514217cd7cacd52c909f66475c3af44e129f0b00ff9190a4505050565b60008051602062003b8c833981519152620001d88162000473565b60005b6004548110156200025457846001600160a01b03166004828154811062000206576200020662000909565b60009182526020909120600590910201546001600160a01b0316036200023f576040516353dc2d7560e01b815260040160405180910390fd5b806200024b8162000935565b915050620001db565b5060046040518060a00160405280866001600160a01b0316815260200160008152602001866001600160a01b031663313ce5676040518163ffffffff1660e01b8152600401602060405180830381865afa158015620002b7573d6000803e3d6000fd5b505050506040513d601f19601f82011682018060405250810190620002dd919062000951565b60ff908116825260006020808401829052604093840182905285546001808201885596835291819020855160059093020180546001600160a01b0319166001600160a01b03909316929092178255840151818601559183015160028301805460ff19169190921617905560608201516003820155608090910151600491820155546200036a919062000976565b6001600160a01b0385166000908152600560205260409020556200038f848462000482565b6200039b8483620005a7565b604080516001600160a01b0386168152602081018590529081018390527f11f8990ac38271f23dea447d5728e9914fca7cea2edda43af6c43c415f8bc30b9060600160405180910390a150505050565b620003f7828262000670565b6200016e576000828152602081815260408083206001600160a01b03851684529091529020805460ff191660011790556200042f3390565b6001600160a01b0316816001600160a01b0316837f2f8788117e7eff1d82e926ec794901d17c78024a50270940304540a733656f0d60405160405180910390a45050565b6200047f81336200069b565b50565b6001600160a01b03821660009081526005602052604090205480158015620004be57506080516001600160a01b0316836001600160a01b031614155b15620004dd5760405163a84d9d9760e01b815260040160405180910390fd5b67016345785d8a00008210156200050757604051632e01c96360e01b815260040160405180910390fd5b670de0b6b3a76400008211156200053157604051635f08f99d60e01b815260040160405180910390fd5b816004828154811062000548576200054862000909565b600091825260209182902060016005909202010191909155604080516001600160a01b03861681529182018490527f961e2483fa09e9fd159361d604d3c547aca03801b1ce4c758b036e9bacd8c08291015b60405180910390a1505050565b6001600160a01b03821660009081526005602052604090205480158015620005e357506080516001600160a01b0316836001600160a01b031614155b15620006025760405163a84d9d9760e01b815260040160405180910390fd5b816004828154811062000619576200061962000909565b600091825260209182902060046005909202010191909155604080516001600160a01b03861681529182018490527f6af11b7b0fa3a0001eea86cdc01b08604d3c974ef76506801c330db8aca293c591016200059a565b6000828152602081815260408083206001600160a01b038516845290915290205460ff165b92915050565b620006a7828262000670565b6200016e57620006cd816001600160a01b031660146200071e60201b6200159f1760201c565b620006e38360206200159f6200071e821b17811c565b604051602001620006f6929190620009b2565b60408051601f198184030181529082905262461bcd60e51b82526200012e9160040162000a2b565b606060006200072f83600262000a60565b6200073c90600262000a82565b6001600160401b0381111562000756576200075662000a98565b6040519080825280601f01601f19166020018201604052801562000781576020820181803683370190505b509050600360fc1b816000815181106200079f576200079f62000909565b60200101906001600160f81b031916908160001a905350600f60fb1b81600181518110620007d157620007d162000909565b60200101906001600160f81b031916908160001a9053506000620007f784600262000a60565b6200080490600162000a82565b90505b600181111562000886576f181899199a1a9b1b9c1cb0b131b232b360811b85600f16601081106200083c576200083c62000909565b1a60f81b82828151811062000855576200085562000909565b60200101906001600160f81b031916908160001a90535060049490941c936200087e8162000aae565b905062000807565b508315620008d75760405162461bcd60e51b815260206004820181905260248201527f537472696e67733a20686578206c656e67746820696e73756666696369656e7460448201526064016200012e565b9392505050565b600060208284031215620008f157600080fd5b81516001600160a01b0381168114620008d757600080fd5b634e487b7160e01b600052603260045260246000fd5b634e487b7160e01b600052601160045260246000fd5b6000600182016200094a576200094a6200091f565b5060010190565b6000602082840312156200096457600080fd5b815160ff81168114620008d757600080fd5b818103818111156200069557620006956200091f565b60005b83811015620009a95781810151838201526020016200098f565b50506000910152565b7f416363657373436f6e74726f6c3a206163636f756e7420000000000000000000815260008351620009ec8160178501602088016200098c565b7001034b99036b4b9b9b4b733903937b6329607d1b601791840191820152835162000a1f8160288401602088016200098c565b01602801949350505050565b602081526000825180602084015262000a4c8160408501602087016200098c565b601f01601f19169190910160400192915050565b600081600019048311821515161562000a7d5762000a7d6200091f565b500290565b808201808211156200069557620006956200091f565b634e487b7160e01b600052604160045260246000fd5b60008162000ac05762000ac06200091f565b506000190190565b60805161305762000b1560003960008181610523015281816106ff01528181610ceb0152818161135901528181611d1701528181611e5d01528181611fcb015261215501526130576000f3fe608060405234801561001057600080fd5b506004361061025c5760003560e01c80637adbf97311610145578063c52e8c41116100bd578063e43581b81161008c578063f45346dc11610071578063f45346dc146105f2578063fb6d681414610605578063feb8cbe9146104e857600080fd5b8063e43581b8146105cc578063f3ae2415146105df57600080fd5b8063c52e8c411461051e578063cf209c7714610545578063d547741f146105a6578063d76bedff146105b957600080fd5b80639feb2c4511610114578063a780b006116100f9578063a780b006146104f0578063b26025aa14610503578063bbffd7191461050b57600080fd5b80639feb2c45146104d5578063a217fddf146104e857600080fd5b80637adbf973146104655780637dc0d1d01461047857806389cf32041461048b57806391d148541461049e57600080fd5b80632b04e840116101d8578063449323d8116101a757806362990d2f1161018c57806362990d2f1461042c57806369328dec1461043f5780636cd7751f1461045257600080fd5b8063449323d814610406578063586b4ecc1461041957600080fd5b80632b04e840146103a25780632f2ff15d146103d857806334cc89a2146103eb57806336568abe146103f357600080fd5b80630d80aa961161022f5780631b2df850116102145780631b2df85014610345578063248a9ca31461036c57806329122eb01461038f57600080fd5b80630d80aa96146102f7578063146278341461031e57600080fd5b806301ffc9a714610261578063040332cb1461028957806309cae2c8146102b75780630af96800146102cc575b600080fd5b61027461026f366004612aca565b610618565b60405190151581526020015b60405180910390f35b6102a9610297366004612b21565b60056020526000908152604090205481565b604051908152602001610280565b6102ca6102c5366004612b3e565b6106b1565b005b6001546102df906001600160a01b031681565b6040516001600160a01b039091168152602001610280565b6102a97f416446954f84eff0318fe22d8f8b4b94c80dd2e8a751e1b3ccf9003a2a5f72dd81565b6102a97f35a7846a2a701fff6f9d61a46ebff5da578c5dcee8bdf361c569f9ea4ee6477181565b6102a97faf290d8680820aad922855f39b306097b20e28774d6c1ad35a20325630c3a02c81565b6102a961037a366004612b77565b60009081526020819052604090206001015490565b6102a961039d366004612b9e565b610791565b6102a96103b0366004612bcc565b6001600160a01b03919091166000908152600760209081526040808320938352929052205490565b6102ca6103e6366004612bf8565b6107a4565b6004546102a9565b6102ca610401366004612bf8565b6107ce565b6102ca610414366004612b21565b61085b565b6102ca610427366004612b3e565b610972565b6102ca61043a366004612bcc565b610c67565b6102ca61044d366004612c1d565b610c9d565b6102ca610460366004612b21565b610d88565b6102ca610473366004612b21565b610ebc565b6003546102df906001600160a01b031681565b6002546102df906001600160a01b031681565b6102746104ac366004612bf8565b6000918252602082815260408084206001600160a01b0393909316845291905290205460ff1690565b6102746104e3366004612b21565b610f81565b6102a9600081565b6102ca6104fe366004612c5f565b610fc1565b6102a9611213565b6102ca610519366004612bcc565b6112b4565b6102df7f000000000000000000000000000000000000000000000000000000000000000081565b610558610553366004612b77565b611380565b6040516102809190600060a0820190506001600160a01b0383511682526020830151602083015260ff6040840151166040830152606083015160608301526080830151608083015292915050565b6102ca6105b4366004612bf8565b61145d565b6102ca6105c7366004612bcc565b611482565b6102746105da366004612b21565b6114b6565b6102746105ed366004612b21565b6114f6565b6102ca610600366004612c1d565b611536565b6102ca610613366004612bcc565b61156b565b60007fffffffff0000000000000000000000000000000000000000000000000000000082167f7965db0b0000000000000000000000000000000000000000000000000000000014806106ab57507f01ffc9a7000000000000000000000000000000000000000000000000000000007fffffffff000000000000000000000000000000000000000000000000000000008316145b92915050565b6001546001600160a01b031633146106db576040516257034d60e91b815260040160405180910390fd5b6001600160a01b0381166000908152600560205260409020548015801561073457507f00000000000000000000000000000000000000000000000000000000000000006001600160a01b0316826001600160a01b031614155b156107525760405163a84d9d9760e01b815260040160405180910390fd5b6001600160a01b038316600090815260076020908152604080832084845290915290205461078a8483610784846117c8565b866117d3565b50505b5050565b600061079d83836119e7565b9392505050565b6000828152602081905260409020600101546107bf81611af4565b6107c98383611b01565b505050565b6001600160a01b03811633146108515760405162461bcd60e51b815260206004820152602f60248201527f416363657373436f6e74726f6c3a2063616e206f6e6c792072656e6f756e636560448201527f20726f6c657320666f722073656c66000000000000000000000000000000000060648201526084015b60405180910390fd5b61078d8282611b9f565b7f35a7846a2a701fff6f9d61a46ebff5da578c5dcee8bdf361c569f9ea4ee6477161088581611af4565b60065460ff16156108c2576040517fe643e28100000000000000000000000000000000000000000000000000000000815260040160405180910390fd5b6001600160a01b038216610902576040517fbb1c568000000000000000000000000000000000000000000000000000000000815260040160405180910390fd5b6001805473ffffffffffffffffffffffffffffffffffffffff19166001600160a01b03841690811782556006805460ff19169092179091556040519081527fd0654f5900f9e7e4e605a19334306e6a2786bbf960ac0484a4c12feb6428fe2f906020015b60405180910390a15050565b6001546001600160a01b0316331461099c576040516257034d60e91b815260040160405180910390fd5b6001600160a01b0381166000908152600760209081526040808320838052909152812054906109d26109cd83612caa565b6117c8565b600480549192509060009060015b81811015610b89576001600160a01b03871660009081526007602090815260408083208484529091528120549350831315610b81576000610acf600160009054906101000a90046001600160a01b03166001600160a01b0316638053fcbe6040518163ffffffff1660e01b8152600401602060405180830381865afa158015610a6d573d6000803e3d6000fd5b505050506040513d601f19601f82011682018060405250810190610a919190612cc6565b610ac96109cd888681548110610aa957610aa9612cdf565b60009182526020909120600590910201546001600160a01b031688611c1e565b90611cc4565b905085811015610b1e57610b0d8989878581548110610af057610af0612cdf565b9060005260206000209060050201610b07886117c8565b85611cd0565b610b179087612cf5565b9550610b7f565b6000610b2a8783611d71565b90506000610b446109cd610b3d84611d7d565b8890611d88565b9050610b728b8b898781548110610b5d57610b5d612cdf565b9060005260206000209060050201848c611cd0565b5060009750505050610b89565b505b6001016109e0565b508315610c5e576002546040517f27a0bb33000000000000000000000000000000000000000000000000000000008152600481018690526001600160a01b03909116906327a0bb3390602401600060405180830381600087803b158015610bef57600080fd5b505af1158015610c03573d6000803e3d6000fd5b50505050610c1b866000610c1687611d7d565b611d94565b604080516001600160a01b0388168152602081018690527f83094b81291821441f3fed4d86b7776d68df539841c55aa0d173bbbd60d1c60c910160405180910390a15b50505050505050565b6001546001600160a01b03163314610c91576040516257034d60e91b815260040160405180910390fd5b61078d82600083611d94565b6001546001600160a01b03163314610cc7576040516257034d60e91b815260040160405180910390fd5b6001600160a01b03811660009081526005602052604090205480158015610d2057507f00000000000000000000000000000000000000000000000000000000000000006001600160a01b0316826001600160a01b031614155b15610d3e5760405163a84d9d9760e01b815260040160405180910390fd5b6000610d7360048381548110610d5657610d56612cdf565b600091825260209091206002600590920201015460ff1685611dd1565b9050610d81858383866117d3565b5050505050565b7f35a7846a2a701fff6f9d61a46ebff5da578c5dcee8bdf361c569f9ea4ee64771610db281611af4565b600654610100900460ff1615610df4576040517f4988bace00000000000000000000000000000000000000000000000000000000815260040160405180910390fd5b6001600160a01b038216610e34576040517f63788cbd00000000000000000000000000000000000000000000000000000000815260040160405180910390fd5b600280546001600160a01b03841673ffffffffffffffffffffffffffffffffffffffff199091168117909155600680547fffffffffffffffffffffffffffffffffffffffffffffffffffffffffffff00ff166101001790556040519081527f6b7cc3294ba6328c864b090682147d055e6dfff6c9ccece6f22dee66c6c251cf90602001610966565b7f35a7846a2a701fff6f9d61a46ebff5da578c5dcee8bdf361c569f9ea4ee64771610ee681611af4565b6001600160a01b038216610f26576040517fbb4ba69400000000000000000000000000000000000000000000000000000000815260040160405180910390fd5b6003805473ffffffffffffffffffffffffffffffffffffffff19166001600160a01b0384169081179091556040519081527f0e05ae75e8b926552cf6fcd744d19f422561e3ced1e426868730852702dbe41890602001610966565b6001600160a01b03811660009081527f2a44416f361f8e49a83fe9bab49cc0b52eda37ffb2f4186f605cad98e765342a602052604081205460ff166106ab565b7f35a7846a2a701fff6f9d61a46ebff5da578c5dcee8bdf361c569f9ea4ee64771610feb81611af4565b60005b60045481101561107857846001600160a01b03166004828154811061101557611015612cdf565b60009182526020909120600590910201546001600160a01b031603611066576040517f53dc2d7500000000000000000000000000000000000000000000000000000000815260040160405180910390fd5b8061107081612d08565b915050610fee565b5060046040518060a00160405280866001600160a01b0316815260200160008152602001866001600160a01b031663313ce5676040518163ffffffff1660e01b8152600401602060405180830381865afa1580156110da573d6000803e3d6000fd5b505050506040513d601f19601f820116820180604052508101906110fe9190612d22565b60ff9081168252600060208084018290526040938401829052855460018082018855968352918190208551600590930201805473ffffffffffffffffffffffffffffffffffffffff19166001600160a01b03909316929092178255840151818601559183015160028301805460ff19169190921617905560608201516003820155608090910151600491820155546111969190612cf5565b6001600160a01b0385166000908152600560205260409020556111b98484611e39565b6111c38483611fa7565b604080516001600160a01b0386168152602081018590529081018390527f11f8990ac38271f23dea447d5728e9914fca7cea2edda43af6c43c415f8bc30b9060600160405180910390a150505050565b60048054600091908290815b818110156112ab57600061125585838154811061123e5761123e612cdf565b906000526020600020906005020160030154611d7d565b905060008113156112a25761129585838154811061127557611275612cdf565b60009182526020909120600590910201546001600160a01b031682611c1e565b61129f9085612d45565b93505b5060010161121f565b50909392505050565b6001546001600160a01b031633148015906112da57506002546001600160a01b03163314155b15611311576040517fda2500f400000000000000000000000000000000000000000000000000000000815260040160405180910390fd5b80600460008154811061132657611326612cdf565b906000526020600020906005020160030160008282546113469190612cf5565b9091555061078d90506001600160a01b037f0000000000000000000000000000000000000000000000000000000000000000168383612088565b6113be6040518060a0016040528060006001600160a01b0316815260200160008152602001600060ff16815260200160008152602001600081525090565b6004546113cd90600190612cf5565b8211156113ed5760405163a84d9d9760e01b815260040160405180910390fd5b6004828154811061140057611400612cdf565b60009182526020918290206040805160a081018252600590930290910180546001600160a01b03168352600181015493830193909352600283015460ff169082015260038201546060820152600490910154608082015292915050565b60008281526020819052604090206001015461147881611af4565b6107c98383611b9f565b7f35a7846a2a701fff6f9d61a46ebff5da578c5dcee8bdf361c569f9ea4ee647716114ac81611af4565b6107c98383611fa7565b6001600160a01b03811660009081527f07e5daa527f8ed122c1f9491c56fb5cc2a6633e25a54f8cf579244e9c7000932602052604081205460ff166106ab565b6001600160a01b03811660009081527f511473bfc0317b2ecebc3e7070288e5dde2957151ef598d1c2d01ac136128f32602052604081205460ff166106ab565b6001546001600160a01b03163314611560576040516257034d60e91b815260040160405180910390fd5b6107c9838383612131565b7f35a7846a2a701fff6f9d61a46ebff5da578c5dcee8bdf361c569f9ea4ee6477161159581611af4565b6107c98383611e39565b606060006115ae836002612d6d565b6115b9906002612d8c565b67ffffffffffffffff8111156115d1576115d1612d9f565b6040519080825280601f01601f1916602001820160405280156115fb576020820181803683370190505b5090507f30000000000000000000000000000000000000000000000000000000000000008160008151811061163257611632612cdf565b60200101907effffffffffffffffffffffffffffffffffffffffffffffffffffffffffffff1916908160001a9053507f78000000000000000000000000000000000000000000000000000000000000008160018151811061169557611695612cdf565b60200101907effffffffffffffffffffffffffffffffffffffffffffffffffffffffffffff1916908160001a90535060006116d1846002612d6d565b6116dc906001612d8c565b90505b6001811115611779577f303132333435363738396162636465660000000000000000000000000000000085600f166010811061171d5761171d612cdf565b1a60f81b82828151811061173357611733612cdf565b60200101907effffffffffffffffffffffffffffffffffffffffffffffffffffffffffffff1916908160001a90535060049490941c9361177281612db5565b90506116df565b50831561079d5760405162461bcd60e51b815260206004820181905260248201527f537472696e67733a20686578206c656e67746820696e73756666696369656e746044820152606401610848565b60006106ab826122e3565b6001600160a01b038416600090815260076020908152604080832083805290915281205490811215611831576040517fc484578200000000000000000000000000000000000000000000000000000000815260040160405180910390fd5b6001600160a01b03851660009081526007602090815260408083208784529091529020548061185f85611d7d565b1315611897576040517fdda3b46000000000000000000000000000000000000000000000000000000000815260040160405180910390fd5b600485815481106118aa576118aa612cdf565b9060005260206000209060050201600301548411156118f5576040517f3b18d12000000000000000000000000000000000000000000000000000000000815260040160405180910390fd5b836004868154811061190957611909612cdf565b906000526020600020906005020160030160008282546119299190612cf5565b909155506119469050868661193d87611d7d565b610c1690612caa565b600061197b6004878154811061195e5761195e612cdf565b600091825260209091206002600590920201015460ff1686612339565b90506119916001600160a01b0385168883612088565b836001600160a01b0316876001600160a01b03167f9b1bfa7fa9ee420a16e124f794c35ac9f90472acc99140eb2f6447c714cad8eb836040516119d691815260200190565b60405180910390a350505050505050565b600480546000919082908190815b81811015611ae8576001600160a01b038816600090815260076020908152604080832084845290915290205493508315611ae0578615611a9e57611a8d858281548110611a4457611a44612cdf565b600091825260209091206005909102015486546001600160a01b0390911690879084908110611a7557611a75612cdf565b9060005260206000209060050201600101548661239a565b611a979084612d45565b9250611ae0565b611ad3858281548110611ab357611ab3612cdf565b60009182526020909120600590910201546001600160a01b031685611c1e565b611add9084612d45565b92505b6001016119f5565b50909695505050505050565b611afe813361245a565b50565b6000828152602081815260408083206001600160a01b038516845290915290205460ff1661078d576000828152602081815260408083206001600160a01b03851684529091529020805460ff19166001179055611b5b3390565b6001600160a01b0316816001600160a01b0316837f2f8788117e7eff1d82e926ec794901d17c78024a50270940304540a733656f0d60405160405180910390a45050565b6000828152602081815260408083206001600160a01b038516845290915290205460ff161561078d576000828152602081815260408083206001600160a01b0385168085529252808320805460ff1916905551339285917ff6391f5c32d9c69d2a47ea670b442974b53935d1edc7fd64eb21e047a839171b9190a45050565b6003546040517ffa481db90000000000000000000000000000000000000000000000000000000081526001600160a01b03848116600483015260248201849052600092839291169063fa481db990604401602060405180830381865afa158015611c8c573d6000803e3d6000fd5b505050506040513d601f19601f82011682018060405250810190611cb09190612cc6565b9050611cbc8382611d88565b949350505050565b600061079d83836124d8565b6000611ce1856000610c1685611d7d565b83546001600160a01b0316600090815260056020526040902054611d0a90869061193d86611d7d565b611d3f6001600160a01b037f0000000000000000000000000000000000000000000000000000000000000000168730856124e4565b83546001600160a01b0316600090815260056020526040902054611d68908790610c1686611d7d565b50949350505050565b600061079d8383612535565b60006106ab8261254a565b600061079d83836125e2565b6001600160a01b038316600090815260076020908152604080832085845290915281208054839290611dc7908490612d45565b9091555050505050565b600060111960ff841601611de65750806106ab565b601260ff84161015611e1957611dfd836012612dcc565b611e0890600a612ec9565b611e129083612d6d565b90506106ab565b611e24601284612dcc565b611e2f90600a612ec9565b61079d9083612eee565b6001600160a01b03821660009081526005602052604090205480158015611e9257507f00000000000000000000000000000000000000000000000000000000000000006001600160a01b0316836001600160a01b031614155b15611eb05760405163a84d9d9760e01b815260040160405180910390fd5b67016345785d8a0000821015611ef2576040517f2e01c96300000000000000000000000000000000000000000000000000000000815260040160405180910390fd5b670de0b6b3a7640000821115611f34576040517f5f08f99d00000000000000000000000000000000000000000000000000000000815260040160405180910390fd5b8160048281548110611f4857611f48612cdf565b600091825260209182902060016005909202010191909155604080516001600160a01b03861681529182018490527f961e2483fa09e9fd159361d604d3c547aca03801b1ce4c758b036e9bacd8c08291015b60405180910390a1505050565b6001600160a01b0382166000908152600560205260409020548015801561200057507f00000000000000000000000000000000000000000000000000000000000000006001600160a01b0316836001600160a01b031614155b1561201e5760405163a84d9d9760e01b815260040160405180910390fd5b816004828154811061203257612032612cdf565b600091825260209182902060046005909202010191909155604080516001600160a01b03861681529182018490527f6af11b7b0fa3a0001eea86cdc01b08604d3c974ef76506801c330db8aca293c59101611f9a565b6040516001600160a01b0383166024820152604481018290526107c99084907fa9059cbb00000000000000000000000000000000000000000000000000000000906064015b60408051601f198184030181529190526020810180517bffffffffffffffffffffffffffffffffffffffffffffffffffffffff167fffffffff00000000000000000000000000000000000000000000000000000000909316929092179091526126f2565b6001600160a01b0381166000908152600560205260409020548015801561218a57507f00000000000000000000000000000000000000000000000000000000000000006001600160a01b0316826001600160a01b031614155b156121a85760405163a84d9d9760e01b815260040160405180910390fd5b6000600482815481106121bd576121bd612cdf565b6000918252602082206002600590920201908101549092506121e29060ff1686611dd1565b905081600401548183600301546121f99190612d8c565b1115612231576040517fc4e107c000000000000000000000000000000000000000000000000000000000815260040160405180910390fd5b806004848154811061224557612245612cdf565b906000526020600020906005020160030160008282546122659190612d8c565b9091555061227990508684610c1684611d7d565b61228e6001600160a01b0385168730886124e4565b836001600160a01b0316866001600160a01b03167f5548c837ab068cf56a2c2479df0882a4922fd203edb7517321831d95078c5f62876040516122d391815260200190565b60405180910390a3505050505050565b6000808212156123355760405162461bcd60e51b815260206004820181905260248201527f53616665436173743a2076616c7565206d75737420626520706f7369746976656044820152606401610848565b5090565b600060111960ff84160161234e5750806106ab565b601260ff8416101561237a57612365836012612dcc565b61237090600a612ec9565b611e129083612eee565b612385601284612dcc565b61239090600a612ec9565b61079d9083612d6d565b6000806123b06123a985611d7d565b8490611d88565b6003546040517ffa481db90000000000000000000000000000000000000000000000000000000081526001600160a01b038881166004830152602482018790529293506000929091169063fa481db990604401602060405180830381865afa158015612420573d6000803e3d6000fd5b505050506040513d601f19601f820116820180604052508101906124449190612cc6565b90506124508282611d88565b9695505050505050565b6000828152602081815260408083206001600160a01b038516845290915290205460ff1661078d57612496816001600160a01b0316601461159f565b6124a183602061159f565b6040516020016124b2929190612f34565b60408051601f198184030181529082905262461bcd60e51b825261084891600401612fb5565b600061079d83836127d7565b6040516001600160a01b038085166024830152831660448201526064810182905261078a9085907f23b872dd00000000000000000000000000000000000000000000000000000000906084016120cd565b600061079d83670de0b6b3a7640000846128d0565b60007f7fffffffffffffffffffffffffffffffffffffffffffffffffffffffffffffff8211156123355760405162461bcd60e51b815260206004820152602860248201527f53616665436173743a2076616c756520646f65736e27742066697420696e206160448201527f6e20696e743235360000000000000000000000000000000000000000000000006064820152608401610848565b6000600160ff1b8314806125f95750600160ff1b82145b15612630576040517f3406846c00000000000000000000000000000000000000000000000000000000815260040160405180910390fd5b600080600085126126415784612646565b846000035b915060008412612656578361265b565b836000035b9050600061266983836127d7565b90507f7fffffffffffffffffffffffffffffffffffffffffffffffffffffffffffffff8111156126c8576040517fbf79e8d900000000000000000000000000000000000000000000000000000000815260048101829052602401610848565b6000198087139086138082186001146126e157826126e6565b826000035b98975050505050505050565b6000612747826040518060400160405280602081526020017f5361666545524332303a206c6f772d6c6576656c2063616c6c206661696c6564815250856001600160a01b03166129b69092919063ffffffff16565b8051909150156107c957808060200190518101906127659190612fe8565b6107c95760405162461bcd60e51b815260206004820152602a60248201527f5361666545524332303a204552433230206f7065726174696f6e20646964206e60448201527f6f742073756363656564000000000000000000000000000000000000000000006064820152608401610848565b60008080600019848609848602925082811083820303915050670de0b6b3a76400008110612834576040517fd31b340200000000000000000000000000000000000000000000000000000000815260048101829052602401610848565b600080670de0b6b3a764000086880991506706f05b59d3b1ffff82119050826000036128725780670de0b6b3a76400008504019450505050506106ab565b6204000082850304939091119091037d40000000000000000000000000000000000000000000000000000000000002919091177faccb18165bd6fe31ae1cf318dc5b51eee0e1ba569b88cd74c1773b91fac106690201905092915050565b600080806000198587098587029250828110838203039150508060000361290a5783828161290057612900612ed8565b049250505061079d565b83811061294d576040517f773cc18c0000000000000000000000000000000000000000000000000000000081526004810182905260248101859052604401610848565b60008486880960026001871981018816978890046003810283188082028403028082028403028082028403028082028403028082028403029081029092039091026000889003889004909101858311909403939093029303949094049190911702949350505050565b6060611cbc8484600085856001600160a01b0385163b612a185760405162461bcd60e51b815260206004820152601d60248201527f416464726573733a2063616c6c20746f206e6f6e2d636f6e74726163740000006044820152606401610848565b600080866001600160a01b03168587604051612a349190613005565b60006040518083038185875af1925050503d8060008114612a71576040519150601f19603f3d011682016040523d82523d6000602084013e612a76565b606091505b5091509150612a86828286612a91565b979650505050505050565b60608315612aa057508161079d565b825115612ab05782518084602001fd5b8160405162461bcd60e51b81526004016108489190612fb5565b600060208284031215612adc57600080fd5b81357fffffffff000000000000000000000000000000000000000000000000000000008116811461079d57600080fd5b6001600160a01b0381168114611afe57600080fd5b600060208284031215612b3357600080fd5b813561079d81612b0c565b60008060408385031215612b5157600080fd5b8235612b5c81612b0c565b91506020830135612b6c81612b0c565b809150509250929050565b600060208284031215612b8957600080fd5b5035919050565b8015158114611afe57600080fd5b60008060408385031215612bb157600080fd5b8235612bbc81612b0c565b91506020830135612b6c81612b90565b60008060408385031215612bdf57600080fd5b8235612bea81612b0c565b946020939093013593505050565b60008060408385031215612c0b57600080fd5b823591506020830135612b6c81612b0c565b600080600060608486031215612c3257600080fd5b8335612c3d81612b0c565b9250602084013591506040840135612c5481612b0c565b809150509250925092565b600080600060608486031215612c7457600080fd5b8335612c7f81612b0c565b95602085013595506040909401359392505050565b634e487b7160e01b600052601160045260246000fd5b6000600160ff1b8203612cbf57612cbf612c94565b5060000390565b600060208284031215612cd857600080fd5b5051919050565b634e487b7160e01b600052603260045260246000fd5b818103818111156106ab576106ab612c94565b60006000198203612d1b57612d1b612c94565b5060010190565b600060208284031215612d3457600080fd5b815160ff8116811461079d57600080fd5b8082018281126000831280158216821582161715612d6557612d65612c94565b505092915050565b6000816000190483118215151615612d8757612d87612c94565b500290565b808201808211156106ab576106ab612c94565b634e487b7160e01b600052604160045260246000fd5b600081612dc457612dc4612c94565b506000190190565b60ff82811682821603908111156106ab576106ab612c94565b600181815b80851115612e20578160001904821115612e0657612e06612c94565b80851615612e1357918102915b93841c9390800290612dea565b509250929050565b600082612e37575060016106ab565b81612e44575060006106ab565b8160018114612e5a5760028114612e6457612e80565b60019150506106ab565b60ff841115612e7557612e75612c94565b50506001821b6106ab565b5060208310610133831016604e8410600b8410161715612ea3575081810a6106ab565b612ead8383612de5565b8060001904821115612ec157612ec1612c94565b029392505050565b600061079d60ff841683612e28565b634e487b7160e01b600052601260045260246000fd5b600082612f0b57634e487b7160e01b600052601260045260246000fd5b500490565b60005b83811015612f2b578181015183820152602001612f13565b50506000910152565b7f416363657373436f6e74726f6c3a206163636f756e7420000000000000000000815260008351612f6c816017850160208801612f10565b7f206973206d697373696e6720726f6c65200000000000000000000000000000006017918401918201528351612fa9816028840160208801612f10565b01602801949350505050565b6020815260008251806020840152612fd4816040850160208701612f10565b601f01601f19169190910160400192915050565b600060208284031215612ffa57600080fd5b815161079d81612b90565b60008251613017818460208701612f10565b919091019291505056fea26469706673582212203a6467f3e8d413b508a731094ba14eae5ae556ed5cdb672c77dea669190ba8ad64736f6c63430008100033af290d8680820aad922855f39b306097b20e28774d6c1ad35a20325630c3a02c35a7846a2a701fff6f9d61a46ebff5da578c5dcee8bdf361c569f9ea4ee64771",
  "devdoc": {
    "kind": "dev",
    "methods": {
      "addWhiteListedCollateral(address,uint256,uint256)": {
        "params": {
          "asset": "Address of the token to be whitelisted as a valid collateral in the Vault",
          "maxAmount": "Maximum total amount that the Vault will accept of this collateral",
          "weight": "Discount weight to be applied on the asset vault"
        }
      },
      "changeCollateralMaxAmount(address,uint256)": {
        "params": {
          "asset": "Address of asset to change max amount",
          "newMaxAmount": "New max amount for the collateral"
        }
      },
      "changeCollateralWeight(address,uint256)": {
        "params": {
          "asset": "Address of asset to change collateral weight",
          "newWeight": "New weight. 18 decimals"
        }
      },
      "deposit(address,uint256,address)": {
        "params": {
          "amount": "Amount to be used as the collateral of the position. Might not be 18 decimals (decimals of the token)",
          "depositToken": "One whitelisted token",
          "user": "Account to deposit collateral to"
        }
      },
      "getBalance(address,uint256)": {
        "params": {
          "tokenIdx": "Index of the token",
          "user": "User address"
        }
      },
      "getReserveValue(address,bool)": {
        "params": {
          "isDiscounted": "Whether or not the reserve value should be discounted by the weight of the collateral",
          "user": "User address"
        }
      },
      "getRoleAdmin(bytes32)": {
        "details": "Returns the admin role that controls `role`. See {grantRole} and {revokeRole}. To change a role's admin, use {_setRoleAdmin}."
      },
      "getWhiteListedCollateral(uint256)": {
        "params": {
          "idx": "Index of the whitelisted collateral to get details from"
        }
      },
      "grantRole(bytes32,address)": {
        "details": "Grants `role` to `account`. If `account` had not been already granted `role`, emits a {RoleGranted} event. Requirements: - the caller must have ``role``'s admin role. May emit a {RoleGranted} event."
      },
      "hasRole(bytes32,address)": {
        "details": "Returns `true` if `account` has been granted `role`."
      },
      "renounceRole(bytes32,address)": {
        "details": "Revokes `role` from the calling account. Roles are often managed via {grantRole} and {revokeRole}: this function's purpose is to provide a mechanism for accounts to lose their privileges if they are compromised (such as when a trusted device is misplaced). If the calling account had been revoked `role`, emits a {RoleRevoked} event. Requirements: - the caller must be `account`. May emit a {RoleRevoked} event."
      },
      "revokeRole(bytes32,address)": {
        "details": "Revokes `role` from `account`. If `account` had been granted `role`, emits a {RoleRevoked} event. Requirements: - the caller must have ``role``'s admin role. May emit a {RoleRevoked} event."
      },
      "setClearingHouse(address)": {
        "params": {
          "newClearingHouse": "Address of the new ClearingHouse"
        }
      },
      "setInsurance(address)": {
        "params": {
          "newInsurance": "Address of the new Insurance"
        }
      },
      "setOracle(address)": {
        "params": {
          "newOracle": "Address of the new Oracle"
        }
      },
      "settleLiquidationOnCollaterals(address,address)": {
        "details": "The liquidator buys just as much non-UA collaterals to cover the liquidatee's debt, not moreIf the USD value of all the non-UA collaterals of the liquidatee < his UA debt, Increment insurance steps in to cover the remainder of the UA debt",
        "params": {
          "liquidatee": "Address of the liquidatee",
          "liquidator": "Address of the liquidator"
        }
      },
      "settlePnL(address,int256)": {
        "params": {
          "amount": "PnL amount in UA to apply. 18 decimals",
          "user": "Account to apply the PnL to"
        }
      },
      "supportsInterface(bytes4)": {
        "details": "See {IERC165-supportsInterface}."
      },
      "transferUa(address,uint256)": {
        "details": "Important: the balance of the user from whom the UA tokens are being withdrawn must be updated separately",
        "params": {
          "amount": "Amount of UA tokens to be withdrawn. 18 decimals",
          "user": "Account to withdraw UA tokens to"
        }
      },
      "withdraw(address,uint256,address)": {
        "details": "Unlike `deposit`, `withdraw` treats withdrawals of UAdifferently than other collaterals",
        "params": {
          "amount": "Amount to withdraw from the vault. Might not be 18 decimals (decimals of the token)",
          "user": "Account to withdraw from",
          "withdrawToken": "Token whose balance is to be withdrawn from the vault"
        }
      },
      "withdrawAll(address,address)": {
        "params": {
          "user": "Account to withdraw from",
          "withdrawToken": "Token whose balance is to be withdrawn from the vault"
        }
      }
    },
    "version": 1
  },
  "userdoc": {
    "errors": {
      "PRBMathSD59x18__MulInputTooSmall()": [
        {
          "notice": "Emitted when one of the inputs is MIN_SD59x18."
        }
      ],
      "PRBMathSD59x18__MulOverflow(uint256)": [
        {
          "notice": "Emitted when the intermediary absolute result overflows SD59x18."
        }
      ],
      "PRBMath__MulDivFixedPointOverflow(uint256)": [
        {
          "notice": "Emitted when the result overflows uint256."
        }
      ],
      "PRBMath__MulDivOverflow(uint256,uint256)": [
        {
          "notice": "Emitted when the result overflows uint256."
        }
      ],
      "Vault_ClearingHouseAlreadySet()": [
        {
          "notice": "Emitted when the clearingHouse has already been set (one time call function)"
        }
      ],
      "Vault_ClearingHouseZeroAddress()": [
        {
          "notice": "Emitted when the proposed clearingHouse address is equal to the zero address"
        }
      ],
      "Vault_CollateralAlreadyWhiteListed()": [
        {
          "notice": "Emitted when owner tries to whitelist a collateral already whitelisted"
        }
      ],
      "Vault_ExcessiveCollateralWeight()": [
        {
          "notice": "Emitted when the proposed collateral weight is above the limit"
        }
      ],
      "Vault_InsufficientBalance()": [
        {
          "notice": "Emitted when a user attempts to withdraw more collateral than available in vault"
        }
      ],
      "Vault_InsufficientCollateralWeight()": [
        {
          "notice": "Emitted when the proposed collateral weight is under the limit"
        }
      ],
      "Vault_InsuranceAlreadySet()": [
        {
          "notice": "Emitted when the insurance has already been set (one time call function)"
        }
      ],
      "Vault_InsuranceZeroAddress()": [
        {
          "notice": "Emitted when the proposed insurance address is equal to the zero address"
        }
      ],
      "Vault_MaxCollateralAmountExceeded()": [
        {
          "notice": "Emitted when a user attempts to withdraw more collateral than available in vault"
        }
      ],
      "Vault_OracleZeroAddress()": [
        {
          "notice": "Emitted when the proposed oracle address is equal to the zero address"
        }
      ],
      "Vault_SenderNotClearingHouse()": [
        {
          "notice": "Emitted when the sender is not the clearing house"
        }
      ],
      "Vault_SenderNotClearingHouseNorInsurance()": [
        {
          "notice": "Emitted when the sender is not the clearing house, nor the insurance"
        }
      ],
      "Vault_UADebt()": [
        {
          "notice": "Emitted when user tries to withdraw collateral while having a UA debt"
        }
      ],
      "Vault_UnsupportedCollateral()": [
        {
          "notice": "Emitted when a user attempts to use a token which is not whitelisted as collateral"
        }
      ],
      "Vault_WithdrawExcessiveAmount()": [
        {
          "notice": "Emitted when a user attempts to withdraw more than their balance"
        }
      ],
      "Vault_WithdrawReductionRatioTooHigh()": [
        {
          "notice": "Emitted when a user attempts to withdraw with a reduction ratio above 1e18"
        }
      ],
      "Vault_ZeroAddressConstructor(uint8)": [
        {
          "notice": "Emitted when the zero address is provided as a parameter in the constructor"
        }
      ]
    },
    "events": {
      "ClearingHouseChanged(address)": {
        "notice": "Emitted when the ClearingHouse address is updated"
      },
      "CollateralAdded(address,uint256,uint256)": {
        "notice": "Emitted when a new collateral is added to the Vault"
      },
      "CollateralMaxAmountChanged(address,uint256)": {
        "notice": "Emitted when a collateral max amount is updated"
      },
      "CollateralWeightChanged(address,uint256)": {
        "notice": "Emitted when a collateral weight is updated"
      },
      "Deposit(address,address,uint256)": {
        "notice": "Emitted when collateral is deposited into the vault"
      },
      "InsuranceChanged(address)": {
        "notice": "Emitted when the Insurance address is updated"
      },
      "OracleChanged(address)": {
        "notice": "Emitted when the Oracle address is updated"
      },
      "TraderBadDebtGenerated(address,uint256)": {
        "notice": "Emitted when bad debt is settled for by the insurance reserve"
      },
      "Withdraw(address,address,uint256)": {
        "notice": "Emitted when collateral is withdrawn from the vault"
      }
    },
    "kind": "user",
    "methods": {
      "addWhiteListedCollateral(address,uint256,uint256)": {
        "notice": "Add a new token to the list of whitelisted ERC20 which can be used as collaterals"
      },
      "changeCollateralMaxAmount(address,uint256)": {
        "notice": "Change max amount of a whitelisted collateral         Useful as a risk mitigation measure in case one collateral drops in value"
      },
      "changeCollateralWeight(address,uint256)": {
        "notice": "Change weight of a whitelisted collateral         Useful as a risk mitigation measure in case one collateral drops in value"
      },
      "deposit(address,uint256,address)": {
        "notice": "Add an amount of a whitelisted token to the balance of a user"
      },
      "getBalance(address,uint256)": {
        "notice": "Get the balance of a user of a given token"
      },
      "getNumberOfCollaterals()": {
        "notice": "Get number of whitelisted tokens"
      },
      "getReserveValue(address,bool)": {
        "notice": "Get the balance of a user, accounted for in USD. 18 decimals"
      },
      "getTotalValueLocked()": {
        "notice": "Get total value of all tokens deposited in the vault, in USD. 18 decimals"
      },
      "getWhiteListedCollateral(uint256)": {
        "notice": "Get details of a whitelisted collateral token"
      },
      "setClearingHouse(address)": {
        "notice": "Update the ClearingHouse address"
      },
      "setInsurance(address)": {
        "notice": "Update the Insurance address"
      },
      "setOracle(address)": {
        "notice": "Update the Oracle address"
      },
      "settleLiquidationOnCollaterals(address,address)": {
        "notice": "Allow liquidator to buy back non-UA collateral(s) of liquidated user at a discounted price whereby settling the latter debt"
      },
      "settlePnL(address,int256)": {
        "notice": "Settle PnL for user in UA"
      },
      "tokenToCollateralIdx(address)": {
        "notice": "Map whitelisted collateral tokens to their whiteListedCollaterals indexes"
      },
      "transferUa(address,uint256)": {
        "notice": "Transfer UA tokens from the vault"
      },
      "withdraw(address,uint256,address)": {
        "notice": "Withdraw tokens stored by a user in the vault"
      },
      "withdrawAll(address,address)": {
        "notice": "Withdraw all tokens stored by a user in the vault"
      }
    },
    "notice": "Keeps track of all token reserves for all market",
    "version": 1
  },
  "storageLayout": {
    "storage": [
      {
        "astId": 70,
        "contract": "contracts/Vault.sol:Vault",
        "label": "_roles",
        "offset": 0,
        "slot": "0",
        "type": "t_mapping(t_bytes32,t_struct(RoleData)65_storage)"
      },
      {
        "astId": 12501,
        "contract": "contracts/Vault.sol:Vault",
        "label": "clearingHouse",
        "offset": 0,
        "slot": "1",
        "type": "t_contract(IClearingHouse)14355"
      },
      {
        "astId": 12505,
        "contract": "contracts/Vault.sol:Vault",
        "label": "insurance",
        "offset": 0,
        "slot": "2",
        "type": "t_contract(IInsurance)15023"
      },
      {
        "astId": 12509,
        "contract": "contracts/Vault.sol:Vault",
        "label": "oracle",
        "offset": 0,
        "slot": "3",
        "type": "t_contract(IOracle)15201"
      },
      {
        "astId": 12513,
        "contract": "contracts/Vault.sol:Vault",
        "label": "whiteListedCollaterals",
        "offset": 0,
        "slot": "4",
        "type": "t_array(t_struct(Collateral)15940_storage)dyn_storage"
      },
      {
        "astId": 12520,
        "contract": "contracts/Vault.sol:Vault",
        "label": "tokenToCollateralIdx",
        "offset": 0,
        "slot": "5",
        "type": "t_mapping(t_contract(IERC20Metadata)857,t_uint256)"
      },
      {
        "astId": 12522,
        "contract": "contracts/Vault.sol:Vault",
        "label": "isClearingHouseSet",
        "offset": 0,
        "slot": "6",
        "type": "t_bool"
      },
      {
        "astId": 12524,
        "contract": "contracts/Vault.sol:Vault",
        "label": "isInsuranceSet",
        "offset": 1,
        "slot": "6",
        "type": "t_bool"
      },
      {
        "astId": 12530,
        "contract": "contracts/Vault.sol:Vault",
        "label": "balances",
        "offset": 0,
        "slot": "7",
        "type": "t_mapping(t_address,t_mapping(t_uint256,t_int256))"
      }
    ],
    "types": {
      "t_address": {
        "encoding": "inplace",
        "label": "address",
        "numberOfBytes": "20"
      },
      "t_array(t_struct(Collateral)15940_storage)dyn_storage": {
        "base": "t_struct(Collateral)15940_storage",
        "encoding": "dynamic_array",
        "label": "struct IVault.Collateral[]",
        "numberOfBytes": "32"
      },
      "t_bool": {
        "encoding": "inplace",
        "label": "bool",
        "numberOfBytes": "1"
      },
      "t_bytes32": {
        "encoding": "inplace",
        "label": "bytes32",
        "numberOfBytes": "32"
      },
      "t_contract(IClearingHouse)14355": {
        "encoding": "inplace",
        "label": "contract IClearingHouse",
        "numberOfBytes": "20"
      },
      "t_contract(IERC20Metadata)857": {
        "encoding": "inplace",
        "label": "contract IERC20Metadata",
        "numberOfBytes": "20"
      },
      "t_contract(IInsurance)15023": {
        "encoding": "inplace",
        "label": "contract IInsurance",
        "numberOfBytes": "20"
      },
      "t_contract(IOracle)15201": {
        "encoding": "inplace",
        "label": "contract IOracle",
        "numberOfBytes": "20"
      },
      "t_int256": {
        "encoding": "inplace",
        "label": "int256",
        "numberOfBytes": "32"
      },
      "t_mapping(t_address,t_bool)": {
        "encoding": "mapping",
        "key": "t_address",
        "label": "mapping(address => bool)",
        "numberOfBytes": "32",
        "value": "t_bool"
      },
      "t_mapping(t_address,t_mapping(t_uint256,t_int256))": {
        "encoding": "mapping",
        "key": "t_address",
        "label": "mapping(address => mapping(uint256 => int256))",
        "numberOfBytes": "32",
        "value": "t_mapping(t_uint256,t_int256)"
      },
      "t_mapping(t_bytes32,t_struct(RoleData)65_storage)": {
        "encoding": "mapping",
        "key": "t_bytes32",
        "label": "mapping(bytes32 => struct AccessControl.RoleData)",
        "numberOfBytes": "32",
        "value": "t_struct(RoleData)65_storage"
      },
      "t_mapping(t_contract(IERC20Metadata)857,t_uint256)": {
        "encoding": "mapping",
        "key": "t_contract(IERC20Metadata)857",
        "label": "mapping(contract IERC20Metadata => uint256)",
        "numberOfBytes": "32",
        "value": "t_uint256"
      },
      "t_mapping(t_uint256,t_int256)": {
        "encoding": "mapping",
        "key": "t_uint256",
        "label": "mapping(uint256 => int256)",
        "numberOfBytes": "32",
        "value": "t_int256"
      },
      "t_struct(Collateral)15940_storage": {
        "encoding": "inplace",
        "label": "struct IVault.Collateral",
        "members": [
          {
            "astId": 15931,
            "contract": "contracts/Vault.sol:Vault",
            "label": "asset",
            "offset": 0,
            "slot": "0",
            "type": "t_contract(IERC20Metadata)857"
          },
          {
            "astId": 15933,
            "contract": "contracts/Vault.sol:Vault",
            "label": "weight",
            "offset": 0,
            "slot": "1",
            "type": "t_uint256"
          },
          {
            "astId": 15935,
            "contract": "contracts/Vault.sol:Vault",
            "label": "decimals",
            "offset": 0,
            "slot": "2",
            "type": "t_uint8"
          },
          {
            "astId": 15937,
            "contract": "contracts/Vault.sol:Vault",
            "label": "currentAmount",
            "offset": 0,
            "slot": "3",
            "type": "t_uint256"
          },
          {
            "astId": 15939,
            "contract": "contracts/Vault.sol:Vault",
            "label": "maxAmount",
            "offset": 0,
            "slot": "4",
            "type": "t_uint256"
          }
        ],
        "numberOfBytes": "160"
      },
      "t_struct(RoleData)65_storage": {
        "encoding": "inplace",
        "label": "struct AccessControl.RoleData",
        "members": [
          {
            "astId": 62,
            "contract": "contracts/Vault.sol:Vault",
            "label": "members",
            "offset": 0,
            "slot": "0",
            "type": "t_mapping(t_address,t_bool)"
          },
          {
            "astId": 64,
            "contract": "contracts/Vault.sol:Vault",
            "label": "adminRole",
            "offset": 0,
            "slot": "1",
            "type": "t_bytes32"
          }
        ],
        "numberOfBytes": "64"
      },
      "t_uint256": {
        "encoding": "inplace",
        "label": "uint256",
        "numberOfBytes": "32"
      },
      "t_uint8": {
        "encoding": "inplace",
        "label": "uint8",
        "numberOfBytes": "1"
      }
    }
  }
}