{
  "address": "0x33628A73Ea94345bCC3f1EF0a292a8E1f76bae4b",
  "abi": [
    {
      "name": "TokenExchange",
      "inputs": [
        {
          "name": "buyer",
          "type": "address",
          "indexed": true
        },
        {
          "name": "sold_id",
          "type": "uint256",
          "indexed": false
        },
        {
          "name": "tokens_sold",
          "type": "uint256",
          "indexed": false
        },
        {
          "name": "bought_id",
          "type": "uint256",
          "indexed": false
        },
        {
          "name": "tokens_bought",
          "type": "uint256",
          "indexed": false
        }
      ],
      "anonymous": false,
      "type": "event"
    },
    {
      "name": "AddLiquidity",
      "inputs": [
        {
          "name": "provider",
          "type": "address",
          "indexed": true
        },
        {
          "name": "token_amounts",
          "type": "uint256[2]",
          "indexed": false
        },
        {
          "name": "fee",
          "type": "uint256",
          "indexed": false
        },
        {
          "name": "token_supply",
          "type": "uint256",
          "indexed": false
        }
      ],
      "anonymous": false,
      "type": "event"
    },
    {
      "name": "RemoveLiquidity",
      "inputs": [
        {
          "name": "provider",
          "type": "address",
          "indexed": true
        },
        {
          "name": "token_amounts",
          "type": "uint256[2]",
          "indexed": false
        },
        {
          "name": "token_supply",
          "type": "uint256",
          "indexed": false
        }
      ],
      "anonymous": false,
      "type": "event"
    },
    {
      "name": "RemoveLiquidityOne",
      "inputs": [
        {
          "name": "provider",
          "type": "address",
          "indexed": true
        },
        {
          "name": "token_amount",
          "type": "uint256",
          "indexed": false
        },
        {
          "name": "coin_index",
          "type": "uint256",
          "indexed": false
        },
        {
          "name": "coin_amount",
          "type": "uint256",
          "indexed": false
        }
      ],
      "anonymous": false,
      "type": "event"
    },
    {
      "name": "CommitNewAdmin",
      "inputs": [
        {
          "name": "deadline",
          "type": "uint256",
          "indexed": true
        },
        {
          "name": "admin",
          "type": "address",
          "indexed": true
        }
      ],
      "anonymous": false,
      "type": "event"
    },
    {
      "name": "NewAdmin",
      "inputs": [
        {
          "name": "admin",
          "type": "address",
          "indexed": true
        }
      ],
      "anonymous": false,
      "type": "event"
    },
    {
      "name": "CommitNewParameters",
      "inputs": [
        {
          "name": "deadline",
          "type": "uint256",
          "indexed": true
        },
        {
          "name": "admin_fee",
          "type": "uint256",
          "indexed": false
        },
        {
          "name": "mid_fee",
          "type": "uint256",
          "indexed": false
        },
        {
          "name": "out_fee",
          "type": "uint256",
          "indexed": false
        },
        {
          "name": "fee_gamma",
          "type": "uint256",
          "indexed": false
        },
        {
          "name": "allowed_extra_profit",
          "type": "uint256",
          "indexed": false
        },
        {
          "name": "adjustment_step",
          "type": "uint256",
          "indexed": false
        },
        {
          "name": "ma_half_time",
          "type": "uint256",
          "indexed": false
        }
      ],
      "anonymous": false,
      "type": "event"
    },
    {
      "name": "NewParameters",
      "inputs": [
        {
          "name": "admin_fee",
          "type": "uint256",
          "indexed": false
        },
        {
          "name": "mid_fee",
          "type": "uint256",
          "indexed": false
        },
        {
          "name": "out_fee",
          "type": "uint256",
          "indexed": false
        },
        {
          "name": "fee_gamma",
          "type": "uint256",
          "indexed": false
        },
        {
          "name": "allowed_extra_profit",
          "type": "uint256",
          "indexed": false
        },
        {
          "name": "adjustment_step",
          "type": "uint256",
          "indexed": false
        },
        {
          "name": "ma_half_time",
          "type": "uint256",
          "indexed": false
        }
      ],
      "anonymous": false,
      "type": "event"
    },
    {
      "name": "RampAgamma",
      "inputs": [
        {
          "name": "initial_A",
          "type": "uint256",
          "indexed": false
        },
        {
          "name": "future_A",
          "type": "uint256",
          "indexed": false
        },
        {
          "name": "initial_gamma",
          "type": "uint256",
          "indexed": false
        },
        {
          "name": "future_gamma",
          "type": "uint256",
          "indexed": false
        },
        {
          "name": "initial_time",
          "type": "uint256",
          "indexed": false
        },
        {
          "name": "future_time",
          "type": "uint256",
          "indexed": false
        }
      ],
      "anonymous": false,
      "type": "event"
    },
    {
      "name": "StopRampA",
      "inputs": [
        {
          "name": "current_A",
          "type": "uint256",
          "indexed": false
        },
        {
          "name": "current_gamma",
          "type": "uint256",
          "indexed": false
        },
        {
          "name": "time",
          "type": "uint256",
          "indexed": false
        }
      ],
      "anonymous": false,
      "type": "event"
    },
    {
      "name": "ClaimAdminFee",
      "inputs": [
        {
          "name": "admin",
          "type": "address",
          "indexed": true
        },
        {
          "name": "tokens",
          "type": "uint256",
          "indexed": false
        }
      ],
      "anonymous": false,
      "type": "event"
    },
    {
      "stateMutability": "nonpayable",
      "type": "constructor",
      "inputs": [
        {
          "name": "owner",
          "type": "address"
        },
        {
          "name": "admin_fee_receiver",
          "type": "address"
        },
        {
          "name": "A",
          "type": "uint256"
        },
        {
          "name": "gamma",
          "type": "uint256"
        },
        {
          "name": "mid_fee",
          "type": "uint256"
        },
        {
          "name": "out_fee",
          "type": "uint256"
        },
        {
          "name": "allowed_extra_profit",
          "type": "uint256"
        },
        {
          "name": "fee_gamma",
          "type": "uint256"
        },
        {
          "name": "adjustment_step",
          "type": "uint256"
        },
        {
          "name": "admin_fee",
          "type": "uint256"
        },
        {
          "name": "ma_half_time",
          "type": "uint256"
        },
        {
          "name": "initial_price",
          "type": "uint256"
        },
        {
          "name": "_token",
          "type": "address"
        },
        {
          "name": "_coins",
          "type": "address[2]"
        }
      ],
      "outputs": []
    },
    {
      "stateMutability": "view",
      "type": "function",
      "name": "token",
      "inputs": [],
      "outputs": [
        {
          "name": "",
          "type": "address"
        }
      ]
    },
    {
      "stateMutability": "view",
      "type": "function",
      "name": "coins",
      "inputs": [
        {
          "name": "i",
          "type": "uint256"
        }
      ],
      "outputs": [
        {
          "name": "",
          "type": "address"
        }
      ]
    },
    {
      "stateMutability": "view",
      "type": "function",
      "name": "A",
      "inputs": [],
      "outputs": [
        {
          "name": "",
          "type": "uint256"
        }
      ]
    },
    {
      "stateMutability": "view",
      "type": "function",
      "name": "gamma",
      "inputs": [],
      "outputs": [
        {
          "name": "",
          "type": "uint256"
        }
      ]
    },
    {
      "stateMutability": "view",
      "type": "function",
      "name": "fee",
      "inputs": [],
      "outputs": [
        {
          "name": "",
          "type": "uint256"
        }
      ]
    },
    {
      "stateMutability": "view",
      "type": "function",
      "name": "get_virtual_price",
      "inputs": [],
      "outputs": [
        {
          "name": "",
          "type": "uint256"
        }
      ]
    },
    {
      "stateMutability": "view",
      "type": "function",
      "name": "price_oracle",
      "inputs": [],
      "outputs": [
        {
          "name": "",
          "type": "uint256"
        }
      ]
    },
    {
      "stateMutability": "nonpayable",
      "type": "function",
      "name": "exchange",
      "inputs": [
        {
          "name": "i",
          "type": "uint256"
        },
        {
          "name": "j",
          "type": "uint256"
        },
        {
          "name": "dx",
          "type": "uint256"
        },
        {
          "name": "min_dy",
          "type": "uint256"
        }
      ],
      "outputs": [
        {
          "name": "",
          "type": "uint256"
        }
      ]
    },
    {
      "stateMutability": "nonpayable",
      "type": "function",
      "name": "exchange",
      "inputs": [
        {
          "name": "i",
          "type": "uint256"
        },
        {
          "name": "j",
          "type": "uint256"
        },
        {
          "name": "dx",
          "type": "uint256"
        },
        {
          "name": "min_dy",
          "type": "uint256"
        },
        {
          "name": "receiver",
          "type": "address"
        }
      ],
      "outputs": [
        {
          "name": "",
          "type": "uint256"
        }
      ]
    },
    {
      "stateMutability": "nonpayable",
      "type": "function",
      "name": "exchange_extended",
      "inputs": [
        {
          "name": "i",
          "type": "uint256"
        },
        {
          "name": "j",
          "type": "uint256"
        },
        {
          "name": "dx",
          "type": "uint256"
        },
        {
          "name": "min_dy",
          "type": "uint256"
        },
        {
          "name": "sender",
          "type": "address"
        },
        {
          "name": "receiver",
          "type": "address"
        },
        {
          "name": "cb",
          "type": "bytes"
        }
      ],
      "outputs": [
        {
          "name": "",
          "type": "uint256"
        }
      ]
    },
    {
      "stateMutability": "view",
      "type": "function",
      "name": "get_dy",
      "inputs": [
        {
          "name": "i",
          "type": "uint256"
        },
        {
          "name": "j",
          "type": "uint256"
        },
        {
          "name": "dx",
          "type": "uint256"
        }
      ],
      "outputs": [
        {
          "name": "",
          "type": "uint256"
        }
      ]
    },
    {
      "stateMutability": "nonpayable",
      "type": "function",
      "name": "add_liquidity",
      "inputs": [
        {
          "name": "amounts",
          "type": "uint256[2]"
        },
        {
          "name": "min_mint_amount",
          "type": "uint256"
        }
      ],
      "outputs": [
        {
          "name": "",
          "type": "uint256"
        }
      ]
    },
    {
      "stateMutability": "nonpayable",
      "type": "function",
      "name": "add_liquidity",
      "inputs": [
        {
          "name": "amounts",
          "type": "uint256[2]"
        },
        {
          "name": "min_mint_amount",
          "type": "uint256"
        },
        {
          "name": "receiver",
          "type": "address"
        }
      ],
      "outputs": [
        {
          "name": "",
          "type": "uint256"
        }
      ]
    },
    {
      "stateMutability": "nonpayable",
      "type": "function",
      "name": "remove_liquidity",
      "inputs": [
        {
          "name": "_amount",
          "type": "uint256"
        },
        {
          "name": "min_amounts",
          "type": "uint256[2]"
        }
      ],
      "outputs": []
    },
    {
      "stateMutability": "nonpayable",
      "type": "function",
      "name": "remove_liquidity",
      "inputs": [
        {
          "name": "_amount",
          "type": "uint256"
        },
        {
          "name": "min_amounts",
          "type": "uint256[2]"
        },
        {
          "name": "receiver",
          "type": "address"
        }
      ],
      "outputs": []
    },
    {
      "stateMutability": "view",
      "type": "function",
      "name": "calc_token_amount",
      "inputs": [
        {
          "name": "amounts",
          "type": "uint256[2]"
        }
      ],
      "outputs": [
        {
          "name": "",
          "type": "uint256"
        }
      ]
    },
    {
      "stateMutability": "view",
      "type": "function",
      "name": "calc_withdraw_one_coin",
      "inputs": [
        {
          "name": "token_amount",
          "type": "uint256"
        },
        {
          "name": "i",
          "type": "uint256"
        }
      ],
      "outputs": [
        {
          "name": "",
          "type": "uint256"
        }
      ]
    },
    {
      "stateMutability": "nonpayable",
      "type": "function",
      "name": "remove_liquidity_one_coin",
      "inputs": [
        {
          "name": "token_amount",
          "type": "uint256"
        },
        {
          "name": "i",
          "type": "uint256"
        },
        {
          "name": "min_amount",
          "type": "uint256"
        }
      ],
      "outputs": [
        {
          "name": "",
          "type": "uint256"
        }
      ]
    },
    {
      "stateMutability": "nonpayable",
      "type": "function",
      "name": "remove_liquidity_one_coin",
      "inputs": [
        {
          "name": "token_amount",
          "type": "uint256"
        },
        {
          "name": "i",
          "type": "uint256"
        },
        {
          "name": "min_amount",
          "type": "uint256"
        },
        {
          "name": "receiver",
          "type": "address"
        }
      ],
      "outputs": [
        {
          "name": "",
          "type": "uint256"
        }
      ]
    },
    {
      "stateMutability": "nonpayable",
      "type": "function",
      "name": "claim_admin_fees",
      "inputs": [],
      "outputs": []
    },
    {
      "stateMutability": "nonpayable",
      "type": "function",
      "name": "ramp_A_gamma",
      "inputs": [
        {
          "name": "future_A",
          "type": "uint256"
        },
        {
          "name": "future_gamma",
          "type": "uint256"
        },
        {
          "name": "future_time",
          "type": "uint256"
        }
      ],
      "outputs": []
    },
    {
      "stateMutability": "nonpayable",
      "type": "function",
      "name": "stop_ramp_A_gamma",
      "inputs": [],
      "outputs": []
    },
    {
      "stateMutability": "nonpayable",
      "type": "function",
      "name": "commit_new_parameters",
      "inputs": [
        {
          "name": "_new_mid_fee",
          "type": "uint256"
        },
        {
          "name": "_new_out_fee",
          "type": "uint256"
        },
        {
          "name": "_new_admin_fee",
          "type": "uint256"
        },
        {
          "name": "_new_fee_gamma",
          "type": "uint256"
        },
        {
          "name": "_new_allowed_extra_profit",
          "type": "uint256"
        },
        {
          "name": "_new_adjustment_step",
          "type": "uint256"
        },
        {
          "name": "_new_ma_half_time",
          "type": "uint256"
        }
      ],
      "outputs": []
    },
    {
      "stateMutability": "nonpayable",
      "type": "function",
      "name": "apply_new_parameters",
      "inputs": [],
      "outputs": []
    },
    {
      "stateMutability": "nonpayable",
      "type": "function",
      "name": "revert_new_parameters",
      "inputs": [],
      "outputs": []
    },
    {
      "stateMutability": "nonpayable",
      "type": "function",
      "name": "commit_transfer_ownership",
      "inputs": [
        {
          "name": "_owner",
          "type": "address"
        }
      ],
      "outputs": []
    },
    {
      "stateMutability": "nonpayable",
      "type": "function",
      "name": "apply_transfer_ownership",
      "inputs": [],
      "outputs": []
    },
    {
      "stateMutability": "nonpayable",
      "type": "function",
      "name": "revert_transfer_ownership",
      "inputs": [],
      "outputs": []
    },
    {
      "stateMutability": "nonpayable",
      "type": "function",
      "name": "kill_me",
      "inputs": [],
      "outputs": []
    },
    {
      "stateMutability": "nonpayable",
      "type": "function",
      "name": "unkill_me",
      "inputs": [],
      "outputs": []
    },
    {
      "stateMutability": "nonpayable",
      "type": "function",
      "name": "set_admin_fee_receiver",
      "inputs": [
        {
          "name": "_admin_fee_receiver",
          "type": "address"
        }
      ],
      "outputs": []
    },
    {
      "stateMutability": "view",
      "type": "function",
      "name": "lp_price",
      "inputs": [],
      "outputs": [
        {
          "name": "",
          "type": "uint256"
        }
      ]
    },
    {
      "stateMutability": "view",
      "type": "function",
      "name": "A_gamma_test",
      "inputs": [],
      "outputs": [
        {
          "name": "",
          "type": "uint256[2]"
        }
      ]
    },
    {
      "stateMutability": "view",
      "type": "function",
      "name": "newton_D_test",
      "inputs": [
        {
          "name": "ANN",
          "type": "uint256"
        },
        {
          "name": "gamma",
          "type": "uint256"
        },
        {
          "name": "x_unsorted",
          "type": "uint256[2]"
        }
      ],
      "outputs": [
        {
          "name": "",
          "type": "uint256"
        }
      ]
    },
    {
      "stateMutability": "view",
      "type": "function",
      "name": "newton_y_test",
      "inputs": [
        {
          "name": "ANN",
          "type": "uint256"
        },
        {
          "name": "gamma",
          "type": "uint256"
        },
        {
          "name": "x",
          "type": "uint256[2]"
        },
        {
          "name": "D",
          "type": "uint256"
        },
        {
          "name": "i",
          "type": "uint256"
        }
      ],
      "outputs": [
        {
          "name": "",
          "type": "uint256"
        }
      ]
    },
    {
      "stateMutability": "view",
      "type": "function",
      "name": "xp_test",
      "inputs": [],
      "outputs": [
        {
          "name": "",
          "type": "uint256[2]"
        }
      ]
    },
    {
      "stateMutability": "view",
      "type": "function",
      "name": "fee_test",
      "inputs": [
        {
          "name": "xp",
          "type": "uint256[2]"
        }
      ],
      "outputs": [
        {
          "name": "",
          "type": "uint256"
        }
      ]
    },
    {
      "stateMutability": "view",
      "type": "function",
      "name": "price_scale",
      "inputs": [],
      "outputs": [
        {
          "name": "",
          "type": "uint256"
        }
      ]
    },
    {
      "stateMutability": "view",
      "type": "function",
      "name": "last_prices",
      "inputs": [],
      "outputs": [
        {
          "name": "",
          "type": "uint256"
        }
      ]
    },
    {
      "stateMutability": "view",
      "type": "function",
      "name": "last_prices_timestamp",
      "inputs": [],
      "outputs": [
        {
          "name": "",
          "type": "uint256"
        }
      ]
    },
    {
      "stateMutability": "view",
      "type": "function",
      "name": "initial_A_gamma",
      "inputs": [],
      "outputs": [
        {
          "name": "",
          "type": "uint256"
        }
      ]
    },
    {
      "stateMutability": "view",
      "type": "function",
      "name": "future_A_gamma",
      "inputs": [],
      "outputs": [
        {
          "name": "",
          "type": "uint256"
        }
      ]
    },
    {
      "stateMutability": "view",
      "type": "function",
      "name": "initial_A_gamma_time",
      "inputs": [],
      "outputs": [
        {
          "name": "",
          "type": "uint256"
        }
      ]
    },
    {
      "stateMutability": "view",
      "type": "function",
      "name": "future_A_gamma_time",
      "inputs": [],
      "outputs": [
        {
          "name": "",
          "type": "uint256"
        }
      ]
    },
    {
      "stateMutability": "view",
      "type": "function",
      "name": "allowed_extra_profit",
      "inputs": [],
      "outputs": [
        {
          "name": "",
          "type": "uint256"
        }
      ]
    },
    {
      "stateMutability": "view",
      "type": "function",
      "name": "future_allowed_extra_profit",
      "inputs": [],
      "outputs": [
        {
          "name": "",
          "type": "uint256"
        }
      ]
    },
    {
      "stateMutability": "view",
      "type": "function",
      "name": "fee_gamma",
      "inputs": [],
      "outputs": [
        {
          "name": "",
          "type": "uint256"
        }
      ]
    },
    {
      "stateMutability": "view",
      "type": "function",
      "name": "future_fee_gamma",
      "inputs": [],
      "outputs": [
        {
          "name": "",
          "type": "uint256"
        }
      ]
    },
    {
      "stateMutability": "view",
      "type": "function",
      "name": "adjustment_step",
      "inputs": [],
      "outputs": [
        {
          "name": "",
          "type": "uint256"
        }
      ]
    },
    {
      "stateMutability": "view",
      "type": "function",
      "name": "future_adjustment_step",
      "inputs": [],
      "outputs": [
        {
          "name": "",
          "type": "uint256"
        }
      ]
    },
    {
      "stateMutability": "view",
      "type": "function",
      "name": "ma_half_time",
      "inputs": [],
      "outputs": [
        {
          "name": "",
          "type": "uint256"
        }
      ]
    },
    {
      "stateMutability": "view",
      "type": "function",
      "name": "future_ma_half_time",
      "inputs": [],
      "outputs": [
        {
          "name": "",
          "type": "uint256"
        }
      ]
    },
    {
      "stateMutability": "view",
      "type": "function",
      "name": "mid_fee",
      "inputs": [],
      "outputs": [
        {
          "name": "",
          "type": "uint256"
        }
      ]
    },
    {
      "stateMutability": "view",
      "type": "function",
      "name": "out_fee",
      "inputs": [],
      "outputs": [
        {
          "name": "",
          "type": "uint256"
        }
      ]
    },
    {
      "stateMutability": "view",
      "type": "function",
      "name": "admin_fee",
      "inputs": [],
      "outputs": [
        {
          "name": "",
          "type": "uint256"
        }
      ]
    },
    {
      "stateMutability": "view",
      "type": "function",
      "name": "future_mid_fee",
      "inputs": [],
      "outputs": [
        {
          "name": "",
          "type": "uint256"
        }
      ]
    },
    {
      "stateMutability": "view",
      "type": "function",
      "name": "future_out_fee",
      "inputs": [],
      "outputs": [
        {
          "name": "",
          "type": "uint256"
        }
      ]
    },
    {
      "stateMutability": "view",
      "type": "function",
      "name": "future_admin_fee",
      "inputs": [],
      "outputs": [
        {
          "name": "",
          "type": "uint256"
        }
      ]
    },
    {
      "stateMutability": "view",
      "type": "function",
      "name": "balances",
      "inputs": [
        {
          "name": "arg0",
          "type": "uint256"
        }
      ],
      "outputs": [
        {
          "name": "",
          "type": "uint256"
        }
      ]
    },
    {
      "stateMutability": "view",
      "type": "function",
      "name": "D",
      "inputs": [],
      "outputs": [
        {
          "name": "",
          "type": "uint256"
        }
      ]
    },
    {
      "stateMutability": "view",
      "type": "function",
      "name": "owner",
      "inputs": [],
      "outputs": [
        {
          "name": "",
          "type": "address"
        }
      ]
    },
    {
      "stateMutability": "view",
      "type": "function",
      "name": "future_owner",
      "inputs": [],
      "outputs": [
        {
          "name": "",
          "type": "address"
        }
      ]
    },
    {
      "stateMutability": "view",
      "type": "function",
      "name": "xcp_profit",
      "inputs": [],
      "outputs": [
        {
          "name": "",
          "type": "uint256"
        }
      ]
    },
    {
      "stateMutability": "view",
      "type": "function",
      "name": "xcp_profit_a",
      "inputs": [],
      "outputs": [
        {
          "name": "",
          "type": "uint256"
        }
      ]
    },
    {
      "stateMutability": "view",
      "type": "function",
      "name": "virtual_price",
      "inputs": [],
      "outputs": [
        {
          "name": "",
          "type": "uint256"
        }
      ]
    },
    {
      "stateMutability": "view",
      "type": "function",
      "name": "is_killed",
      "inputs": [],
      "outputs": [
        {
          "name": "",
          "type": "bool"
        }
      ]
    },
    {
      "stateMutability": "view",
      "type": "function",
      "name": "kill_deadline",
      "inputs": [],
      "outputs": [
        {
          "name": "",
          "type": "uint256"
        }
      ]
    },
    {
      "stateMutability": "view",
      "type": "function",
      "name": "transfer_ownership_deadline",
      "inputs": [],
      "outputs": [
        {
          "name": "",
          "type": "uint256"
        }
      ]
    },
    {
      "stateMutability": "view",
      "type": "function",
      "name": "admin_actions_deadline",
      "inputs": [],
      "outputs": [
        {
          "name": "",
          "type": "uint256"
        }
      ]
    },
    {
      "stateMutability": "view",
      "type": "function",
      "name": "admin_fee_receiver",
      "inputs": [],
      "outputs": [
        {
          "name": "",
          "type": "address"
        }
      ]
    }
  ],
  "transactionHash": "0x550b29c3eb911cc5f468336603e3a71104e728a24ed6c05abdef9366309d5956",
  "args": [
    "0x69C7c048e7C286B0a8Bcf7cD7620E71Ef7569421",
    "0x0000000000000000000000000000000000000000",
    "80000",
    "21000000000000",
    "5000000",
    "50000000",
    "20000000000000",
    "500000000000000",
    "490000000000000",
    "0",
    "600",
    "1270880000000000000000",
    "0x6A31B4dE5d9Bcec88a6A6de58d01B0fCaD0796dc",
    [
      "0x83c2677F420fB7aE4d2Eb0B0Ba2DBF1e34893144",
      "0xe0062a46556BeF7BE981C263c0b442f3906dff4a"
    ]
  ],
  "numDeployments": 1,
  "bytecode": "0x60206154e06000396000518060a01c6154db5760405260206155006000396000518060a01c6154db5760605260206156606000396000518060a01c6154db5760805260206156806000396000518060a01c6154db5760a05260206156a06000396000518060a01c6154db5760c052604051601a55602061552060003960005160801b60e052602061554060003960005160e0511760e05260e05160055560e0516006556020615560600039600051601155602061558060003960005160125560206155a060003960005160095560206155c0600039600051600b5560206155e0600039600051600d556020615600600039600051601355602061564060003960005160015560206156406000396000516002556020615640600039600051600355426004556020615620600039600051600f55670de0b6b3a7640000601d5542624f1a0081818301106154db5780820190509050602155606051602455608051630000521c5260a051630000523c5260c051630000525c52604e601263313ce567610100526020610100600461011c60a0515afa6101a2573d600060003e3d6000fd5b60203d106154db57610100518082106154db578082039050905010156154db57601263313ce567610100526020610100600461011c60a0515afa6101eb573d600060003e3d6000fd5b60203d106154db57610100518082106154db5780820390509050600a0a630000527c52604e601263313ce567610140526020610140600461015c60c0515afa610239573d600060003e3d6000fd5b60203d106154db57610140518082106154db578082039050905010156154db57601263313ce567610140526020610140600461015c60c0515afa610282573d600060003e3d6000fd5b60203d106154db57610140518082106154db5780820390509050600a0a630000529c5261521c6102be63000000003961521c60a0016300000000f3600436101561000d57612299565b60003560e01c346152175763fc0c546a811861003757602061521c60003960005160405260206040f35b63c6610657811861007457602061523c600039600051604052602061525c6000396000516060526020602060043560028110156152175702604001f35b63f446c1d0811861009157602061008c61012061335e565b610120f35b63b137392981186100b45760206100a961012061335e565b610120602081019050f35b63ddca3f4381186100fb5760206100cb60c06132ef565b60c08051610120526020810151610140525061012051604052610140516060526100f66101006134bb565b610100f35b63bb7b8b80811861018c57670de0b6b3a7640000601954610160526101216101e06135c7565b6101e05180820282158284830414171561521757905090506318160ddd610200526020610200600461021c602061521c6000396000515afa610168573d600060003e3d6000fd5b60203d10615217576102005180801561521757820490509050610240526020610240f35b6386fc88d381186101a95760206101a461024061397a565b610240f35b635b41b90881186101be5733610d20526101d9565b63a64833a0811861023a576084358060a01c61521757610d20525b600054615217576001600055602033610900526080600461092037610d20516109a05260006109c0526004610d40526000610d6052610d408051806109e052602082018051610a0052505050610230610d806141d1565b610d806000600055f35b63b8ca1ad781186102fd576084358060a01c61521757610d205260a4358060a01c61521757610d405260c435600401600481351161521757803580610d6052602082018035610d80525050506000546152175760016000556004610de0526000610e0052610de0805160208201209050610d6051610d802014615217576020610d2051610900526080600461092037610d40516109a052336109c052610d6051806109e052610d8051610a0052506102f3610da06141d1565b610da06000600055f35b63556d6e9f81186105c457602435600435146152175760026004351015615217576002602435101561521757600154602061529c60003960005180820282158284830414171561521757905090506104005260175461042052601854610440526103686104a061335e565b6104a0805161046052602081015161048052506019546104a052600060085411156103ef57610460516105205261048051610540526103a86104c06132ef565b6104c08051610560526020810151610580525061052051610160526105405161018052610560516101a052610580516101c0526103e661050061241b565b610500516104a0525b6020600435600281101561521757026104200180516044358181830110615217578082019050905081525061042051602061527c60003960005180820282158284830414171561521757905090506104205261044051610400518082028215828483041417156152175790509050670de0b6b3a764000080820490509050610440526104605160405261048051606052610420516080526104405160a0526104a05160c05260243560e0526104a56104e0612ac7565b6104e0516104c05260206024356002811015615217570261042001516104c0518082106152175780820390509050600180821061521757808203905090506104e0526104c051602060243560028110156152175702610420015260006024351161052e576104e051602061527c600039600051808015615217578204905090506104e052610565565b6104e051670de0b6b3a7640000808202821582848304141715615217579050905061040051808015615217578204905090506104e0525b6104e05161042051604052610440516060526105826105006134bb565b610500516104e05180820282158284830414171561521757905090506402540be4008082049050905080821061521757808203905090506104e05260206104e0f35b630b4c7e4d81186105d95733610900526105f4565b630c3e4b548118610eb1576064358060a01c61521757610900525b6000546152175760016000556020546152175760006004351161061c5760006024351161061f565b60015b156152175761062f61096061335e565b61096080516109205260208101516109405250602061523c60003960005161096052602061525c600039600051610980526017546109a0526018546109c05260e0366109e0376109a051610ac0526109c051610ae05260006002905b80610b00526020610b0051600281101561521757026109a001516020610b0051600281101561521757026004013581818301106152175780820190509050610b2052610b20516020610b0051600281101561521757026109a00152610b2051610b00516002811015615217576017015560010181811861068b5750506109a051610a20526109c051610a4052600154602061529c6000396000518082028215828483041417156152175790509050610b00526109a051602061527c60003960005180820282158284830414171561521757905090506109a0526109c051610b00518082028215828483041417156152175790509050670de0b6b3a7640000808204905090506109c052610ac051602061527c6000396000518082028215828483041417156152175790509050610ac052610ae051610b00518082028215828483041417156152175790509050670de0b6b3a764000080820490509050610ae05260006002905b80610b205260006020610b2051600281101561521757026004013511156108de576323b872dd610b405233610b605230610b80526020610b20516002811015615217570260040135610ba0526020610b406064610b5c60006020610b20516002811015615217570261096001515af161086f573d600060003e3d6000fd5b60203d1061521757610b40518060011c61521757610bc052610bc05115615217576020610b2051600281101561521757026109a001516020610b205160028110156152175702610ac0015180821061521757808203905090506020610b2051600281101561521757026109e001525b6001018181186107f15750506000600435116108ff57600060243511610902565b60015b1561521757600854610b20526000610b20511161092557601954610aa052610968565b61092051610160526109405161018052610ac0516101a052610ae0516101c052610950610b4061241b565b610b4051610aa052610b205142106109685760016008555b610920516101605261094051610180526109a0516101a0526109c0516101c052610993610b6061241b565b610b6051610b40526318160ddd610b80526020610b806004610b9c602061521c6000396000515afa6109ca573d600060003e3d6000fd5b60203d1061521757610b8051610b60526000610aa05111610a0557610b4051610160526109f8610b806135c7565b610b8051610a6052610a49565b610b6051610b40518082028215828483041417156152175790509050610aa05180801561521757820490509050610b60518082106152175780820390509050610a60525b6000610a60511115615217576000610aa05111610ae157610b4051601955670de0b6b3a7640000601e55670de0b6b3a7640000601c556340c10f19610b805261090051610ba052610a6051610bc0526020610b806044610b9c6000602061521c6000396000515af1610ac0573d600060003e3d6000fd5b60203d1061521757610b80518060011c61521757610be052610be050610de9565b6109e05160c052610a005160e0526109a051610100526109c05161012052610b0a610b80614abe565b610b8051610a605180820282158284830414171561521757905090506402540be40080820490509050600181818301106152175780820190509050610a8052610a6051610a80518082106152175780820390509050610a6052610b6051610a605181818301106152175780820190509050610b60526340c10f19610b805261090051610ba052610a6051610bc0526020610b806044610b9c6000602061521c6000396000515af1610bc0573d600060003e3d6000fd5b60203d1061521757610b80518060011c61521757610be052610be0506000610b8052620186a0610a60511115610db15760043515610c015760243515610c04565b60015b15610db157606036610ba03760043515610c5357610a4051602061529c6000396000518082028215828483041417156152175790509050610ba052602061527c600039600051610bc052610c90565b610a2051602061527c6000396000518082028215828483041417156152175790509050610ba052602061529c600039600051610bc0526001610be0525b610ba051610a60518082028215828483041417156152175790509050610b605180801561521757820490509050610ba052610ba051670de0b6b3a764000080820282158284830414171561521757905090506020610be0516002811015615217570260040135610bc0518082028215828483041417156152175790509050610a60516020610be05160028110156152175702610a2001518082028215828483041417156152175790509050610bc0518082028215828483041417156152175790509050610b605180801561521757820490509050808210615217578082039050905080801561521757820490509050610b8052610be051610db1576ec097ce7bc90715b34b9f1000000000610b805180801561521757820490509050610b80525b610920516106005261094051610620526109a051610640526109c05161066052610b805161068052610b40516106a052610de9613a5b565b604435610a60511015610e5c576008610b80527f536c697070616765000000000000000000000000000000000000000000000000610ba052610b8050610b805180610ba00181600003601f1636823750506308c379a0610b40526020610b6052601f19601f610b80510116604401610b5cfd5b610900517f540ab385f9b5d450a27404172caade516b3ba3f4be88239ac56a2ad1de2a1f5a600435610b8052602435610ba052610a8051610bc052610b6051610be0526080610b80a26020610a606000600055f35b635b36389c8118610ec55733604052610edf565b633eb1719f8118611182576064358060a01c615217576040525b600054615217576001600055602061523c600039600051606052602061525c6000396000516080526318160ddd60c052602060c0600460dc602061521c6000396000515afa610f33573d600060003e3d6000fd5b60203d106152175760c05160a0526379cc679060c0523360e05260043561010052602060c0604460dc6000602061521c6000396000515af1610f7a573d600060003e3d6000fd5b60203d106152175760c0518060011c61521757610120526101205060175460c05260185460e052600435600180821061521757808203905090506101005260006002905b80610120526020610120516002811015615217570260c0015161010051808202821582848304141715615217579050905060a051808015615217578204905090506101405260206101205160028110156152175702602401356101405110615217576020610120516002811015615217570260c001516101405180821061521757808203905090506101205160028110156152175760170155610140516020610120516002811015615217570260c0015263a9059cbb6101605260405161018052610140516101a0526020610160604461017c600060206101205160028110156152175702606001515af16110b8573d600060003e3d6000fd5b60203d1061521757610160518060011c615217576101c0526101c0511561521757600101818118610fbe57505060195461012052610120516101205161010051808202821582848304141715615217579050905060a051808015615217578204905090508082106152175780820390509050601955337fdd3c0336a16f1b64f172b7bb0dad5b2b3c7c76f91e8c4aafd6aae60dce80015360c0516101405260e0516101605260a0516004358082106152175780820390509050610180526060610140a26000600055005b638d8ea72781186113f8576318160ddd610420526020610420600461043c602061521c6000396000515afa6111bc573d600060003e3d6000fd5b60203d10615217576104205161040052600154602061529c6000396000518082028215828483041417156152175790509050610420526111fd61048061335e565b6104808051610440526020810151610460525061121b6104c06132ef565b6104c080516104805260208101516104a05250600435602061527c60003960005180820282158284830414171561521757905090506104c052602435610420518082028215828483041417156152175790509050670de0b6b3a7640000808204905090506104e05260195461050052600060085411156112c95761044051610160526104605161018052610480516101a0526104a0516101c0526112c061052061241b565b61052051610500525b610480516104c05181818301106152175780820190509050610480526104a0516104e051818183011061521757808201905090506104a05261044051610160526104605161018052610480516101a0526104a0516101c05261132c61054061241b565b610540516105205261040051610520518082028215828483041417156152175790509050610500518080156152175782049050905061040051808210615217578082039050905061054052610540516104c05160c0526104e05160e05261048051610100526104a051610120526113a4610560614abe565b610560516105405180820282158284830414171561521757905090506402540be400808204905090506001818183011061521757808201905090508082106152175780820390509050610540526020610540f35b634fb08c5e81186114775760206114106106a061335e565b6106a080516107805260208101516107a05250604060046107c03760016108005260006108205261078051610400526107a051610420526107c051610440526107e051610460526108005161048052610820516104a0526114726106e0614c28565b6106e0f35b63f1dc3cc9811861148c5733610900526114a7565b630fbcee6e8118611751576064358060a01c61521757610900525b600054615217576001600055602054615217576114c561096061335e565b6109608051610920526020810151610940525060a03661096037600854610a00526109205161040052610940516104205260406004610440376000610a0051116104805260016104a05261151a610a20614c28565b610a2080516109605260208101516109a0526040810151610980526060810180516109c05260208101516109e05250506044356109605110156115bd576008610a20527f536c697070616765000000000000000000000000000000000000000000000000610a4052610a2050610a205180610a400181600003601f1636823750506308c379a06109e0526020610a0052601f19601f610a205101166044016109fcfd5b610a005142106115cd5760016008555b60243560028110156152175760170180546109605180821061521757808203905090508155506379cc6790610a205233610a4052600435610a60526020610a206044610a3c6000602061521c6000396000515af1611630573d600060003e3d6000fd5b60203d1061521757610a20518060011c61521757610a8052610a8050602061523c600039600051610a2052602061525c600039600051610a405263a9059cbb610a605261090051610a805261096051610aa0526020610a606044610a7c6000602060243560028110156152175702610a2001515af16116b4573d600060003e3d6000fd5b60203d1061521757610a60518060011c61521757610ac052610ac0511561521757610920516106005261094051610620526109c051610640526109e051610660526109a05161068052610980516106a05261170d613a5b565b337f5ad056f2e28a8cec232015406b843668c1e36cda598127ec3b8c59b8c72773a060406004610a603761096051610aa0526060610a60a260206109606000600055f35b63c93f49e8811861177757600054615217576001600055611770613644565b6000600055005b635e248072811861196e57601a543318615217576007546201517f8181830110615217578082019050905042111561521757426201517f818183011061521757808201905090506044351115615217576117d261016061335e565b610160805161012052602081015161014052506101205160801b6101605261014051610160511761016052610f9f60043511156152175763ee6b28016004351015615217576402540be3ff60243511156152175766470de4df820001602435101561521757670de0b6b3a76400006004358082028215828483041417156152175790509050610120518080156152175782049050905061018052678ac7230489e800016101805110156152175767016345785d89ffff61018051111561521757670de0b6b3a76400006024358082028215828483041417156152175790509050610140518080156152175782049050905061018052678ac7230489e800016101805110156152175767016345785d89ffff61018051111561521757610160516005554260075560043560801b6101a0526024356101a051176101a0526044356008556101a0516006557fe35f0559b0642164e286b30df2077ec3a05426617a25db7578fd20ba39a6cd05610120516101c0526004356101e05261014051610200526024356102205242610240526044356102605260c06101c0a1005b63244c7c2e8118611a0c57601a5433186152175761198d61016061335e565b610160805161012052602081015161014052506101205160801b6101605261014051610160511761016052610160516005556101605160065542600755426008557f5f0e7fba3d100c9e19446e1c92fe436f0a9a22fe99669360e4fdd6d3de2fc2846101205161018052610140516101a052426101c0526060610180a1005b63a43c33518118611bb657601a543318615217576023546152175760e060046040376402540be40160605110611a4757601254606052611a55565b6207a11f6060511115615217575b6402540be4006040511115611a6b576011546040525b60605160405111615217576402540be4006080511115611a8c576013546080525b670de0b6b3a764000060a05110611aa857600b5460a052611ab4565b600060a0511115615217575b670de0b6b3a764000060c0511115611acd5760095460c0525b670de0b6b3a764000060e0511115611ae657600d5460e0525b62093a806101005110611aff57600f5461010052611b0c565b6000610100511115615217575b426203f48081818301106152175780820190509050610120526101205160235560805160165560405160145560605160155560a051600c5560c051600a5560e051600e5561010051601055610120517f913fde9a37e1f8ab67876a4d0ce80790d764fcfc5692f4529526df9c6bdde55360805161014052604051610160526060516101805260a0516101a05260c0516101c05260e0516101e052610100516102005260e0610140a2005b632a7dd7cd8118611ccb57600054615217576001600055601a54331861521757602354421061521757600060235414615217576000602355601654610600526106005160135414611c1157611c09613644565b610600516013555b60145461062052610620516011556015546106405261064051601255600c546106605261066051600b55600a546106805261068051600955600e546106a0526106a051600d556010546106c0526106c051600f557f1c65bbdc939f346e5d6f0bde1f072819947438d4fc7b182cc59c2f6dc5504087610600516106e05261062051610700526106405161072052610660516107405261068051610760526106a051610780526106c0516107a05260e06106e0a16000600055005b63226840fb8118611ce657601a543318615217576000602355005b636b441a408118611d61576004358060a01c61521757604052601a5433186152175760225461521757426203f48081818301106152175780820190509050606052606051602255604051601b556040516060517f181aa3aa17d4cbf99265dd4443eba009433d3cde79d60164fde1d1a192beb93560006080a3005b636a1c05ae8118611dc457601a54331861521757602254421061521757600060225414615217576000602255601b54604052604051601a556040517f71614071b88dee5e0b2ae578a9dd7b2ebbe9ae832ba419dc0242cd065a290b6c60006060a2005b6386fbf1938118611ddf57601a543318615217576000602255005b63e36988538118611e0457601a54331861521757426021541115615217576001602055005b633046f9728118611e1f57601a543318615217576000602055005b637242e5248118611e49576004358060a01c61521757604052601a54331861521757604051602455005b6354f0f7d58118611ec5576002601e548082028215828483041417156152175790509050611e7861024061397a565b610240516102805261028051604052611e926102606150f5565b610260518082028215828483041417156152175790509050670de0b6b3a7640000808204905090506102a05260206102a0f35b63a73cb65f8118611ee2576040611edd61012061335e565b610120f35b6397de838a8118611f1557602060406004610160376044356101a0526064356101c052611f1061040061241b565b610400f35b634b7156238118611f515760206040600460403760443560805260643560a05260843560c05260a43560e052611f4c610360612ac7565b610360f35b6320096be18118611f6c576040611f6860406132ef565b6040f35b63c5eda64b8118611f93576020600435604052602435606052611f8f60c06134bb565b60c0f35b63b9e8c9fd8118611faa5760015460405260206040f35b63c146bf948118611fc15760035460405260206040f35b636112c7478118611fd85760045460405260206040f35b63204fe3d58118611fef5760055460405260206040f35b63f30cfad581186120065760065460405260206040f35b63e89876ff811861201d5760075460405260206040f35b63f9ed959781186120345760085460405260206040f35b6349fe9e77811861204b5760095460405260206040f35b63727ced57811861206257600a5460405260206040f35b6372d4f0e2811861207957600b5460405260206040f35b63d7c3dcbe811861209057600c5460405260206040f35b63083812e581186120a757600d5460405260206040f35b634ea12c7d81186120be57600e5460405260206040f35b63662b627481186120d557600f5460405260206040f35b630c5e23d481186120ec5760105460405260206040f35b6392526c0c81186121035760115460405260206040f35b63ee8de675811861211a5760125460405260206040f35b63fee3f7f981186121315760135460405260206040f35b637cf9aedc81186121485760145460405260206040f35b637d1b060c811861215f5760155460405260206040f35b63e382446281186121765760165460405260206040f35b634903b0d1811861219a576004356002811015615217576017015460405260206040f35b630f529ba281186121b15760195460405260206040f35b638da5cb5b81186121c857601a5460405260206040f35b631ec0cdc181186121df57601b5460405260206040f35b637ba1a74d81186121f657601c5460405260206040f35b630b7b594b811861220d57601d5460405260206040f35b630c46b72a811861222457601e5460405260206040f35b639c868ac0811861223b5760205460405260206040f35b632a42689681186122525760215460405260206040f35b63e0a0b58681186122695760225460405260206040f35b63405e28f881186122805760235460405260206040f35b636e42e4d281186122975760245460405260206040f35b505b60006000fd5b60405160a05260605160c0526080516122b95760006122c1565b60c05160a051105b156122d35760605160a05260405160c0525b60a05160e052600061010052600060ff905b806101205260e05161014052600260e05160a05160c051808202821582848304141715615217579050905060e05180801561521757820490509050818183011061521757808201905090500460e0526101405160e051116123515760e05161014051036101005261235e565b6101405160e05103610100525b60016101005111156123945760e05161010051670de0b6b3a7640000808202821582848304141715615217579050905010612397565b60015b156123a95760e0518352505050612419565b6001018181186122e55750506010610120527f446964206e6f7420636f6e766572676500000000000000000000000000000000610140526101205061012051806101400181600003601f1636823750506308c379a060e052602061010052601f19601f61012051011660440160fcfd5b565b610f9f610160511161242e576000612439565b63ee6b280161016051105b15615217576402540be3ff6101805111612454576000612462565b66470de4df82000161018051105b15615217576101a0516101e0526101c05161020052610200516101e0511015612496576101c0516101e0526101a051610200525b633b9ac9ff6101e051116124ab5760006124c0565b6d314dc6448d9338c15b0a000000016101e051105b1561521757655af3107a3fff61020051670de0b6b3a764000080820282158284830414171561521757905090506101e0518080156152175782049050905011156152175760026101e05160405261020051606052600060805261252461024061229f565b610240518082028215828483041417156152175790509050610220526101e05161020051818183011061521757808201905090506102405261018051670de0b6b3a76400008181830110615217578082019050905061026052600060ff905b8061028052610220516102a0526000610220511115615217576102205161022051673782dace9d9000006101e051808202821582848304141715615217579050905004610200518082028215828483041417156152175790509050046102c052610260516102e0526102c0516102e0511161261c576102e0516102c051036001818183011061521757808201905090506102e05261263c565b6102c0516102e051036001818183011061521757808201905090506102e0525b610160516101805161018051670de0b6b3a7640000610220518082028215828483041417156152175790509050046102e0518082028215828483041417156152175790509050046102e0518082028215828483041417156152175790509050612710808202821582848304141715615217579050905004610300526102e051673782dace9d9000006102c0518082028215828483041417156152175790509050046103205261024051670de0b6b3a764000061024051610320518082028215828483041417156152175790509050048181830110615217578082019050905061030051600280820282158284830414171561521757905090506102c0518080156152175782049050905081818301106152175780820190509050670de0b6b3a76400006103205161022051808202821582848304141715615217579050905004808210615217578082039050905061034052610220516103405161024051818183011061521757808201905090508082028215828483041417156152175790509050610340518080156152175782049050905061036052610220516102205180820282158284830414171561521757905090506103405180801561521757820490509050610380526102c051670de0b6b3a76400001161289b5761038051670de0b6b3a764000061022051610300516103405180801561521757820490509050808202821582848304141715615217579050905004670de0b6b3a76400006102c0510380820282158284830414171561521757905090506102c0518080156152175782049050905080821061521757808203905090506103805261291e565b61038051670de0b6b3a7640000610220516103005161034051808015615217578204905090508082028215828483041417156152175790509050046102c051670de0b6b3a76400000380820282158284830414171561521757905090506102c0518080156152175782049050905081818301106152175780820190509050610380525b610380516103605111612940576002610360516103805103046102205261294e565b610380516103605103610220525b60006103a0526102a051610220511161297357610220516102a051036103a052612981565b6102a05161022051036103a0525b6102205180662386f26fc10000811882662386f26fc1000011021890506103a051655af3107a400080820282158284830414171561521757905090501015612a535760006002905b602081026101e001516103c0526103c051670de0b6b3a7640000808202821582848304141715615217579050905061022051808015615217578204905090506103e052662386f26fc0ffff6103e05111612a24576000612a34565b68056bc75e2d631000016103e051105b15615217576001018181186129c9575050610220518352505050612ac5565b6001018181186125835750506010610280527f446964206e6f7420636f6e7665726765000000000000000000000000000000006102a0526102805061028051806102a00181600003601f1636823750506308c379a061024052602061026052601f19601f61028051011660440161025cfd5b565b610f9f60405111612ad9576000612ae3565b63ee6b2801604051105b15615217576402540be3ff60605111612afd576000612b0a565b66470de4df820001606051105b156152175767016345785d89ffff60c05111612b27576000612b3b565b6d314dc6448d9338c15b0a0000000160c051105b15615217576020600160e051808210615217578082039050905060028110156152175702608001516101005270010000000000000000000000000000000060c051101561521757600260c0510a61010051600480820282158284830414171561521757905090508080156152175782049050905061012052671bc16d674ec8000061010051808202821582848304141715615217579050905060c051808015615217578204905090506101405266470de4df81ffff6101405111612c00576000612c10565b680ad78ebc5ac620000161014051105b156152175761010051655af3107a40008082049050905060c051655af3107a400080820490509050808281188284110218905090506064818118606483110218905061016052606051670de0b6b3a76400008181830110615217578082019050905061018052600060ff905b806101a052610120516101c05260c0516101405161012051808202821582848304141715615217579050905060028082028215828483041417156152175790509050046101e0526101005161012051818183011061521757808201905090506102005261018051610220526101e0516102205111612d1857610220516101e0510360018181830110615217578082019050905061022052612d38565b6101e0516102205103600181818301106152175780820190509050610220525b604051606051606051670de0b6b3a764000060c051808202821582848304141715615217579050905004610220518082028215828483041417156152175790509050046102205180820282158284830414171561521757905090506127108082028215828483041417156152175790509050046102405261022051670de0b6b3a7640000671bc16d674ec800006101e0518082028215828483041417156152175790509050818183011061521757808201905090500461026052670de0b6b3a7640000610120518082028215828483041417156152175790509050610200516102605180820282158284830414171561521757905090508181830110615217578082019050905061024051818183011061521757808201905090506102805260c0516102605180820282158284830414171561521757905090506102a0526102a0516102805110612e95576102a051610280510361028052612ea5565b60026101c0510461012052613095565b6102805161012051808015615217578204905090506102c052610240516102c051808015615217578204905090506102e05261028051670de0b6b3a764000060c0518082028215828483041417156152175790509050818183011061521757808201905090506102c051808015615217578204905090506102e051670de0b6b3a764000080820282158284830414171561521757905090506101e0518080156152175782049050905081818301106152175780820190509050610300526102e051670de0b6b3a76400006102005180820282158284830414171561521757905090506102c05180801561521757820490509050818183011061521757808201905090506102e0526102e0516103005110612fcb576102e051610300510361012052612fd7565b60026101c05104610120525b6000610320526101c0516101205111612ffc57610120516101c051036103205261300a565b6101c0516101205103610320525b61016051655af3107a40006101205104808281188284110218905090506103205110156130955760c05161012051670de0b6b3a764000080820282158284830414171561521757905090500461034052662386f26fc0ffff6103405111613072576000613082565b68056bc75e2d6310000161034051105b1561521757610120518352505050613107565b600101818118612c7c57505060106101a0527f446964206e6f7420636f6e7665726765000000000000000000000000000000006101c0526101a0506101a051806101c00181600003601f1636823750506308c379a061016052602061018052601f19601f6101a051011660440161017cfd5b565b670de0b6b3a764000060405104606052603b606051111561312e5760008152506132ed565b670de0b6b3a7640000606051026040510360805260605160020a60a05260a051670de0b6b3a76400000460a05260805161316d5760a0518152506132ed565b670de0b6b3a764000060c052670de0b6b3a764000060e052600061010052600160ff8101905b8061012052670de0b6b3a7640000610120510261014052670de0b6b3a764000061014051036101605261016051608051116131d9576080516101605103610160526131ef565b6101605160805103610160526101005115610100525b610140516002610160510460c051020460c052610100516132285760e05160c0518181830110615217578082019050905060e052613240565b60e05160c051808210615217578082039050905060e0525b6402540be40060c051101561327d57670de0b6b3a764000060a05160e05180820282158284830414171561521757905090500483525050506132ed565b6001018181186131935750506010610120527f446964206e6f7420636f6e766572676500000000000000000000000000000000610140526101205061012051806101400181600003601f1636823750506308c379a060e052602061010052601f19601f61012051011660440160fcfd5b565b601754602061527c60003960005180820282158284830414171561521757905090508152670de0b6b3a7640000601854602061529c6000396000518082028215828483041417156152175790509050600154808202821582848304141715615217579050905004602082015250565b6008546040526006546060526fffffffffffffffffffffffffffffffff6060511660805260605160801c60a0526040514210156134ab5760055460c05260075460e05260405160e05180821061521757808203905090506040524260e051808210615217578082039050905060e05260405160e05180821061521757808203905090506101005260c05160801c61010051808202821582848304141715615217579050905060a05160e0518082028215828483041417156152175790509050818183011061521757808201905090506040518080156152175782049050905060a0526fffffffffffffffffffffffffffffffff60c0511661010051808202821582848304141715615217579050905060805160e051808202821582848304141715615217579050905081818301106152175780820190509050604051808015615217578204905090506080525b60a0518152608051602082015250565b600b546080526040516060518181830110615217578082019050905060a052670de0b6b3a764000060805102670de0b6b3a76400006080510160a051673782dace9d900000604051808202821582848304141715615217579050905060a0518080156152175782049050905060605180820282158284830414171561521757905090500480821061521757808203905090508080156152175782049050905060a052670de0b6b3a764000060115460a0518082028215828483041417156152175790509050601254670de0b6b3a764000060a051808210615217578082039050905080820282158284830414171561521757905090508181830110615217578082019050905004815250565b600261016051046101805261016051670de0b6b3a7640000808202821582848304141715615217579050905060015460028082028215828483041417156152175790509050808015615217578204905090506101a052610180516040526101a051606052600160805261363b6101c061229f565b6101c051815250565b61364f61044061335e565b61044080516104005260208101516104205250601c5461044052601d5461046052602061523c60003960005161048052602061525c6000396000516104a05260006002905b806104c0526370a082316104e052306105005260206104e060246104fc60206104c0516002811015615217570261048001515afa6136d7573d600060003e3d6000fd5b60203d10615217576104e0516104c05160028110156152175760170155600101818118613694575050601e546104c05261046051610440511115613873576404a817c800610440516104605180821061521757808203905090506013548082028215828483041417156152175790509050046104e05260006104e0511115613873576024546105005260006105005114613873576104c051670de0b6b3a764000080820282158284830414171561521757905090506104c0516104e051808210615217578082039050905080801561521757820490509050670de0b6b3a7640000808210615217578082039050905061052052636962f845610560526105005161058052610520516105a0526020610560604461057c6000602061521c6000396000515af161380b573d600060003e3d6000fd5b60203d106152175761056051610540526104405160026104e0510280821061521757808203905090506104405261044051601c55610500517f6059a38198b1dc42b3791087d1ff0fbd72b3179553c25f678cd246f52ffaaf5961054051610560526020610560a25b6318160ddd610500526020610500600461051c602061521c6000396000515afa6138a2573d600060003e3d6000fd5b60203d1061521757610500516104e0526104005161058052610420516105a0526138cd6105206132ef565b61052080516105c05260208101516105e0525061058051610160526105a051610180526105c0516101a0526105e0516101c05261390b61056061241b565b610560516105005261050051601955670de0b6b3a764000061050051610160526139366105206135c7565b6105205180820282158284830414171561521757905090506104e05180801561521757820490509050601e55610460516104405111156139785761044051601d555b565b600254610180526004546101a052426101a051106139a25761018051815250613a5956613a59565b600f546101c0526003546101e0526101c051670de0b6b3a7640000426101a051808210615217578082039050905002046040526139e0610220613109565b6102205161020052670de0b6b3a76400006101e051670de0b6b3a76400006102005180821061521757808203905090508082028215828483041417156152175790509050610180516102005180820282158284830414171561521757905090508181830110615217578082019050905004815250613a59565b565b6002546106c0526003546106e052600154610700526004546107205260006107405242610720511015613b4057600f546107605261076051670de0b6b3a7640000426107205180821061521757808203905090500204604052613abf6107a0613109565b6107a05161078052670de0b6b3a76400006106e051670de0b6b3a764000061078051808210615217578082039050905080820282158284830414171561521757905090506106c05161078051808202821582848304141715615217579050905081818301106152175780820190509050046106c0526106c051600255426004555b6106a051610760526106a051613b845761060051610160526106205161018052610640516101a052610660516101c052613b7b61078061241b565b61078051610760525b60006106805111613c43576106405161078052610660516107a052620f424061078051046107c052610780516107c0518181830110615217578082019050905061078052610700516107c0518082028215828483041417156152175790509050610660516106005160405261062051606052610780516080526107a05160a0526107605160c052600160e052613c1b6107e0612ac7565b6107e0518082106152175780820390509050808015615217578204905090506106e052613c4c565b610680516106e0525b6106e0516003556318160ddd6107a05260206107a060046107bc602061521c6000396000515afa613c82573d600060003e3d6000fd5b60203d10615217576107a05161078052601c546107a052601e546107c052600261076051046107e05261076051670de0b6b3a7640000808202821582848304141715615217579050905060026107005180820282158284830414171561521757905090508080156152175782049050905061080052670de0b6b3a764000061082052670de0b6b3a76400006108405260006107c0511115613e47576107e051604052610800516060526001608052613d3b61088061229f565b6108805161086052670de0b6b3a76400006108605180820282158284830414171561521757905090506107805180801561521757820490509050610840526107a0516108405180820282158284830414171561521757905090506107c0518080156152175782049050905061082052600854610880526107c0516108405110613dc5576000613dcb565b61088051155b15613e365760046108a0527f4c6f7373000000000000000000000000000000000000000000000000000000006108c0526108a0506108a051806108c00181600003601f1636823750506308c379a061086052602061088052601f19601f6108a051011660440161087cfd5b60016108805118613e475760006008555b61082051601c556106c051670de0b6b3a76400008082028215828483041417156152175790509050610700518080156152175782049050905061086052670de0b6b3a76400006108605111613ead5761086051670de0b6b3a76400000361086052613ec0565b670de0b6b3a76400006108605103610860525b600d54600a61086051048082811882841102189050905061088052601f546108a0526108a05115613ef2576000613f65565b61082051600260095402818183011061521757808201905090506108405160028082028215828483041417156152175790509050670de0b6b3a7640000808210615217578082039050905011613f49576000613f65565b610880516108605111613f5d576000613f65565b60006107c051115b15613f765760016108a0526001601f555b6108a051156141ab57610880516108605111613f93576000613f9b565b60006107c051115b156141ab576108605161070051610860516108805180821061521757808203905090508082028215828483041417156152175790509050610880516106c0518082028215828483041417156152175790509050818183011061521757808201905090500461074052610640516107e05261066051610740518082028215828483041417156152175790509050610700518080156152175782049050905061080052610600516101605261062051610180526107e0516101a052610800516101c0526140676108e061241b565b6108e0516108c05260026108c051046107e0526108c051670de0b6b3a7640000808202821582848304141715615217579050905060026107405180820282158284830414171561521757905090508080156152175782049050905061080052670de0b6b3a76400006107e0516040526108005160605260016080526140ed6108e061229f565b6108e051808202821582848304141715615217579050905061078051808015615217578204905090506107c052670de0b6b3a76400006107c0511161413357600061416a565b6108205160026107c0518082028215828483041417156152175790509050670de0b6b3a76400008082106152175780820390509050115b614191576000601f556107605160195561084051601e556141cf613644566141cf566141ab565b610740516001556108c0516019556107c051601e556141cf565b6107605160195561084051601e556108a051156141cf576000601f556141cf613644565b565b6020546152175761094051610920511461521757600261092051101561521757600261094051101561521757600061096051111561521757614214610a6061335e565b610a608051610a20526020810151610a405250601754610a6052601854610a8052604036610aa037602061523c600039600051610ae052602061525c600039600051610b005260206109405160028110156152175702610a600151610b205260206109205160028110156152175702610a600151610b4052610b4051610960518181830110615217578082019050905060206109205160028110156152175702610a60015260206109205160028110156152175702610a6001516109205160028110156152175760170155600154610b6052610a6051602061527c6000396000518082028215828483041417156152175790509050610a6052610a8051610b60518082028215828483041417156152175790509050602061529c6000396000518082028215828483041417156152175790509050670de0b6b3a764000080820490509050610a8052602061527c600039600051610b8052602061529c600039600051610ba052600161092051186143a457602061529c600039600051610b8052602061527c600039600051610ba0525b600854610bc0526000610bc05111156144a157610b4051610b80518082028215828483041417156152175790509050610b4052600061092051111561441457610b4051610b60518082028215828483041417156152175790509050670de0b6b3a764000080820490509050610b40525b60206109205160028110156152175702610a600151610be052610b405160206109205160028110156152175702610a600152610a205161016052610a405161018052610a60516101a052610a80516101c052614471610c0061241b565b610c0051601955610be05160206109205160028110156152175702610a600152610bc05142106144a15760016008555b60206109405160028110156152175702610a600151610a2051604052610a4051606052610a6051608052610a805160a05260195460c0526109405160e0526144ea610be0612ac7565b610be0518082106152175780820390509050610ac05260206109405160028110156152175702610a60018051610ac0518082106152175780820390509050815250610ac05160018082106152175780820390509050610ac052600061094051111561458657610ac051670de0b6b3a76400008082028215828483041417156152175790509050610b605180801561521757820490509050610ac0525b610ac051610ba05180801561521757820490509050610ac052610ac051610a6051604052610a80516060526145bc610be06134bb565b610be051610ac05180820282158284830414171561521757905090506402540be400808204905090508082106152175780820390509050610ac05261098051610ac051101561466b576008610be0527f536c697070616765000000000000000000000000000000000000000000000000610c0052610be050610be05180610c000181600003601f1636823750506308c379a0610ba0526020610bc052601f19601f610be0510116604401610bbcfd5b610b2051610ac0518082106152175780820390509050610b2052610b205161094051600281101561521757601701556004610c20526000610c4052610c208051602082012090506109e051610a002018614735576323b872dd610c605261090051610c805230610ca05261096051610cc0526020610c606064610c7c600060206109205160028110156152175702610ae001515af161470f573d600060003e3d6000fd5b60203d1061521757610c60518060011c61521757610ce052610ce0511561521757614874565b60206109205160028110156152175702610ae00151610be0526370a08231610c205230610c40526020610c206024610c3c610be0515afa61477b573d600060003e3d6000fd5b60203d1061521757610c2051610c005260006109e05181610c4001610a00518152508082019150506109005181610c4001526020810190506109a05181610c400152602081019050610be05181610c4001526020810190506109605181610c400152602081019050610ac05181610c40015260208101905080610c2052610c20505060006000610c2051610c4060006109c0515af161481f573d600060003e3d6000fd5b610960516370a08231610c205230610c40526020610c206024610c3c610be0515afa614850573d600060003e3d6000fd5b60203d1061521757610c2051610c0051808210615217578082039050905018615217575b63a9059cbb610be0526109a051610c0052610ac051610c20526020610be06044610bfc600060206109405160028110156152175702610ae001515af16148bf573d600060003e3d6000fd5b60203d1061521757610be0518060011c61521757610c4052610c40511561521757610b2051610ba0518082028215828483041417156152175790509050610b2052600061094051111561493d57610b2051610b60518082028215828483041417156152175790509050670de0b6b3a764000080820490509050610b20525b610b205160206109405160028110156152175702610a600152620186a0610960511161496a576000614974565b620186a0610ac051115b15614a345761096051610b80518082028215828483041417156152175790509050610be052610ac051610ba0518082028215828483041417156152175790509050610c005261092051156149fd57610c0051670de0b6b3a76400008082028215828483041417156152175790509050610be05180801561521757820490509050610aa052614a34565b610be051670de0b6b3a76400008082028215828483041417156152175790509050610c005180801561521757820490509050610aa0525b610a205161060052610a405161062052610a605161064052610a805161066052610aa0516106805260006106a052614a6a613a5b565b610900517fb2e76ae99761dc136e598d4a629bb347eccb9532a5f8bbd72e18467c3c34cc9861092051610be05261096051610c005261094051610c2052610ac051610c40526080610be0a2610ac051815250565b6101005160405261012051606052614ad76101606134bb565b61016051600280820282158284830414171561521757905090506004808204905090506101405260006101605260006002905b6020810260c001516101805261016051610180518181830110615217578082019050905061016052600101818118614b0a575050610160516002808204905090506101805260006101a05260006002905b6020810260c001516101c052610180516101c05111614ba7576101a051610180516101c0518082106152175780820390509050818183011061521757808201905090506101a052614bd6565b6101a0516101c051610180518082106152175780820390509050818183011061521757808201905090506101a0525b600101818118614b5b575050610140516101a05180820282158284830414171561521757905090506101605180801561521757820490509050620186a081818301106152175780820190509050815250565b6318160ddd6104e05260206104e060046104fc602061521c6000396000515afa614c57573d600060003e3d6000fd5b60203d10615217576104e0516104c0526104c0516104405111615217576002610460511015615217576017546104e05260185461050052600061052052600154602061529c6000396000518082028215828483041417156152175790509050610540526104e051602061527c60003960005180820282158284830414171561521757905090506105605261050051610540518082028215828483041417156152175790509050670de0b6b3a7640000808204905090506105805261046051614d4657670de0b6b3a7640000602061527c6000396000518082028215828483041417156152175790509050610540525b61048051614d5a5760195461052052614d8e565b61040051610160526104205161018052610560516101a052610580516101c052614d856105a061241b565b6105a051610520525b610520516105a0526105605160405261058051606052614daf6105e06134bb565b6105e0516105c052610440516105a05180820282158284830414171561521757905090506104c051808015615217578204905090506105e0526105a0516105e0516105c0516105e05180820282158284830414171561521757905090506404a817c80080820490509050600181818301106152175780820190509050808210615217578082039050905080821061521757808203905090506105a0526104005160405261042051606052610560516080526105805160a0526105a05160c0526104605160e052614e80610620612ac7565b6106205161060052602061046051600281101561521757026105600151610600518082106152175780820390509050670de0b6b3a76400008082028215828483041417156152175790509050610540518080156152175782049050905061062052610600516020610460516002811015615217570261056001526000610640526104a051614f0f576000614f2d565b620186a06106205111614f23576000614f2d565b620186a061044051115b156150c657600061066052602061527c6000396000516106805260016104605118614f8d576104e051602061527c600039600051808202821582848304141715615217579050905061066052602061529c60003960005161068052614fb5565b61050051602061529c6000396000518082028215828483041417156152175790509050610660525b610660516105e051808202821582848304141715615217579050905061052051808015615217578204905090506106605261066051670de0b6b3a76400008082028215828483041417156152175790509050610620516106805180820282158284830414171561521757905090506105e051602061046051600281101561521757026104e001518082028215828483041417156152175790509050610680518082028215828483041417156152175790509050610520518080156152175782049050905080821061521757808203905090508080156152175782049050905061064052610460516150c6576ec097ce7bc90715b34b9f10000000006106405180801561521757820490509050610640525b6106205181526106405160208201526105a0516040820152606081016105605181526105805160208201525050565b604051615106576000815250615215565b604051670de0b6b3a7640000818183011061521757808201905090506002808204905090506060526040516080526000610100905b8060a05260805160605118615157576080518352505050615215565b606051608052604051670de0b6b3a76400008082028215828483041417156152175790509050606051808015615217578204905090506060518181830110615217578082019050905060028082049050905060605260010181811861513b575050601060a0527f446964206e6f7420636f6e76657267650000000000000000000000000000000060c05260a05060a0518060c00181600003601f1636823750506308c379a06060526020608052601f19601f60a0510116604401607cfd5b565b600080fd005b600080fd"
}