{
  "address": "0x2ECBAb2e241e9b54060fd20a1CF067D661FB99B3",
  "abi": [
    {
      "inputs": [
        {
          "internalType": "contract IVBase",
          "name": "_vBase",
          "type": "address"
        },
        {
          "internalType": "contract IVQuote",
          "name": "_vQuote",
          "type": "address"
        },
        {
          "internalType": "contract ICryptoSwap",
          "name": "_market",
          "type": "address"
        },
        {
          "internalType": "contract IClearingHouse",
          "name": "_clearingHouse",
          "type": "address"
        },
        {
          "internalType": "contract ICurveCryptoViews",
          "name": "_views",
          "type": "address"
        },
        {
          "components": [
            {
              "internalType": "uint256",
              "name": "riskWeight",
              "type": "uint256"
            },
            {
              "internalType": "uint256",
              "name": "maxLiquidityProvided",
              "type": "uint256"
            },
            {
              "internalType": "uint256",
              "name": "twapFrequency",
              "type": "uint256"
            },
            {
              "internalType": "int256",
              "name": "sensitivity",
              "type": "int256"
            },
            {
              "internalType": "uint256",
              "name": "maxBlockTradeAmount",
              "type": "uint256"
            },
            {
              "internalType": "int256",
              "name": "insuranceFee",
              "type": "int256"
            },
            {
              "internalType": "int256",
              "name": "lpDebtCoef",
              "type": "int256"
            },
            {
              "internalType": "uint256",
              "name": "lockPeriod",
              "type": "uint256"
            }
          ],
          "internalType": "struct IPerpetual.PerpetualParams",
          "name": "_params",
          "type": "tuple"
        }
      ],
      "stateMutability": "nonpayable",
      "type": "constructor"
    },
    {
      "inputs": [],
      "name": "PRBMathSD59x18__AbsInputTooSmall",
      "type": "error"
    },
    {
      "inputs": [],
      "name": "PRBMathSD59x18__DivInputTooSmall",
      "type": "error"
    },
    {
      "inputs": [
        {
          "internalType": "uint256",
          "name": "rAbs",
          "type": "uint256"
        }
      ],
      "name": "PRBMathSD59x18__DivOverflow",
      "type": "error"
    },
    {
      "inputs": [],
      "name": "PRBMathSD59x18__MulInputTooSmall",
      "type": "error"
    },
    {
      "inputs": [
        {
          "internalType": "uint256",
          "name": "rAbs",
          "type": "uint256"
        }
      ],
      "name": "PRBMathSD59x18__MulOverflow",
      "type": "error"
    },
    {
      "inputs": [
        {
          "internalType": "uint256",
          "name": "prod1",
          "type": "uint256"
        }
      ],
      "name": "PRBMath__MulDivFixedPointOverflow",
      "type": "error"
    },
    {
      "inputs": [
        {
          "internalType": "uint256",
          "name": "prod1",
          "type": "uint256"
        },
        {
          "internalType": "uint256",
          "name": "denominator",
          "type": "uint256"
        }
      ],
      "name": "PRBMath__MulDivOverflow",
      "type": "error"
    },
    {
      "inputs": [],
      "name": "Perpetual_AttemptReducePosition",
      "type": "error"
    },
    {
      "inputs": [],
      "name": "Perpetual_AttemptReversePosition",
      "type": "error"
    },
    {
      "inputs": [],
      "name": "Perpetual_ExcessiveBlockTradeAmount",
      "type": "error"
    },
    {
      "inputs": [
        {
          "internalType": "int256",
          "name": "fee",
          "type": "int256"
        }
      ],
      "name": "Perpetual_InsuranceFeeInvalid",
      "type": "error"
    },
    {
      "inputs": [],
      "name": "Perpetual_InvalidAdminFee",
      "type": "error"
    },
    {
      "inputs": [],
      "name": "Perpetual_LPOpenPosition",
      "type": "error"
    },
    {
      "inputs": [],
      "name": "Perpetual_LPWithdrawExceedsBalance",
      "type": "error"
    },
    {
      "inputs": [
        {
          "internalType": "uint256",
          "name": "lockPeriod",
          "type": "uint256"
        }
      ],
      "name": "Perpetual_LockPeriodInvalid",
      "type": "error"
    },
    {
      "inputs": [
        {
          "internalType": "uint256",
          "name": "withdrawTime",
          "type": "uint256"
        }
      ],
      "name": "Perpetual_LockPeriodNotReached",
      "type": "error"
    },
    {
      "inputs": [],
      "name": "Perpetual_LpAmountDeviation",
      "type": "error"
    },
    {
      "inputs": [
        {
          "internalType": "int256",
          "name": "lpDebtCoef",
          "type": "int256"
        }
      ],
      "name": "Perpetual_LpDebtCoefInvalid",
      "type": "error"
    },
    {
      "inputs": [],
      "name": "Perpetual_MarketBalanceTooLow",
      "type": "error"
    },
    {
      "inputs": [
        {
          "internalType": "uint256",
          "name": "maxBlockTradeAmount",
          "type": "uint256"
        }
      ],
      "name": "Perpetual_MaxBlockAmountInvalid",
      "type": "error"
    },
    {
      "inputs": [],
      "name": "Perpetual_MaxLiquidityProvided",
      "type": "error"
    },
    {
      "inputs": [],
      "name": "Perpetual_MaxPositionSize",
      "type": "error"
    },
    {
      "inputs": [],
      "name": "Perpetual_NoOpenPosition",
      "type": "error"
    },
    {
      "inputs": [
        {
          "internalType": "uint256",
          "name": "riskWeight",
          "type": "uint256"
        }
      ],
      "name": "Perpetual_RiskWeightInvalid",
      "type": "error"
    },
    {
      "inputs": [],
      "name": "Perpetual_SenderNotClearingHouse",
      "type": "error"
    },
    {
      "inputs": [],
      "name": "Perpetual_SenderNotClearingHouseOwner",
      "type": "error"
    },
    {
      "inputs": [
        {
          "internalType": "int256",
          "name": "sensitivity",
          "type": "int256"
        }
      ],
      "name": "Perpetual_SensitivityInvalid",
      "type": "error"
    },
    {
      "inputs": [
        {
          "internalType": "uint256",
          "name": "twapFrequency",
          "type": "uint256"
        }
      ],
      "name": "Perpetual_TwapFrequencyInvalid",
      "type": "error"
    },
    {
      "inputs": [
        {
          "internalType": "uint256",
          "name": "tokenIndex",
          "type": "uint256"
        }
      ],
      "name": "Perpetual_VirtualTokenApprovalConstructor",
      "type": "error"
    },
    {
      "inputs": [
        {
          "internalType": "uint256",
          "name": "paramIndex",
          "type": "uint256"
        }
      ],
      "name": "Perpetual_ZeroAddressConstructor",
      "type": "error"
    },
    {
      "anonymous": false,
      "inputs": [
        {
          "indexed": false,
          "internalType": "int256",
          "name": "vBaseAmount",
          "type": "int256"
        }
      ],
      "name": "DustGenerated",
      "type": "event"
    },
    {
      "anonymous": false,
      "inputs": [
        {
          "indexed": true,
          "internalType": "address",
          "name": "account",
          "type": "address"
        },
        {
          "indexed": false,
          "internalType": "int256",
          "name": "amount",
          "type": "int256"
        },
        {
          "indexed": false,
          "internalType": "int256",
          "name": "globalCumulativeFundingRate",
          "type": "int256"
        },
        {
          "indexed": false,
          "internalType": "int256",
          "name": "userCumulativeFundingRate",
          "type": "int256"
        },
        {
          "indexed": false,
          "internalType": "bool",
          "name": "isTrader",
          "type": "bool"
        }
      ],
      "name": "FundingPaid",
      "type": "event"
    },
    {
      "anonymous": false,
      "inputs": [
        {
          "indexed": false,
          "internalType": "int256",
          "name": "cumulativeFundingRate",
          "type": "int256"
        },
        {
          "indexed": false,
          "internalType": "int256",
          "name": "fundingRate",
          "type": "int256"
        }
      ],
      "name": "FundingRateUpdated",
      "type": "event"
    },
    {
      "anonymous": false,
      "inputs": [
        {
          "indexed": false,
          "internalType": "string",
          "name": "errorMessage",
          "type": "string"
        }
      ],
      "name": "Log",
      "type": "event"
    },
    {
      "anonymous": false,
      "inputs": [
        {
          "indexed": false,
          "internalType": "address",
          "name": "account",
          "type": "address"
        }
      ],
      "name": "Paused",
      "type": "event"
    },
    {
      "anonymous": false,
      "inputs": [
        {
          "indexed": false,
          "internalType": "uint256",
          "name": "newRiskWeight",
          "type": "uint256"
        },
        {
          "indexed": false,
          "internalType": "uint256",
          "name": "newMaxLiquidityProvided",
          "type": "uint256"
        },
        {
          "indexed": false,
          "internalType": "uint256",
          "name": "newTwapFrequency",
          "type": "uint256"
        },
        {
          "indexed": false,
          "internalType": "int256",
          "name": "newSensitivity",
          "type": "int256"
        },
        {
          "indexed": false,
          "internalType": "uint256",
          "name": "newMaxBlockTradeAmount",
          "type": "uint256"
        },
        {
          "indexed": false,
          "internalType": "int256",
          "name": "newInsuranceFee",
          "type": "int256"
        },
        {
          "indexed": false,
          "internalType": "int256",
          "name": "newLpDebtCoef",
          "type": "int256"
        },
        {
          "indexed": false,
          "internalType": "uint256",
          "name": "lockPeriod",
          "type": "uint256"
        }
      ],
      "name": "PerpetualParametersChanged",
      "type": "event"
    },
    {
      "anonymous": false,
      "inputs": [
        {
          "indexed": true,
          "internalType": "bytes32",
          "name": "role",
          "type": "bytes32"
        },
        {
          "indexed": true,
          "internalType": "bytes32",
          "name": "previousAdminRole",
          "type": "bytes32"
        },
        {
          "indexed": true,
          "internalType": "bytes32",
          "name": "newAdminRole",
          "type": "bytes32"
        }
      ],
      "name": "RoleAdminChanged",
      "type": "event"
    },
    {
      "anonymous": false,
      "inputs": [
        {
          "indexed": true,
          "internalType": "bytes32",
          "name": "role",
          "type": "bytes32"
        },
        {
          "indexed": true,
          "internalType": "address",
          "name": "account",
          "type": "address"
        },
        {
          "indexed": true,
          "internalType": "address",
          "name": "sender",
          "type": "address"
        }
      ],
      "name": "RoleGranted",
      "type": "event"
    },
    {
      "anonymous": false,
      "inputs": [
        {
          "indexed": true,
          "internalType": "bytes32",
          "name": "role",
          "type": "bytes32"
        },
        {
          "indexed": true,
          "internalType": "address",
          "name": "account",
          "type": "address"
        },
        {
          "indexed": true,
          "internalType": "address",
          "name": "sender",
          "type": "address"
        }
      ],
      "name": "RoleRevoked",
      "type": "event"
    },
    {
      "anonymous": false,
      "inputs": [
        {
          "indexed": false,
          "internalType": "int256",
          "name": "newOracleTwap",
          "type": "int256"
        },
        {
          "indexed": false,
          "internalType": "int256",
          "name": "newMarketTwap",
          "type": "int256"
        }
      ],
      "name": "TwapUpdated",
      "type": "event"
    },
    {
      "anonymous": false,
      "inputs": [
        {
          "indexed": false,
          "internalType": "address",
          "name": "account",
          "type": "address"
        }
      ],
      "name": "Unpaused",
      "type": "event"
    },
    {
      "inputs": [],
      "name": "DEFAULT_ADMIN_ROLE",
      "outputs": [
        {
          "internalType": "bytes32",
          "name": "",
          "type": "bytes32"
        }
      ],
      "stateMutability": "view",
      "type": "function"
    },
    {
      "inputs": [],
      "name": "EMERGENCY_ADMIN",
      "outputs": [
        {
          "internalType": "bytes32",
          "name": "",
          "type": "bytes32"
        }
      ],
      "stateMutability": "view",
      "type": "function"
    },
    {
      "inputs": [],
      "name": "GOVERNANCE",
      "outputs": [
        {
          "internalType": "bytes32",
          "name": "",
          "type": "bytes32"
        }
      ],
      "stateMutability": "view",
      "type": "function"
    },
    {
      "inputs": [
        {
          "internalType": "address",
          "name": "account",
          "type": "address"
        },
        {
          "internalType": "uint256",
          "name": "amount",
          "type": "uint256"
        },
        {
          "internalType": "uint256",
          "name": "minAmount",
          "type": "uint256"
        },
        {
          "internalType": "enum LibPerpetual.Side",
          "name": "direction",
          "type": "uint8"
        },
        {
          "internalType": "bool",
          "name": "isLiquidation",
          "type": "bool"
        }
      ],
      "name": "changePosition",
      "outputs": [
        {
          "internalType": "int256",
          "name": "quoteProceeds",
          "type": "int256"
        },
        {
          "internalType": "int256",
          "name": "baseProceeds",
          "type": "int256"
        },
        {
          "internalType": "int256",
          "name": "profit",
          "type": "int256"
        },
        {
          "internalType": "int256",
          "name": "tradingFeesPayed",
          "type": "int256"
        },
        {
          "internalType": "bool",
          "name": "isPositionIncreased",
          "type": "bool"
        },
        {
          "internalType": "bool",
          "name": "isPositionClosed",
          "type": "bool"
        }
      ],
      "stateMutability": "nonpayable",
      "type": "function"
    },
    {
      "inputs": [],
      "name": "clearingHouse",
      "outputs": [
        {
          "internalType": "contract IClearingHouse",
          "name": "",
          "type": "address"
        }
      ],
      "stateMutability": "view",
      "type": "function"
    },
    {
      "inputs": [],
      "name": "curveCryptoViews",
      "outputs": [
        {
          "internalType": "contract ICurveCryptoViews",
          "name": "",
          "type": "address"
        }
      ],
      "stateMutability": "view",
      "type": "function"
    },
    {
      "inputs": [],
      "name": "getGlobalPosition",
      "outputs": [
        {
          "components": [
            {
              "internalType": "uint64",
              "name": "timeOfLastTrade",
              "type": "uint64"
            },
            {
              "internalType": "uint64",
              "name": "timeOfLastTwapUpdate",
              "type": "uint64"
            },
            {
              "internalType": "int128",
              "name": "cumFundingRate",
              "type": "int128"
            },
            {
              "internalType": "uint128",
              "name": "totalQuoteProvided",
              "type": "uint128"
            },
            {
              "internalType": "uint128",
              "name": "totalBaseProvided",
              "type": "uint128"
            },
            {
              "internalType": "int128",
              "name": "cumFundingPerLpToken",
              "type": "int128"
            },
            {
              "internalType": "uint128",
              "name": "currentBlockTradeAmount",
              "type": "uint128"
            },
            {
              "internalType": "uint128",
              "name": "totalTradingFeesGrowth",
              "type": "uint128"
            },
            {
              "internalType": "uint128",
              "name": "totalBaseFeesGrowth",
              "type": "uint128"
            },
            {
              "internalType": "uint128",
              "name": "totalQuoteFeesGrowth",
              "type": "uint128"
            },
            {
              "internalType": "uint128",
              "name": "traderLongs",
              "type": "uint128"
            },
            {
              "internalType": "uint128",
              "name": "traderShorts",
              "type": "uint128"
            }
          ],
          "internalType": "struct LibPerpetual.GlobalPosition",
          "name": "",
          "type": "tuple"
        }
      ],
      "stateMutability": "view",
      "type": "function"
    },
    {
      "inputs": [
        {
          "internalType": "address",
          "name": "account",
          "type": "address"
        }
      ],
      "name": "getLpFundingPayments",
      "outputs": [
        {
          "internalType": "int256",
          "name": "upcomingFundingPayment",
          "type": "int256"
        }
      ],
      "stateMutability": "view",
      "type": "function"
    },
    {
      "inputs": [
        {
          "internalType": "address",
          "name": "account",
          "type": "address"
        }
      ],
      "name": "getLpLiquidity",
      "outputs": [
        {
          "internalType": "uint256",
          "name": "",
          "type": "uint256"
        }
      ],
      "stateMutability": "view",
      "type": "function"
    },
    {
      "inputs": [
        {
          "internalType": "address",
          "name": "account",
          "type": "address"
        }
      ],
      "name": "getLpOpenNotional",
      "outputs": [
        {
          "internalType": "int256",
          "name": "",
          "type": "int256"
        }
      ],
      "stateMutability": "view",
      "type": "function"
    },
    {
      "inputs": [
        {
          "internalType": "address",
          "name": "account",
          "type": "address"
        }
      ],
      "name": "getLpPosition",
      "outputs": [
        {
          "components": [
            {
              "internalType": "int128",
              "name": "openNotional",
              "type": "int128"
            },
            {
              "internalType": "int128",
              "name": "positionSize",
              "type": "int128"
            },
            {
              "internalType": "uint128",
              "name": "liquidityBalance",
              "type": "uint128"
            },
            {
              "internalType": "uint64",
              "name": "depositTime",
              "type": "uint64"
            },
            {
              "internalType": "uint128",
              "name": "totalTradingFeesGrowth",
              "type": "uint128"
            },
            {
              "internalType": "uint128",
              "name": "totalBaseFeesGrowth",
              "type": "uint128"
            },
            {
              "internalType": "uint128",
              "name": "totalQuoteFeesGrowth",
              "type": "uint128"
            },
            {
              "internalType": "int128",
              "name": "cumFundingPerLpToken",
              "type": "int128"
            }
          ],
          "internalType": "struct LibPerpetual.LiquidityProviderPosition",
          "name": "",
          "type": "tuple"
        }
      ],
      "stateMutability": "view",
      "type": "function"
    },
    {
      "inputs": [
        {
          "internalType": "address",
          "name": "account",
          "type": "address"
        }
      ],
      "name": "getLpPositionAfterWithdrawal",
      "outputs": [
        {
          "components": [
            {
              "internalType": "int128",
              "name": "openNotional",
              "type": "int128"
            },
            {
              "internalType": "int128",
              "name": "positionSize",
              "type": "int128"
            },
            {
              "internalType": "int128",
              "name": "cumFundingRate",
              "type": "int128"
            }
          ],
          "internalType": "struct LibPerpetual.TraderPosition",
          "name": "",
          "type": "tuple"
        }
      ],
      "stateMutability": "view",
      "type": "function"
    },
    {
      "inputs": [
        {
          "internalType": "address",
          "name": "account",
          "type": "address"
        }
      ],
      "name": "getLpTradingFees",
      "outputs": [
        {
          "internalType": "uint256",
          "name": "tradingFeesEarned",
          "type": "uint256"
        }
      ],
      "stateMutability": "view",
      "type": "function"
    },
    {
      "inputs": [
        {
          "internalType": "address",
          "name": "account",
          "type": "address"
        }
      ],
      "name": "getLpUnrealizedPnL",
      "outputs": [
        {
          "internalType": "int256",
          "name": "pnl",
          "type": "int256"
        }
      ],
      "stateMutability": "view",
      "type": "function"
    },
    {
      "inputs": [
        {
          "internalType": "address",
          "name": "account",
          "type": "address"
        }
      ],
      "name": "getPendingPnL",
      "outputs": [
        {
          "internalType": "int256",
          "name": "pnL",
          "type": "int256"
        }
      ],
      "stateMutability": "view",
      "type": "function"
    },
    {
      "inputs": [
        {
          "internalType": "bytes32",
          "name": "role",
          "type": "bytes32"
        }
      ],
      "name": "getRoleAdmin",
      "outputs": [
        {
          "internalType": "bytes32",
          "name": "",
          "type": "bytes32"
        }
      ],
      "stateMutability": "view",
      "type": "function"
    },
    {
      "inputs": [],
      "name": "getTotalLiquidityProvided",
      "outputs": [
        {
          "internalType": "uint256",
          "name": "",
          "type": "uint256"
        }
      ],
      "stateMutability": "view",
      "type": "function"
    },
    {
      "inputs": [
        {
          "internalType": "address",
          "name": "account",
          "type": "address"
        }
      ],
      "name": "getTraderFundingPayments",
      "outputs": [
        {
          "internalType": "int256",
          "name": "upcomingFundingPayment",
          "type": "int256"
        }
      ],
      "stateMutability": "view",
      "type": "function"
    },
    {
      "inputs": [
        {
          "internalType": "address",
          "name": "account",
          "type": "address"
        }
      ],
      "name": "getTraderPosition",
      "outputs": [
        {
          "components": [
            {
              "internalType": "int128",
              "name": "openNotional",
              "type": "int128"
            },
            {
              "internalType": "int128",
              "name": "positionSize",
              "type": "int128"
            },
            {
              "internalType": "int128",
              "name": "cumFundingRate",
              "type": "int128"
            }
          ],
          "internalType": "struct LibPerpetual.TraderPosition",
          "name": "",
          "type": "tuple"
        }
      ],
      "stateMutability": "view",
      "type": "function"
    },
    {
      "inputs": [
        {
          "internalType": "address",
          "name": "account",
          "type": "address"
        }
      ],
      "name": "getTraderUnrealizedPnL",
      "outputs": [
        {
          "internalType": "int256",
          "name": "pnl",
          "type": "int256"
        }
      ],
      "stateMutability": "view",
      "type": "function"
    },
    {
      "inputs": [
        {
          "internalType": "address",
          "name": "account",
          "type": "address"
        }
      ],
      "name": "getUserDebt",
      "outputs": [
        {
          "internalType": "int256",
          "name": "debt",
          "type": "int256"
        }
      ],
      "stateMutability": "view",
      "type": "function"
    },
    {
      "inputs": [
        {
          "internalType": "bytes32",
          "name": "role",
          "type": "bytes32"
        },
        {
          "internalType": "address",
          "name": "account",
          "type": "address"
        }
      ],
      "name": "grantRole",
      "outputs": [],
      "stateMutability": "nonpayable",
      "type": "function"
    },
    {
      "inputs": [
        {
          "internalType": "bytes32",
          "name": "role",
          "type": "bytes32"
        },
        {
          "internalType": "address",
          "name": "account",
          "type": "address"
        }
      ],
      "name": "hasRole",
      "outputs": [
        {
          "internalType": "bool",
          "name": "",
          "type": "bool"
        }
      ],
      "stateMutability": "view",
      "type": "function"
    },
    {
      "inputs": [],
      "name": "indexPrice",
      "outputs": [
        {
          "internalType": "int256",
          "name": "",
          "type": "int256"
        }
      ],
      "stateMutability": "view",
      "type": "function"
    },
    {
      "inputs": [],
      "name": "insuranceFee",
      "outputs": [
        {
          "internalType": "int256",
          "name": "",
          "type": "int256"
        }
      ],
      "stateMutability": "view",
      "type": "function"
    },
    {
      "inputs": [
        {
          "internalType": "address",
          "name": "account",
          "type": "address"
        }
      ],
      "name": "isEmergencyAdmin",
      "outputs": [
        {
          "internalType": "bool",
          "name": "",
          "type": "bool"
        }
      ],
      "stateMutability": "view",
      "type": "function"
    },
    {
      "inputs": [
        {
          "internalType": "address",
          "name": "account",
          "type": "address"
        }
      ],
      "name": "isGovernor",
      "outputs": [
        {
          "internalType": "bool",
          "name": "",
          "type": "bool"
        }
      ],
      "stateMutability": "view",
      "type": "function"
    },
    {
      "inputs": [
        {
          "internalType": "address",
          "name": "account",
          "type": "address"
        }
      ],
      "name": "isLpPositionOpen",
      "outputs": [
        {
          "internalType": "bool",
          "name": "",
          "type": "bool"
        }
      ],
      "stateMutability": "view",
      "type": "function"
    },
    {
      "inputs": [
        {
          "internalType": "address",
          "name": "account",
          "type": "address"
        }
      ],
      "name": "isTraderPositionOpen",
      "outputs": [
        {
          "internalType": "bool",
          "name": "",
          "type": "bool"
        }
      ],
      "stateMutability": "view",
      "type": "function"
    },
    {
      "inputs": [],
      "name": "lockPeriod",
      "outputs": [
        {
          "internalType": "uint256",
          "name": "",
          "type": "uint256"
        }
      ],
      "stateMutability": "view",
      "type": "function"
    },
    {
      "inputs": [],
      "name": "lpDebtCoef",
      "outputs": [
        {
          "internalType": "int256",
          "name": "",
          "type": "int256"
        }
      ],
      "stateMutability": "view",
      "type": "function"
    },
    {
      "inputs": [],
      "name": "market",
      "outputs": [
        {
          "internalType": "contract ICryptoSwap",
          "name": "",
          "type": "address"
        }
      ],
      "stateMutability": "view",
      "type": "function"
    },
    {
      "inputs": [],
      "name": "marketPrice",
      "outputs": [
        {
          "internalType": "uint256",
          "name": "",
          "type": "uint256"
        }
      ],
      "stateMutability": "view",
      "type": "function"
    },
    {
      "inputs": [],
      "name": "marketTwap",
      "outputs": [
        {
          "internalType": "int128",
          "name": "",
          "type": "int128"
        }
      ],
      "stateMutability": "view",
      "type": "function"
    },
    {
      "inputs": [],
      "name": "maxBlockTradeAmount",
      "outputs": [
        {
          "internalType": "uint256",
          "name": "",
          "type": "uint256"
        }
      ],
      "stateMutability": "view",
      "type": "function"
    },
    {
      "inputs": [],
      "name": "maxLiquidityProvided",
      "outputs": [
        {
          "internalType": "uint256",
          "name": "",
          "type": "uint256"
        }
      ],
      "stateMutability": "view",
      "type": "function"
    },
    {
      "inputs": [],
      "name": "maxPosition",
      "outputs": [
        {
          "internalType": "uint256",
          "name": "",
          "type": "uint256"
        }
      ],
      "stateMutability": "view",
      "type": "function"
    },
    {
      "inputs": [],
      "name": "oracleTwap",
      "outputs": [
        {
          "internalType": "int128",
          "name": "",
          "type": "int128"
        }
      ],
      "stateMutability": "view",
      "type": "function"
    },
    {
      "inputs": [],
      "name": "pause",
      "outputs": [],
      "stateMutability": "nonpayable",
      "type": "function"
    },
    {
      "inputs": [],
      "name": "paused",
      "outputs": [
        {
          "internalType": "bool",
          "name": "",
          "type": "bool"
        }
      ],
      "stateMutability": "view",
      "type": "function"
    },
    {
      "inputs": [
        {
          "internalType": "address",
          "name": "account",
          "type": "address"
        },
        {
          "internalType": "uint256[2]",
          "name": "amounts",
          "type": "uint256[2]"
        },
        {
          "internalType": "uint256",
          "name": "minLpAmount",
          "type": "uint256"
        }
      ],
      "name": "provideLiquidity",
      "outputs": [
        {
          "internalType": "int256",
          "name": "tradingFees",
          "type": "int256"
        }
      ],
      "stateMutability": "nonpayable",
      "type": "function"
    },
    {
      "inputs": [
        {
          "internalType": "address",
          "name": "account",
          "type": "address"
        },
        {
          "internalType": "uint256",
          "name": "liquidityAmountToRemove",
          "type": "uint256"
        },
        {
          "internalType": "uint256[2]",
          "name": "minVTokenAmounts",
          "type": "uint256[2]"
        },
        {
          "internalType": "uint256",
          "name": "proposedAmount",
          "type": "uint256"
        },
        {
          "internalType": "uint256",
          "name": "minAmount",
          "type": "uint256"
        },
        {
          "internalType": "bool",
          "name": "isLiquidation",
          "type": "bool"
        }
      ],
      "name": "removeLiquidity",
      "outputs": [
        {
          "internalType": "int256",
          "name": "profit",
          "type": "int256"
        },
        {
          "internalType": "int256",
          "name": "tradingFeesPayed",
          "type": "int256"
        },
        {
          "internalType": "uint256",
          "name": "reductionRatio",
          "type": "uint256"
        },
        {
          "internalType": "int256",
          "name": "quoteProceeds",
          "type": "int256"
        },
        {
          "internalType": "bool",
          "name": "isPositionClosed",
          "type": "bool"
        }
      ],
      "stateMutability": "nonpayable",
      "type": "function"
    },
    {
      "inputs": [
        {
          "internalType": "address",
          "name": "account",
          "type": "address"
        },
        {
          "internalType": "uint256",
          "name": "liquidityAmountToRemove",
          "type": "uint256"
        },
        {
          "internalType": "uint256[2]",
          "name": "minVTokenAmounts",
          "type": "uint256[2]"
        },
        {
          "internalType": "uint256",
          "name": "proposedAmount",
          "type": "uint256"
        },
        {
          "internalType": "enum LibPerpetual.Side",
          "name": "direction",
          "type": "uint8"
        },
        {
          "internalType": "bool",
          "name": "withCurveTradingFees",
          "type": "bool"
        }
      ],
      "name": "removeLiquiditySwap",
      "outputs": [],
      "stateMutability": "nonpayable",
      "type": "function"
    },
    {
      "inputs": [
        {
          "internalType": "bytes32",
          "name": "role",
          "type": "bytes32"
        },
        {
          "internalType": "address",
          "name": "account",
          "type": "address"
        }
      ],
      "name": "renounceRole",
      "outputs": [],
      "stateMutability": "nonpayable",
      "type": "function"
    },
    {
      "inputs": [
        {
          "internalType": "bytes32",
          "name": "role",
          "type": "bytes32"
        },
        {
          "internalType": "address",
          "name": "account",
          "type": "address"
        }
      ],
      "name": "revokeRole",
      "outputs": [],
      "stateMutability": "nonpayable",
      "type": "function"
    },
    {
      "inputs": [],
      "name": "riskWeight",
      "outputs": [
        {
          "internalType": "uint256",
          "name": "",
          "type": "uint256"
        }
      ],
      "stateMutability": "view",
      "type": "function"
    },
    {
      "inputs": [],
      "name": "sensitivity",
      "outputs": [
        {
          "internalType": "int256",
          "name": "",
          "type": "int256"
        }
      ],
      "stateMutability": "view",
      "type": "function"
    },
    {
      "inputs": [
        {
          "components": [
            {
              "internalType": "uint256",
              "name": "riskWeight",
              "type": "uint256"
            },
            {
              "internalType": "uint256",
              "name": "maxLiquidityProvided",
              "type": "uint256"
            },
            {
              "internalType": "uint256",
              "name": "twapFrequency",
              "type": "uint256"
            },
            {
              "internalType": "int256",
              "name": "sensitivity",
              "type": "int256"
            },
            {
              "internalType": "uint256",
              "name": "maxBlockTradeAmount",
              "type": "uint256"
            },
            {
              "internalType": "int256",
              "name": "insuranceFee",
              "type": "int256"
            },
            {
              "internalType": "int256",
              "name": "lpDebtCoef",
              "type": "int256"
            },
            {
              "internalType": "uint256",
              "name": "lockPeriod",
              "type": "uint256"
            }
          ],
          "internalType": "struct IPerpetual.PerpetualParams",
          "name": "params",
          "type": "tuple"
        }
      ],
      "name": "setParameters",
      "outputs": [],
      "stateMutability": "nonpayable",
      "type": "function"
    },
    {
      "inputs": [
        {
          "internalType": "address",
          "name": "account",
          "type": "address"
        }
      ],
      "name": "settleLpFunding",
      "outputs": [
        {
          "internalType": "int256",
          "name": "fundingPayments",
          "type": "int256"
        }
      ],
      "stateMutability": "nonpayable",
      "type": "function"
    },
    {
      "inputs": [
        {
          "internalType": "address",
          "name": "account",
          "type": "address"
        }
      ],
      "name": "settleTraderFunding",
      "outputs": [
        {
          "internalType": "int256",
          "name": "fundingPayments",
          "type": "int256"
        }
      ],
      "stateMutability": "nonpayable",
      "type": "function"
    },
    {
      "inputs": [
        {
          "internalType": "bytes4",
          "name": "interfaceId",
          "type": "bytes4"
        }
      ],
      "name": "supportsInterface",
      "outputs": [
        {
          "internalType": "bool",
          "name": "",
          "type": "bool"
        }
      ],
      "stateMutability": "view",
      "type": "function"
    },
    {
      "inputs": [],
      "name": "twapFrequency",
      "outputs": [
        {
          "internalType": "uint256",
          "name": "",
          "type": "uint256"
        }
      ],
      "stateMutability": "view",
      "type": "function"
    },
    {
      "inputs": [],
      "name": "unpause",
      "outputs": [],
      "stateMutability": "nonpayable",
      "type": "function"
    },
    {
      "inputs": [],
      "name": "updateGlobalState",
      "outputs": [],
      "stateMutability": "nonpayable",
      "type": "function"
    },
    {
      "inputs": [],
      "name": "vBase",
      "outputs": [
        {
          "internalType": "contract IVBase",
          "name": "",
          "type": "address"
        }
      ],
      "stateMutability": "view",
      "type": "function"
    },
    {
      "inputs": [],
      "name": "vQuote",
      "outputs": [
        {
          "internalType": "contract IVQuote",
          "name": "",
          "type": "address"
        }
      ],
      "stateMutability": "view",
      "type": "function"
    }
  ],
  "transactionHash": "0x2832ca887f505353022290050cff5885f1a9fedd5e1ebc2a46dad03d95bb9fb1",
  "args": [
    "0xe0062a46556BeF7BE981C263c0b442f3906dff4a",
    "0x83c2677F420fB7aE4d2Eb0B0Ba2DBF1e34893144",
    "0x33628A73Ea94345bCC3f1EF0a292a8E1f76bae4b",
    "0xBe75DC1fB3f2d67B8C556b6477F954e590399cA8",
    "0x45A2C5290e2B5d7A85b48b9AeBa7338980F2B87A",
    {
      "riskWeight": "3000000000000000000",
      "maxLiquidityProvided": "1000000000000000000000000",
      "twapFrequency": "900",
      "sensitivity": "1000000000000000000",
      "maxBlockTradeAmount": "100000000000000000000000",
      "insuranceFee": "1000000000000000",
      "lpDebtCoef": "3000000000000000000",
      "lockPeriod": 3600
    }
  ],
  "numDeployments": 1,
  "solcInputHash": "8553d291e489f5e8feb77c7d4675cc03",
  "bytecode": "0x60806040523480156200001157600080fd5b5060405162006f3438038062006f34833981016040819052620000349162000eb0565b6000805460ff191690556200005960008051602062006ef48339815191523362000515565b6200007460008051602062006ef48339815191528062000525565b6200008f60008051602062006f148339815191523362000515565b620000b960008051602062006f1483398151915260008051602062006ef483398151915262000525565b6001600160a01b038616620000e957604051630ff5573560e11b8152600060048201526024015b60405180910390fd5b6001600160a01b0385166200011557604051630ff5573560e11b815260016004820152602401620000e0565b6001600160a01b0384166200014157604051630ff5573560e11b815260026004820152602401620000e0565b6001600160a01b0383166200016d57604051630ff5573560e11b815260036004820152602401620000e0565b6001600160a01b0382166200019857604051630ff5573560e11b8152600481810152602401620000e0565b600b80546001600160a01b03199081166001600160a01b03898116918217909355600c80548316898516179055600e80548316888516908117909155600d80548416888616179055600f80549093169386169390931790915560405163095ea7b360e01b8152600481019290925260001960248301529063095ea7b3906044016020604051808303816000875af115801562000238573d6000803e3d6000fd5b505050506040513d601f19601f820116820180604052508101906200025e919062000fd2565b62000280576040516333bdd5fb60e11b815260016004820152602401620000e0565b600c5460405163095ea7b360e01b81526001600160a01b03868116600483015260001960248301529091169063095ea7b3906044016020604051808303816000875af1158015620002d5573d6000803e3d6000fd5b505050506040513d601f19601f82011682018060405250810190620002fb919062000fd2565b6200031d576040516333bdd5fb60e11b815260006004820152602401620000e0565b62000406866001600160a01b03166358c0994a6040518163ffffffff1660e01b8152600401602060405180830381865afa15801562000360573d6000803e3d6000fd5b505050506040513d601f19601f8201168201806040525081019062000386919062000ff6565b62000400866001600160a01b031663c146bf946040518163ffffffff1660e01b8152600401602060405180830381865afa158015620003c9573d6000803e3d6000fd5b505050506040513d601f19601f82011682018060405250810190620003ef919062000ff6565b6200057260201b62002ac01760201c565b62000590565b6200047060405180610100016040528083600001518152602001836020015181526020018360400151815260200183606001518152602001836080015181526020018360a0015181526020018360c0015181526020018360e001518152506200071760201b60201c565b600e60009054906101000a90046001600160a01b03166001600160a01b031663fee3f7f96040518163ffffffff1660e01b8152600401602060405180830381865afa158015620004c4573d6000803e3d6000fd5b505050506040513d601f19601f82011682018060405250810190620004ea919062000ff6565b15620005095760405163968d021b60e01b815260040160405180910390fd5b50505050505062001185565b62000521828262000a06565b5050565b6000828152600160208190526040808320909101805490849055905190918391839186917fbd79b86ffe0ab8e8776151514217cd7cacd52c909f66475c3af44e129f0b00ff9190a4505050565b60006200058a8262000a8e60201b62002ac71760201c565b92915050565b620005a68262000afe60201b62002b631760201c565b601460006101000a8154816001600160801b030219169083600f0b6001600160801b03160217905550620005e58162000afe60201b62002b631760201c565b601460106101000a8154816001600160801b030219169083600f0b6001600160801b03160217905550604051806101000160405280620006304262000b1660201b62002b6e1760201c565b6001600160401b03168152602001620006544262000b1660201b62002b6e1760201c565b6001600160401b0390811682526000602080840182905260408085018390526060808601849052608080870185905260a080880186905260c097880195909552875160108054958a0151948a01516001600160801b03908116600160801b908102968a1668010000000000000000026001600160801b0319909816939099169290921795909517811693909317909355860151601155908501519185015181168302918116919091176012559183015160e0909301518216029116176013555050565b60008051602062006ef4833981519152620007328162000b2e565b6702c68af0bb14000082606001511280620007585750678ac7230489e800008260600151135b1562000780578160600151604051634b2f813360e11b8152600401620000e091815260200190565b655af3107a40008260a001511280620007a35750662386f26fc100008260a00151135b15620007cb578160a0015160405163114cd9a960e01b8152600401620000e091815260200190565b670de0b6b3a76400008260c001511280620007f257506801158e460913d000008260c00151135b156200081a578160c00151604051639b428e6760e01b8152600401620000e091815260200190565b68056bc75e2d631000008260800151101562000852578160800151604051636bf2f04160e11b8152600401620000e091815260200190565b603c826040015110806200086b5750610e108260400151115b1562000893578160400151604051631a21300560e11b8152600401620000e091815260200190565b6102588260e001511080620008ae575062278d008260e00151115b15620008d6578160e001516040516354c23f5960e11b8152600401620000e091815260200190565b8151670de0b6b3a76400001180620008f7575081516802b5e3af16b1880000105b156200091d578151604051630d897bd560e11b81526004810191909152602401620000e0565b81516002556020820151600355606082015160055560a082015160065560c082015160075560408201516004556080820151600881905560e0830151600a908155620009699162001026565b600955815160208301516040808501516060860151608087015160a088015160c089015160e08a015195517f480417ee7b28b652887593c9d8a9ff3f3031da377b545837310f9c111d61f24a98620009fa98909790969594939291978852602088019690965260408701949094526060860192909252608085015260a084015260c083015260e08201526101000190565b60405180910390a15050565b60008281526001602090815260408083206001600160a01b038516845290915290205460ff16620005215760008281526001602081815260408084206001600160a01b0386168086529252808420805460ff19169093179092559051339285917f2f8788117e7eff1d82e926ec794901d17c78024a50270940304540a733656f0d9190a45050565b60006001600160ff1b0382111562000afa5760405162461bcd60e51b815260206004820152602860248201527f53616665436173743a2076616c756520646f65736e27742066697420696e2061604482015267371034b73a191a9b60c11b6064820152608401620000e0565b5090565b60006200058a8262000b3d60201b62002b791760201c565b60006200058a8262000bbd60201b62002c1e1760201c565b62000b3a813362000c27565b50565b600060016001607f1b0319821280159062000b5f575060016001607f1b038213155b62000afa5760405162461bcd60e51b815260206004820152602760248201527f53616665436173743a2076616c756520646f65736e27742066697420696e20316044820152663238206269747360c81b6064820152608401620000e0565b60006001600160401b0382111562000afa5760405162461bcd60e51b815260206004820152602660248201527f53616665436173743a2076616c756520646f65736e27742066697420696e203660448201526534206269747360d01b6064820152608401620000e0565b60008281526001602090815260408083206001600160a01b038516845290915290205460ff16620005215762000c73816001600160a01b0316601462000cc460201b62002c9e1760201c565b62000c8983602062002c9e62000cc4821b17811c565b60405160200162000c9c9291906200106f565b60408051601f198184030181529082905262461bcd60e51b8252620000e091600401620010e8565b6060600062000cd58360026200111d565b62000ce29060026200113f565b6001600160401b0381111562000cfc5762000cfc62000e9a565b6040519080825280601f01601f19166020018201604052801562000d27576020820181803683370190505b509050600360fc1b8160008151811062000d455762000d4562001155565b60200101906001600160f81b031916908160001a905350600f60fb1b8160018151811062000d775762000d7762001155565b60200101906001600160f81b031916908160001a905350600062000d9d8460026200111d565b62000daa9060016200113f565b90505b600181111562000e2c576f181899199a1a9b1b9c1cb0b131b232b360811b85600f166010811062000de25762000de262001155565b1a60f81b82828151811062000dfb5762000dfb62001155565b60200101906001600160f81b031916908160001a90535060049490941c9362000e24816200116b565b905062000dad565b50831562000e7d5760405162461bcd60e51b815260206004820181905260248201527f537472696e67733a20686578206c656e67746820696e73756666696369656e746044820152606401620000e0565b9392505050565b6001600160a01b038116811462000b3a57600080fd5b634e487b7160e01b600052604160045260246000fd5b6000806000806000808688036101a081121562000ecc57600080fd5b875162000ed98162000e84565b602089015190975062000eec8162000e84565b604089015190965062000eff8162000e84565b606089015190955062000f128162000e84565b608089015190945062000f258162000e84565b9250610100609f19820181131562000f3c57600080fd5b60405191508082016001600160401b038111838210171562000f6e57634e487b7160e01b600052604160045260246000fd5b806040525060a0890151825260c0890151602083015260e0890151604083015280890151606083015250610120880151608082015261014088015160a082015261016088015160c082015261018088015160e0820152809150509295509295509295565b60006020828403121562000fe557600080fd5b8151801515811462000e7d57600080fd5b6000602082840312156200100957600080fd5b5051919050565b634e487b7160e01b600052601160045260246000fd5b6000826200104457634e487b7160e01b600052601260045260246000fd5b500490565b60005b83811015620010665781810151838201526020016200104c565b50506000910152565b7f416363657373436f6e74726f6c3a206163636f756e7420000000000000000000815260008351620010a981601785016020880162001049565b7001034b99036b4b9b9b4b733903937b6329607d1b6017918401918201528351620010dc81602884016020880162001049565b01602801949350505050565b60208152600082518060208401526200110981604085016020870162001049565b601f01601f19169190910160400192915050565b60008160001904831182151516156200113a576200113a62001010565b500290565b808201808211156200058a576200058a62001010565b634e487b7160e01b600052603260045260246000fd5b6000816200117d576200117d62001010565b506000190190565b615d5f80620011956000396000f3fe608060405234801561001057600080fd5b50600436106103785760003560e01c806380f55605116101d3578063bf02e92f11610104578063e43581b8116100a2578063e873557a1161007c578063e873557a14610a25578063f00e963e14610a38578063f8c808b214610a41578063fa9c7b9a14610a4957600080fd5b8063e43581b8146109ec578063e6574ee9146109ff578063e65896c914610a1257600080fd5b8063cbc0a562116100de578063cbc0a562146108a7578063cefc4993146108b0578063d547741f146109b2578063d6585ecf146109c557600080fd5b8063bf02e92f14610874578063c5f1916c14610881578063c70fbda01461089457600080fd5b806397c4fac711610171578063a217fddf1161014b578063a217fddf14610833578063a42d66021461083b578063a9f97b681461084e578063aa407ae11461086157600080fd5b806397c4fac7146107f05780639b497ec8146107f95780639d36b7591461082057600080fd5b80638fa1967c116101ad5780638fa1967c146106635780639027b59e146106a057806391d148541461077357806394b661e9146107ac57600080fd5b806380f55605146106405780638456cb591461065357806389fd335b1461065b57600080fd5b80633f4ba83a116102ad578063632b6b111161024b57806376c469b61161022557806376c469b614610542578063793962d8146105555780637f338ecf146105f157806380e864fe1461062d57600080fd5b8063632b6b111461051d57806369395df414610526578063751cd5291461053957600080fd5b806345a153881161028757806345a15388146104ee5780634bc36bd6146104f6578063535c2b10146105095780635c975abb1461051257600080fd5b80633f4ba83a146104ca5780633fd8b02f146104d257806343a4fee0146104db57600080fd5b8063248a9ca31161031a5780632f2ff15d116102f45780632f2ff15d1461048857806336568abe1461049b5780633876d055146104ae5780633d7bfaaa146104c157600080fd5b8063248a9ca31461043e5780632500f2b6146104625780632d3eb79b1461047557600080fd5b806310bace8c1161035657806310bace8c146103e757806314627834146103ef578063151d7fad146104165780631a3660d51461042957600080fd5b806301ffc9a71461037d5780630af96800146103a55780630fd9fac1146103d0575b600080fd5b61039061038b3660046153f4565b610a5c565b60405190151581526020015b60405180910390f35b600d546103b8906001600160a01b031681565b6040516001600160a01b03909116815260200161039c565b6103d960035481565b60405190815260200161039c565b6103d9610af5565b6103d97f35a7846a2a701fff6f9d61a46ebff5da578c5dcee8bdf361c569f9ea4ee6477181565b6103d961042436600461544b565b610b81565b61043c61043736600461547e565b610bae565b005b6103d961044c36600461551c565b6000908152600160208190526040909120015490565b61039061047036600461544b565b610f4d565b6103d961048336600461544b565b610f8d565b61043c610496366004615535565b61103f565b61043c6104a9366004615535565b61106a565b6103d96104bc36600461544b565b6110f6565b6103d960095481565b61043c61123d565b6103d9600a5481565b6103d96104e9366004615576565b611272565b6103d961188c565b600c546103b8906001600160a01b031681565b6103d960055481565b60005460ff16610390565b6103d960025481565b6103d961053436600461544b565b611a59565b6103d960085481565b6103d961055036600461544b565b611bce565b6105c561056336600461544b565b6040805160608082018352600080835260208084018290529284018190526001600160a01b039490941684526019825292829020825193840183528054600f81810b8652600160801b909104810b9285019290925260010154900b9082015290565b604080518251600f90810b8252602080850151820b908301529282015190920b9082015260600161039c565b6103d96105ff36600461544b565b6001600160a01b03166000908152601a6020526040902060010154600160801b90046001600160801b031690565b6103d961063b36600461544b565b611c24565b600e546103b8906001600160a01b031681565b61043c611c56565b6103d9611c88565b6106766106713660046155c5565b611d4c565b6040805195865260208601949094529284019190915260608301521515608082015260a00161039c565b6107666040805161010081018252600080825260208201819052918101829052606081018290526080810182905260a0810182905260c0810182905260e081019190915250604080516101008101825260105467ffffffffffffffff8082168352680100000000000000008204166020830152600160801b90819004600f0b9282019290925260115460608201526012546001600160801b03808216608084015290839004811660a083015260135480821660c08401529290920490911660e082015290565b60405161039c9190615627565b610390610781366004615535565b60009182526001602090815260408084206001600160a01b0393909316845291905290205460ff1690565b6107bf6107ba3660046156dc565b6121f1565b60408051968752602087019590955293850192909252606084015215156080830152151560a082015260c00161039c565b6103d960065481565b60145461080d90600160801b9004600f0b81565b604051600f9190910b815260200161039c565b61039061082e36600461544b565b6123f2565b6103d9600081565b61039061084936600461544b565b612413565b61043c61085c366004615735565b612469565b6103d961086f36600461544b565b6127ce565b60145461080d90600f0b81565b600b546103b8906001600160a01b031681565b6105c56108a236600461544b565b612841565b6103d960045481565b6109a56108be36600461544b565b6040805161010081018252600080825260208201819052918101829052606081018290526080810182905260a0810182905260c0810182905260e0810191909152506001600160a01b03166000908152601a60209081526040918290208251610100810184528154600f81810b8352600160801b91829004810b9483019490945260018301549384900b948201949094526001600160801b039284900483166060820152600282015467ffffffffffffffff81166080830152680100000000000000009004831660a082015260039091015480831660c0830152929092041660e082015290565b60405161039c9190615792565b61043c6109c0366004615535565b6128b8565b6103d97f5c91514091af31f62f596a314af7d5be40146b2f2355969392f055e12e0982fb81565b6103906109fa36600461544b565b6128de565b600f546103b8906001600160a01b031681565b6103d9610a2036600461544b565b61291e565b6103d9610a3336600461544b565b6129ca565b6103d960075481565b61043c612a8a565b6103d9610a5736600461544b565b612a9c565b60007fffffffff0000000000000000000000000000000000000000000000000000000082167f7965db0b000000000000000000000000000000000000000000000000000000001480610aef57507f01ffc9a7000000000000000000000000000000000000000000000000000000007fffffffff000000000000000000000000000000000000000000000000000000008316145b92915050565b600b54604080517f58c0994a00000000000000000000000000000000000000000000000000000000815290516000926001600160a01b0316916358c0994a9160048083019260209291908290030181865afa158015610b58573d6000803e3d6000fd5b505050506040513d601f19601f82011682018060405250810190610b7c91906157fd565b905090565b6001600160a01b0381166000908152601a602052604081208054610ba790600f0b612ec7565b9392505050565b7f35a7846a2a701fff6f9d61a46ebff5da578c5dcee8bdf361c569f9ea4ee64771610bd881612ed2565b6702c68af0bb14000082606001511280610bfd5750678ac7230489e800008260600151135b15610c455781606001516040517f965f0266000000000000000000000000000000000000000000000000000000008152600401610c3c91815260200190565b60405180910390fd5b655af3107a40008260a001511280610c675750662386f26fc100008260a00151135b15610ca6578160a001516040517f114cd9a9000000000000000000000000000000000000000000000000000000008152600401610c3c91815260200190565b670de0b6b3a76400008260c001511280610ccc57506801158e460913d000008260c00151135b15610d0b578160c001516040517f9b428e67000000000000000000000000000000000000000000000000000000008152600401610c3c91815260200190565b68056bc75e2d6310000082608001511015610d5a5781608001516040517fd7e5e082000000000000000000000000000000000000000000000000000000008152600401610c3c91815260200190565b603c82604001511080610d725750610e108260400151115b15610db15781604001516040517f3442600a000000000000000000000000000000000000000000000000000000008152600401610c3c91815260200190565b6102588260e001511080610dcb575062278d008260e00151115b15610e0a578160e001516040517fa9847eb2000000000000000000000000000000000000000000000000000000008152600401610c3c91815260200190565b8151670de0b6b3a76400001180610e2a575081516802b5e3af16b1880000105b15610e675781516040517f1b12f7aa0000000000000000000000000000000000000000000000000000000081526004810191909152602401610c3c565b81516002556020820151600355606082015160055560a082015160065560c082015160075560408201516004556080820151600881905560e0830151600a908155610eb191615842565b600955815160208301516040808501516060860151608087015160a088015160c089015160e08a015195517f480417ee7b28b652887593c9d8a9ff3f3031da377b545837310f9c111d61f24a98610f4198909790969594939291978852602088019690965260408701949094526060860192909252608085015260a084015260c083015260e08201526101000190565b60405180910390a15050565b6001600160a01b03811660009081527f0298389358dc4e56cb082b3bb11d0524b39b30d4fc48a48562a008cd6edee05f602052604081205460ff16610aef565b6001600160a01b038116600090815260196020908152604080832081516060810183528154600f81810b8352600160801b909104810b94820194909452600182015490930b9183019190915290610fe390612edc565b610ff05750600092915050565b80546001820154601080549092600160801b90819004600f90810b93600085139361103593859392830b929104900b61102886612ec7565b611030610af5565b612f0c565b9695505050505050565b6000828152600160208190526040909120015461105b81612ed2565b6110658383612f52565b505050565b6001600160a01b03811633146110e85760405162461bcd60e51b815260206004820152602f60248201527f416363657373436f6e74726f6c3a2063616e206f6e6c792072656e6f756e636560448201527f20726f6c657320666f722073656c6600000000000000000000000000000000006064820152608401610c3c565b6110f28282612fd9565b5050565b600061110061305c565b600d546001600160a01b0316331461112b5760405163080e4ebb60e01b815260040160405180910390fd5b6001600160a01b0382166000908152601a60205260409020601061114d6130af565b611156826130fd565b611164575060009392505050565b60006111708383613122565b6001840154835491925061119b916000841391600f90810b91600160801b9004900b61102885612ec7565b8254600185015460408051848152600160801b909304600f90810b60208501529190910b8282015260006060830152519195506001600160a01b038716917f06205840555899977c9e76c92ecff9a93fd13e525acfc065f572a37850b5a1309181900360800190a2505460019190910180546fffffffffffffffffffffffffffffffff1916600160801b9092046001600160801b03169190911790555b919050565b7f5c91514091af31f62f596a314af7d5be40146b2f2355969392f055e12e0982fb61126781612ed2565b61126f6131fb565b50565b600061127c61305c565b600d546001600160a01b031633146112a75760405163080e4ebb60e01b815260040160405180910390fd5b6001600160a01b0384166000908152601a6020526040902060106112d4853567016345785d8a000061324d565b61131b6113166112fc6112e5610af5565b6112f68a60015b6020020135612ac0565b90613259565b6113078960006112ec565b611311919061586c565b612ec7565b613265565b1115611353576040517fd9bc2c9500000000000000000000000000000000000000000000000000000000815260040160405180910390fd5b6040805180820182526000918790600290839083908082843760009201919091525091925061138591508490506130fd565b156113df5761139c6113978484613270565b612ac0565b93506000806113ab85856132d2565b84519193509150819084906113c190839061588c565b90525081836001602002018181516113d9919061588c565b90525050505b600c54815160405163140e25ad60e31b815260048101919091526001600160a01b039091169063a0712d6890602401600060405180830381600087803b15801561142857600080fd5b505af115801561143c573d6000803e3d6000fd5b5050600b54602084015160405163140e25ad60e31b815260048101919091526001600160a01b03909116925063a0712d689150602401600060405180830381600087803b15801561148c57600080fd5b505af11580156114a0573d6000803e3d6000fd5b5050600e546040517f0b4c7e4d000000000000000000000000000000000000000000000000000000008152600093506001600160a01b039091169150630b4c7e4d906114f29085908a9060040161589f565b6020604051808303816000875af1158015611511573d6000803e3d6000fd5b505050506040513d601f19601f8201168201806040525081019061153591906157fd565b905060405180610100016040528061157061155c8a6000600281106112ec576112ec615856565b875461156b9190600f0b61586c565b612b63565b600f0b815260200161159c6115868a60016112ec565b875461156b9190600160801b9004600f0b61586c565b600f90810b82528554600160801b9081900490910b602083015260018701546040909201916115e0916115db9186916001600160801b039104166158d7565b613473565b6001600160801b031681526020016115f742612b6e565b67ffffffffffffffff1681526020018460020160109054906101000a90046001600160801b03166001600160801b031681526020018460030160009054906101000a90046001600160801b03166001600160801b031681526020018460030160109054906101000a90046001600160801b03166001600160801b0316815250601a60008a6001600160a01b03166001600160a01b0316815260200190815260200160002060008201518160000160006101000a8154816001600160801b030219169083600f0b6001600160801b0316021790555060208201518160000160106101000a8154816001600160801b030219169083600f0b6001600160801b0316021790555060408201518160010160006101000a8154816001600160801b030219169083600f0b6001600160801b0316021790555060608201518160010160106101000a8154816001600160801b0302191690836001600160801b0316021790555060808201518160020160006101000a81548167ffffffffffffffff021916908367ffffffffffffffff16021790555060a08201518160020160086101000a8154816001600160801b0302191690836001600160801b0316021790555060c08201518160030160006101000a8154816001600160801b0302191690836001600160801b0316021790555060e08201518160030160106101000a8154816001600160801b0302191690836001600160801b0316021790555090505060008760006002811061182657611826615856565b6020020135846001015461183a91906158d7565b9050600354811115611878576040517f2438901900000000000000000000000000000000000000000000000000000000815260040160405180910390fd5b600190930192909255509195945050505050565b6000611896611c88565b6000036118f057600e60009054906101000a90046001600160a01b03166001600160a01b031663c146bf946040518163ffffffff1660e01b8152600401602060405180830381865afa158015610b58573d6000803e3d6000fd5b67016345785d8a00006000611910611909611316610af5565b839061347e565b600f54600e54604051637890e67360e11b81526001600160a01b039182166004820152600060248201819052600160448301526064820187905293945091169063f121cce690608401602060405180830381865afa158015611976573d6000803e3d6000fd5b505050506040513d601f19601f8201168201806040525081019061199a91906157fd565b600f54600e54604051637890e67360e11b81526001600160a01b039182166004820152600160248201526000604482018190526064820187905293945091169063f121cce690608401602060405180830381865afa158015611a00573d6000803e3d6000fd5b505050506040513d601f19601f82011682018060405250810190611a2491906157fd565b90506002611a32858461347e565b611a3c838661347e565b611a4691906158d7565b611a509190615842565b94505050505090565b600d546000906001600160a01b03163314611a875760405163080e4ebb60e01b815260040160405180910390fd5b611a8f61305c565b6001600160a01b03821660009081526019602052604090206010611ab16130af565b604080516060810182528354600f81810b8352600160801b909104810b60208301526001850154900b91810191909152611aea90612edc565b611af8575060009392505050565b815460018301548254611b2d926000600160801b91829004600f90810b91821394810b939290920490910b9061102890612ec7565b815460018481015460408051858152600160801b909404600f90810b60208601529190910b9083015260608201529093506001600160a01b038516907f06205840555899977c9e76c92ecff9a93fd13e525acfc065f572a37850b5a1309060800160405180910390a25460019190910180546fffffffffffffffffffffffffffffffff1916600160801b9092046001600160801b0316919091179055919050565b6001600160a01b038116600090815260196020908152604080832081516060810183528154600f81810b8352600160801b909104810b94820194909452600182015490930b9183019190915290610ba79061348a565b6001600160a01b0381166000908152601a60205260408120601082611c498383613588565b905060006110358261348a565b7f5c91514091af31f62f596a314af7d5be40146b2f2355969392f055e12e0982fb611c8081612ed2565b61126f613781565b600e54604080517ffc0c546a00000000000000000000000000000000000000000000000000000000815290516000926001600160a01b03169163fc0c546a9160048083019260209291908290030181865afa158015611ceb573d6000803e3d6000fd5b505050506040513d601f19601f82011682018060405250810190611d0f91906158ea565b6001600160a01b03166318160ddd6040518163ffffffff1660e01b8152600401602060405180830381865afa158015610b58573d6000803e3d6000fd5b6000806000806000611d5c61305c565b600d546001600160a01b03163314611d875760405163080e4ebb60e01b815260040160405180910390fd5b6001600160a01b038b166000908152601a602052604090206001810154600160801b90046001600160801b03168b1115611ded576040517f234782ce00000000000000000000000000000000000000000000000000000000815260040160405180910390fd5b86158015611e155750600a546002820154611e12919067ffffffffffffffff166158d7565b42105b15611e6b57600a546002820154611e36919067ffffffffffffffff166158d7565b6040517ffb785a04000000000000000000000000000000000000000000000000000000008152600401610c3c91815260200190565b611e79611397826010613270565b611e839087615907565b6040805161010080820183528454600f81810b8452600160801b91829004810b602080860191909152600188015480830b868801526001600160801b0390849004811660608088019190915260028a015467ffffffffffffffff8082166080808b01919091526801000000000000000092839004851660a0808c019190915260038e015480871660c0808e0191909152908a9004871660e0808e01919091528d519b8c018e526010548086168d52958604909416978b01979097529288900490960b99880199909952601154918701919091526012548083169487019490945292849004811692850192909252601354808316918501919091529190910416928101929092529197506000918291611f9d91908f8f6137be565b60018501549193509150611fc2908e90600160801b90046001600160801b031661347e565b95506000806040518060600160405280611fff611fec611fe18c612ac0565b8954600f0b90613259565b611ff588612ac0565b61156b9190615907565b600f0b81526020016120316120286120168c612ac0565b8954600160801b9004600f0b90613259565b611ff587612ac0565b600f0b81526000602090910152905061204c818e8e8e613c88565b909a509750915061205d828b615907565b9950505061207c61206d83612ac0565b845461156b9190600f0b615907565b83546fffffffffffffffffffffffffffffffff19166001600160801b03919091161783556120c26120ac82612ac0565b845461156b9190600160801b9004600f0b615907565b8360000160106101000a8154816001600160801b030219169083600f0b6001600160801b0316021790555061211c8d8460010160109054906101000a90046001600160801b03166001600160801b03166115db919061588c565b6001840180546001600160801b03908116600160801b938216840290811783556010546fffffffffffffffffffffffffffffffff1990911693900416919091179055612167836130fd565b6121c4576001600160a01b038e166000908152601a6020526040812081815560018082018390556002820180547fffffffffffffffff00000000000000000000000000000000000000000000000016905560039091019190915593505b81601060010160008282546121d9919061588c565b92505081905550505050965096509650965096915050565b60008060008060008061220261305c565b600d546001600160a01b0316331461222d5760405163080e4ebb60e01b815260040160405180910390fd5b6001600160a01b038b16600090815260196020908152604080832080548251606081018452600f82810b8252600160801b909204820b948101859052600183015490910b92810192909252929061228390612edc565b15905080806122c457508a600181111561229f5761229f61592f565b600083136122ae5760016122b1565b60005b60018111156122c2576122c261592f565b145b156122f0576122d58e8e8d8f613d91565b919a5098509550600194506122e986615945565b9650612308565b6122fb8e8e8e613e77565b939c50919a509850965093505b896123675761232161231c6113168b612ec7565b61404a565b6008546012546001600160801b031610612367576040517fd64c719800000000000000000000000000000000000000000000000000000000815260040160405180910390fd5b600954835461237c9061131690600f0b612ec7565b11806123ab57506009546123a9611316612394610af5565b86546112f690600160801b9004600f0b612ec7565b115b156123e2576040517f4119d76700000000000000000000000000000000000000000000000000000000815260040160405180910390fd5b5050509550955095509550955095565b6001600160a01b0381166000908152601a60205260408120610ba7816130fd565b6001600160a01b038116600090815260196020908152604080832081516060810183528154600f81810b8352600160801b909104810b94820194909452600182015490930b9183019190915290610ba790612edc565b6001600160a01b0386166000908152601a6020908152604091829020825161010080820185528254600f81810b8452600160801b91829004810b84870152600185015480820b858901526001600160801b03908390048116606080870191909152600287015467ffffffffffffffff8082166080808a01919091526801000000000000000092839004851660a0808b019190915260038b015480871660c0808d019190915290899004871660e0808d01919091528e519a8b018f526010548086168c529586049094169c8a019c909c529287900490950b9a87019a909a5260115491860191909152601254808316938601939093529183900481169184019190915260135480821696840196909652940490931693830193909352916125909188886137be565b5060009050808460018111156125a8576125a861592f565b1480156125b25750825b1561264457600f54600e54604051637890e67360e11b81526001600160a01b03918216600482015260006024820152600160448201526064810188905291169063f121cce6906084015b602060405180830381865afa158015612619573d6000803e3d6000fd5b505050506040513d601f19601f8201168201806040525081019061263d91906157fd565b90506127c3565b60008460018111156126585761265861592f565b148015612663575082155b156126c057600e546040517f556d6e9f0000000000000000000000000000000000000000000000000000000081526000600482015260016024820152604481018790526001600160a01b039091169063556d6e9f906064016125fc565b60018460018111156126d4576126d461592f565b1480156126de5750825b1561272c57600f54600e54604051637890e67360e11b81526001600160a01b03918216600482015260016024820152600060448201526064810188905291169063f121cce6906084016125fc565b600e546040517f556d6e9f0000000000000000000000000000000000000000000000000000000081526001600482015260006024820152604481018790526001600160a01b039091169063556d6e9f90606401602060405180830381865afa15801561279c573d6000803e3d6000fd5b505050506040513d601f19601f820116820180604052508101906127c091906157fd565b90505b604051818152602081fd5b6001600160a01b0381166000908152601a602052604081206127ef816130fd565b6127fc5750600092915050565b6010600061280a8383613588565b6020810151604082015184549293506000600f92830b90811393611035938593810b92600160801b909204900b9061102890612ec7565b60408051606081018252600080825260208083018290528284018290526001600160a01b0385168252601a905291909120601061287d826130fd565b6128a6575050604080516060810182526000808252602082018190529181019190915292915050565b6128b08282613588565b949350505050565b600082815260016020819052604090912001546128d481612ed2565b6110658383612fd9565b6001600160a01b03811660009081527fb362ad12718a050f496360835a03255b1ac715ba74ff1c18876652b6e71032ad602052604081205460ff16610aef565b6001600160a01b0381166000908152601960209081526040808320601a835281842082516060810184528254600f81810b8352600160801b909104810b95820195909552600183015490940b928401929092529161297b90612edc565b156129995761298c61131183614091565b6129969084615907565b92505b6129a2816130fd565b156129c3576129b96007546112f661131184614091565b6128b09084615907565b5050919050565b6001600160a01b0381166000908152601960209081526040808320601a835281842082516060810184528254600f81810b8352600160801b909104810b95820195909552600183015490940b9284019290925291612a2790612edc565b15612a4257612a3584611bce565b612a3f9084615907565b92505b612a4b816130fd565b156129c35760106000612a5e8383613588565b9050612a6d61139784846140dd565b612a768261348a565b612a809190615907565b6110359086615907565b612a9261305c565b612a9a6130af565b565b6001600160a01b0381166000908152601a6020526040812060106128b082826140dd565b6000610aef825b60007f7fffffffffffffffffffffffffffffffffffffffffffffffffffffffffffffff821115612b5f5760405162461bcd60e51b815260206004820152602860248201527f53616665436173743a2076616c756520646f65736e27742066697420696e206160448201527f6e20696e743235360000000000000000000000000000000000000000000000006064820152608401610c3c565b5090565b6000610aef82612b79565b6000610aef82612c1e565b60006f7fffffffffffffffffffffffffffffff198212801590612bac57506f7fffffffffffffffffffffffffffffff8213155b612b5f5760405162461bcd60e51b815260206004820152602760248201527f53616665436173743a2076616c756520646f65736e27742066697420696e203160448201527f32382062697473000000000000000000000000000000000000000000000000006064820152608401610c3c565b600067ffffffffffffffff821115612b5f5760405162461bcd60e51b815260206004820152602660248201527f53616665436173743a2076616c756520646f65736e27742066697420696e203660448201527f34206269747300000000000000000000000000000000000000000000000000006064820152608401610c3c565b60606000612cad83600261595a565b612cb89060026158d7565b67ffffffffffffffff811115612cd057612cd0615468565b6040519080825280601f01601f191660200182016040528015612cfa576020820181803683370190505b5090507f300000000000000000000000000000000000000000000000000000000000000081600081518110612d3157612d31615856565b60200101907effffffffffffffffffffffffffffffffffffffffffffffffffffffffffffff1916908160001a9053507f780000000000000000000000000000000000000000000000000000000000000081600181518110612d9457612d94615856565b60200101907effffffffffffffffffffffffffffffffffffffffffffffffffffffffffffff1916908160001a9053506000612dd084600261595a565b612ddb9060016158d7565b90505b6001811115612e78577f303132333435363738396162636465660000000000000000000000000000000085600f1660108110612e1c57612e1c615856565b1a60f81b828281518110612e3257612e32615856565b60200101907effffffffffffffffffffffffffffffffffffffffffffffffffffffffffffff1916908160001a90535060049490941c93612e7181615979565b9050612dde565b508315610ba75760405162461bcd60e51b815260206004820181905260248201527f537472696e67733a20686578206c656e67746820696e73756666696369656e746044820152606401610c3c565b6000610aef8261413c565b61126f8133614190565b8051600090600f0b151580612ef757506020820151600f0b15155b15612f0457506001919050565b506000919050565b6000838514612f4957600086612f2b57612f26868661586c565b612f35565b612f35858761586c565b9050612f45836112f68387613259565b9150505b95945050505050565b60008281526001602090815260408083206001600160a01b038516845290915290205460ff166110f25760008281526001602081815260408084206001600160a01b0386168086529252808420805460ff19169093179092559051339285917f2f8788117e7eff1d82e926ec794901d17c78024a50270940304540a733656f0d9190a45050565b60008281526001602090815260408083206001600160a01b038516845290915290205460ff16156110f25760008281526001602090815260408083206001600160a01b0385168085529252808320805460ff1916905551339285917ff6391f5c32d9c69d2a47ea670b442974b53935d1edc7fd64eb21e047a839171b9190a45050565b60005460ff1615612a9a5760405162461bcd60e51b815260206004820152601060248201527f5061757361626c653a20706175736564000000000000000000000000000000006044820152606401610c3c565b6130b761305c565b60108054429067ffffffffffffffff1680821115611065576130d7614210565b6130df6143f4565b611065601280546fffffffffffffffffffffffffffffffff19169055565b6001810154600090600160801b90046001600160801b031615612f0457506001919050565b60008061312d611c88565b600185810154600e54604051634903b0d160e01b815260048101939093529293506000926131d8928592600160801b90046001600160801b0316916001600160a01b031690634903b0d190602401602060405180830381865afa158015613198573d6000803e3d6000fd5b505050506040513d601f19601f820116820180604052508101906131bc91906157fd565b6003808a0154908901546001600160801b039182169116614524565b508554909150600160801b9004600f0b6131f182612ac0565b612f499190615907565b613203614591565b6000805460ff191690557f5db9ee0a495bf2e6ff9c91a7834c1ba4fdd244a5e8aa4e537bd38aeae4b073aa335b6040516001600160a01b03909116815260200160405180910390a1565b6000610ba783836145e3565b6000610ba783836145ef565b6000610aef826146ff565b600061327c83836140dd565b6002928301549390920180547fffffffffffffffff00000000000000000000000000000000ffffffffffffffff16600160801b9094046001600160801b0316680100000000000000000293909317909255919050565b60008060006132df611c88565b6001860154600e54604051634903b0d160e01b81526000600482018190529394508392613397928692600160801b9092046001600160801b0316916001600160a01b0390911690634903b0d190602401602060405180830381865afa15801561334c573d6000803e3d6000fd5b505050506040513d601f19601f8201168201806040525081019061337091906157fd565b6003808c0154908b01546001600160801b03600160801b9283900481169290910416614524565b90925090506133a6828261588c565b600188810154600e54604051634903b0d160e01b815260048101939093529296506000928392613456928892600160801b9091046001600160801b0316916001600160a01b0390911690634903b0d190602401602060405180830381865afa158015613416573d6000803e3d6000fd5b505050506040513d601f19601f8201168201806040525081019061343a91906157fd565b6003808e0154908d01546001600160801b039182169116614524565b9092509050613465828261588c565b965050505050509250929050565b6000610aef82614751565b6000610ba783836147d0565b600080613495610af5565b905060006134b3828560200151600f0b61325990919063ffffffff16565b905060006134c3600a601261588c565b6134ce90600a615a74565b600e60009054906101000a90046001600160a01b03166001600160a01b031663ee8de6756040518163ffffffff1660e01b8152600401602060405180830381865afa158015613521573d6000803e3d6000fd5b505050506040513d601f19601f8201168201806040525081019061354591906157fd565b61354f919061595a565b9050600061356861355f83612ac0565b6112f685612ec7565b905080838760000151600f0b61357e9190615907565b611035919061586c565b60408051606081018252600080825260208201819052918101829052906135ad611c88565b6001850154600e54604051634903b0d160e01b8152600060048201819052939450613663928592600160801b9091046001600160801b0316916001600160a01b0390911690634903b0d190602401602060405180830381865afa158015613618573d6000803e3d6000fd5b505050506040513d601f19601f8201168201806040525081019061363c91906157fd565b6003808a0154908901546001600160801b03600160801b9283900481169290910416614524565b50600186810154600e54604051634903b0d160e01b8152600481019390935292935060009261370f928692600160801b90046001600160801b0316916001600160a01b031690634903b0d190602401602060405180830381865afa1580156136cf573d6000803e3d6000fd5b505050506040513d601f19601f820116820180604052508101906136f391906157fd565b6003808b0154908a01546001600160801b039182169116614524565b509050604051806060016040528061373861372985612ac0565b895461156b9190600f0b615907565b600f0b815260200161376261374c84612ac0565b895461156b9190600160801b9004600f0b615907565b600f90810b82526001890154900b602090910152935050505092915050565b61378961305c565b6000805460ff191660011790557f62e78cea01bee320cd4e420270b5ea74000d11b0c9f74754ebdbfc544b05a2586132303390565b600c546040516370a0823160e01b8152306004820152600091829182916001600160a01b0316906370a0823190602401602060405180830381865afa15801561380b573d6000803e3d6000fd5b505050506040513d601f19601f8201168201806040525081019061382f91906157fd565b600b546040516370a0823160e01b81523060048201529192506000916001600160a01b03909116906370a0823190602401602060405180830381865afa15801561387d573d6000803e3d6000fd5b505050506040513d601f19601f820116820180604052508101906138a191906157fd565b600e546040517f5b36389c0000000000000000000000000000000000000000000000000000000081529192506001600160a01b031690635b36389c906138ed9089908990600401615a80565b600060405180830381600087803b15801561390757600080fd5b505af115801561391b573d6000803e3d6000fd5b5050600c54600e546040516370a0823160e01b81526001600160a01b03918216600482015260019450911691506370a0823190602401602060405180830381865afa15801561396e573d6000803e3d6000fd5b505050506040513d601f19601f8201168201806040525081019061399291906157fd565b111580613a125750600b54600e546040516370a0823160e01b81526001600160a01b03918216600482015260019291909116906370a0823190602401602060405180830381865afa1580156139eb573d6000803e3d6000fd5b505050506040513d601f19601f82011682018060405250810190613a0f91906157fd565b11155b15613a49576040517f22e04da300000000000000000000000000000000000000000000000000000000815260040160405180910390fd5b600c546040516370a0823160e01b81523060048201526000916001600160a01b0316906370a0823190602401602060405180830381865afa158015613a92573d6000803e3d6000fd5b505050506040513d601f19601f82011682018060405250810190613ab691906157fd565b600b546040516370a0823160e01b81523060048201529192506000916001600160a01b03909116906370a0823190602401602060405180830381865afa158015613b04573d6000803e3d6000fd5b505050506040513d601f19601f82011682018060405250810190613b2891906157fd565b90506000613b36858461588c565b90506000613b44858461588c565b600c54604051630852cd8d60e31b8152600481018590529192506001600160a01b0316906342966c6890602401600060405180830381600087803b158015613b8b57600080fd5b505af1158015613b9f573d6000803e3d6000fd5b5050600b54604051630852cd8d60e31b8152600481018590526001600160a01b0390911692506342966c689150602401600060405180830381600087803b158015613be957600080fd5b505af1158015613bfd573d6000803e3d6000fd5b50505050613c3b8c60e001518c60e00151670de0b6b3a7640000613c219190615a96565b613c2b9190615ab6565b83906001600160801b031661347e565b9750613c778c60c001518c60c00151670de0b6b3a7640000613c5d9190615a96565b613c679190615ab6565b82906001600160801b031661347e565b965050505050505094509492505050565b6000806000806000613ca78960008b60200151600f0b13158a8a6147e5565b9098509650909450909250905085613d0e57613cc861231c61131685612ec7565b6008546012546001600160801b031610613d0e576040517fd64c719800000000000000000000000000000000000000000000000000000000815260040160405180910390fd5b613d24828a60200151600f0b61156b9190615907565b600f90810b60208b01528951613d409161156b9184910b615907565b600f0b8952613d4e89612edc565b15613d85576040517fab7cee1900000000000000000000000000000000000000000000000000000000815260040160405180910390fd5b50509450945094915050565b6001600160a01b0384166000908152601960205260408120819081908180876001811115613dc157613dc161592f565b149050613dcf88828861498c565b84549297509095509350613deb9061156b908790600f0b615907565b82546fffffffffffffffffffffffffffffffff19166001600160801b039190911617808355613e299061156b908690600160801b9004600f0b615907565b82546001600160801b03908116600160801b9282168302178455601054600190940180546fffffffffffffffffffffffffffffffff1916929094041617909155509196909550909350915050565b6001600160a01b038316600090815260196020908152604080832081516060810183528154600f81810b8352600160801b909104810b94820194909452600182015490930b91830191909152829182918291829190613ed590612edc565b613f0b576040517f4a7ebe1900000000000000000000000000000000000000000000000000000000815260040160405180910390fd5b604080516060810182528254600f81810b8352600160801b909104810b60208301819052600185015490910b92820192909252600091613f4f919083138b8b6147e5565b8654939b509399509750919550909150613f719061156b908390600f0b615907565b82546fffffffffffffffffffffffffffffffff19166001600160801b039190911617808355613faf9061156b908890600160801b9004600f0b615907565b82546001600160801b03908116600160801b9290911682021780845560408051606081018252600f83810b825293909204830b6020830152600185015490920b91810191909152613fff90612edc565b61403d576001600160a01b038a166000908152601960205260408120908155600190810180546fffffffffffffffffffffffffffffffff1916905592505b5050939792965093509350565b601254614065906115db9083906001600160801b03166158d7565b601280546fffffffffffffffffffffffffffffffff19166001600160801b039290921691909117905550565b805460009081906140a590600f0b82614a14565b905060006140d160006140cb6140b9610af5565b8754600160801b9004600f0b90613259565b90614a14565b90506128b08183615907565b60028083015490820154600091610ba791614117916001600160801b0368010000000000000000909104811691600160801b900416615ab6565b84546001600160801b0391909116906141369061131690600f0b612ec7565b9061324d565b6000600160ff1b820361417b576040517f741d0b8c00000000000000000000000000000000000000000000000000000000815260040160405180910390fd5b600082126141895781610aef565b5060000390565b60008281526001602090815260408083206001600160a01b038516845290915290205460ff166110f2576141ce816001600160a01b03166014612c9e565b6141d9836020612c9e565b6040516020016141ea929190615afa565b60408051601f198184030181529082905262461bcd60e51b8252610c3c91600401615b7b565b6010544290600090614230906113979067ffffffffffffffff168461588c565b9050600061423c610af5565b90506142488282615bae565b601560008282546142599190615907565b909155506000905061426c61139761188c565b90506142788382615bae565b601760008282546142899190615907565b90915550506010546000906142b49068010000000000000000900467ffffffffffffffff164261588c565b905060045481106143ed576142e56142cb82612ac0565b6016546015546142db919061586c565b61156b9190615c4e565b601480546fffffffffffffffffffffffffffffffff19166001600160801b039290921691909117905561432a61431a82612ac0565b6018546017546142db919061586c565b601480546001600160801b03928316600160801b02921691909117905560155460165560175460185561435c42612b6e565b6010805467ffffffffffffffff9290921668010000000000000000027fffffffffffffffffffffffffffffffff0000000000000000ffffffffffffffff90921691909117905560145460408051600f83810b8252600160801b90930490920b60208301527fd58b1a969d6ffc9c51fce55b333b20b1f3feace5e8a7ec000f124c019823348491015b60405180910390a15b5050505050565b601454601090429060009061442690600f81810b9161441d918391600160801b9004900b615c7c565b600f0b90614a20565b8354909150600090614446906113979067ffffffffffffffff168561588c565b9050600061447162015180836144678660055461325990919063ffffffff16565b6142db9190615bae565b855490915061448b908290600160801b9004600f0b615cbb565b85546001600160801b03918216600160801b0291161785556144ac84612b6e565b85547fffffffffffffffffffffffffffffffffffffffffffffffff00000000000000001667ffffffffffffffff919091161780865560408051600160801b909204600f90810b835283900b60208301527f83b8bd3a9f97bed75f923bfd5746ac7dbb823ba73c2e68e4fa906e29e3da4ab491016143e4565b6000808660000361453a57506000905080614587565b868661454760018861588c565b614551919061595a565b61455b9190615842565b90506145848461457385670de0b6b3a76400006158d7565b61457d919061588c565b829061347e565b91505b9550959350505050565b60005460ff16612a9a5760405162461bcd60e51b815260206004820152601460248201527f5061757361626c653a206e6f74207061757365640000000000000000000000006044820152606401610c3c565b6000610ba78383614a2c565b6000600160ff1b8314806146065750600160ff1b82145b1561463d576040517f3406846c00000000000000000000000000000000000000000000000000000000815260040160405180910390fd5b6000806000851261464e5784614653565b846000035b9150600084126146635783614668565b836000035b905060006146768383614a2c565b90507f7fffffffffffffffffffffffffffffffffffffffffffffffffffffffffffffff8111156146d5576040517fbf79e8d900000000000000000000000000000000000000000000000000000000815260048101829052602401610c3c565b6000198087139086138082186001146146ee57826146f3565b826000035b98975050505050505050565b600080821215612b5f5760405162461bcd60e51b815260206004820181905260248201527f53616665436173743a2076616c7565206d75737420626520706f7369746976656044820152606401610c3c565b60006001600160801b03821115612b5f5760405162461bcd60e51b815260206004820152602760248201527f53616665436173743a2076616c756520646f65736e27742066697420696e203160448201527f32382062697473000000000000000000000000000000000000000000000000006064820152608401610c3c565b6000610ba783670de0b6b3a764000084614b25565b6000806000806000808960200151600f0b90506000808a156148335761480a8a612ac0565b61481390615945565b965061481f8a8a614c0a565b9250905061482c81612ac0565b9750614861565b61483d8a8a614ed2565b9250905061484a81612ac0565b96506148558a612ac0565b61485e90615945565b97505b600061486d848a615907565b905067016345785d8a000061488d611311614886610af5565b8490613259565b136148a85761489b81615166565b6148a5818a61586c565b98505b505060008083136148c65760006148bf848a615907565b13156148d5565b60006148d2848a615907565b12155b90508061490e576040517fe1a7063000000000000000000000000000000000000000000000000000000000815260040160405180910390fd5b600061492e61131661491f86612ec7565b6149288c612ec7565b90614a20565b90506149428861493d85612ac0565b615250565b945061496461495082612ac0565b8e5161495b90615cfa565b600f0b90613259565b965084614971888a61586c565b61497b919061586c565b955050505050945094509450945094565b600080600080600086156149cc576149a388612ac0565b6149ac90615945565b94506149b88887614c0a565b925090506149c581612ac0565b93506149fa565b6149d68887614ed2565b925090506149e388612ac0565b6149ec90615945565b93506149f781612ac0565b94505b614a078561493d84612ac0565b9250505093509350939050565b6000610ba783836152cd565b6000610ba783836152e3565b60008080600019848609848602925082811083820303915050670de0b6b3a76400008110614a89576040517fd31b340200000000000000000000000000000000000000000000000000000000815260048101829052602401610c3c565b600080670de0b6b3a764000086880991506706f05b59d3b1ffff8211905082600003614ac75780670de0b6b3a7640000850401945050505050610aef565b6204000082850304939091119091037d40000000000000000000000000000000000000000000000000000000000002919091177faccb18165bd6fe31ae1cf318dc5b51eee0e1ba569b88cd74c1773b91fac106690201905092915050565b6000808060001985870985870292508281108382030391505080600003614b5f57838281614b5557614b55615816565b0492505050610ba7565b838110614ba2576040517f773cc18c0000000000000000000000000000000000000000000000000000000081526004810182905260248101859052604401610c3c565b600084868809600260036001881981018916988990049182028318808302840302808302840302808302840302808302840302808302840302918202909203026000889003889004909101858311909403939093029303949094049190911702949350505050565b600f54600e54604051637890e67360e11b81526001600160a01b0391821660048201526000602482018190526001604483015260648201869052928392169063f121cce690608401602060405180830381865afa158015614c6f573d6000803e3d6000fd5b505050506040513d601f19601f82011682018060405250810190614c9391906157fd565b600c5460405163140e25ad60e31b8152600481018790529193506001600160a01b03169063a0712d6890602401600060405180830381600087803b158015614cda57600080fd5b505af1158015614cee573d6000803e3d6000fd5b5050600e546040517f5b41b90800000000000000000000000000000000000000000000000000000000815260006004820181905260016024830152604482018990526064820188905293506001600160a01b039091169150635b41b908906084016020604051808303816000875af1158015614d6e573d6000803e3d6000fd5b505050506040513d601f19601f82011682018060405250810190614d9291906157fd565b600b54604051630852cd8d60e31b8152600481018390529192506001600160a01b0316906342966c6890602401600060405180830381600087803b158015614dd957600080fd5b505af1158015614ded573d6000803e3d6000fd5b5050505060008184614dff919061588c565b9050614e94614e7e600b60009054906101000a90046001600160a01b03166001600160a01b03166318160ddd6040518163ffffffff1660e01b8152600401602060405180830381865afa158015614e5a573d6000803e3d6000fd5b505050506040513d601f19601f8201168201806040525081019061190991906157fd565b6013546115db91906001600160801b03166158d7565b601380546fffffffffffffffffffffffffffffffff19166001600160801b0392909216919091179055614ec7818561347e565b925050509250929050565b600f54600e54604051637890e67360e11b81526001600160a01b0391821660048201526001602482015260006044820181905260648201869052928392169063f121cce690608401602060405180830381865afa158015614f37573d6000803e3d6000fd5b505050506040513d601f19601f82011682018060405250810190614f5b91906157fd565b600b5460405163140e25ad60e31b8152600481018790529193506001600160a01b03169063a0712d6890602401600060405180830381600087803b158015614fa257600080fd5b505af1158015614fb6573d6000803e3d6000fd5b5050600e546040517f5b41b90800000000000000000000000000000000000000000000000000000000815260016004820152600060248201819052604482018990526064820188905293506001600160a01b039091169150635b41b908906084016020604051808303816000875af1158015615036573d6000803e3d6000fd5b505050506040513d601f19601f8201168201806040525081019061505a91906157fd565b600c54604051630852cd8d60e31b8152600481018390529192506001600160a01b0316906342966c6890602401600060405180830381600087803b1580156150a157600080fd5b505af11580156150b5573d6000803e3d6000fd5b50505050600081846150c7919061588c565b905061513f615122600c60009054906101000a90046001600160a01b03166001600160a01b03166318160ddd6040518163ffffffff1660e01b8152600401602060405180830381865afa158015614e5a573d6000803e3d6000fd5b6013546115db9190600160801b90046001600160801b03166158d7565b601380546001600160801b03928316600160801b029216919091179055614ec7818561347e565b600d546001600160a01b03166000908152601960205260408120805490919061519a908490600160801b9004600f0b615907565b90506151a581612b63565b82546001600160801b03918216600160801b029116178255600d546151d69061156b906001600160a01b0316611a59565b825483906000906151eb908490600f0b615cbb565b92506101000a8154816001600160801b030219169083600f0b6001600160801b031602179055507ff9e10f997148737ca75bf5718092496b41de12401f7d7348341fcd3d7c545d1a8360405161524391815260200190565b60405180910390a1505050565b600080615260836112f686612ec7565b905061527d6115db60106001015461527784613265565b9061347e565b6012805460109061529f908490600160801b90046001600160801b0316615a96565b92506101000a8154816001600160801b0302191690836001600160801b031602179055508091505092915050565b60008183126152dc5781610ba7565b5090919050565b6000600160ff1b8314806152fa5750600160ff1b82145b15615331576040517fb3c754a300000000000000000000000000000000000000000000000000000000815260040160405180910390fd5b600080600085126153425784615347565b846000035b915060008412615357578361535c565b836000035b9050600061537383670de0b6b3a764000084614b25565b90507f7fffffffffffffffffffffffffffffffffffffffffffffffffffffffffffffff8111156153d2576040517f7cb4bef500000000000000000000000000000000000000000000000000000000815260048101829052602401610c3c565b6000198087139086138082186001146153eb57826146f3565b6146f383615945565b60006020828403121561540657600080fd5b81357fffffffff0000000000000000000000000000000000000000000000000000000081168114610ba757600080fd5b6001600160a01b038116811461126f57600080fd5b60006020828403121561545d57600080fd5b8135610ba781615436565b634e487b7160e01b600052604160045260246000fd5b600061010080838503121561549257600080fd5b6040519081019067ffffffffffffffff821181831017156154c357634e487b7160e01b600052604160045260246000fd5b81604052833581526020840135602082015260408401356040820152606084013560608201526080840135608082015260a084013560a082015260c084013560c082015260e084013560e0820152809250505092915050565b60006020828403121561552e57600080fd5b5035919050565b6000806040838503121561554857600080fd5b82359150602083013561555a81615436565b809150509250929050565b8060408101831015610aef57600080fd5b60008060006080848603121561558b57600080fd5b833561559681615436565b92506155a58560208601615565565b9150606084013590509250925092565b8035801515811461123857600080fd5b60008060008060008060e087890312156155de57600080fd5b86356155e981615436565b9550602087013594506155ff8860408901615565565b93506080870135925060a0870135915061561b60c088016155b5565b90509295509295509295565b60006101008201905067ffffffffffffffff808451168352806020850151166020840152506040830151600f0b6040830152606083015160608301526001600160801b03608084015116608083015260a083015161569060a08401826001600160801b03169052565b5060c08301516156ab60c08401826001600160801b03169052565b5060e08301516156c660e08401826001600160801b03169052565b5092915050565b80356002811061123857600080fd5b600080600080600060a086880312156156f457600080fd5b85356156ff81615436565b9450602086013593506040860135925061571b606087016156cd565b9150615729608087016155b5565b90509295509295909350565b60008060008060008060e0878903121561574e57600080fd5b863561575981615436565b95506020870135945061576f8860408901615565565b93506080870135925061578460a088016156cd565b915061561b60c088016155b5565b6000610100820190508251600f0b82526020830151600f0b60208301526040830151600f0b60408301526001600160801b03606084015116606083015267ffffffffffffffff608084015116608083015260a083015161569060a08401826001600160801b03169052565b60006020828403121561580f57600080fd5b5051919050565b634e487b7160e01b600052601260045260246000fd5b634e487b7160e01b600052601160045260246000fd5b60008261585157615851615816565b500490565b634e487b7160e01b600052603260045260246000fd5b81810360008312801583831316838312821617156156c6576156c661582c565b81810381811115610aef57610aef61582c565b60608101818460005b60028110156158c75781518352602092830192909101906001016158a8565b5050508260408301529392505050565b80820180821115610aef57610aef61582c565b6000602082840312156158fc57600080fd5b8151610ba781615436565b80820182811260008312801582168215821617156159275761592761582c565b505092915050565b634e487b7160e01b600052602160045260246000fd5b6000600160ff1b82036141895761418961582c565b60008160001904831182151516156159745761597461582c565b500290565b6000816159885761598861582c565b506000190190565b600181815b808511156159cb5781600019048211156159b1576159b161582c565b808516156159be57918102915b93841c9390800290615995565b509250929050565b6000826159e257506001610aef565b816159ef57506000610aef565b8160018114615a055760028114615a0f57615a2b565b6001915050610aef565b60ff841115615a2057615a2061582c565b50506001821b610aef565b5060208310610133831016604e8410600b8410161715615a4e575081810a610aef565b615a588383615990565b8060001904821115615a6c57615a6c61582c565b029392505050565b6000610ba783836159d3565b8281526060810160408360208401379392505050565b6001600160801b038181168382160190808211156156c6576156c661582c565b6001600160801b038281168282160390808211156156c6576156c661582c565b60005b83811015615af1578181015183820152602001615ad9565b50506000910152565b7f416363657373436f6e74726f6c3a206163636f756e7420000000000000000000815260008351615b32816017850160208801615ad6565b7f206973206d697373696e6720726f6c65200000000000000000000000000000006017918401918201528351615b6f816028840160208801615ad6565b01602801949350505050565b6020815260008251806020840152615b9a816040850160208701615ad6565b601f01601f19169190910160400192915050565b60007f7fffffffffffffffffffffffffffffffffffffffffffffffffffffffffffffff600084136000841385830485118282161615615bef57615bef61582c565b600160ff1b6000871286820588128184161615615c0e57615c0e61582c565b60008712925087820587128484161615615c2a57615c2a61582c565b87850587128184161615615c4057615c4061582c565b505050929093029392505050565b600082615c5d57615c5d615816565b6000198314600160ff1b83141615615c7757615c7761582c565b500590565b600f82810b9082900b036f7fffffffffffffffffffffffffffffff1981126f7fffffffffffffffffffffffffffffff82131715610aef57610aef61582c565b600f81810b9083900b016f7fffffffffffffffffffffffffffffff81136f7fffffffffffffffffffffffffffffff1982121715610aef57610aef61582c565b600081600f0b6f7fffffffffffffffffffffffffffffff198103615d2057615d2061582c565b6000039291505056fea2646970667358221220423d1c8b8edbebf1df6fa60b9510c4c568e6aad30387507c5a51086b43e48a6b64736f6c6343000810003335a7846a2a701fff6f9d61a46ebff5da578c5dcee8bdf361c569f9ea4ee647715c91514091af31f62f596a314af7d5be40146b2f2355969392f055e12e0982fb",
  "devdoc": {
    "kind": "dev",
    "methods": {
      "changePosition(address,uint256,uint256,uint8,bool)": {
        "details": "Function can be used to extend or reduce a position. Reversing a position is prohibited.",
        "params": {
          "account": "Trader",
          "amount": "Amount in vQuote (if LONG) or vBase (if SHORT) to sell. 18 decimals",
          "direction": "Whether the trader wants to go in the LONG or SHORT direction overall",
          "isLiquidation": "Transaction is a liquidation (true) or a regular transaction (false)",
          "minAmount": "Minimum amount that the user is willing to accept. 18 decimals"
        }
      },
      "getLpFundingPayments(address)": {
        "params": {
          "account": "Address of the liquidity provider"
        }
      },
      "getLpLiquidity(address)": {
        "params": {
          "account": "Liquidity Provider"
        }
      },
      "getLpOpenNotional(address)": {
        "params": {
          "account": "Address of the LP"
        }
      },
      "getLpPosition(address)": {
        "params": {
          "account": "Address to get the LP position from"
        }
      },
      "getLpPositionAfterWithdrawal(address)": {
        "params": {
          "account": "Address to get the LP position from"
        }
      },
      "getLpTradingFees(address)": {
        "params": {
          "account": "Address of the liquidity provider"
        }
      },
      "getLpUnrealizedPnL(address)": {
        "params": {
          "account": "Address of the liquidity provider"
        }
      },
      "getPendingPnL(address)": {
        "params": {
          "account": "Address to get the pnL from"
        }
      },
      "getRoleAdmin(bytes32)": {
        "details": "Returns the admin role that controls `role`. See {grantRole} and {revokeRole}. To change a role's admin, use {_setRoleAdmin}."
      },
      "getTraderFundingPayments(address)": {
        "params": {
          "account": "Trader"
        }
      },
      "getTraderPosition(address)": {
        "params": {
          "account": "Address to get the trading position from"
        }
      },
      "getTraderUnrealizedPnL(address)": {
        "params": {
          "account": "Trader"
        }
      },
      "getUserDebt(address)": {
        "params": {
          "account": "Address to get the pnL from"
        }
      },
      "grantRole(bytes32,address)": {
        "details": "Grants `role` to `account`. If `account` had not been already granted `role`, emits a {RoleGranted} event. Requirements: - the caller must have ``role``'s admin role. May emit a {RoleGranted} event."
      },
      "hasRole(bytes32,address)": {
        "details": "Returns `true` if `account` has been granted `role`."
      },
      "isLpPositionOpen(address)": {
        "params": {
          "account": "Address of the LP"
        }
      },
      "isTraderPositionOpen(address)": {
        "params": {
          "account": "Address of the trader"
        }
      },
      "pause()": {
        "details": "Can only be called by Emergency Admin"
      },
      "paused()": {
        "details": "Returns true if the contract is paused, and false otherwise."
      },
      "provideLiquidity(address,uint256[2],uint256)": {
        "params": {
          "account": "Liquidity provider",
          "amounts": "Amount of virtual tokens ([vQuote, vBase]) provided. 18 decimals",
          "minLpAmount": "Minimum amount of Lp tokens minted. 18 decimals"
        },
        "returns": {
          "tradingFees": "Generated profit generated from trading fees"
        }
      },
      "removeLiquidity(address,uint256,uint256[2],uint256,uint256,bool)": {
        "params": {
          "account": "Account of the LP to remove liquidity from",
          "isLiquidation": "Transaction is a liquidation (true) or a regular transaction (false)",
          "liquidityAmountToRemove": "Amount of liquidity to be removed from the pool. 18 decimals",
          "minAmount": "Minimum amount that the user is willing to accept, in vQuote if LONG, in vBase if SHORT. 18 decimals",
          "minVTokenAmounts": "Minimum amount of virtual tokens [vQuote, vBase] to withdraw from the curve pool. 18 decimals",
          "proposedAmount": "Amount of tokens to be sold, in vBase if LONG, in vQuote if SHORT. 18 decimals"
        },
        "returns": {
          "profit": "Profit realized"
        }
      },
      "removeLiquiditySwap(address,uint256,uint256[2],uint256,uint8,bool)": {
        "details": "Used to compute the proposedAmount parameter needed for removing liquidityTo be statically called from `ClearingHouseViewer.removeLiquiditySwap`",
        "params": {
          "account": "Liquidity Provider",
          "direction": "If Long, vQuote should be traded for vBase otherwise vBase should be traded for vQuote",
          "liquidityAmountToRemove": "Amount of liquidity to be removed from the pool. 18 decimals",
          "minVTokenAmounts": "Minimum amount of virtual tokens [vQuote, vBase] to withdraw from the curve pool. 18 decimals",
          "proposedAmount": "Amount of tokens to be sold, in vBase if LONG, in vQuote if SHORT. 18 decimals",
          "withCurveTradingFees": "Whether or not Curve trading fees should be included"
        }
      },
      "renounceRole(bytes32,address)": {
        "details": "Revokes `role` from the calling account. Roles are often managed via {grantRole} and {revokeRole}: this function's purpose is to provide a mechanism for accounts to lose their privileges if they are compromised (such as when a trusted device is misplaced). If the calling account had been revoked `role`, emits a {RoleRevoked} event. Requirements: - the caller must be `account`. May emit a {RoleRevoked} event."
      },
      "revokeRole(bytes32,address)": {
        "details": "Revokes `role` from `account`. If `account` had been granted `role`, emits a {RoleRevoked} event. Requirements: - the caller must have ``role``'s admin role. May emit a {RoleRevoked} event."
      },
      "setParameters((uint256,uint256,uint256,int256,uint256,int256,int256,uint256))": {
        "details": "Can only be called by Governance",
        "params": {
          "params": "New Economic parameters"
        }
      },
      "settleLp(address)": {
        "params": {
          "account": "Liquidity Provider"
        },
        "returns": {
          "fundingPayments": "Pending funding payments"
        }
      },
      "settleTrader(address)": {
        "params": {
          "account": "Trader"
        },
        "returns": {
          "fundingPayments": "Pending funding payments"
        }
      },
      "supportsInterface(bytes4)": {
        "details": "See {IERC165-supportsInterface}."
      },
      "unpause()": {
        "details": "Can only be called by Emergency Admin"
      },
      "updateGlobalState()": {
        "details": "Can be called by offchain worker to update market conditions"
      }
    },
    "version": 1
  },
  "userdoc": {
    "errors": {
      "PRBMathSD59x18__AbsInputTooSmall()": [
        {
          "notice": "Emitted when the input is MIN_SD59x18."
        }
      ],
      "PRBMathSD59x18__DivInputTooSmall()": [
        {
          "notice": "Emitted when one of the inputs is MIN_SD59x18."
        }
      ],
      "PRBMathSD59x18__DivOverflow(uint256)": [
        {
          "notice": "Emitted when one of the intermediary unsigned results overflows SD59x18."
        }
      ],
      "PRBMathSD59x18__MulInputTooSmall()": [
        {
          "notice": "Emitted when one of the inputs is MIN_SD59x18."
        }
      ],
      "PRBMathSD59x18__MulOverflow(uint256)": [
        {
          "notice": "Emitted when the intermediary absolute result overflows SD59x18."
        }
      ],
      "PRBMath__MulDivFixedPointOverflow(uint256)": [
        {
          "notice": "Emitted when the result overflows uint256."
        }
      ],
      "PRBMath__MulDivOverflow(uint256,uint256)": [
        {
          "notice": "Emitted when the result overflows uint256."
        }
      ],
      "Perpetual_AttemptReducePosition()": [
        {
          "notice": "Emitted when the user attempts to reduce their position using extendPosition"
        }
      ],
      "Perpetual_AttemptReversePosition()": [
        {
          "notice": "Emitted when the user attempts to reverse their position using changePosition"
        }
      ],
      "Perpetual_ExcessiveBlockTradeAmount()": [
        {
          "notice": "Emitted when the price impact of a position is too high"
        }
      ],
      "Perpetual_InsuranceFeeInvalid(int256)": [
        {
          "notice": "Emitted when the proposed insurance fee is insufficient/excessive"
        }
      ],
      "Perpetual_InvalidAdminFee()": [
        {
          "notice": "Emitted when the curve admin fee is invalid"
        }
      ],
      "Perpetual_LPOpenPosition()": [
        {
          "notice": "Emitted when the liquidity provider has an open position"
        }
      ],
      "Perpetual_LPWithdrawExceedsBalance()": [
        {
          "notice": "Emitted when the user attempts to withdraw more liquidity than they have deposited"
        }
      ],
      "Perpetual_LockPeriodInvalid(uint256)": [
        {
          "notice": "Emitted when the proposed lp lock period is insufficient/excessive"
        }
      ],
      "Perpetual_LockPeriodNotReached(uint256)": [
        {
          "notice": "Emitted when the user attempts remove liquidity too early"
        }
      ],
      "Perpetual_LpAmountDeviation()": [
        {
          "notice": "Emitted when the user attempts provide liquidity with skewed ratios"
        }
      ],
      "Perpetual_LpDebtCoefInvalid(int256)": [
        {
          "notice": "Emitted when the proposed lp debt coefficient is insufficient/excessive"
        }
      ],
      "Perpetual_MarketBalanceTooLow()": [
        {
          "notice": "Emitted when a token balance of the market is lte 1"
        }
      ],
      "Perpetual_MaxBlockAmountInvalid(uint256)": [
        {
          "notice": "Emitted when the proposed maximum block trade amount is insufficient"
        }
      ],
      "Perpetual_MaxLiquidityProvided()": [
        {
          "notice": "Emitted when the max tvl is reached"
        }
      ],
      "Perpetual_MaxPositionSize()": [
        {
          "notice": "Emitted when the position exceeds the max position size"
        }
      ],
      "Perpetual_NoOpenPosition()": [
        {
          "notice": "Emitted when the user does not have an open position"
        }
      ],
      "Perpetual_RiskWeightInvalid(uint256)": [
        {
          "notice": "Emitted when the proposed market risk weight is insufficient/excessive"
        }
      ],
      "Perpetual_SenderNotClearingHouse()": [
        {
          "notice": "Emitted when the sender is not the clearing house"
        }
      ],
      "Perpetual_SenderNotClearingHouseOwner()": [
        {
          "notice": "Emitted when the sender is not the clearing house owner"
        }
      ],
      "Perpetual_SensitivityInvalid(int256)": [
        {
          "notice": "Emitted when the proposed funding rate sensitivity is insufficient/excessive"
        }
      ],
      "Perpetual_TwapFrequencyInvalid(uint256)": [
        {
          "notice": "Emitted when the proposed twap frequency is insufficient/excessive"
        }
      ],
      "Perpetual_VirtualTokenApprovalConstructor(uint256)": [
        {
          "notice": "Emitted when the constructor fails to give approval of a virtual token to the market"
        }
      ],
      "Perpetual_ZeroAddressConstructor(uint256)": [
        {
          "notice": "Emitted when the zero address is provided as a parameter in the constructor"
        }
      ]
    },
    "events": {
      "DustGenerated(int256)": {
        "notice": "Emitted when (base) dust is generated"
      },
      "FundingPaid(address,int256,int256,int256,bool)": {
        "notice": "Emitted when funding payments are exchanged for a trader / lp"
      },
      "FundingRateUpdated(int256,int256)": {
        "notice": "Emitted when funding rate is updated"
      },
      "Log(string)": {
        "notice": "Emitted when swap with cryptoswap pool fails"
      },
      "PerpetualParametersChanged(uint256,uint256,uint256,int256,uint256,int256,int256,uint256)": {
        "notice": "Emitted when parameters are updated"
      },
      "TwapUpdated(int256,int256)": {
        "notice": "Emitted when TWAP is updated"
      }
    },
    "kind": "user",
    "methods": {
      "changePosition(address,uint256,uint256,uint8,bool)": {
        "notice": "Open or increase or reduce a position, either LONG or SHORT"
      },
      "clearingHouse()": {
        "notice": "Clearing House contract"
      },
      "curveCryptoViews()": {
        "notice": "Curve Crypto Views"
      },
      "getGlobalPosition()": {
        "notice": "Get global market position"
      },
      "getLpFundingPayments(address)": {
        "notice": "Get the approximate funding payments for a LP"
      },
      "getLpLiquidity(address)": {
        "notice": "Get the lp tokens owned by a Liquidity Provider"
      },
      "getLpOpenNotional(address)": {
        "notice": "Get the dollar value of the liquidity provided by a liquidity Provider"
      },
      "getLpPosition(address)": {
        "notice": "Get the position of a liquidity provider"
      },
      "getLpPositionAfterWithdrawal(address)": {
        "notice": "Get the (active) position of a liquidity provider after withdrawing liquidity"
      },
      "getLpTradingFees(address)": {
        "notice": "Get the trading fees earned by a LP"
      },
      "getLpUnrealizedPnL(address)": {
        "notice": "Get the unrealized profit and loss of a LP"
      },
      "getPendingPnL(address)": {
        "notice": "Get the Profit and Loss of a user"
      },
      "getTotalLiquidityProvided()": {
        "notice": "Get the market total liquidity provided to the Crypto Swap pool"
      },
      "getTraderFundingPayments(address)": {
        "notice": "Get the approximate funding payments for a trader"
      },
      "getTraderPosition(address)": {
        "notice": "Get the position of a trader"
      },
      "getTraderUnrealizedPnL(address)": {
        "notice": "Get the unrealized profit and loss of a trader"
      },
      "getUserDebt(address)": {
        "notice": "Get the user debt of an user"
      },
      "indexPrice()": {
        "notice": "Return the current off-chain exchange rate for vBase/vQuote"
      },
      "insuranceFee()": {
        "notice": "paid on dollar value of an opened position (used in ClearingHouse)"
      },
      "isLpPositionOpen(address)": {
        "notice": "Whether or not a LP position is opened"
      },
      "isTraderPositionOpen(address)": {
        "notice": "Whether a trader position is opened or not"
      },
      "lockPeriod()": {
        "notice": "time when the liquidity provision has to be locked"
      },
      "lpDebtCoef()": {
        "notice": "lp debt coefficient"
      },
      "market()": {
        "notice": "Curve CryptoSwap pool"
      },
      "marketPrice()": {
        "notice": "Return the last traded price (used for TWAP)"
      },
      "marketTwap()": {
        "notice": "Market Time-weighted average price of base"
      },
      "maxBlockTradeAmount()": {
        "notice": "max trade amount in one block"
      },
      "maxLiquidityProvided()": {
        "notice": "maximum liquidity which can be provided to the pool"
      },
      "maxPosition()": {
        "notice": "max position size (1/10 of maxBlockTradeAmount)"
      },
      "oracleTwap()": {
        "notice": "Oracle Time-weighted average price of base"
      },
      "pause()": {
        "notice": "Pause the contract"
      },
      "provideLiquidity(address,uint256[2],uint256)": {
        "notice": "Provide liquidity to the pool"
      },
      "removeLiquidity(address,uint256,uint256[2],uint256,uint256,bool)": {
        "notice": "Remove liquidity from the pool"
      },
      "removeLiquiditySwap(address,uint256,uint256[2],uint256,uint8,bool)": {
        "notice": "Simulate removing liquidity from the curve pool to increase the slippage         and then performs a single swap on the curve pool. Returns the proceeds from the trade with revert message"
      },
      "riskWeight()": {
        "notice": "risk weight of the perpetual pair"
      },
      "sensitivity()": {
        "notice": "funding rate sensitivity to price deviations"
      },
      "setParameters((uint256,uint256,uint256,int256,uint256,int256,int256,uint256))": {
        "notice": "Update parameters listed in `IPerpetual.PerpetualParams`"
      },
      "settleLp(address)": {
        "notice": "Settle funding payments for a liquidity providerUpdate the cumulative funding rate for the LP and return pending funding payments"
      },
      "settleTrader(address)": {
        "notice": "Settle funding payments for a traderUpdate the cumulative funding rate for the trader and return pending funding payments"
      },
      "twapFrequency()": {
        "notice": "period over which twap is calculated"
      },
      "unpause()": {
        "notice": "Unpause the contract"
      },
      "updateGlobalState()": {
        "notice": "Update the global state of the perpetual market"
      },
      "vBase()": {
        "notice": "vBase token (traded on CryptoSwap pool)"
      },
      "vQuote()": {
        "notice": "vQuote token (traded on CryptoSwap pool)"
      }
    },
    "notice": "Handle all the logic involving the pool. Interact with the CryptoSwap pool",
    "version": 1
  },
  "storageLayout": {
    "storage": [
      {
        "astId": 794,
        "contract": "contracts/Perpetual.sol:Perpetual",
        "label": "_paused",
        "offset": 0,
        "slot": "0",
        "type": "t_bool"
      },
      {
        "astId": 127,
        "contract": "contracts/Perpetual.sol:Perpetual",
        "label": "_roles",
        "offset": 0,
        "slot": "1",
        "type": "t_mapping(t_bytes32,t_struct(RoleData)122_storage)"
      },
      {
        "astId": 11179,
        "contract": "contracts/Perpetual.sol:Perpetual",
        "label": "riskWeight",
        "offset": 0,
        "slot": "2",
        "type": "t_uint256"
      },
      {
        "astId": 11183,
        "contract": "contracts/Perpetual.sol:Perpetual",
        "label": "maxLiquidityProvided",
        "offset": 0,
        "slot": "3",
        "type": "t_uint256"
      },
      {
        "astId": 11187,
        "contract": "contracts/Perpetual.sol:Perpetual",
        "label": "twapFrequency",
        "offset": 0,
        "slot": "4",
        "type": "t_uint256"
      },
      {
        "astId": 11191,
        "contract": "contracts/Perpetual.sol:Perpetual",
        "label": "sensitivity",
        "offset": 0,
        "slot": "5",
        "type": "t_int256"
      },
      {
        "astId": 11195,
        "contract": "contracts/Perpetual.sol:Perpetual",
        "label": "insuranceFee",
        "offset": 0,
        "slot": "6",
        "type": "t_int256"
      },
      {
        "astId": 11199,
        "contract": "contracts/Perpetual.sol:Perpetual",
        "label": "lpDebtCoef",
        "offset": 0,
        "slot": "7",
        "type": "t_int256"
      },
      {
        "astId": 11203,
        "contract": "contracts/Perpetual.sol:Perpetual",
        "label": "maxBlockTradeAmount",
        "offset": 0,
        "slot": "8",
        "type": "t_uint256"
      },
      {
        "astId": 11207,
        "contract": "contracts/Perpetual.sol:Perpetual",
        "label": "maxPosition",
        "offset": 0,
        "slot": "9",
        "type": "t_uint256"
      },
      {
        "astId": 11211,
        "contract": "contracts/Perpetual.sol:Perpetual",
        "label": "lockPeriod",
        "offset": 0,
        "slot": "10",
        "type": "t_uint256"
      },
      {
        "astId": 11216,
        "contract": "contracts/Perpetual.sol:Perpetual",
        "label": "vBase",
        "offset": 0,
        "slot": "11",
        "type": "t_contract(IVBase)18679"
      },
      {
        "astId": 11221,
        "contract": "contracts/Perpetual.sol:Perpetual",
        "label": "vQuote",
        "offset": 0,
        "slot": "12",
        "type": "t_contract(IVQuote)18686"
      },
      {
        "astId": 11226,
        "contract": "contracts/Perpetual.sol:Perpetual",
        "label": "clearingHouse",
        "offset": 0,
        "slot": "13",
        "type": "t_contract(IClearingHouse)16835"
      },
      {
        "astId": 11231,
        "contract": "contracts/Perpetual.sol:Perpetual",
        "label": "market",
        "offset": 0,
        "slot": "14",
        "type": "t_contract(ICryptoSwap)17352"
      },
      {
        "astId": 11236,
        "contract": "contracts/Perpetual.sol:Perpetual",
        "label": "curveCryptoViews",
        "offset": 0,
        "slot": "15",
        "type": "t_contract(ICurveCryptoViews)17473"
      },
      {
        "astId": 11239,
        "contract": "contracts/Perpetual.sol:Perpetual",
        "label": "globalPosition",
        "offset": 0,
        "slot": "16",
        "type": "t_struct(GlobalPosition)19234_storage"
      },
      {
        "astId": 11243,
        "contract": "contracts/Perpetual.sol:Perpetual",
        "label": "oracleTwap",
        "offset": 0,
        "slot": "20",
        "type": "t_int128"
      },
      {
        "astId": 11247,
        "contract": "contracts/Perpetual.sol:Perpetual",
        "label": "marketTwap",
        "offset": 16,
        "slot": "20",
        "type": "t_int128"
      },
      {
        "astId": 11249,
        "contract": "contracts/Perpetual.sol:Perpetual",
        "label": "oracleCumulativeAmount",
        "offset": 0,
        "slot": "21",
        "type": "t_int256"
      },
      {
        "astId": 11251,
        "contract": "contracts/Perpetual.sol:Perpetual",
        "label": "oracleCumulativeAmountAtBeginningOfPeriod",
        "offset": 0,
        "slot": "22",
        "type": "t_int256"
      },
      {
        "astId": 11253,
        "contract": "contracts/Perpetual.sol:Perpetual",
        "label": "marketCumulativeAmount",
        "offset": 0,
        "slot": "23",
        "type": "t_int256"
      },
      {
        "astId": 11255,
        "contract": "contracts/Perpetual.sol:Perpetual",
        "label": "marketCumulativeAmountAtBeginningOfPeriod",
        "offset": 0,
        "slot": "24",
        "type": "t_int256"
      },
      {
        "astId": 11260,
        "contract": "contracts/Perpetual.sol:Perpetual",
        "label": "traderPosition",
        "offset": 0,
        "slot": "25",
        "type": "t_mapping(t_address,t_struct(TraderPosition)19217_storage)"
      },
      {
        "astId": 11265,
        "contract": "contracts/Perpetual.sol:Perpetual",
        "label": "lpPosition",
        "offset": 0,
        "slot": "26",
        "type": "t_mapping(t_address,t_struct(LiquidityProviderPosition)19210_storage)"
      }
    ],
    "types": {
      "t_address": {
        "encoding": "inplace",
        "label": "address",
        "numberOfBytes": "20"
      },
      "t_bool": {
        "encoding": "inplace",
        "label": "bool",
        "numberOfBytes": "1"
      },
      "t_bytes32": {
        "encoding": "inplace",
        "label": "bytes32",
        "numberOfBytes": "32"
      },
      "t_contract(IClearingHouse)16835": {
        "encoding": "inplace",
        "label": "contract IClearingHouse",
        "numberOfBytes": "20"
      },
      "t_contract(ICryptoSwap)17352": {
        "encoding": "inplace",
        "label": "contract ICryptoSwap",
        "numberOfBytes": "20"
      },
      "t_contract(ICurveCryptoViews)17473": {
        "encoding": "inplace",
        "label": "contract ICurveCryptoViews",
        "numberOfBytes": "20"
      },
      "t_contract(IVBase)18679": {
        "encoding": "inplace",
        "label": "contract IVBase",
        "numberOfBytes": "20"
      },
      "t_contract(IVQuote)18686": {
        "encoding": "inplace",
        "label": "contract IVQuote",
        "numberOfBytes": "20"
      },
      "t_int128": {
        "encoding": "inplace",
        "label": "int128",
        "numberOfBytes": "16"
      },
      "t_int256": {
        "encoding": "inplace",
        "label": "int256",
        "numberOfBytes": "32"
      },
      "t_mapping(t_address,t_bool)": {
        "encoding": "mapping",
        "key": "t_address",
        "label": "mapping(address => bool)",
        "numberOfBytes": "32",
        "value": "t_bool"
      },
      "t_mapping(t_address,t_struct(LiquidityProviderPosition)19210_storage)": {
        "encoding": "mapping",
        "key": "t_address",
        "label": "mapping(address => struct LibPerpetual.LiquidityProviderPosition)",
        "numberOfBytes": "32",
        "value": "t_struct(LiquidityProviderPosition)19210_storage"
      },
      "t_mapping(t_address,t_struct(TraderPosition)19217_storage)": {
        "encoding": "mapping",
        "key": "t_address",
        "label": "mapping(address => struct LibPerpetual.TraderPosition)",
        "numberOfBytes": "32",
        "value": "t_struct(TraderPosition)19217_storage"
      },
      "t_mapping(t_bytes32,t_struct(RoleData)122_storage)": {
        "encoding": "mapping",
        "key": "t_bytes32",
        "label": "mapping(bytes32 => struct AccessControl.RoleData)",
        "numberOfBytes": "32",
        "value": "t_struct(RoleData)122_storage"
      },
      "t_struct(GlobalPosition)19234_storage": {
        "encoding": "inplace",
        "label": "struct LibPerpetual.GlobalPosition",
        "members": [
          {
            "astId": 19219,
            "contract": "contracts/Perpetual.sol:Perpetual",
            "label": "timeOfLastTrade",
            "offset": 0,
            "slot": "0",
            "type": "t_uint64"
          },
          {
            "astId": 19221,
            "contract": "contracts/Perpetual.sol:Perpetual",
            "label": "timeOfLastTwapUpdate",
            "offset": 8,
            "slot": "0",
            "type": "t_uint64"
          },
          {
            "astId": 19223,
            "contract": "contracts/Perpetual.sol:Perpetual",
            "label": "cumFundingRate",
            "offset": 16,
            "slot": "0",
            "type": "t_int128"
          },
          {
            "astId": 19225,
            "contract": "contracts/Perpetual.sol:Perpetual",
            "label": "totalQuoteProvided",
            "offset": 0,
            "slot": "1",
            "type": "t_uint256"
          },
          {
            "astId": 19227,
            "contract": "contracts/Perpetual.sol:Perpetual",
            "label": "currentBlockTradeAmount",
            "offset": 0,
            "slot": "2",
            "type": "t_uint128"
          },
          {
            "astId": 19229,
            "contract": "contracts/Perpetual.sol:Perpetual",
            "label": "totalTradingFeesGrowth",
            "offset": 16,
            "slot": "2",
            "type": "t_uint128"
          },
          {
            "astId": 19231,
            "contract": "contracts/Perpetual.sol:Perpetual",
            "label": "totalBaseFeesGrowth",
            "offset": 0,
            "slot": "3",
            "type": "t_uint128"
          },
          {
            "astId": 19233,
            "contract": "contracts/Perpetual.sol:Perpetual",
            "label": "totalQuoteFeesGrowth",
            "offset": 16,
            "slot": "3",
            "type": "t_uint128"
          }
        ],
        "numberOfBytes": "128"
      },
      "t_struct(LiquidityProviderPosition)19210_storage": {
        "encoding": "inplace",
        "label": "struct LibPerpetual.LiquidityProviderPosition",
        "members": [
          {
            "astId": 19195,
            "contract": "contracts/Perpetual.sol:Perpetual",
            "label": "openNotional",
            "offset": 0,
            "slot": "0",
            "type": "t_int128"
          },
          {
            "astId": 19197,
            "contract": "contracts/Perpetual.sol:Perpetual",
            "label": "positionSize",
            "offset": 16,
            "slot": "0",
            "type": "t_int128"
          },
          {
            "astId": 19199,
            "contract": "contracts/Perpetual.sol:Perpetual",
            "label": "cumFundingRate",
            "offset": 0,
            "slot": "1",
            "type": "t_int128"
          },
          {
            "astId": 19201,
            "contract": "contracts/Perpetual.sol:Perpetual",
            "label": "liquidityBalance",
            "offset": 16,
            "slot": "1",
            "type": "t_uint128"
          },
          {
            "astId": 19203,
            "contract": "contracts/Perpetual.sol:Perpetual",
            "label": "depositTime",
            "offset": 0,
            "slot": "2",
            "type": "t_uint64"
          },
          {
            "astId": 19205,
            "contract": "contracts/Perpetual.sol:Perpetual",
            "label": "totalTradingFeesGrowth",
            "offset": 8,
            "slot": "2",
            "type": "t_uint128"
          },
          {
            "astId": 19207,
            "contract": "contracts/Perpetual.sol:Perpetual",
            "label": "totalBaseFeesGrowth",
            "offset": 0,
            "slot": "3",
            "type": "t_uint128"
          },
          {
            "astId": 19209,
            "contract": "contracts/Perpetual.sol:Perpetual",
            "label": "totalQuoteFeesGrowth",
            "offset": 16,
            "slot": "3",
            "type": "t_uint128"
          }
        ],
        "numberOfBytes": "128"
      },
      "t_struct(RoleData)122_storage": {
        "encoding": "inplace",
        "label": "struct AccessControl.RoleData",
        "members": [
          {
            "astId": 119,
            "contract": "contracts/Perpetual.sol:Perpetual",
            "label": "members",
            "offset": 0,
            "slot": "0",
            "type": "t_mapping(t_address,t_bool)"
          },
          {
            "astId": 121,
            "contract": "contracts/Perpetual.sol:Perpetual",
            "label": "adminRole",
            "offset": 0,
            "slot": "1",
            "type": "t_bytes32"
          }
        ],
        "numberOfBytes": "64"
      },
      "t_struct(TraderPosition)19217_storage": {
        "encoding": "inplace",
        "label": "struct LibPerpetual.TraderPosition",
        "members": [
          {
            "astId": 19212,
            "contract": "contracts/Perpetual.sol:Perpetual",
            "label": "openNotional",
            "offset": 0,
            "slot": "0",
            "type": "t_int128"
          },
          {
            "astId": 19214,
            "contract": "contracts/Perpetual.sol:Perpetual",
            "label": "positionSize",
            "offset": 16,
            "slot": "0",
            "type": "t_int128"
          },
          {
            "astId": 19216,
            "contract": "contracts/Perpetual.sol:Perpetual",
            "label": "cumFundingRate",
            "offset": 0,
            "slot": "1",
            "type": "t_int128"
          }
        ],
        "numberOfBytes": "64"
      },
      "t_uint128": {
        "encoding": "inplace",
        "label": "uint128",
        "numberOfBytes": "16"
      },
      "t_uint256": {
        "encoding": "inplace",
        "label": "uint256",
        "numberOfBytes": "32"
      },
      "t_uint64": {
        "encoding": "inplace",
        "label": "uint64",
        "numberOfBytes": "8"
      }
    }
  }
}